{
  "_format": "hh-sol-artifact-1",
  "contractName": "OrderManagement",
  "sourceName": "contracts/OrderManagement.sol",
  "abi": [
    {
      "anonymous": false,
      "inputs": [
        {
          "indexed": false,
          "internalType": "uint256",
          "name": "itemId",
          "type": "uint256"
        },
        {
          "indexed": false,
          "internalType": "address",
          "name": "buyer",
          "type": "address"
        },
        {
          "indexed": false,
          "internalType": "uint256",
          "name": "cost",
          "type": "uint256"
        }
      ],
      "name": "ItemBought",
      "type": "event"
    },
    {
      "anonymous": false,
      "inputs": [
        {
          "indexed": false,
          "internalType": "uint256",
          "name": "orderId",
          "type": "uint256"
        },
        {
          "indexed": false,
          "internalType": "uint256",
          "name": "itemId",
          "type": "uint256"
        }
      ],
      "name": "OrderFulfilled",
      "type": "event"
    },
    {
      "anonymous": false,
      "inputs": [
        {
          "indexed": false,
          "internalType": "uint256",
          "name": "orderId",
          "type": "uint256"
        },
        {
          "indexed": false,
          "internalType": "uint256",
          "name": "itemId",
          "type": "uint256"
        },
        {
          "indexed": false,
          "internalType": "address",
          "name": "buyer",
          "type": "address"
        }
      ],
      "name": "OrderPlaced",
      "type": "event"
    },
    {
      "anonymous": false,
      "inputs": [
        {
          "indexed": false,
          "internalType": "uint256",
          "name": "productId",
          "type": "uint256"
        },
        {
          "indexed": false,
          "internalType": "string",
          "name": "name",
          "type": "string"
        },
        {
          "indexed": false,
          "internalType": "uint256",
          "name": "cost",
          "type": "uint256"
        },
        {
          "indexed": false,
          "internalType": "uint256",
          "name": "stock",
          "type": "uint256"
        }
      ],
      "name": "ProductCreated",
      "type": "event"
    },
    {
      "anonymous": false,
      "inputs": [
        {
          "indexed": false,
          "internalType": "uint256",
          "name": "itemId",
          "type": "uint256"
        },
        {
          "indexed": false,
          "internalType": "uint256",
          "name": "productId",
          "type": "uint256"
        }
      ],
      "name": "ProductDelivered",
      "type": "event"
    },
    {
      "anonymous": false,
      "inputs": [
        {
          "indexed": false,
          "internalType": "uint256",
          "name": "itemId",
          "type": "uint256"
        },
        {
          "indexed": false,
          "internalType": "string",
          "name": "rfidTag",
          "type": "string"
        }
      ],
      "name": "RFIDAssigned",
      "type": "event"
    },
    {
      "anonymous": false,
      "inputs": [
        {
          "indexed": false,
          "internalType": "string",
          "name": "rfidTag",
          "type": "string"
        }
      ],
      "name": "RFIDReleased",
      "type": "event"
    },
    {
      "anonymous": false,
      "inputs": [
        {
          "indexed": false,
          "internalType": "uint256",
          "name": "productId",
          "type": "uint256"
        },
        {
          "indexed": false,
          "internalType": "uint256",
          "name": "stockAdded",
          "type": "uint256"
        }
      ],
      "name": "StockUpdated",
      "type": "event"
    },
    {
      "inputs": [
        {
          "internalType": "uint256",
          "name": "_productId",
          "type": "uint256"
        },
        {
          "internalType": "uint256",
          "name": "_stockToAdd",
          "type": "uint256"
        }
      ],
      "name": "addStock",
      "outputs": [],
      "stateMutability": "nonpayable",
      "type": "function"
    },
    {
      "inputs": [
        {
          "internalType": "uint256",
          "name": "_itemId",
          "type": "uint256"
        },
        {
          "internalType": "string",
          "name": "_rfidTag",
          "type": "string"
        }
      ],
      "name": "assignRFID",
      "outputs": [],
      "stateMutability": "nonpayable",
      "type": "function"
    },
    {
      "inputs": [
        {
          "internalType": "uint256",
          "name": "_itemId",
          "type": "uint256"
        }
      ],
      "name": "buyItem",
      "outputs": [],
      "stateMutability": "payable",
      "type": "function"
    },
    {
      "inputs": [
        {
          "internalType": "address",
          "name": "",
          "type": "address"
        },
        {
          "internalType": "uint256",
          "name": "",
          "type": "uint256"
        }
      ],
      "name": "buyerOrders",
      "outputs": [
        {
          "internalType": "uint256",
          "name": "",
          "type": "uint256"
        }
      ],
      "stateMutability": "view",
      "type": "function"
    },
    {
      "inputs": [
        {
          "internalType": "uint256",
          "name": "_productId",
          "type": "uint256"
        },
        {
          "internalType": "string",
          "name": "_name",
          "type": "string"
        },
        {
          "internalType": "string",
          "name": "_category",
          "type": "string"
        },
        {
          "internalType": "string",
          "name": "_image",
          "type": "string"
        },
        {
          "internalType": "uint256",
          "name": "_cost",
          "type": "uint256"
        },
        {
          "internalType": "uint256",
          "name": "_rating",
          "type": "uint256"
        }
      ],
      "name": "createProduct",
      "outputs": [],
      "stateMutability": "nonpayable",
      "type": "function"
    },
    {
      "inputs": [
        {
          "internalType": "uint256",
          "name": "_orderId",
          "type": "uint256"
        }
      ],
      "name": "fulfillOrder",
      "outputs": [],
      "stateMutability": "nonpayable",
      "type": "function"
    },
    {
      "inputs": [
        {
          "internalType": "uint256",
          "name": "_itemId",
          "type": "uint256"
        }
      ],
      "name": "getItem",
      "outputs": [
        {
          "components": [
            {
              "internalType": "uint256",
              "name": "itemId",
              "type": "uint256"
            },
            {
              "internalType": "uint256",
              "name": "productId",
              "type": "uint256"
            },
            {
              "internalType": "string",
              "name": "rfidTag",
              "type": "string"
            },
            {
              "internalType": "address",
              "name": "currentOwner",
              "type": "address"
            },
            {
              "internalType": "bool",
              "name": "delivered",
              "type": "bool"
            }
          ],
          "internalType": "struct ProductManagement.Item",
          "name": "",
          "type": "tuple"
        }
      ],
      "stateMutability": "view",
      "type": "function"
    },
    {
      "inputs": [
        {
          "internalType": "uint256",
          "name": "_orderId",
          "type": "uint256"
        }
      ],
      "name": "getOrder",
      "outputs": [
        {
          "components": [
            {
              "internalType": "uint256",
              "name": "orderId",
              "type": "uint256"
            },
            {
              "internalType": "uint256",
              "name": "itemId",
              "type": "uint256"
            },
            {
              "internalType": "uint256",
              "name": "timestamp",
              "type": "uint256"
            },
            {
              "internalType": "address",
              "name": "buyer",
              "type": "address"
            },
            {
              "internalType": "bool",
              "name": "fulfilled",
              "type": "bool"
            }
          ],
          "internalType": "struct OrderManagement.Order",
          "name": "",
          "type": "tuple"
        }
      ],
      "stateMutability": "view",
      "type": "function"
    },
    {
      "inputs": [
        {
          "internalType": "address",
          "name": "_buyer",
          "type": "address"
        }
      ],
      "name": "getOrdersByBuyer",
      "outputs": [
        {
          "components": [
            {
              "internalType": "uint256",
              "name": "orderId",
              "type": "uint256"
            },
            {
              "internalType": "uint256",
              "name": "itemId",
              "type": "uint256"
            },
            {
              "internalType": "uint256",
              "name": "timestamp",
              "type": "uint256"
            },
            {
              "internalType": "address",
              "name": "buyer",
              "type": "address"
            },
            {
              "internalType": "bool",
              "name": "fulfilled",
              "type": "bool"
            }
          ],
          "internalType": "struct OrderManagement.Order[]",
          "name": "",
          "type": "tuple[]"
        }
      ],
      "stateMutability": "view",
      "type": "function"
    },
    {
      "inputs": [
        {
          "internalType": "uint256",
          "name": "_productId",
          "type": "uint256"
        }
      ],
      "name": "getProduct",
      "outputs": [
        {
          "components": [
            {
              "internalType": "uint256",
              "name": "productId",
              "type": "uint256"
            },
            {
              "internalType": "string",
              "name": "name",
              "type": "string"
            },
            {
              "internalType": "string",
              "name": "category",
              "type": "string"
            },
            {
              "internalType": "string",
              "name": "image",
              "type": "string"
            },
            {
              "internalType": "uint256",
              "name": "cost",
              "type": "uint256"
            },
            {
              "internalType": "uint256",
              "name": "rating",
              "type": "uint256"
            },
            {
              "internalType": "uint256",
              "name": "stock",
              "type": "uint256"
            }
          ],
          "internalType": "struct ProductManagement.Product",
          "name": "",
          "type": "tuple"
        }
      ],
      "stateMutability": "view",
      "type": "function"
    },
    {
      "inputs": [
        {
          "internalType": "string",
          "name": "_rfidTag",
          "type": "string"
        }
      ],
      "name": "getUndeliveredItemIdByRFID",
      "outputs": [
        {
          "internalType": "uint256",
          "name": "",
          "type": "uint256"
        }
      ],
      "stateMutability": "view",
      "type": "function"
    },
    {
      "inputs": [
        {
          "internalType": "uint256",
          "name": "",
          "type": "uint256"
        }
      ],
      "name": "items",
      "outputs": [
        {
          "internalType": "uint256",
          "name": "itemId",
          "type": "uint256"
        },
        {
          "internalType": "uint256",
          "name": "productId",
          "type": "uint256"
        },
        {
          "internalType": "string",
          "name": "rfidTag",
          "type": "string"
        },
        {
          "internalType": "address",
          "name": "currentOwner",
          "type": "address"
        },
        {
          "internalType": "bool",
          "name": "delivered",
          "type": "bool"
        }
      ],
      "stateMutability": "view",
      "type": "function"
    },
    {
      "inputs": [
        {
          "internalType": "uint256",
          "name": "_itemId",
          "type": "uint256"
        }
      ],
      "name": "markDelivered",
      "outputs": [],
      "stateMutability": "nonpayable",
      "type": "function"
    },
    {
      "inputs": [],
      "name": "nextOrderId",
      "outputs": [
        {
          "internalType": "uint256",
          "name": "",
          "type": "uint256"
        }
      ],
      "stateMutability": "view",
      "type": "function"
    },
    {
      "inputs": [
        {
          "internalType": "uint256",
          "name": "",
          "type": "uint256"
        }
      ],
      "name": "orders",
      "outputs": [
        {
          "internalType": "uint256",
          "name": "orderId",
          "type": "uint256"
        },
        {
          "internalType": "uint256",
          "name": "itemId",
          "type": "uint256"
        },
        {
          "internalType": "uint256",
          "name": "timestamp",
          "type": "uint256"
        },
        {
          "internalType": "address",
          "name": "buyer",
          "type": "address"
        },
        {
          "internalType": "bool",
          "name": "fulfilled",
          "type": "bool"
        }
      ],
      "stateMutability": "view",
      "type": "function"
    },
    {
      "inputs": [],
      "name": "owner",
      "outputs": [
        {
          "internalType": "address",
          "name": "",
          "type": "address"
        }
      ],
      "stateMutability": "view",
      "type": "function"
    },
    {
      "inputs": [
        {
          "internalType": "uint256",
          "name": "_itemId",
          "type": "uint256"
        },
        {
          "internalType": "string",
          "name": "_rfidTag",
          "type": "string"
        }
      ],
      "name": "placeOrder",
      "outputs": [],
      "stateMutability": "payable",
      "type": "function"
    },
    {
      "inputs": [
        {
          "internalType": "uint256",
          "name": "",
          "type": "uint256"
        }
      ],
      "name": "products",
      "outputs": [
        {
          "internalType": "uint256",
          "name": "productId",
          "type": "uint256"
        },
        {
          "internalType": "string",
          "name": "name",
          "type": "string"
        },
        {
          "internalType": "string",
          "name": "category",
          "type": "string"
        },
        {
          "internalType": "string",
          "name": "image",
          "type": "string"
        },
        {
          "internalType": "uint256",
          "name": "cost",
          "type": "uint256"
        },
        {
          "internalType": "uint256",
          "name": "rating",
          "type": "uint256"
        },
        {
          "internalType": "uint256",
          "name": "stock",
          "type": "uint256"
        }
      ],
      "stateMutability": "view",
      "type": "function"
    },
    {
      "inputs": [
        {
          "internalType": "string",
          "name": "_rfidTag",
          "type": "string"
        }
      ],
      "name": "releaseRFID",
      "outputs": [],
      "stateMutability": "nonpayable",
      "type": "function"
    },
    {
      "inputs": [
        {
          "internalType": "string",
          "name": "",
          "type": "string"
        }
      ],
      "name": "rfidToItemId",
      "outputs": [
        {
          "internalType": "uint256",
          "name": "",
          "type": "uint256"
        }
      ],
      "stateMutability": "view",
      "type": "function"
    },
    {
      "inputs": [],
      "name": "withdraw",
      "outputs": [],
      "stateMutability": "nonpayable",
      "type": "function"
    }
  ],
  "bytecode": "0x60806040526001600455348015601457600080fd5b50336000806101000a81548173ffffffffffffffffffffffffffffffffffffffff021916908373ffffffffffffffffffffffffffffffffffffffff160217905550613c72806100646000396000f3fe60806040526004361061012a5760003560e01c80637acc0b20116100ab578063bfb231d21161006f578063bfb231d214610432578063c38cae9f14610473578063d09ef2411461049c578063e7fb74c7146104d9578063eb826a5f146104f5578063fca6195e1461051e5761012a565b80637acc0b201461031d5780637edd19a2146103605780638da5cb5b14610389578063a85c38ef146103b4578063b9db15b4146103f55761012a565b806340c9c870116100f257806340c9c870146102285780634500cb601461025157806348e9339e1461028e5780636311e830146102b757806375211fe5146102e05761012a565b8063136726b61461012f5780632a58b3301461016c5780633129e773146101975780633a875a43146101d45780633ccfd60b14610211575b600080fd5b34801561013b57600080fd5b50610156600480360381019061015191906125f1565b61053a565b6040516101639190612653565b60405180910390f35b34801561017857600080fd5b50610181610568565b60405161018e9190612653565b60405180910390f35b3480156101a357600080fd5b506101be60048036038101906101b9919061269a565b61056e565b6040516101cb9190612827565b60405180910390f35b3480156101e057600080fd5b506101fb60048036038101906101f69190612875565b6106b2565b60405161020891906129b9565b60405180910390f35b34801561021d57600080fd5b506102266108a8565b005b34801561023457600080fd5b5061024f600480360381019061024a91906125f1565b610a06565b005b34801561025d57600080fd5b50610278600480360381019061027391906129db565b610be3565b6040516102859190612653565b60405180910390f35b34801561029a57600080fd5b506102b560048036038101906102b09190612a1b565b610c14565b005b3480156102c357600080fd5b506102de60048036038101906102d9919061269a565b610dfa565b005b3480156102ec57600080fd5b50610307600480360381019061030291906125f1565b611061565b6040516103149190612653565b60405180910390f35b34801561032957600080fd5b50610344600480360381019061033f919061269a565b61113b565b6040516103579796959493929190612b46565b60405180910390f35b34801561036c57600080fd5b5061038760048036038101906103829190612bca565b611315565b005b34801561039557600080fd5b5061039e6115e1565b6040516103ab9190612c19565b60405180910390f35b3480156103c057600080fd5b506103db60048036038101906103d6919061269a565b611605565b6040516103ec959493929190612c43565b60405180910390f35b34801561040157600080fd5b5061041c6004803603810190610417919061269a565b611668565b6040516104299190612d40565b60405180910390f35b34801561043e57600080fd5b506104596004803603810190610454919061269a565b611873565b60405161046a959493929190612d62565b60405180910390f35b34801561047f57600080fd5b5061049a60048036038101906104959190612dbc565b61195e565b005b3480156104a857600080fd5b506104c360048036038101906104be919061269a565b611b73565b6040516104d09190612e80565b60405180910390f35b6104f360048036038101906104ee919061269a565b611c2f565b005b34801561050157600080fd5b5061051c6004803603810190610517919061269a565b611de4565b005b61053860048036038101906105339190612dbc565b611fa3565b005b6003818051602081018201805184825260208301602085012081835280955050505050506000915090505481565b60045481565b6105766123cc565b600260008381526020019081526020016000206040518060a001604052908160008201548152602001600182015481526020016002820180546105b890612eca565b80601f01602080910402602001604051908101604052809291908181526020018280546105e490612eca565b80156106315780601f1061060657610100808354040283529160200191610631565b820191906000526020600020905b81548152906001019060200180831161061457829003601f168201915b505050505081526020016003820160009054906101000a900473ffffffffffffffffffffffffffffffffffffffff1673ffffffffffffffffffffffffffffffffffffffff1673ffffffffffffffffffffffffffffffffffffffff1681526020016003820160149054906101000a900460ff1615151515815250509050919050565b60606000600660008473ffffffffffffffffffffffffffffffffffffffff1673ffffffffffffffffffffffffffffffffffffffff16815260200190815260200160002080548060200260200160405190810160405280929190818152602001828054801561073f57602002820191906000526020600020905b81548152602001906001019080831161072b575b505050505090506000815167ffffffffffffffff811115610763576107626124c6565b5b60405190808252806020026020018201604052801561079c57816020015b610789612413565b8152602001906001900390816107815790505b50905060005b825181101561089d57600560008483815181106107c2576107c1612efb565b5b602002602001015181526020019081526020016000206040518060a00160405290816000820154815260200160018201548152602001600282015481526020016003820160009054906101000a900473ffffffffffffffffffffffffffffffffffffffff1673ffffffffffffffffffffffffffffffffffffffff1673ffffffffffffffffffffffffffffffffffffffff1681526020016003820160149054906101000a900460ff16151515158152505082828151811061088557610884612efb565b5b602002602001018190525080806001019150506107a2565b508092505050919050565b60008054906101000a900473ffffffffffffffffffffffffffffffffffffffff1673ffffffffffffffffffffffffffffffffffffffff163373ffffffffffffffffffffffffffffffffffffffff1614610936576040517f08c379a000000000000000000000000000000000000000000000000000000000815260040161092d90612f76565b60405180910390fd5b60008060009054906101000a900473ffffffffffffffffffffffffffffffffffffffff1673ffffffffffffffffffffffffffffffffffffffff164760405161097d90612fc7565b60006040518083038185875af1925050503d80600081146109ba576040519150601f19603f3d011682016040523d82523d6000602084013e6109bf565b606091505b5050905080610a03576040517f08c379a00000000000000000000000000000000000000000000000000000000081526004016109fa90613028565b60405180910390fd5b50565b60008054906101000a900473ffffffffffffffffffffffffffffffffffffffff1673ffffffffffffffffffffffffffffffffffffffff163373ffffffffffffffffffffffffffffffffffffffff1614610a94576040517f08c379a0000000000000000000000000000000000000000000000000000000008152600401610a8b90612f76565b60405180910390fd5b6000600382604051610aa69190613084565b908152602001604051809103902054905060008103610afa576040517f08c379a0000000000000000000000000000000000000000000000000000000008152600401610af19061310d565b60405180910390fd5b60006002600083815260200190815260200160002090508060030160149054906101000a900460ff16610b62576040517f08c379a0000000000000000000000000000000000000000000000000000000008152600401610b5990613179565b60405180910390fd5b60405180602001604052806000815250816002019081610b829190613345565b506000600384604051610b959190613084565b9081526020016040518091039020819055507fb678c65d8fdb784b80cde63f565d4fdf781de948e8ad5aa6215a05fe2c624edf83604051610bd69190613417565b60405180910390a1505050565b60066020528160005260406000208181548110610bff57600080fd5b90600052602060002001600091509150505481565b60008054906101000a900473ffffffffffffffffffffffffffffffffffffffff1673ffffffffffffffffffffffffffffffffffffffff163373ffffffffffffffffffffffffffffffffffffffff1614610ca2576040517f08c379a0000000000000000000000000000000000000000000000000000000008152600401610c9990612f76565b60405180910390fd5b85600160008881526020019081526020016000206000015403610cfa576040517f08c379a0000000000000000000000000000000000000000000000000000000008152600401610cf190613485565b60405180910390fd5b60006040518060e00160405280888152602001878152602001868152602001858152602001848152602001838152602001600081525090508060016000898152602001908152602001600020600082015181600001556020820151816001019081610d659190613345565b506040820151816002019081610d7b9190613345565b506060820151816003019081610d919190613345565b506080820151816004015560a0820151816005015560c082015181600601559050507f8d3d82130aebba03bb48b5d158bc2bbb4647856765b1089e7250507307965af98787856000604051610de994939291906134e0565b60405180910390a150505050505050565b60008054906101000a900473ffffffffffffffffffffffffffffffffffffffff1673ffffffffffffffffffffffffffffffffffffffff163373ffffffffffffffffffffffffffffffffffffffff1614610e88576040517f08c379a0000000000000000000000000000000000000000000000000000000008152600401610e7f90612f76565b60405180910390fd5b600060056000838152602001908152602001600020905081816000015414610ee5576040517f08c379a0000000000000000000000000000000000000000000000000000000008152600401610edc90613578565b60405180910390fd5b8060030160149054906101000a900460ff1615610f37576040517f08c379a0000000000000000000000000000000000000000000000000000000008152600401610f2e906135e4565b60405180910390fd5b6000600260008360010154815260200190815260200160002090508060030160149054906101000a900460ff1615610fa4576040517f08c379a0000000000000000000000000000000000000000000000000000000008152600401610f9b90613650565b60405180910390fd5b60018160030160146101000a81548160ff02191690831515021790555060018260030160146101000a81548160ff0219169083151502179055507feb3b41be12efa25c0c65725eeff2e2ad0250e2e5de2aa939e18f36aa656e9880838360010154604051611013929190613670565b60405180910390a17f26b22e11bb82e495373f9064c9f1db3c19dd810594822900684274cfd7f7a95582600101548260010154604051611054929190613670565b60405180910390a1505050565b6000806003836040516110749190613084565b9081526020016040518091039020549050600081036110c8576040517f08c379a00000000000000000000000000000000000000000000000000000000081526004016110bf9061370b565b60405180910390fd5b60006002600083815260200190815260200160002090508060030160149054906101000a900460ff1615611131576040517f08c379a000000000000000000000000000000000000000000000000000000000815260040161112890613650565b60405180910390fd5b8192505050919050565b600160205280600052604060002060009150905080600001549080600101805461116490612eca565b80601f016020809104026020016040519081016040528092919081815260200182805461119090612eca565b80156111dd5780601f106111b2576101008083540402835291602001916111dd565b820191906000526020600020905b8154815290600101906020018083116111c057829003601f168201915b5050505050908060020180546111f290612eca565b80601f016020809104026020016040519081016040528092919081815260200182805461121e90612eca565b801561126b5780601f106112405761010080835404028352916020019161126b565b820191906000526020600020905b81548152906001019060200180831161124e57829003601f168201915b50505050509080600301805461128090612eca565b80601f01602080910402602001604051908101604052809291908181526020018280546112ac90612eca565b80156112f95780601f106112ce576101008083540402835291602001916112f9565b820191906000526020600020905b8154815290600101906020018083116112dc57829003601f168201915b5050505050908060040154908060050154908060060154905087565b60008054906101000a900473ffffffffffffffffffffffffffffffffffffffff1673ffffffffffffffffffffffffffffffffffffffff163373ffffffffffffffffffffffffffffffffffffffff16146113a3576040517f08c379a000000000000000000000000000000000000000000000000000000000815260040161139a90612f76565b60405180910390fd5b816001600084815260200190815260200160002060000154146113fb576040517f08c379a00000000000000000000000000000000000000000000000000000000081526004016113f290613777565b60405180910390fd5b600060016000848152602001908152602001600020905060008160060154905060005b838110156115a15760004286838561143691906137c6565b6040516020016114489392919061381b565b6040516020818303038152906040528051906020012060001c90506040518060a0016040528082815260200187815260200160405180602001604052806000815250815260200160008054906101000a900473ffffffffffffffffffffffffffffffffffffffff1673ffffffffffffffffffffffffffffffffffffffff16815260200160001515815250600260008381526020019081526020016000206000820151816000015560208201518160010155604082015181600201908161150e9190613345565b5060608201518160030160006101000a81548173ffffffffffffffffffffffffffffffffffffffff021916908373ffffffffffffffffffffffffffffffffffffffff16021790555060808201518160030160146101000a81548160ff02191690831515021790555090505083600601600081548092919061158e90613858565b919050555050808060010191505061141e565b507febcfd4ce21b6aefd071d3e0f4bfa57e491b5308a1ffb5a3a8e4805e23f00b8d784846040516115d3929190613670565b60405180910390a150505050565b60008054906101000a900473ffffffffffffffffffffffffffffffffffffffff1681565b60056020528060005260406000206000915090508060000154908060010154908060020154908060030160009054906101000a900473ffffffffffffffffffffffffffffffffffffffff16908060030160149054906101000a900460ff16905085565b61167061245a565b600160008381526020019081526020016000206040518060e0016040529081600082015481526020016001820180546116a890612eca565b80601f01602080910402602001604051908101604052809291908181526020018280546116d490612eca565b80156117215780601f106116f657610100808354040283529160200191611721565b820191906000526020600020905b81548152906001019060200180831161170457829003601f168201915b5050505050815260200160028201805461173a90612eca565b80601f016020809104026020016040519081016040528092919081815260200182805461176690612eca565b80156117b35780601f10611788576101008083540402835291602001916117b3565b820191906000526020600020905b81548152906001019060200180831161179657829003601f168201915b505050505081526020016003820180546117cc90612eca565b80601f01602080910402602001604051908101604052809291908181526020018280546117f890612eca565b80156118455780601f1061181a57610100808354040283529160200191611845565b820191906000526020600020905b81548152906001019060200180831161182857829003601f168201915b5050505050815260200160048201548152602001600582015481526020016006820154815250509050919050565b60026020528060005260406000206000915090508060000154908060010154908060020180546118a290612eca565b80601f01602080910402602001604051908101604052809291908181526020018280546118ce90612eca565b801561191b5780601f106118f05761010080835404028352916020019161191b565b820191906000526020600020905b8154815290600101906020018083116118fe57829003601f168201915b5050505050908060030160009054906101000a900473ffffffffffffffffffffffffffffffffffffffff16908060030160149054906101000a900460ff16905085565b60008054906101000a900473ffffffffffffffffffffffffffffffffffffffff1673ffffffffffffffffffffffffffffffffffffffff163373ffffffffffffffffffffffffffffffffffffffff16146119ec576040517f08c379a00000000000000000000000000000000000000000000000000000000081526004016119e390612f76565b60405180910390fd5b81600260008481526020019081526020016000206000015414611a44576040517f08c379a0000000000000000000000000000000000000000000000000000000008152600401611a3b906138ec565b60405180910390fd5b6000815111611a88576040517f08c379a0000000000000000000000000000000000000000000000000000000008152600401611a7f90613958565b60405180910390fd5b6000600382604051611a9a9190613084565b90815260200160405180910390205414611ae9576040517f08c379a0000000000000000000000000000000000000000000000000000000008152600401611ae0906139ea565b60405180910390fd5b600060026000848152602001908152602001600020905081816002019081611b119190613345565b5082600383604051611b239190613084565b9081526020016040518091039020819055507f455dcb05772163fb704eb1fb314e6f1a9513db7a4f61f49d0767a3f0de77e3228383604051611b66929190613a0a565b60405180910390a1505050565b611b7b612413565b600560008381526020019081526020016000206040518060a00160405290816000820154815260200160018201548152602001600282015481526020016003820160009054906101000a900473ffffffffffffffffffffffffffffffffffffffff1673ffffffffffffffffffffffffffffffffffffffff1673ffffffffffffffffffffffffffffffffffffffff1681526020016003820160149054906101000a900460ff1615151515815250509050919050565b600060026000838152602001908152602001600020905060006001600083600101548152602001908152602001600020905082826000015414611ca7576040517f08c379a0000000000000000000000000000000000000000000000000000000008152600401611c9e906138ec565b60405180910390fd5b8160030160149054906101000a900460ff1615611cf9576040517f08c379a0000000000000000000000000000000000000000000000000000000008152600401611cf090613650565b60405180910390fd5b8060040154341015611d40576040517f08c379a0000000000000000000000000000000000000000000000000000000008152600401611d3790613a86565b60405180910390fd5b338260030160006101000a81548173ffffffffffffffffffffffffffffffffffffffff021916908373ffffffffffffffffffffffffffffffffffffffff16021790555060008260030160146101000a81548160ff0219169083151502179055507fd73457218f6ab2c74e548247b8ccd99af11d7975e2beef89a0cd9743fb558da483338360040154604051611dd793929190613aa6565b60405180910390a1505050565b60008054906101000a900473ffffffffffffffffffffffffffffffffffffffff1673ffffffffffffffffffffffffffffffffffffffff163373ffffffffffffffffffffffffffffffffffffffff1614611e72576040517f08c379a0000000000000000000000000000000000000000000000000000000008152600401611e6990612f76565b60405180910390fd5b80600260008381526020019081526020016000206000015414611eca576040517f08c379a0000000000000000000000000000000000000000000000000000000008152600401611ec1906138ec565b60405180910390fd5b6002600082815260200190815260200160002060030160149054906101000a900460ff1615611f2e576040517f08c379a0000000000000000000000000000000000000000000000000000000008152600401611f2590613650565b60405180910390fd5b600060026000838152602001908152602001600020905060018160030160146101000a81548160ff0219169083151502179055507f26b22e11bb82e495373f9064c9f1db3c19dd810594822900684274cfd7f7a955828260010154604051611f97929190613670565b60405180910390a15050565b600060026000848152602001908152602001600020905082816000015414612000576040517f08c379a0000000000000000000000000000000000000000000000000000000008152600401611ff7906138ec565b60405180910390fd5b8060030160149054906101000a900460ff1615612052576040517f08c379a000000000000000000000000000000000000000000000000000000000815260040161204990613650565b60405180910390fd5b6001600082600101548152602001908152602001600020600401543410156120af576040517f08c379a00000000000000000000000000000000000000000000000000000000081526004016120a690613a86565b60405180910390fd5b60006003836040516120c19190613084565b9081526020016040518091039020549050600081146121445760006002600083815260200190815260200160002090508060030160149054906101000a900460ff16612142576040517f08c379a000000000000000000000000000000000000000000000000000000000815260040161213990613b4f565b60405180910390fd5b505b828260020190816121559190613345565b50836003846040516121679190613084565b90815260200160405180910390208190555060004233866004546040516020016121949493929190613bb7565b6040516020818303038152906040528051906020012060001c905060006040518060a001604052808381526020018781526020014281526020013373ffffffffffffffffffffffffffffffffffffffff168152602001600015158152509050806005600084815260200190815260200160002060008201518160000155602082015181600101556040820151816002015560608201518160030160006101000a81548173ffffffffffffffffffffffffffffffffffffffff021916908373ffffffffffffffffffffffffffffffffffffffff16021790555060808201518160030160146101000a81548160ff021916908315150217905550905050600660003373ffffffffffffffffffffffffffffffffffffffff1673ffffffffffffffffffffffffffffffffffffffff168152602001908152602001600020829080600181540180825580915050600190039060005260206000200160009091909190915055338460030160006101000a81548173ffffffffffffffffffffffffffffffffffffffff021916908373ffffffffffffffffffffffffffffffffffffffff1602179055506004600081548092919061234b90613858565b91905055507f455dcb05772163fb704eb1fb314e6f1a9513db7a4f61f49d0767a3f0de77e3228686604051612381929190613a0a565b60405180910390a17ff4ae361d67df8ff151337122b70e54414e64545e71dd154d79408677451fd8748287336040516123bc93929190613c05565b60405180910390a1505050505050565b6040518060a00160405280600081526020016000815260200160608152602001600073ffffffffffffffffffffffffffffffffffffffff1681526020016000151581525090565b6040518060a00160405280600081526020016000815260200160008152602001600073ffffffffffffffffffffffffffffffffffffffff1681526020016000151581525090565b6040518060e00160405280600081526020016060815260200160608152602001606081526020016000815260200160008152602001600081525090565b6000604051905090565b600080fd5b600080fd5b600080fd5b600080fd5b6000601f19601f8301169050919050565b7f4e487b7100000000000000000000000000000000000000000000000000000000600052604160045260246000fd5b6124fe826124b5565b810181811067ffffffffffffffff8211171561251d5761251c6124c6565b5b80604052505050565b6000612530612497565b905061253c82826124f5565b919050565b600067ffffffffffffffff82111561255c5761255b6124c6565b5b612565826124b5565b9050602081019050919050565b82818337600083830152505050565b600061259461258f84612541565b612526565b9050828152602081018484840111156125b0576125af6124b0565b5b6125bb848285612572565b509392505050565b600082601f8301126125d8576125d76124ab565b5b81356125e8848260208601612581565b91505092915050565b600060208284031215612607576126066124a1565b5b600082013567ffffffffffffffff811115612625576126246124a6565b5b612631848285016125c3565b91505092915050565b6000819050919050565b61264d8161263a565b82525050565b60006020820190506126686000830184612644565b92915050565b6126778161263a565b811461268257600080fd5b50565b6000813590506126948161266e565b92915050565b6000602082840312156126b0576126af6124a1565b5b60006126be84828501612685565b91505092915050565b6126d08161263a565b82525050565b600081519050919050565b600082825260208201905092915050565b60005b838110156127105780820151818401526020810190506126f5565b60008484015250505050565b6000612727826126d6565b61273181856126e1565b93506127418185602086016126f2565b61274a816124b5565b840191505092915050565b600073ffffffffffffffffffffffffffffffffffffffff82169050919050565b600061278082612755565b9050919050565b61279081612775565b82525050565b60008115159050919050565b6127ab81612796565b82525050565b600060a0830160008301516127c960008601826126c7565b5060208301516127dc60208601826126c7565b50604083015184820360408601526127f4828261271c565b91505060608301516128096060860182612787565b50608083015161281c60808601826127a2565b508091505092915050565b6000602082019050818103600083015261284181846127b1565b905092915050565b61285281612775565b811461285d57600080fd5b50565b60008135905061286f81612849565b92915050565b60006020828403121561288b5761288a6124a1565b5b600061289984828501612860565b91505092915050565b600081519050919050565b600082825260208201905092915050565b6000819050602082019050919050565b60a0820160008201516128e460008501826126c7565b5060208201516128f760208501826126c7565b50604082015161290a60408501826126c7565b50606082015161291d6060850182612787565b50608082015161293060808501826127a2565b50505050565b600061294283836128ce565b60a08301905092915050565b6000602082019050919050565b6000612966826128a2565b61297081856128ad565b935061297b836128be565b8060005b838110156129ac5781516129938882612936565b975061299e8361294e565b92505060018101905061297f565b5085935050505092915050565b600060208201905081810360008301526129d3818461295b565b905092915050565b600080604083850312156129f2576129f16124a1565b5b6000612a0085828601612860565b9250506020612a1185828601612685565b9150509250929050565b60008060008060008060c08789031215612a3857612a376124a1565b5b6000612a4689828a01612685565b965050602087013567ffffffffffffffff811115612a6757612a666124a6565b5b612a7389828a016125c3565b955050604087013567ffffffffffffffff811115612a9457612a936124a6565b5b612aa089828a016125c3565b945050606087013567ffffffffffffffff811115612ac157612ac06124a6565b5b612acd89828a016125c3565b9350506080612ade89828a01612685565b92505060a0612aef89828a01612685565b9150509295509295509295565b600082825260208201905092915050565b6000612b18826126d6565b612b228185612afc565b9350612b328185602086016126f2565b612b3b816124b5565b840191505092915050565b600060e082019050612b5b600083018a612644565b8181036020830152612b6d8189612b0d565b90508181036040830152612b818188612b0d565b90508181036060830152612b958187612b0d565b9050612ba46080830186612644565b612bb160a0830185612644565b612bbe60c0830184612644565b98975050505050505050565b60008060408385031215612be157612be06124a1565b5b6000612bef85828601612685565b9250506020612c0085828601612685565b9150509250929050565b612c1381612775565b82525050565b6000602082019050612c2e6000830184612c0a565b92915050565b612c3d81612796565b82525050565b600060a082019050612c586000830188612644565b612c656020830187612644565b612c726040830186612644565b612c7f6060830185612c0a565b612c8c6080830184612c34565b9695505050505050565b600060e083016000830151612cae60008601826126c7565b5060208301518482036020860152612cc6828261271c565b91505060408301518482036040860152612ce0828261271c565b91505060608301518482036060860152612cfa828261271c565b9150506080830151612d0f60808601826126c7565b5060a0830151612d2260a08601826126c7565b5060c0830151612d3560c08601826126c7565b508091505092915050565b60006020820190508181036000830152612d5a8184612c96565b905092915050565b600060a082019050612d776000830188612644565b612d846020830187612644565b8181036040830152612d968186612b0d565b9050612da56060830185612c0a565b612db26080830184612c34565b9695505050505050565b60008060408385031215612dd357612dd26124a1565b5b6000612de185828601612685565b925050602083013567ffffffffffffffff811115612e0257612e016124a6565b5b612e0e858286016125c3565b9150509250929050565b60a082016000820151612e2e60008501826126c7565b506020820151612e4160208501826126c7565b506040820151612e5460408501826126c7565b506060820151612e676060850182612787565b506080820151612e7a60808501826127a2565b50505050565b600060a082019050612e956000830184612e18565b92915050565b7f4e487b7100000000000000000000000000000000000000000000000000000000600052602260045260246000fd5b60006002820490506001821680612ee257607f821691505b602082108103612ef557612ef4612e9b565b5b50919050565b7f4e487b7100000000000000000000000000000000000000000000000000000000600052603260045260246000fd5b7f4e6f7420617574686f72697a6564000000000000000000000000000000000000600082015250565b6000612f60600e83612afc565b9150612f6b82612f2a565b602082019050919050565b60006020820190508181036000830152612f8f81612f53565b9050919050565b600081905092915050565b50565b6000612fb1600083612f96565b9150612fbc82612fa1565b600082019050919050565b6000612fd282612fa4565b9150819050919050565b7f5769746864726177616c206661696c6564000000000000000000000000000000600082015250565b6000613012601183612afc565b915061301d82612fdc565b602082019050919050565b6000602082019050818103600083015261304181613005565b9050919050565b600081905092915050565b600061305e826126d6565b6130688185613048565b93506130788185602086016126f2565b80840191505092915050565b60006130908284613053565b915081905092915050565b7f5246494420746167206e6f74206173736f636961746564207769746820616e7960008201527f206974656d000000000000000000000000000000000000000000000000000000602082015250565b60006130f7602583612afc565b91506131028261309b565b604082019050919050565b60006020820190508181036000830152613126816130ea565b9050919050565b7f4974656d206e6f74207965742064656c69766572656400000000000000000000600082015250565b6000613163601683612afc565b915061316e8261312d565b602082019050919050565b6000602082019050818103600083015261319281613156565b9050919050565b60008190508160005260206000209050919050565b60006020601f8301049050919050565b600082821b905092915050565b6000600883026131fb7fffffffffffffffffffffffffffffffffffffffffffffffffffffffffffffffff826131be565b61320586836131be565b95508019841693508086168417925050509392505050565b6000819050919050565b600061324261323d6132388461263a565b61321d565b61263a565b9050919050565b6000819050919050565b61325c83613227565b61327061326882613249565b8484546131cb565b825550505050565b600090565b613285613278565b613290818484613253565b505050565b5b818110156132b4576132a960008261327d565b600181019050613296565b5050565b601f8211156132f9576132ca81613199565b6132d3846131ae565b810160208510156132e2578190505b6132f66132ee856131ae565b830182613295565b50505b505050565b600082821c905092915050565b600061331c600019846008026132fe565b1980831691505092915050565b6000613335838361330b565b9150826002028217905092915050565b61334e826126d6565b67ffffffffffffffff811115613367576133666124c6565b5b6133718254612eca565b61337c8282856132b8565b600060209050601f8311600181146133af576000841561339d578287015190505b6133a78582613329565b86555061340f565b601f1984166133bd86613199565b60005b828110156133e5578489015182556001820191506020850194506020810190506133c0565b8683101561340257848901516133fe601f89168261330b565b8355505b6001600288020188555050505b505050505050565b600060208201905081810360008301526134318184612b0d565b905092915050565b7f50726f6475637420494420616c72656164792065786973747300000000000000600082015250565b600061346f601983612afc565b915061347a82613439565b602082019050919050565b6000602082019050818103600083015261349e81613462565b9050919050565b6000819050919050565b60006134ca6134c56134c0846134a5565b61321d565b61263a565b9050919050565b6134da816134af565b82525050565b60006080820190506134f56000830187612644565b81810360208301526135078186612b0d565b90506135166040830185612644565b61352360608301846134d1565b95945050505050565b7f4f7264657220646f6573206e6f74206578697374000000000000000000000000600082015250565b6000613562601483612afc565b915061356d8261352c565b602082019050919050565b6000602082019050818103600083015261359181613555565b9050919050565b7f4f7264657220616c72656164792066756c66696c6c6564000000000000000000600082015250565b60006135ce601783612afc565b91506135d982613598565b602082019050919050565b600060208201905081810360008301526135fd816135c1565b9050919050565b7f4974656d20616c72656164792064656c69766572656400000000000000000000600082015250565b600061363a601683612afc565b915061364582613604565b602082019050919050565b600060208201905081810360008301526136698161362d565b9050919050565b60006040820190506136856000830185612644565b6136926020830184612644565b9392505050565b7f52464944206e6f74206173736f636961746564207769746820616e792069746560008201527f6d00000000000000000000000000000000000000000000000000000000000000602082015250565b60006136f5602183612afc565b915061370082613699565b604082019050919050565b60006020820190508181036000830152613724816136e8565b9050919050565b7f50726f6475637420646f6573206e6f7420657869737400000000000000000000600082015250565b6000613761601683612afc565b915061376c8261372b565b602082019050919050565b6000602082019050818103600083015261379081613754565b9050919050565b7f4e487b7100000000000000000000000000000000000000000000000000000000600052601160045260246000fd5b60006137d18261263a565b91506137dc8361263a565b92508282019050808211156137f4576137f3613797565b5b92915050565b6000819050919050565b6138156138108261263a565b6137fa565b82525050565b60006138278286613804565b6020820191506138378285613804565b6020820191506138478284613804565b602082019150819050949350505050565b60006138638261263a565b91507fffffffffffffffffffffffffffffffffffffffffffffffffffffffffffffffff820361389557613894613797565b5b600182019050919050565b7f4974656d20646f6573206e6f7420657869737400000000000000000000000000600082015250565b60006138d6601383612afc565b91506138e1826138a0565b602082019050919050565b60006020820190508181036000830152613905816138c9565b9050919050565b7f496e76616c696420524649442074616700000000000000000000000000000000600082015250565b6000613942601083612afc565b915061394d8261390c565b602082019050919050565b6000602082019050818103600083015261397181613935565b9050919050565b7f524649442074616720616c72656164792061737369676e656420746f20616e6f60008201527f74686572206974656d0000000000000000000000000000000000000000000000602082015250565b60006139d4602983612afc565b91506139df82613978565b604082019050919050565b60006020820190508181036000830152613a03816139c7565b9050919050565b6000604082019050613a1f6000830185612644565b8181036020830152613a318184612b0d565b90509392505050565b7f496e73756666696369656e742066756e64730000000000000000000000000000600082015250565b6000613a70601283612afc565b9150613a7b82613a3a565b602082019050919050565b60006020820190508181036000830152613a9f81613a63565b9050919050565b6000606082019050613abb6000830186612644565b613ac86020830185612c0a565b613ad56040830184612644565b949350505050565b7f5246494420616c726561647920696e2075736520666f7220616e6f746865722060008201527f756e64656c697665726564206974656d00000000000000000000000000000000602082015250565b6000613b39603083612afc565b9150613b4482613add565b604082019050919050565b60006020820190508181036000830152613b6881613b2c565b9050919050565b60008160601b9050919050565b6000613b8782613b6f565b9050919050565b6000613b9982613b7c565b9050919050565b613bb1613bac82612775565b613b8e565b82525050565b6000613bc38287613804565b602082019150613bd38286613ba0565b601482019150613be38285613804565b602082019150613bf38284613804565b60208201915081905095945050505050565b6000606082019050613c1a6000830186612644565b613c276020830185612644565b613c346040830184612c0a565b94935050505056fea2646970667358221220e54c466ea8b860f0342e57bf7a07c2005080add4fb4f40ddcd8337fe79d2eb1664736f6c634300081b0033",
  "linkReferences": {},
  "deployedLinkReferences": {}
}