{
  "_format": "hh-sol-artifact-1",
  "contractName": "OrderManagement",
  "sourceName": "contracts/OrderManagement.sol",
  "abi": [
    {
      "anonymous": false,
      "inputs": [
        {
          "indexed": false,
          "internalType": "uint256",
          "name": "id",
          "type": "uint256"
        },
        {
          "indexed": false,
          "internalType": "string",
          "name": "name",
          "type": "string"
        },
        {
          "indexed": false,
          "internalType": "uint256",
          "name": "cost",
          "type": "uint256"
        },
        {
          "indexed": false,
          "internalType": "uint256",
          "name": "stock",
          "type": "uint256"
        }
      ],
      "name": "ItemListed",
      "type": "event"
    },
    {
      "anonymous": false,
      "inputs": [
        {
          "indexed": false,
          "internalType": "uint256",
          "name": "id",
          "type": "uint256"
        },
        {
          "indexed": false,
          "internalType": "uint256",
          "name": "stock",
          "type": "uint256"
        }
      ],
      "name": "ItemUpdated",
      "type": "event"
    },
    {
      "anonymous": false,
      "inputs": [
        {
          "indexed": true,
          "internalType": "address",
          "name": "buyer",
          "type": "address"
        },
        {
          "indexed": false,
          "internalType": "uint256",
          "name": "orderId",
          "type": "uint256"
        },
        {
          "indexed": false,
          "internalType": "uint256",
          "name": "itemId",
          "type": "uint256"
        }
      ],
      "name": "OrderPlaced",
      "type": "event"
    },
    {
      "inputs": [
        {
          "internalType": "uint256",
          "name": "_id",
          "type": "uint256"
        }
      ],
      "name": "buyItem",
      "outputs": [],
      "stateMutability": "payable",
      "type": "function"
    },
    {
      "inputs": [
        {
          "internalType": "uint256",
          "name": "_id",
          "type": "uint256"
        }
      ],
      "name": "getItem",
      "outputs": [
        {
          "components": [
            {
              "internalType": "uint256",
              "name": "id",
              "type": "uint256"
            },
            {
              "internalType": "string",
              "name": "name",
              "type": "string"
            },
            {
              "internalType": "string",
              "name": "category",
              "type": "string"
            },
            {
              "internalType": "string",
              "name": "image",
              "type": "string"
            },
            {
              "internalType": "uint256",
              "name": "cost",
              "type": "uint256"
            },
            {
              "internalType": "uint256",
              "name": "rating",
              "type": "uint256"
            },
            {
              "internalType": "uint256",
              "name": "stock",
              "type": "uint256"
            },
            {
              "internalType": "string",
              "name": "rfidTag",
              "type": "string"
            }
          ],
          "internalType": "struct ProductManagement.Item",
          "name": "",
          "type": "tuple"
        }
      ],
      "stateMutability": "view",
      "type": "function"
    },
    {
      "inputs": [
        {
          "internalType": "uint256",
          "name": "",
          "type": "uint256"
        }
      ],
      "name": "items",
      "outputs": [
        {
          "internalType": "uint256",
          "name": "id",
          "type": "uint256"
        },
        {
          "internalType": "string",
          "name": "name",
          "type": "string"
        },
        {
          "internalType": "string",
          "name": "category",
          "type": "string"
        },
        {
          "internalType": "string",
          "name": "image",
          "type": "string"
        },
        {
          "internalType": "uint256",
          "name": "cost",
          "type": "uint256"
        },
        {
          "internalType": "uint256",
          "name": "rating",
          "type": "uint256"
        },
        {
          "internalType": "uint256",
          "name": "stock",
          "type": "uint256"
        },
        {
          "internalType": "string",
          "name": "rfidTag",
          "type": "string"
        }
      ],
      "stateMutability": "view",
      "type": "function"
    },
    {
      "inputs": [
        {
          "internalType": "uint256",
          "name": "_id",
          "type": "uint256"
        },
        {
          "internalType": "string",
          "name": "_name",
          "type": "string"
        },
        {
          "internalType": "string",
          "name": "_category",
          "type": "string"
        },
        {
          "internalType": "string",
          "name": "_image",
          "type": "string"
        },
        {
          "internalType": "uint256",
          "name": "_cost",
          "type": "uint256"
        },
        {
          "internalType": "uint256",
          "name": "_rating",
          "type": "uint256"
        },
        {
          "internalType": "uint256",
          "name": "_stock",
          "type": "uint256"
        },
        {
          "internalType": "string",
          "name": "_rfidTag",
          "type": "string"
        }
      ],
      "name": "listItem",
      "outputs": [],
      "stateMutability": "nonpayable",
      "type": "function"
    },
    {
      "inputs": [
        {
          "internalType": "address",
          "name": "",
          "type": "address"
        }
      ],
      "name": "orderCount",
      "outputs": [
        {
          "internalType": "uint256",
          "name": "",
          "type": "uint256"
        }
      ],
      "stateMutability": "view",
      "type": "function"
    },
    {
      "inputs": [
        {
          "internalType": "address",
          "name": "",
          "type": "address"
        },
        {
          "internalType": "uint256",
          "name": "",
          "type": "uint256"
        }
      ],
      "name": "orders",
      "outputs": [
        {
          "internalType": "uint256",
          "name": "time",
          "type": "uint256"
        },
        {
          "components": [
            {
              "internalType": "uint256",
              "name": "id",
              "type": "uint256"
            },
            {
              "internalType": "string",
              "name": "name",
              "type": "string"
            },
            {
              "internalType": "string",
              "name": "category",
              "type": "string"
            },
            {
              "internalType": "string",
              "name": "image",
              "type": "string"
            },
            {
              "internalType": "uint256",
              "name": "cost",
              "type": "uint256"
            },
            {
              "internalType": "uint256",
              "name": "rating",
              "type": "uint256"
            },
            {
              "internalType": "uint256",
              "name": "stock",
              "type": "uint256"
            },
            {
              "internalType": "string",
              "name": "rfidTag",
              "type": "string"
            }
          ],
          "internalType": "struct ProductManagement.Item",
          "name": "item",
          "type": "tuple"
        }
      ],
      "stateMutability": "view",
      "type": "function"
    },
    {
      "inputs": [],
      "name": "owner",
      "outputs": [
        {
          "internalType": "address",
          "name": "",
          "type": "address"
        }
      ],
      "stateMutability": "view",
      "type": "function"
    },
    {
      "inputs": [
        {
          "internalType": "uint256",
          "name": "_id",
          "type": "uint256"
        },
        {
          "internalType": "uint256",
          "name": "_stock",
          "type": "uint256"
        }
      ],
      "name": "updateItemStock",
      "outputs": [],
      "stateMutability": "nonpayable",
      "type": "function"
    },
    {
      "inputs": [],
      "name": "withdraw",
      "outputs": [],
      "stateMutability": "nonpayable",
      "type": "function"
    }
  ],
  "bytecode": "0x6080604052348015600f57600080fd5b50336000806101000a81548173ffffffffffffffffffffffffffffffffffffffff021916908373ffffffffffffffffffffffffffffffffffffffff1602179055506120be8061005f6000396000f3fe6080604052600436106100865760003560e01c8063793b8c6d11610059578063793b8c6d146101455780638da5cb5b146101835780639abd434b146101ae578063bfb231d2146101d7578063e7fb74c71461021b57610086565b80633129e7731461008b5780633ccfd60b146100c85780635b67ef94146100df578063713d856b14610108575b600080fd5b34801561009757600080fd5b506100b260048036038101906100ad919061141e565b610237565b6040516100bf91906115af565b60405180910390f35b3480156100d457600080fd5b506100dd6104d5565b005b3480156100eb57600080fd5b50610106600480360381019061010191906115d1565b610633565b005b34801561011457600080fd5b5061012f600480360381019061012a919061166f565b610719565b60405161013c91906116ab565b60405180910390f35b34801561015157600080fd5b5061016c600480360381019061016791906116c6565b610731565b60405161017a929190611706565b60405180910390f35b34801561018f57600080fd5b506101986109dd565b6040516101a59190611745565b60405180910390f35b3480156101ba57600080fd5b506101d560048036038101906101d09190611895565b610a01565b005b3480156101e357600080fd5b506101fe60048036038101906101f9919061141e565b610bac565b604051610212989796959493929190611a05565b60405180910390f35b6102356004803603810190610230919061141e565b610e14565b005b61023f61138f565b60016000838152602001908152602001600020604051806101000160405290816000820154815260200160018201805461027890611ace565b80601f01602080910402602001604051908101604052809291908181526020018280546102a490611ace565b80156102f15780601f106102c6576101008083540402835291602001916102f1565b820191906000526020600020905b8154815290600101906020018083116102d457829003601f168201915b5050505050815260200160028201805461030a90611ace565b80601f016020809104026020016040519081016040528092919081815260200182805461033690611ace565b80156103835780601f1061035857610100808354040283529160200191610383565b820191906000526020600020905b81548152906001019060200180831161036657829003601f168201915b5050505050815260200160038201805461039c90611ace565b80601f01602080910402602001604051908101604052809291908181526020018280546103c890611ace565b80156104155780601f106103ea57610100808354040283529160200191610415565b820191906000526020600020905b8154815290600101906020018083116103f857829003601f168201915b5050505050815260200160048201548152602001600582015481526020016006820154815260200160078201805461044c90611ace565b80601f016020809104026020016040519081016040528092919081815260200182805461047890611ace565b80156104c55780601f1061049a576101008083540402835291602001916104c5565b820191906000526020600020905b8154815290600101906020018083116104a857829003601f168201915b5050505050815250509050919050565b60008054906101000a900473ffffffffffffffffffffffffffffffffffffffff1673ffffffffffffffffffffffffffffffffffffffff163373ffffffffffffffffffffffffffffffffffffffff1614610563576040517f08c379a000000000000000000000000000000000000000000000000000000000815260040161055a90611b4b565b60405180910390fd5b60008060009054906101000a900473ffffffffffffffffffffffffffffffffffffffff1673ffffffffffffffffffffffffffffffffffffffff16476040516105aa90611b9c565b60006040518083038185875af1925050503d80600081146105e7576040519150601f19603f3d011682016040523d82523d6000602084013e6105ec565b606091505b5050905080610630576040517f08c379a000000000000000000000000000000000000000000000000000000000815260040161062790611bfd565b60405180910390fd5b50565b60008054906101000a900473ffffffffffffffffffffffffffffffffffffffff1673ffffffffffffffffffffffffffffffffffffffff163373ffffffffffffffffffffffffffffffffffffffff16146106c1576040517f08c379a00000000000000000000000000000000000000000000000000000000081526004016106b890611b4b565b60405180910390fd5b8060016000848152602001908152602001600020600601819055507f0d2750b8552c7eecf2b869b31c9464b36cae1caba6b8fab1a53b7e58b6ddea50828260405161070d929190611c1d565b60405180910390a15050565b60036020528060005260406000206000915090505481565b60026020528160005260406000206020528060005260406000206000915091505080600001549080600101604051806101000160405290816000820154815260200160018201805461078290611ace565b80601f01602080910402602001604051908101604052809291908181526020018280546107ae90611ace565b80156107fb5780601f106107d0576101008083540402835291602001916107fb565b820191906000526020600020905b8154815290600101906020018083116107de57829003601f168201915b5050505050815260200160028201805461081490611ace565b80601f016020809104026020016040519081016040528092919081815260200182805461084090611ace565b801561088d5780601f106108625761010080835404028352916020019161088d565b820191906000526020600020905b81548152906001019060200180831161087057829003601f168201915b505050505081526020016003820180546108a690611ace565b80601f01602080910402602001604051908101604052809291908181526020018280546108d290611ace565b801561091f5780601f106108f45761010080835404028352916020019161091f565b820191906000526020600020905b81548152906001019060200180831161090257829003601f168201915b5050505050815260200160048201548152602001600582015481526020016006820154815260200160078201805461095690611ace565b80601f016020809104026020016040519081016040528092919081815260200182805461098290611ace565b80156109cf5780601f106109a4576101008083540402835291602001916109cf565b820191906000526020600020905b8154815290600101906020018083116109b257829003601f168201915b505050505081525050905082565b60008054906101000a900473ffffffffffffffffffffffffffffffffffffffff1681565b60008054906101000a900473ffffffffffffffffffffffffffffffffffffffff1673ffffffffffffffffffffffffffffffffffffffff163373ffffffffffffffffffffffffffffffffffffffff1614610a8f576040517f08c379a0000000000000000000000000000000000000000000000000000000008152600401610a8690611b4b565b60405180910390fd5b60006040518061010001604052808a815260200189815260200188815260200187815260200186815260200185815260200184815260200183815250905080600160008b8152602001908152602001600020600082015181600001556020820151816001019081610b009190611df2565b506040820151816002019081610b169190611df2565b506060820151816003019081610b2c9190611df2565b506080820151816004015560a0820151816005015560c0820151816006015560e0820151816007019081610b609190611df2565b509050507fa5adc50784bf6e37e1400409531ab81ecbbeebf44d0d317d5da8e7a0d2eb3e9089898786604051610b999493929190611ec4565b60405180910390a1505050505050505050565b6001602052806000526040600020600091509050806000015490806001018054610bd590611ace565b80601f0160208091040260200160405190810160405280929190818152602001828054610c0190611ace565b8015610c4e5780601f10610c2357610100808354040283529160200191610c4e565b820191906000526020600020905b815481529060010190602001808311610c3157829003601f168201915b505050505090806002018054610c6390611ace565b80601f0160208091040260200160405190810160405280929190818152602001828054610c8f90611ace565b8015610cdc5780601f10610cb157610100808354040283529160200191610cdc565b820191906000526020600020905b815481529060010190602001808311610cbf57829003601f168201915b505050505090806003018054610cf190611ace565b80601f0160208091040260200160405190810160405280929190818152602001828054610d1d90611ace565b8015610d6a5780601f10610d3f57610100808354040283529160200191610d6a565b820191906000526020600020905b815481529060010190602001808311610d4d57829003601f168201915b505050505090806004015490806005015490806006015490806007018054610d9190611ace565b80601f0160208091040260200160405190810160405280929190818152602001828054610dbd90611ace565b8015610e0a5780601f10610ddf57610100808354040283529160200191610e0a565b820191906000526020600020905b815481529060010190602001808311610ded57829003601f168201915b5050505050905088565b6000600160008381526020019081526020016000206040518061010001604052908160008201548152602001600182018054610e4f90611ace565b80601f0160208091040260200160405190810160405280929190818152602001828054610e7b90611ace565b8015610ec85780601f10610e9d57610100808354040283529160200191610ec8565b820191906000526020600020905b815481529060010190602001808311610eab57829003601f168201915b50505050508152602001600282018054610ee190611ace565b80601f0160208091040260200160405190810160405280929190818152602001828054610f0d90611ace565b8015610f5a5780601f10610f2f57610100808354040283529160200191610f5a565b820191906000526020600020905b815481529060010190602001808311610f3d57829003601f168201915b50505050508152602001600382018054610f7390611ace565b80601f0160208091040260200160405190810160405280929190818152602001828054610f9f90611ace565b8015610fec5780601f10610fc157610100808354040283529160200191610fec565b820191906000526020600020905b815481529060010190602001808311610fcf57829003601f168201915b5050505050815260200160048201548152602001600582015481526020016006820154815260200160078201805461102390611ace565b80601f016020809104026020016040519081016040528092919081815260200182805461104f90611ace565b801561109c5780601f106110715761010080835404028352916020019161109c565b820191906000526020600020905b81548152906001019060200180831161107f57829003601f168201915b505050505081525050905080608001513410156110ee576040517f08c379a00000000000000000000000000000000000000000000000000000000081526004016110e590611f5c565b60405180910390fd5b60008160c0015111611135576040517f08c379a000000000000000000000000000000000000000000000000000000000815260040161112c90611fc8565b60405180910390fd5b60006040518060400160405280428152602001838152509050600360003373ffffffffffffffffffffffffffffffffffffffff1673ffffffffffffffffffffffffffffffffffffffff168152602001908152602001600020600081548092919061119e90612017565b919050555080600260003373ffffffffffffffffffffffffffffffffffffffff1673ffffffffffffffffffffffffffffffffffffffff1681526020019081526020016000206000600360003373ffffffffffffffffffffffffffffffffffffffff1673ffffffffffffffffffffffffffffffffffffffff168152602001908152602001600020548152602001908152602001600020600082015181600001556020820151816001016000820151816000015560208201518160010190816112659190611df2565b50604082015181600201908161127b9190611df2565b5060608201518160030190816112919190611df2565b506080820151816004015560a0820151816005015560c0820151816006015560e08201518160070190816112c59190611df2565b5050509050506001600084815260200190815260200160002060060160008154809291906112f29061205f565b91905055503373ffffffffffffffffffffffffffffffffffffffff167f03f23a9b67af957c8605376a4f515b53f102d4ad7f4da099bd1aff8e3ee13fec600360003373ffffffffffffffffffffffffffffffffffffffff1673ffffffffffffffffffffffffffffffffffffffff168152602001908152602001600020548460000151604051611382929190611c1d565b60405180910390a2505050565b60405180610100016040528060008152602001606081526020016060815260200160608152602001600081526020016000815260200160008152602001606081525090565b6000604051905090565b600080fd5b600080fd5b6000819050919050565b6113fb816113e8565b811461140657600080fd5b50565b600081359050611418816113f2565b92915050565b600060208284031215611434576114336113de565b5b600061144284828501611409565b91505092915050565b611454816113e8565b82525050565b600081519050919050565b600082825260208201905092915050565b60005b83811015611494578082015181840152602081019050611479565b60008484015250505050565b6000601f19601f8301169050919050565b60006114bc8261145a565b6114c68185611465565b93506114d6818560208601611476565b6114df816114a0565b840191505092915050565b600061010083016000830151611503600086018261144b565b506020830151848203602086015261151b82826114b1565b9150506040830151848203604086015261153582826114b1565b9150506060830151848203606086015261154f82826114b1565b9150506080830151611564608086018261144b565b5060a083015161157760a086018261144b565b5060c083015161158a60c086018261144b565b5060e083015184820360e08601526115a282826114b1565b9150508091505092915050565b600060208201905081810360008301526115c981846114ea565b905092915050565b600080604083850312156115e8576115e76113de565b5b60006115f685828601611409565b925050602061160785828601611409565b9150509250929050565b600073ffffffffffffffffffffffffffffffffffffffff82169050919050565b600061163c82611611565b9050919050565b61164c81611631565b811461165757600080fd5b50565b60008135905061166981611643565b92915050565b600060208284031215611685576116846113de565b5b60006116938482850161165a565b91505092915050565b6116a5816113e8565b82525050565b60006020820190506116c0600083018461169c565b92915050565b600080604083850312156116dd576116dc6113de565b5b60006116eb8582860161165a565b92505060206116fc85828601611409565b9150509250929050565b600060408201905061171b600083018561169c565b818103602083015261172d81846114ea565b90509392505050565b61173f81611631565b82525050565b600060208201905061175a6000830184611736565b92915050565b600080fd5b600080fd5b7f4e487b7100000000000000000000000000000000000000000000000000000000600052604160045260246000fd5b6117a2826114a0565b810181811067ffffffffffffffff821117156117c1576117c061176a565b5b80604052505050565b60006117d46113d4565b90506117e08282611799565b919050565b600067ffffffffffffffff821115611800576117ff61176a565b5b611809826114a0565b9050602081019050919050565b82818337600083830152505050565b6000611838611833846117e5565b6117ca565b90508281526020810184848401111561185457611853611765565b5b61185f848285611816565b509392505050565b600082601f83011261187c5761187b611760565b5b813561188c848260208601611825565b91505092915050565b600080600080600080600080610100898b0312156118b6576118b56113de565b5b60006118c48b828c01611409565b985050602089013567ffffffffffffffff8111156118e5576118e46113e3565b5b6118f18b828c01611867565b975050604089013567ffffffffffffffff811115611912576119116113e3565b5b61191e8b828c01611867565b965050606089013567ffffffffffffffff81111561193f5761193e6113e3565b5b61194b8b828c01611867565b955050608061195c8b828c01611409565b94505060a061196d8b828c01611409565b93505060c061197e8b828c01611409565b92505060e089013567ffffffffffffffff81111561199f5761199e6113e3565b5b6119ab8b828c01611867565b9150509295985092959890939650565b600082825260208201905092915050565b60006119d78261145a565b6119e181856119bb565b93506119f1818560208601611476565b6119fa816114a0565b840191505092915050565b600061010082019050611a1b600083018b61169c565b8181036020830152611a2d818a6119cc565b90508181036040830152611a4181896119cc565b90508181036060830152611a5581886119cc565b9050611a64608083018761169c565b611a7160a083018661169c565b611a7e60c083018561169c565b81810360e0830152611a9081846119cc565b90509998505050505050505050565b7f4e487b7100000000000000000000000000000000000000000000000000000000600052602260045260246000fd5b60006002820490506001821680611ae657607f821691505b602082108103611af957611af8611a9f565b5b50919050565b7f4e6f7420617574686f72697a6564000000000000000000000000000000000000600082015250565b6000611b35600e836119bb565b9150611b4082611aff565b602082019050919050565b60006020820190508181036000830152611b6481611b28565b9050919050565b600081905092915050565b50565b6000611b86600083611b6b565b9150611b9182611b76565b600082019050919050565b6000611ba782611b79565b9150819050919050565b7f5472616e73666572206661696c65640000000000000000000000000000000000600082015250565b6000611be7600f836119bb565b9150611bf282611bb1565b602082019050919050565b60006020820190508181036000830152611c1681611bda565b9050919050565b6000604082019050611c32600083018561169c565b611c3f602083018461169c565b9392505050565b60008190508160005260206000209050919050565b60006020601f8301049050919050565b600082821b905092915050565b600060088302611ca87fffffffffffffffffffffffffffffffffffffffffffffffffffffffffffffffff82611c6b565b611cb28683611c6b565b95508019841693508086168417925050509392505050565b6000819050919050565b6000611cef611cea611ce5846113e8565b611cca565b6113e8565b9050919050565b6000819050919050565b611d0983611cd4565b611d1d611d1582611cf6565b848454611c78565b825550505050565b600090565b611d32611d25565b611d3d818484611d00565b505050565b5b81811015611d6157611d56600082611d2a565b600181019050611d43565b5050565b601f821115611da657611d7781611c46565b611d8084611c5b565b81016020851015611d8f578190505b611da3611d9b85611c5b565b830182611d42565b50505b505050565b600082821c905092915050565b6000611dc960001984600802611dab565b1980831691505092915050565b6000611de28383611db8565b9150826002028217905092915050565b611dfb8261145a565b67ffffffffffffffff811115611e1457611e1361176a565b5b611e1e8254611ace565b611e29828285611d65565b600060209050601f831160018114611e5c5760008415611e4a578287015190505b611e548582611dd6565b865550611ebc565b601f198416611e6a86611c46565b60005b82811015611e9257848901518255600182019150602085019450602081019050611e6d565b86831015611eaf5784890151611eab601f891682611db8565b8355505b6001600288020188555050505b505050505050565b6000608082019050611ed9600083018761169c565b8181036020830152611eeb81866119cc565b9050611efa604083018561169c565b611f07606083018461169c565b95945050505050565b7f496e73756666696369656e742066756e64730000000000000000000000000000600082015250565b6000611f466012836119bb565b9150611f5182611f10565b602082019050919050565b60006020820190508181036000830152611f7581611f39565b9050919050565b7f4f7574206f662073746f636b0000000000000000000000000000000000000000600082015250565b6000611fb2600c836119bb565b9150611fbd82611f7c565b602082019050919050565b60006020820190508181036000830152611fe181611fa5565b9050919050565b7f4e487b7100000000000000000000000000000000000000000000000000000000600052601160045260246000fd5b6000612022826113e8565b91507fffffffffffffffffffffffffffffffffffffffffffffffffffffffffffffffff820361205457612053611fe8565b5b600182019050919050565b600061206a826113e8565b91506000820361207d5761207c611fe8565b5b60018203905091905056fea264697066735822122015aceae2a126e98ad4152a9eb7a561b38ac849d6ea2b49d046e7c26edb2a12cc64736f6c634300081b0033",
  "linkReferences": {},
  "deployedLinkReferences": {}
}