{
  "_format": "hh-sol-artifact-1",
  "contractName": "CrateManagement",
  "sourceName": "contracts/CrateManagement.sol",
  "abi": [
    {
      "anonymous": false,
      "inputs": [
        {
          "indexed": false,
          "internalType": "uint256",
          "name": "crateId",
          "type": "uint256"
        },
        {
          "indexed": false,
          "internalType": "address",
          "name": "warehouse",
          "type": "address"
        },
        {
          "indexed": false,
          "internalType": "string",
          "name": "crateRFID",
          "type": "string"
        }
      ],
      "name": "CrateCreated",
      "type": "event"
    },
    {
      "anonymous": false,
      "inputs": [
        {
          "indexed": false,
          "internalType": "uint256",
          "name": "crateId",
          "type": "uint256"
        }
      ],
      "name": "CrateDelivered",
      "type": "event"
    },
    {
      "anonymous": false,
      "inputs": [
        {
          "indexed": false,
          "internalType": "uint256",
          "name": "crateId",
          "type": "uint256"
        }
      ],
      "name": "CrateSealed",
      "type": "event"
    },
    {
      "anonymous": false,
      "inputs": [
        {
          "indexed": false,
          "internalType": "uint256",
          "name": "crateId",
          "type": "uint256"
        },
        {
          "indexed": false,
          "internalType": "uint256",
          "name": "itemId",
          "type": "uint256"
        }
      ],
      "name": "ItemAddedToCrate",
      "type": "event"
    },
    {
      "anonymous": false,
      "inputs": [
        {
          "indexed": false,
          "internalType": "uint256",
          "name": "itemId",
          "type": "uint256"
        },
        {
          "indexed": false,
          "internalType": "address",
          "name": "buyer",
          "type": "address"
        },
        {
          "indexed": false,
          "internalType": "uint256",
          "name": "cost",
          "type": "uint256"
        }
      ],
      "name": "ItemBought",
      "type": "event"
    },
    {
      "anonymous": false,
      "inputs": [
        {
          "indexed": false,
          "internalType": "uint256",
          "name": "orderId",
          "type": "uint256"
        },
        {
          "indexed": false,
          "internalType": "uint256",
          "name": "itemId",
          "type": "uint256"
        }
      ],
      "name": "OrderFulfilled",
      "type": "event"
    },
    {
      "anonymous": false,
      "inputs": [
        {
          "indexed": false,
          "internalType": "uint256",
          "name": "orderId",
          "type": "uint256"
        },
        {
          "indexed": false,
          "internalType": "uint256",
          "name": "itemId",
          "type": "uint256"
        },
        {
          "indexed": false,
          "internalType": "address",
          "name": "buyer",
          "type": "address"
        }
      ],
      "name": "OrderPlaced",
      "type": "event"
    },
    {
      "anonymous": false,
      "inputs": [
        {
          "indexed": false,
          "internalType": "uint256",
          "name": "productId",
          "type": "uint256"
        },
        {
          "indexed": false,
          "internalType": "string",
          "name": "name",
          "type": "string"
        },
        {
          "indexed": false,
          "internalType": "uint256",
          "name": "cost",
          "type": "uint256"
        },
        {
          "indexed": false,
          "internalType": "uint256",
          "name": "stock",
          "type": "uint256"
        }
      ],
      "name": "ProductCreated",
      "type": "event"
    },
    {
      "anonymous": false,
      "inputs": [
        {
          "indexed": false,
          "internalType": "uint256",
          "name": "itemId",
          "type": "uint256"
        },
        {
          "indexed": false,
          "internalType": "uint256",
          "name": "productId",
          "type": "uint256"
        }
      ],
      "name": "ProductDelivered",
      "type": "event"
    },
    {
      "anonymous": false,
      "inputs": [
        {
          "indexed": false,
          "internalType": "uint256",
          "name": "itemId",
          "type": "uint256"
        },
        {
          "indexed": false,
          "internalType": "string",
          "name": "rfidTag",
          "type": "string"
        }
      ],
      "name": "RFIDAssigned",
      "type": "event"
    },
    {
      "anonymous": false,
      "inputs": [
        {
          "indexed": false,
          "internalType": "string",
          "name": "rfidTag",
          "type": "string"
        }
      ],
      "name": "RFIDReleased",
      "type": "event"
    },
    {
      "anonymous": false,
      "inputs": [
        {
          "indexed": false,
          "internalType": "uint256",
          "name": "productId",
          "type": "uint256"
        },
        {
          "indexed": false,
          "internalType": "uint256",
          "name": "stockAdded",
          "type": "uint256"
        }
      ],
      "name": "StockUpdated",
      "type": "event"
    },
    {
      "inputs": [
        {
          "internalType": "uint256",
          "name": "_crateId",
          "type": "uint256"
        },
        {
          "internalType": "uint256",
          "name": "_itemId",
          "type": "uint256"
        }
      ],
      "name": "addItemToCrate",
      "outputs": [],
      "stateMutability": "nonpayable",
      "type": "function"
    },
    {
      "inputs": [
        {
          "internalType": "uint256",
          "name": "_productId",
          "type": "uint256"
        },
        {
          "internalType": "uint256",
          "name": "_stockToAdd",
          "type": "uint256"
        }
      ],
      "name": "addStock",
      "outputs": [],
      "stateMutability": "nonpayable",
      "type": "function"
    },
    {
      "inputs": [
        {
          "internalType": "uint256",
          "name": "_itemId",
          "type": "uint256"
        },
        {
          "internalType": "string",
          "name": "_rfidTag",
          "type": "string"
        }
      ],
      "name": "assignRFID",
      "outputs": [],
      "stateMutability": "nonpayable",
      "type": "function"
    },
    {
      "inputs": [
        {
          "internalType": "uint256",
          "name": "_itemId",
          "type": "uint256"
        }
      ],
      "name": "buyItem",
      "outputs": [],
      "stateMutability": "payable",
      "type": "function"
    },
    {
      "inputs": [
        {
          "internalType": "address",
          "name": "",
          "type": "address"
        },
        {
          "internalType": "uint256",
          "name": "",
          "type": "uint256"
        }
      ],
      "name": "buyerOrders",
      "outputs": [
        {
          "internalType": "uint256",
          "name": "",
          "type": "uint256"
        }
      ],
      "stateMutability": "view",
      "type": "function"
    },
    {
      "inputs": [
        {
          "internalType": "uint256",
          "name": "",
          "type": "uint256"
        }
      ],
      "name": "crates",
      "outputs": [
        {
          "internalType": "uint256",
          "name": "crateId",
          "type": "uint256"
        },
        {
          "internalType": "string",
          "name": "crateRFID",
          "type": "string"
        },
        {
          "internalType": "address",
          "name": "warehouse",
          "type": "address"
        },
        {
          "internalType": "bool",
          "name": "closed",
          "type": "bool"
        },
        {
          "internalType": "bool",
          "name": "delivered",
          "type": "bool"
        }
      ],
      "stateMutability": "view",
      "type": "function"
    },
    {
      "inputs": [
        {
          "internalType": "string",
          "name": "_crateRFID",
          "type": "string"
        },
        {
          "internalType": "uint256[]",
          "name": "items",
          "type": "uint256[]"
        }
      ],
      "name": "createCrate",
      "outputs": [],
      "stateMutability": "nonpayable",
      "type": "function"
    },
    {
      "inputs": [
        {
          "internalType": "uint256",
          "name": "_productId",
          "type": "uint256"
        },
        {
          "internalType": "string",
          "name": "_name",
          "type": "string"
        },
        {
          "internalType": "string",
          "name": "_category",
          "type": "string"
        },
        {
          "internalType": "string",
          "name": "_image",
          "type": "string"
        },
        {
          "internalType": "uint256",
          "name": "_cost",
          "type": "uint256"
        },
        {
          "internalType": "uint256",
          "name": "_rating",
          "type": "uint256"
        }
      ],
      "name": "createProduct",
      "outputs": [],
      "stateMutability": "nonpayable",
      "type": "function"
    },
    {
      "inputs": [
        {
          "internalType": "uint256",
          "name": "_crateId",
          "type": "uint256"
        }
      ],
      "name": "deliverCrate",
      "outputs": [],
      "stateMutability": "nonpayable",
      "type": "function"
    },
    {
      "inputs": [
        {
          "internalType": "uint256",
          "name": "_orderId",
          "type": "uint256"
        }
      ],
      "name": "fulfillOrder",
      "outputs": [],
      "stateMutability": "nonpayable",
      "type": "function"
    },
    {
      "inputs": [
        {
          "internalType": "string",
          "name": "_crateRFID",
          "type": "string"
        }
      ],
      "name": "getCrateByRFID",
      "outputs": [
        {
          "components": [
            {
              "internalType": "uint256",
              "name": "crateId",
              "type": "uint256"
            },
            {
              "internalType": "string",
              "name": "crateRFID",
              "type": "string"
            },
            {
              "internalType": "address",
              "name": "warehouse",
              "type": "address"
            },
            {
              "internalType": "bool",
              "name": "closed",
              "type": "bool"
            },
            {
              "internalType": "bool",
              "name": "delivered",
              "type": "bool"
            },
            {
              "internalType": "uint256[]",
              "name": "itemIds",
              "type": "uint256[]"
            }
          ],
          "internalType": "struct CrateManagement.Crate",
          "name": "",
          "type": "tuple"
        }
      ],
      "stateMutability": "view",
      "type": "function"
    },
    {
      "inputs": [
        {
          "internalType": "uint256",
          "name": "_itemId",
          "type": "uint256"
        }
      ],
      "name": "getItem",
      "outputs": [
        {
          "components": [
            {
              "internalType": "uint256",
              "name": "itemId",
              "type": "uint256"
            },
            {
              "internalType": "uint256",
              "name": "productId",
              "type": "uint256"
            },
            {
              "internalType": "string",
              "name": "rfidTag",
              "type": "string"
            },
            {
              "internalType": "address",
              "name": "currentOwner",
              "type": "address"
            },
            {
              "internalType": "bool",
              "name": "delivered",
              "type": "bool"
            }
          ],
          "internalType": "struct ProductManagement.Item",
          "name": "",
          "type": "tuple"
        }
      ],
      "stateMutability": "view",
      "type": "function"
    },
    {
      "inputs": [
        {
          "internalType": "uint256",
          "name": "_crateId",
          "type": "uint256"
        }
      ],
      "name": "getItemsInCrate",
      "outputs": [
        {
          "internalType": "uint256[]",
          "name": "",
          "type": "uint256[]"
        }
      ],
      "stateMutability": "view",
      "type": "function"
    },
    {
      "inputs": [
        {
          "internalType": "uint256",
          "name": "_orderId",
          "type": "uint256"
        }
      ],
      "name": "getOrder",
      "outputs": [
        {
          "components": [
            {
              "internalType": "uint256",
              "name": "orderId",
              "type": "uint256"
            },
            {
              "internalType": "uint256",
              "name": "itemId",
              "type": "uint256"
            },
            {
              "internalType": "uint256",
              "name": "timestamp",
              "type": "uint256"
            },
            {
              "internalType": "address",
              "name": "buyer",
              "type": "address"
            },
            {
              "internalType": "bool",
              "name": "fulfilled",
              "type": "bool"
            }
          ],
          "internalType": "struct OrderManagement.Order",
          "name": "",
          "type": "tuple"
        }
      ],
      "stateMutability": "view",
      "type": "function"
    },
    {
      "inputs": [
        {
          "internalType": "address",
          "name": "_buyer",
          "type": "address"
        }
      ],
      "name": "getOrdersByBuyer",
      "outputs": [
        {
          "components": [
            {
              "internalType": "uint256",
              "name": "orderId",
              "type": "uint256"
            },
            {
              "internalType": "uint256",
              "name": "itemId",
              "type": "uint256"
            },
            {
              "internalType": "uint256",
              "name": "timestamp",
              "type": "uint256"
            },
            {
              "internalType": "address",
              "name": "buyer",
              "type": "address"
            },
            {
              "internalType": "bool",
              "name": "fulfilled",
              "type": "bool"
            }
          ],
          "internalType": "struct OrderManagement.Order[]",
          "name": "",
          "type": "tuple[]"
        }
      ],
      "stateMutability": "view",
      "type": "function"
    },
    {
      "inputs": [
        {
          "internalType": "uint256",
          "name": "_productId",
          "type": "uint256"
        }
      ],
      "name": "getProduct",
      "outputs": [
        {
          "components": [
            {
              "internalType": "uint256",
              "name": "productId",
              "type": "uint256"
            },
            {
              "internalType": "string",
              "name": "name",
              "type": "string"
            },
            {
              "internalType": "string",
              "name": "category",
              "type": "string"
            },
            {
              "internalType": "string",
              "name": "image",
              "type": "string"
            },
            {
              "internalType": "uint256",
              "name": "cost",
              "type": "uint256"
            },
            {
              "internalType": "uint256",
              "name": "rating",
              "type": "uint256"
            },
            {
              "internalType": "uint256",
              "name": "stock",
              "type": "uint256"
            }
          ],
          "internalType": "struct ProductManagement.Product",
          "name": "",
          "type": "tuple"
        }
      ],
      "stateMutability": "view",
      "type": "function"
    },
    {
      "inputs": [
        {
          "internalType": "string",
          "name": "_rfidTag",
          "type": "string"
        }
      ],
      "name": "getUndeliveredItemIdByRFID",
      "outputs": [
        {
          "internalType": "uint256",
          "name": "",
          "type": "uint256"
        }
      ],
      "stateMutability": "view",
      "type": "function"
    },
    {
      "inputs": [
        {
          "internalType": "uint256",
          "name": "",
          "type": "uint256"
        }
      ],
      "name": "items",
      "outputs": [
        {
          "internalType": "uint256",
          "name": "itemId",
          "type": "uint256"
        },
        {
          "internalType": "uint256",
          "name": "productId",
          "type": "uint256"
        },
        {
          "internalType": "string",
          "name": "rfidTag",
          "type": "string"
        },
        {
          "internalType": "address",
          "name": "currentOwner",
          "type": "address"
        },
        {
          "internalType": "bool",
          "name": "delivered",
          "type": "bool"
        }
      ],
      "stateMutability": "view",
      "type": "function"
    },
    {
      "inputs": [
        {
          "internalType": "uint256",
          "name": "_itemId",
          "type": "uint256"
        }
      ],
      "name": "markDelivered",
      "outputs": [],
      "stateMutability": "nonpayable",
      "type": "function"
    },
    {
      "inputs": [],
      "name": "nextCrateId",
      "outputs": [
        {
          "internalType": "uint256",
          "name": "",
          "type": "uint256"
        }
      ],
      "stateMutability": "view",
      "type": "function"
    },
    {
      "inputs": [],
      "name": "nextOrderId",
      "outputs": [
        {
          "internalType": "uint256",
          "name": "",
          "type": "uint256"
        }
      ],
      "stateMutability": "view",
      "type": "function"
    },
    {
      "inputs": [
        {
          "internalType": "uint256",
          "name": "",
          "type": "uint256"
        }
      ],
      "name": "orders",
      "outputs": [
        {
          "internalType": "uint256",
          "name": "orderId",
          "type": "uint256"
        },
        {
          "internalType": "uint256",
          "name": "itemId",
          "type": "uint256"
        },
        {
          "internalType": "uint256",
          "name": "timestamp",
          "type": "uint256"
        },
        {
          "internalType": "address",
          "name": "buyer",
          "type": "address"
        },
        {
          "internalType": "bool",
          "name": "fulfilled",
          "type": "bool"
        }
      ],
      "stateMutability": "view",
      "type": "function"
    },
    {
      "inputs": [],
      "name": "owner",
      "outputs": [
        {
          "internalType": "address",
          "name": "",
          "type": "address"
        }
      ],
      "stateMutability": "view",
      "type": "function"
    },
    {
      "inputs": [
        {
          "internalType": "uint256",
          "name": "_itemId",
          "type": "uint256"
        },
        {
          "internalType": "string",
          "name": "_rfidTag",
          "type": "string"
        }
      ],
      "name": "placeOrder",
      "outputs": [],
      "stateMutability": "payable",
      "type": "function"
    },
    {
      "inputs": [
        {
          "internalType": "uint256",
          "name": "",
          "type": "uint256"
        }
      ],
      "name": "products",
      "outputs": [
        {
          "internalType": "uint256",
          "name": "productId",
          "type": "uint256"
        },
        {
          "internalType": "string",
          "name": "name",
          "type": "string"
        },
        {
          "internalType": "string",
          "name": "category",
          "type": "string"
        },
        {
          "internalType": "string",
          "name": "image",
          "type": "string"
        },
        {
          "internalType": "uint256",
          "name": "cost",
          "type": "uint256"
        },
        {
          "internalType": "uint256",
          "name": "rating",
          "type": "uint256"
        },
        {
          "internalType": "uint256",
          "name": "stock",
          "type": "uint256"
        }
      ],
      "stateMutability": "view",
      "type": "function"
    },
    {
      "inputs": [
        {
          "internalType": "string",
          "name": "_rfidTag",
          "type": "string"
        }
      ],
      "name": "releaseRFID",
      "outputs": [],
      "stateMutability": "nonpayable",
      "type": "function"
    },
    {
      "inputs": [
        {
          "internalType": "string",
          "name": "",
          "type": "string"
        }
      ],
      "name": "rfidToCrateId",
      "outputs": [
        {
          "internalType": "uint256",
          "name": "",
          "type": "uint256"
        }
      ],
      "stateMutability": "view",
      "type": "function"
    },
    {
      "inputs": [
        {
          "internalType": "string",
          "name": "",
          "type": "string"
        }
      ],
      "name": "rfidToItemId",
      "outputs": [
        {
          "internalType": "uint256",
          "name": "",
          "type": "uint256"
        }
      ],
      "stateMutability": "view",
      "type": "function"
    },
    {
      "inputs": [
        {
          "internalType": "uint256",
          "name": "_crateId",
          "type": "uint256"
        }
      ],
      "name": "sealCrate",
      "outputs": [],
      "stateMutability": "nonpayable",
      "type": "function"
    },
    {
      "inputs": [],
      "name": "withdraw",
      "outputs": [],
      "stateMutability": "nonpayable",
      "type": "function"
    }
  ],
  "bytecode": "0x608060405260016004556001600755348015601957600080fd5b50336000806101000a81548173ffffffffffffffffffffffffffffffffffffffff021916908373ffffffffffffffffffffffffffffffffffffffff16021790555061556b806100696000396000f3fe6080604052600436106101cd5760003560e01c80637edd19a2116100f7578063b9db15b411610095578063d09ef24111610064578063d09ef24114610706578063e7fb74c714610743578063eb826a5f1461075f578063fca6195e14610788576101cd565b8063b9db15b414610634578063bfb231d214610671578063c38cae9f146106b2578063cb9953e7146106db576101cd565b806399ae5dc9116100d157806399ae5dc914610550578063a1f9d7e914610579578063a85c38ef146105b6578063b98a20bc146105f7576101cd565b80637edd19a2146104d3578063843d7209146104fc5780638da5cb5b14610525576101cd565b80633a875a431161016f57806348e9339e1161013e57806348e9339e146104015780636311e8301461042a57806375211fe5146104535780637acc0b2014610490576101cd565b80633a875a43146103475780633ccfd60b1461038457806340c9c8701461039b5780634500cb60146103c4576101cd565b806320e8edbc116101ab57806320e8edbc14610261578063242d82b3146102a25780632a58b330146102df5780633129e7731461030a576101cd565b80630c365795146101d2578063136726b6146101fb57806314bfdc3814610238575b600080fd5b3480156101de57600080fd5b506101f960048036038101906101f49190613839565b6107a4565b005b34801561020757600080fd5b50610222600480360381019061021d91906138b1565b610a6b565b60405161022f9190613909565b60405180910390f35b34801561024457600080fd5b5061025f600480360381019061025a9190613924565b610a99565b005b34801561026d57600080fd5b5061028860048036038101906102839190613924565b610c78565b604051610299959493929190613a2c565b60405180910390f35b3480156102ae57600080fd5b506102c960048036038101906102c49190613924565b610d70565b6040516102d69190613b44565b60405180910390f35b3480156102eb57600080fd5b506102f4610e2a565b6040516103019190613909565b60405180910390f35b34801561031657600080fd5b50610331600480360381019061032c9190613924565b610e30565b60405161033e9190613c44565b60405180910390f35b34801561035357600080fd5b5061036e60048036038101906103699190613c92565b610f74565b60405161037b9190613dd6565b60405180910390f35b34801561039057600080fd5b5061039961116a565b005b3480156103a757600080fd5b506103c260048036038101906103bd91906138b1565b6112c8565b005b3480156103d057600080fd5b506103eb60048036038101906103e69190613df8565b6114a5565b6040516103f89190613909565b60405180910390f35b34801561040d57600080fd5b5061042860048036038101906104239190613e38565b6114d6565b005b34801561043657600080fd5b50610451600480360381019061044c9190613924565b6116bc565b005b34801561045f57600080fd5b5061047a600480360381019061047591906138b1565b611923565b6040516104879190613909565b60405180910390f35b34801561049c57600080fd5b506104b760048036038101906104b29190613924565b6119fd565b6040516104ca9796959493929190613f19565b60405180910390f35b3480156104df57600080fd5b506104fa60048036038101906104f59190613f9d565b611bd7565b005b34801561050857600080fd5b50610523600480360381019061051e9190613924565b611ea3565b005b34801561053157600080fd5b5061053a612141565b6040516105479190613fdd565b60405180910390f35b34801561055c57600080fd5b5061057760048036038101906105729190613f9d565b612165565b005b34801561058557600080fd5b506105a0600480360381019061059b91906138b1565b61244d565b6040516105ad9190613909565b60405180910390f35b3480156105c257600080fd5b506105dd60048036038101906105d89190613924565b61247b565b6040516105ee959493929190613ff8565b60405180910390f35b34801561060357600080fd5b5061061e600480360381019061061991906138b1565b6124de565b60405161062b919061414a565b60405180910390f35b34801561064057600080fd5b5061065b60048036038101906106569190613924565b6126f2565b6040516106689190614216565b60405180910390f35b34801561067d57600080fd5b5061069860048036038101906106939190613924565b6128fd565b6040516106a9959493929190614238565b60405180910390f35b3480156106be57600080fd5b506106d960048036038101906106d49190614292565b6129e8565b005b3480156106e757600080fd5b506106f0612bfd565b6040516106fd9190613909565b60405180910390f35b34801561071257600080fd5b5061072d60048036038101906107289190613924565b612c03565b60405161073a9190614356565b60405180910390f35b61075d60048036038101906107589190613924565b612cbf565b005b34801561076b57600080fd5b5061078660048036038101906107819190613924565b612e74565b005b6107a2600480360381019061079d9190614292565b613033565b005b60008054906101000a900473ffffffffffffffffffffffffffffffffffffffff1673ffffffffffffffffffffffffffffffffffffffff163373ffffffffffffffffffffffffffffffffffffffff1603610832576040517f08c379a0000000000000000000000000000000000000000000000000000000008152600401610829906143bd565b60405180910390fd5b60006009836040516108449190614419565b90815260200160405180910390205414610893576040517f08c379a000000000000000000000000000000000000000000000000000000000815260040161088a9061447c565b60405180910390fd5b600042836007546040516020016108ac939291906144bd565b6040516020818303038152906040528051906020012060001c905060006040518060c001604052808381526020018581526020013373ffffffffffffffffffffffffffffffffffffffff16815260200160001515815260200160001515815260200184815250905080600860008481526020019081526020016000206000820151816000015560208201518160010190816109479190614702565b5060408201518160020160006101000a81548173ffffffffffffffffffffffffffffffffffffffff021916908373ffffffffffffffffffffffffffffffffffffffff16021790555060608201518160020160146101000a81548160ff02191690831515021790555060808201518160020160156101000a81548160ff02191690831515021790555060a08201518160030190805190602001906109eb92919061345c565b5090505081600985604051610a009190614419565b90815260200160405180910390208190555060076000815480929190610a2590614803565b91905055507fcd4261f8fecfed60e919663892c94e91aa1610796fed34bd1f311069efafedfb823386604051610a5d9392919061484b565b60405180910390a150505050565b6003818051602081018201805184825260208301602085012081835280955050505050506000915090505481565b60008054906101000a900473ffffffffffffffffffffffffffffffffffffffff1673ffffffffffffffffffffffffffffffffffffffff163373ffffffffffffffffffffffffffffffffffffffff1603610b27576040517f08c379a0000000000000000000000000000000000000000000000000000000008152600401610b1e906143bd565b60405180910390fd5b600060086000838152602001908152602001600020905081816000015414610b84576040517f08c379a0000000000000000000000000000000000000000000000000000000008152600401610b7b906148d5565b60405180910390fd5b8060020160149054906101000a900460ff1615610bd6576040517f08c379a0000000000000000000000000000000000000000000000000000000008152600401610bcd90614941565b60405180910390fd5b6000816003018054905011610c20576040517f08c379a0000000000000000000000000000000000000000000000000000000008152600401610c17906149d3565b60405180910390fd5b60018160020160146101000a81548160ff0219169083151502179055507f41632ed054e8232670578c765ce51930c952953182bc1685784ff47542f1281982604051610c6c9190613909565b60405180910390a15050565b6008602052806000526040600020600091509050806000015490806001018054610ca190614525565b80601f0160208091040260200160405190810160405280929190818152602001828054610ccd90614525565b8015610d1a5780601f10610cef57610100808354040283529160200191610d1a565b820191906000526020600020905b815481529060010190602001808311610cfd57829003601f168201915b5050505050908060020160009054906101000a900473ffffffffffffffffffffffffffffffffffffffff16908060020160149054906101000a900460ff16908060020160159054906101000a900460ff16905085565b6060600060086000848152602001908152602001600020905082816000015414610dcf576040517f08c379a0000000000000000000000000000000000000000000000000000000008152600401610dc6906148d5565b60405180910390fd5b80600301805480602002602001604051908101604052809291908181526020018280548015610e1d57602002820191906000526020600020905b815481526020019060010190808311610e09575b5050505050915050919050565b60045481565b610e386134a9565b600260008381526020019081526020016000206040518060a00160405290816000820154815260200160018201548152602001600282018054610e7a90614525565b80601f0160208091040260200160405190810160405280929190818152602001828054610ea690614525565b8015610ef35780601f10610ec857610100808354040283529160200191610ef3565b820191906000526020600020905b815481529060010190602001808311610ed657829003601f168201915b505050505081526020016003820160009054906101000a900473ffffffffffffffffffffffffffffffffffffffff1673ffffffffffffffffffffffffffffffffffffffff1673ffffffffffffffffffffffffffffffffffffffff1681526020016003820160149054906101000a900460ff1615151515815250509050919050565b60606000600660008473ffffffffffffffffffffffffffffffffffffffff1673ffffffffffffffffffffffffffffffffffffffff16815260200190815260200160002080548060200260200160405190810160405280929190818152602001828054801561100157602002820191906000526020600020905b815481526020019060010190808311610fed575b505050505090506000815167ffffffffffffffff81111561102557611024613610565b5b60405190808252806020026020018201604052801561105e57816020015b61104b6134f0565b8152602001906001900390816110435790505b50905060005b825181101561115f5760056000848381518110611084576110836149f3565b5b602002602001015181526020019081526020016000206040518060a00160405290816000820154815260200160018201548152602001600282015481526020016003820160009054906101000a900473ffffffffffffffffffffffffffffffffffffffff1673ffffffffffffffffffffffffffffffffffffffff1673ffffffffffffffffffffffffffffffffffffffff1681526020016003820160149054906101000a900460ff161515151581525050828281518110611147576111466149f3565b5b60200260200101819052508080600101915050611064565b508092505050919050565b60008054906101000a900473ffffffffffffffffffffffffffffffffffffffff1673ffffffffffffffffffffffffffffffffffffffff163373ffffffffffffffffffffffffffffffffffffffff16146111f8576040517f08c379a00000000000000000000000000000000000000000000000000000000081526004016111ef906143bd565b60405180910390fd5b60008060009054906101000a900473ffffffffffffffffffffffffffffffffffffffff1673ffffffffffffffffffffffffffffffffffffffff164760405161123f90614a53565b60006040518083038185875af1925050503d806000811461127c576040519150601f19603f3d011682016040523d82523d6000602084013e611281565b606091505b50509050806112c5576040517f08c379a00000000000000000000000000000000000000000000000000000000081526004016112bc90614ab4565b60405180910390fd5b50565b60008054906101000a900473ffffffffffffffffffffffffffffffffffffffff1673ffffffffffffffffffffffffffffffffffffffff163373ffffffffffffffffffffffffffffffffffffffff1614611356576040517f08c379a000000000000000000000000000000000000000000000000000000000815260040161134d906143bd565b60405180910390fd5b60006003826040516113689190614419565b9081526020016040518091039020549050600081036113bc576040517f08c379a00000000000000000000000000000000000000000000000000000000081526004016113b390614b46565b60405180910390fd5b60006002600083815260200190815260200160002090508060030160149054906101000a900460ff16611424576040517f08c379a000000000000000000000000000000000000000000000000000000000815260040161141b90614bb2565b60405180910390fd5b604051806020016040528060008152508160020190816114449190614702565b5060006003846040516114579190614419565b9081526020016040518091039020819055507fb678c65d8fdb784b80cde63f565d4fdf781de948e8ad5aa6215a05fe2c624edf836040516114989190614bd2565b60405180910390a1505050565b600660205281600052604060002081815481106114c157600080fd5b90600052602060002001600091509150505481565b60008054906101000a900473ffffffffffffffffffffffffffffffffffffffff1673ffffffffffffffffffffffffffffffffffffffff163373ffffffffffffffffffffffffffffffffffffffff1614611564576040517f08c379a000000000000000000000000000000000000000000000000000000000815260040161155b906143bd565b60405180910390fd5b856001600088815260200190815260200160002060000154036115bc576040517f08c379a00000000000000000000000000000000000000000000000000000000081526004016115b390614c40565b60405180910390fd5b60006040518060e001604052808881526020018781526020018681526020018581526020018481526020018381526020016000815250905080600160008981526020019081526020016000206000820151816000015560208201518160010190816116279190614702565b50604082015181600201908161163d9190614702565b5060608201518160030190816116539190614702565b506080820151816004015560a0820151816005015560c082015181600601559050507f8d3d82130aebba03bb48b5d158bc2bbb4647856765b1089e7250507307965af987878560006040516116ab9493929190614c9b565b60405180910390a150505050505050565b60008054906101000a900473ffffffffffffffffffffffffffffffffffffffff1673ffffffffffffffffffffffffffffffffffffffff163373ffffffffffffffffffffffffffffffffffffffff161461174a576040517f08c379a0000000000000000000000000000000000000000000000000000000008152600401611741906143bd565b60405180910390fd5b6000600560008381526020019081526020016000209050818160000154146117a7576040517f08c379a000000000000000000000000000000000000000000000000000000000815260040161179e90614d33565b60405180910390fd5b8060030160149054906101000a900460ff16156117f9576040517f08c379a00000000000000000000000000000000000000000000000000000000081526004016117f090614d9f565b60405180910390fd5b6000600260008360010154815260200190815260200160002090508060030160149054906101000a900460ff1615611866576040517f08c379a000000000000000000000000000000000000000000000000000000000815260040161185d90614e0b565b60405180910390fd5b60018160030160146101000a81548160ff02191690831515021790555060018260030160146101000a81548160ff0219169083151502179055507feb3b41be12efa25c0c65725eeff2e2ad0250e2e5de2aa939e18f36aa656e98808383600101546040516118d5929190614e2b565b60405180910390a17f26b22e11bb82e495373f9064c9f1db3c19dd810594822900684274cfd7f7a95582600101548260010154604051611916929190614e2b565b60405180910390a1505050565b6000806003836040516119369190614419565b90815260200160405180910390205490506000810361198a576040517f08c379a000000000000000000000000000000000000000000000000000000000815260040161198190614ec6565b60405180910390fd5b60006002600083815260200190815260200160002090508060030160149054906101000a900460ff16156119f3576040517f08c379a00000000000000000000000000000000000000000000000000000000081526004016119ea90614e0b565b60405180910390fd5b8192505050919050565b6001602052806000526040600020600091509050806000015490806001018054611a2690614525565b80601f0160208091040260200160405190810160405280929190818152602001828054611a5290614525565b8015611a9f5780601f10611a7457610100808354040283529160200191611a9f565b820191906000526020600020905b815481529060010190602001808311611a8257829003601f168201915b505050505090806002018054611ab490614525565b80601f0160208091040260200160405190810160405280929190818152602001828054611ae090614525565b8015611b2d5780601f10611b0257610100808354040283529160200191611b2d565b820191906000526020600020905b815481529060010190602001808311611b1057829003601f168201915b505050505090806003018054611b4290614525565b80601f0160208091040260200160405190810160405280929190818152602001828054611b6e90614525565b8015611bbb5780601f10611b9057610100808354040283529160200191611bbb565b820191906000526020600020905b815481529060010190602001808311611b9e57829003601f168201915b5050505050908060040154908060050154908060060154905087565b60008054906101000a900473ffffffffffffffffffffffffffffffffffffffff1673ffffffffffffffffffffffffffffffffffffffff163373ffffffffffffffffffffffffffffffffffffffff1614611c65576040517f08c379a0000000000000000000000000000000000000000000000000000000008152600401611c5c906143bd565b60405180910390fd5b81600160008481526020019081526020016000206000015414611cbd576040517f08c379a0000000000000000000000000000000000000000000000000000000008152600401611cb490614f32565b60405180910390fd5b600060016000848152602001908152602001600020905060008160060154905060005b83811015611e6357600042868385611cf89190614f52565b604051602001611d0a93929190614f86565b6040516020818303038152906040528051906020012060001c90506040518060a0016040528082815260200187815260200160405180602001604052806000815250815260200160008054906101000a900473ffffffffffffffffffffffffffffffffffffffff1673ffffffffffffffffffffffffffffffffffffffff168152602001600015158152506002600083815260200190815260200160002060008201518160000155602082015181600101556040820151816002019081611dd09190614702565b5060608201518160030160006101000a81548173ffffffffffffffffffffffffffffffffffffffff021916908373ffffffffffffffffffffffffffffffffffffffff16021790555060808201518160030160146101000a81548160ff021916908315150217905550905050836006016000815480929190611e5090614803565b9190505550508080600101915050611ce0565b507febcfd4ce21b6aefd071d3e0f4bfa57e491b5308a1ffb5a3a8e4805e23f00b8d78484604051611e95929190614e2b565b60405180910390a150505050565b60008054906101000a900473ffffffffffffffffffffffffffffffffffffffff1673ffffffffffffffffffffffffffffffffffffffff163373ffffffffffffffffffffffffffffffffffffffff1614611f31576040517f08c379a0000000000000000000000000000000000000000000000000000000008152600401611f28906143bd565b60405180910390fd5b600060086000838152602001908152602001600020905081816000015414611f8e576040517f08c379a0000000000000000000000000000000000000000000000000000000008152600401611f85906148d5565b60405180910390fd5b8060020160149054906101000a900460ff16611fdf576040517f08c379a0000000000000000000000000000000000000000000000000000000008152600401611fd69061500f565b60405180910390fd5b8060020160159054906101000a900460ff1615612031576040517f08c379a00000000000000000000000000000000000000000000000000000000081526004016120289061507b565b60405180910390fd5b60005b81600301805490508110156120e857600082600301828154811061205b5761205a6149f3565b5b90600052602060002001549050600060026000838152602001908152602001600020905060018160030160146101000a81548160ff0219169083151502179055507f26b22e11bb82e495373f9064c9f1db3c19dd810594822900684274cfd7f7a9558282600101546040516120d1929190614e2b565b60405180910390a150508080600101915050612034565b5060018160020160156101000a81548160ff0219169083151502179055507f16cfa5dfb4453c2c3f24051f8af4ad2f5a4cf5fbe28cc6fe1b6c9b7e6c8118a5826040516121359190613909565b60405180910390a15050565b60008054906101000a900473ffffffffffffffffffffffffffffffffffffffff1681565b60008054906101000a900473ffffffffffffffffffffffffffffffffffffffff1673ffffffffffffffffffffffffffffffffffffffff163373ffffffffffffffffffffffffffffffffffffffff16036121f3576040517f08c379a00000000000000000000000000000000000000000000000000000000081526004016121ea906143bd565b60405180910390fd5b600060086000848152602001908152602001600020905082816000015414612250576040517f08c379a0000000000000000000000000000000000000000000000000000000008152600401612247906148d5565b60405180910390fd5b8060020160149054906101000a900460ff16156122a2576040517f08c379a000000000000000000000000000000000000000000000000000000000815260040161229990614941565b60405180910390fd5b6000600260008481526020019081526020016000209050828160000154146122ff576040517f08c379a00000000000000000000000000000000000000000000000000000000081526004016122f6906150e7565b60405180910390fd5b8060030160149054906101000a900460ff1615612351576040517f08c379a000000000000000000000000000000000000000000000000000000000815260040161234890614e0b565b60405180910390fd5b3373ffffffffffffffffffffffffffffffffffffffff168160030160009054906101000a900473ffffffffffffffffffffffffffffffffffffffff1673ffffffffffffffffffffffffffffffffffffffff16146123e3576040517f08c379a00000000000000000000000000000000000000000000000000000000081526004016123da90615153565b60405180910390fd5b816003018390806001815401808255809150506001900390600052602060002001600090919091909150557f6d79b29a08a3d4eef715ac5e9726cead09aa748c69dbd122b05ad0a8a5d0a439848460405161243f929190614e2b565b60405180910390a150505050565b6009818051602081018201805184825260208301602085012081835280955050505050506000915090505481565b60056020528060005260406000206000915090508060000154908060010154908060020154908060030160009054906101000a900473ffffffffffffffffffffffffffffffffffffffff16908060030160149054906101000a900460ff16905085565b6124e6613537565b60006009836040516124f89190614419565b90815260200160405180910390205490506000810361254c576040517f08c379a0000000000000000000000000000000000000000000000000000000008152600401612543906151e5565b60405180910390fd5b600860008281526020019081526020016000206040518060c00160405290816000820154815260200160018201805461258490614525565b80601f01602080910402602001604051908101604052809291908181526020018280546125b090614525565b80156125fd5780601f106125d2576101008083540402835291602001916125fd565b820191906000526020600020905b8154815290600101906020018083116125e057829003601f168201915b505050505081526020016002820160009054906101000a900473ffffffffffffffffffffffffffffffffffffffff1673ffffffffffffffffffffffffffffffffffffffff1673ffffffffffffffffffffffffffffffffffffffff1681526020016002820160149054906101000a900460ff161515151581526020016002820160159054906101000a900460ff16151515158152602001600382018054806020026020016040519081016040528092919081815260200182805480156126e157602002820191906000526020600020905b8154815260200190600101908083116126cd575b505050505081525050915050919050565b6126fa613587565b600160008381526020019081526020016000206040518060e00160405290816000820154815260200160018201805461273290614525565b80601f016020809104026020016040519081016040528092919081815260200182805461275e90614525565b80156127ab5780601f10612780576101008083540402835291602001916127ab565b820191906000526020600020905b81548152906001019060200180831161278e57829003601f168201915b505050505081526020016002820180546127c490614525565b80601f01602080910402602001604051908101604052809291908181526020018280546127f090614525565b801561283d5780601f106128125761010080835404028352916020019161283d565b820191906000526020600020905b81548152906001019060200180831161282057829003601f168201915b5050505050815260200160038201805461285690614525565b80601f016020809104026020016040519081016040528092919081815260200182805461288290614525565b80156128cf5780601f106128a4576101008083540402835291602001916128cf565b820191906000526020600020905b8154815290600101906020018083116128b257829003601f168201915b5050505050815260200160048201548152602001600582015481526020016006820154815250509050919050565b600260205280600052604060002060009150905080600001549080600101549080600201805461292c90614525565b80601f016020809104026020016040519081016040528092919081815260200182805461295890614525565b80156129a55780601f1061297a576101008083540402835291602001916129a5565b820191906000526020600020905b81548152906001019060200180831161298857829003601f168201915b5050505050908060030160009054906101000a900473ffffffffffffffffffffffffffffffffffffffff16908060030160149054906101000a900460ff16905085565b60008054906101000a900473ffffffffffffffffffffffffffffffffffffffff1673ffffffffffffffffffffffffffffffffffffffff163373ffffffffffffffffffffffffffffffffffffffff1614612a76576040517f08c379a0000000000000000000000000000000000000000000000000000000008152600401612a6d906143bd565b60405180910390fd5b81600260008481526020019081526020016000206000015414612ace576040517f08c379a0000000000000000000000000000000000000000000000000000000008152600401612ac5906150e7565b60405180910390fd5b6000815111612b12576040517f08c379a0000000000000000000000000000000000000000000000000000000008152600401612b0990615251565b60405180910390fd5b6000600382604051612b249190614419565b90815260200160405180910390205414612b73576040517f08c379a0000000000000000000000000000000000000000000000000000000008152600401612b6a906152e3565b60405180910390fd5b600060026000848152602001908152602001600020905081816002019081612b9b9190614702565b5082600383604051612bad9190614419565b9081526020016040518091039020819055507f455dcb05772163fb704eb1fb314e6f1a9513db7a4f61f49d0767a3f0de77e3228383604051612bf0929190615303565b60405180910390a1505050565b60075481565b612c0b6134f0565b600560008381526020019081526020016000206040518060a00160405290816000820154815260200160018201548152602001600282015481526020016003820160009054906101000a900473ffffffffffffffffffffffffffffffffffffffff1673ffffffffffffffffffffffffffffffffffffffff1673ffffffffffffffffffffffffffffffffffffffff1681526020016003820160149054906101000a900460ff1615151515815250509050919050565b600060026000838152602001908152602001600020905060006001600083600101548152602001908152602001600020905082826000015414612d37576040517f08c379a0000000000000000000000000000000000000000000000000000000008152600401612d2e906150e7565b60405180910390fd5b8160030160149054906101000a900460ff1615612d89576040517f08c379a0000000000000000000000000000000000000000000000000000000008152600401612d8090614e0b565b60405180910390fd5b8060040154341015612dd0576040517f08c379a0000000000000000000000000000000000000000000000000000000008152600401612dc79061537f565b60405180910390fd5b338260030160006101000a81548173ffffffffffffffffffffffffffffffffffffffff021916908373ffffffffffffffffffffffffffffffffffffffff16021790555060008260030160146101000a81548160ff0219169083151502179055507fd73457218f6ab2c74e548247b8ccd99af11d7975e2beef89a0cd9743fb558da483338360040154604051612e679392919061539f565b60405180910390a1505050565b60008054906101000a900473ffffffffffffffffffffffffffffffffffffffff1673ffffffffffffffffffffffffffffffffffffffff163373ffffffffffffffffffffffffffffffffffffffff1614612f02576040517f08c379a0000000000000000000000000000000000000000000000000000000008152600401612ef9906143bd565b60405180910390fd5b80600260008381526020019081526020016000206000015414612f5a576040517f08c379a0000000000000000000000000000000000000000000000000000000008152600401612f51906150e7565b60405180910390fd5b6002600082815260200190815260200160002060030160149054906101000a900460ff1615612fbe576040517f08c379a0000000000000000000000000000000000000000000000000000000008152600401612fb590614e0b565b60405180910390fd5b600060026000838152602001908152602001600020905060018160030160146101000a81548160ff0219169083151502179055507f26b22e11bb82e495373f9064c9f1db3c19dd810594822900684274cfd7f7a955828260010154604051613027929190614e2b565b60405180910390a15050565b600060026000848152602001908152602001600020905082816000015414613090576040517f08c379a0000000000000000000000000000000000000000000000000000000008152600401613087906150e7565b60405180910390fd5b8060030160149054906101000a900460ff16156130e2576040517f08c379a00000000000000000000000000000000000000000000000000000000081526004016130d990614e0b565b60405180910390fd5b60016000826001015481526020019081526020016000206004015434101561313f576040517f08c379a00000000000000000000000000000000000000000000000000000000081526004016131369061537f565b60405180910390fd5b60006003836040516131519190614419565b9081526020016040518091039020549050600081146131d45760006002600083815260200190815260200160002090508060030160149054906101000a900460ff166131d2576040517f08c379a00000000000000000000000000000000000000000000000000000000081526004016131c990615448565b60405180910390fd5b505b828260020190816131e59190614702565b50836003846040516131f79190614419565b908152602001604051809103902081905550600042338660045460405160200161322494939291906154b0565b6040516020818303038152906040528051906020012060001c905060006040518060a001604052808381526020018781526020014281526020013373ffffffffffffffffffffffffffffffffffffffff168152602001600015158152509050806005600084815260200190815260200160002060008201518160000155602082015181600101556040820151816002015560608201518160030160006101000a81548173ffffffffffffffffffffffffffffffffffffffff021916908373ffffffffffffffffffffffffffffffffffffffff16021790555060808201518160030160146101000a81548160ff021916908315150217905550905050600660003373ffffffffffffffffffffffffffffffffffffffff1673ffffffffffffffffffffffffffffffffffffffff168152602001908152602001600020829080600181540180825580915050600190039060005260206000200160009091909190915055338460030160006101000a81548173ffffffffffffffffffffffffffffffffffffffff021916908373ffffffffffffffffffffffffffffffffffffffff160217905550600460008154809291906133db90614803565b91905055507f455dcb05772163fb704eb1fb314e6f1a9513db7a4f61f49d0767a3f0de77e3228686604051613411929190615303565b60405180910390a17ff4ae361d67df8ff151337122b70e54414e64545e71dd154d79408677451fd87482873360405161344c939291906154fe565b60405180910390a1505050505050565b828054828255906000526020600020908101928215613498579160200282015b8281111561349757825182559160200191906001019061347c565b5b5090506134a591906135c4565b5090565b6040518060a00160405280600081526020016000815260200160608152602001600073ffffffffffffffffffffffffffffffffffffffff1681526020016000151581525090565b6040518060a00160405280600081526020016000815260200160008152602001600073ffffffffffffffffffffffffffffffffffffffff1681526020016000151581525090565b6040518060c001604052806000815260200160608152602001600073ffffffffffffffffffffffffffffffffffffffff168152602001600015158152602001600015158152602001606081525090565b6040518060e00160405280600081526020016060815260200160608152602001606081526020016000815260200160008152602001600081525090565b5b808211156135dd5760008160009055506001016135c5565b5090565b6000604051905090565b600080fd5b600080fd5b600080fd5b600080fd5b6000601f19601f8301169050919050565b7f4e487b7100000000000000000000000000000000000000000000000000000000600052604160045260246000fd5b613648826135ff565b810181811067ffffffffffffffff8211171561366757613666613610565b5b80604052505050565b600061367a6135e1565b9050613686828261363f565b919050565b600067ffffffffffffffff8211156136a6576136a5613610565b5b6136af826135ff565b9050602081019050919050565b82818337600083830152505050565b60006136de6136d98461368b565b613670565b9050828152602081018484840111156136fa576136f96135fa565b5b6137058482856136bc565b509392505050565b600082601f830112613722576137216135f5565b5b81356137328482602086016136cb565b91505092915050565b600067ffffffffffffffff82111561375657613755613610565b5b602082029050602081019050919050565b600080fd5b6000819050919050565b61377f8161376c565b811461378a57600080fd5b50565b60008135905061379c81613776565b92915050565b60006137b56137b08461373b565b613670565b905080838252602082019050602084028301858111156137d8576137d7613767565b5b835b8181101561380157806137ed888261378d565b8452602084019350506020810190506137da565b5050509392505050565b600082601f8301126138205761381f6135f5565b5b81356138308482602086016137a2565b91505092915050565b600080604083850312156138505761384f6135eb565b5b600083013567ffffffffffffffff81111561386e5761386d6135f0565b5b61387a8582860161370d565b925050602083013567ffffffffffffffff81111561389b5761389a6135f0565b5b6138a78582860161380b565b9150509250929050565b6000602082840312156138c7576138c66135eb565b5b600082013567ffffffffffffffff8111156138e5576138e46135f0565b5b6138f18482850161370d565b91505092915050565b6139038161376c565b82525050565b600060208201905061391e60008301846138fa565b92915050565b60006020828403121561393a576139396135eb565b5b60006139488482850161378d565b91505092915050565b600081519050919050565b600082825260208201905092915050565b60005b8381101561398b578082015181840152602081019050613970565b60008484015250505050565b60006139a282613951565b6139ac818561395c565b93506139bc81856020860161396d565b6139c5816135ff565b840191505092915050565b600073ffffffffffffffffffffffffffffffffffffffff82169050919050565b60006139fb826139d0565b9050919050565b613a0b816139f0565b82525050565b60008115159050919050565b613a2681613a11565b82525050565b600060a082019050613a4160008301886138fa565b8181036020830152613a538187613997565b9050613a626040830186613a02565b613a6f6060830185613a1d565b613a7c6080830184613a1d565b9695505050505050565b600081519050919050565b600082825260208201905092915050565b6000819050602082019050919050565b613abb8161376c565b82525050565b6000613acd8383613ab2565b60208301905092915050565b6000602082019050919050565b6000613af182613a86565b613afb8185613a91565b9350613b0683613aa2565b8060005b83811015613b37578151613b1e8882613ac1565b9750613b2983613ad9565b925050600181019050613b0a565b5085935050505092915050565b60006020820190508181036000830152613b5e8184613ae6565b905092915050565b600082825260208201905092915050565b6000613b8282613951565b613b8c8185613b66565b9350613b9c81856020860161396d565b613ba5816135ff565b840191505092915050565b613bb9816139f0565b82525050565b613bc881613a11565b82525050565b600060a083016000830151613be66000860182613ab2565b506020830151613bf96020860182613ab2565b5060408301518482036040860152613c118282613b77565b9150506060830151613c266060860182613bb0565b506080830151613c396080860182613bbf565b508091505092915050565b60006020820190508181036000830152613c5e8184613bce565b905092915050565b613c6f816139f0565b8114613c7a57600080fd5b50565b600081359050613c8c81613c66565b92915050565b600060208284031215613ca857613ca76135eb565b5b6000613cb684828501613c7d565b91505092915050565b600081519050919050565b600082825260208201905092915050565b6000819050602082019050919050565b60a082016000820151613d016000850182613ab2565b506020820151613d146020850182613ab2565b506040820151613d276040850182613ab2565b506060820151613d3a6060850182613bb0565b506080820151613d4d6080850182613bbf565b50505050565b6000613d5f8383613ceb565b60a08301905092915050565b6000602082019050919050565b6000613d8382613cbf565b613d8d8185613cca565b9350613d9883613cdb565b8060005b83811015613dc9578151613db08882613d53565b9750613dbb83613d6b565b925050600181019050613d9c565b5085935050505092915050565b60006020820190508181036000830152613df08184613d78565b905092915050565b60008060408385031215613e0f57613e0e6135eb565b5b6000613e1d85828601613c7d565b9250506020613e2e8582860161378d565b9150509250929050565b60008060008060008060c08789031215613e5557613e546135eb565b5b6000613e6389828a0161378d565b965050602087013567ffffffffffffffff811115613e8457613e836135f0565b5b613e9089828a0161370d565b955050604087013567ffffffffffffffff811115613eb157613eb06135f0565b5b613ebd89828a0161370d565b945050606087013567ffffffffffffffff811115613ede57613edd6135f0565b5b613eea89828a0161370d565b9350506080613efb89828a0161378d565b92505060a0613f0c89828a0161378d565b9150509295509295509295565b600060e082019050613f2e600083018a6138fa565b8181036020830152613f408189613997565b90508181036040830152613f548188613997565b90508181036060830152613f688187613997565b9050613f7760808301866138fa565b613f8460a08301856138fa565b613f9160c08301846138fa565b98975050505050505050565b60008060408385031215613fb457613fb36135eb565b5b6000613fc28582860161378d565b9250506020613fd38582860161378d565b9150509250929050565b6000602082019050613ff26000830184613a02565b92915050565b600060a08201905061400d60008301886138fa565b61401a60208301876138fa565b61402760408301866138fa565b6140346060830185613a02565b6140416080830184613a1d565b9695505050505050565b600082825260208201905092915050565b600061406782613a86565b614071818561404b565b935061407c83613aa2565b8060005b838110156140ad5781516140948882613ac1565b975061409f83613ad9565b925050600181019050614080565b5085935050505092915050565b600060c0830160008301516140d26000860182613ab2565b50602083015184820360208601526140ea8282613b77565b91505060408301516140ff6040860182613bb0565b5060608301516141126060860182613bbf565b5060808301516141256080860182613bbf565b5060a083015184820360a086015261413d828261405c565b9150508091505092915050565b6000602082019050818103600083015261416481846140ba565b905092915050565b600060e0830160008301516141846000860182613ab2565b506020830151848203602086015261419c8282613b77565b915050604083015184820360408601526141b68282613b77565b915050606083015184820360608601526141d08282613b77565b91505060808301516141e56080860182613ab2565b5060a08301516141f860a0860182613ab2565b5060c083015161420b60c0860182613ab2565b508091505092915050565b60006020820190508181036000830152614230818461416c565b905092915050565b600060a08201905061424d60008301886138fa565b61425a60208301876138fa565b818103604083015261426c8186613997565b905061427b6060830185613a02565b6142886080830184613a1d565b9695505050505050565b600080604083850312156142a9576142a86135eb565b5b60006142b78582860161378d565b925050602083013567ffffffffffffffff8111156142d8576142d76135f0565b5b6142e48582860161370d565b9150509250929050565b60a0820160008201516143046000850182613ab2565b5060208201516143176020850182613ab2565b50604082015161432a6040850182613ab2565b50606082015161433d6060850182613bb0565b5060808201516143506080850182613bbf565b50505050565b600060a08201905061436b60008301846142ee565b92915050565b7f4e6f7420617574686f72697a6564000000000000000000000000000000000000600082015250565b60006143a7600e8361395c565b91506143b282614371565b602082019050919050565b600060208201905081810360008301526143d68161439a565b9050919050565b600081905092915050565b60006143f382613951565b6143fd81856143dd565b935061440d81856020860161396d565b80840191505092915050565b600061442582846143e8565b915081905092915050565b7f5246494420616c726561647920696e2075736500000000000000000000000000600082015250565b600061446660138361395c565b915061447182614430565b602082019050919050565b6000602082019050818103600083015261449581614459565b9050919050565b6000819050919050565b6144b76144b28261376c565b61449c565b82525050565b60006144c982866144a6565b6020820191506144d982856143e8565b91506144e582846144a6565b602082019150819050949350505050565b7f4e487b7100000000000000000000000000000000000000000000000000000000600052602260045260246000fd5b6000600282049050600182168061453d57607f821691505b6020821081036145505761454f6144f6565b5b50919050565b60008190508160005260206000209050919050565b60006020601f8301049050919050565b600082821b905092915050565b6000600883026145b87fffffffffffffffffffffffffffffffffffffffffffffffffffffffffffffffff8261457b565b6145c2868361457b565b95508019841693508086168417925050509392505050565b6000819050919050565b60006145ff6145fa6145f58461376c565b6145da565b61376c565b9050919050565b6000819050919050565b614619836145e4565b61462d61462582614606565b848454614588565b825550505050565b600090565b614642614635565b61464d818484614610565b505050565b5b818110156146715761466660008261463a565b600181019050614653565b5050565b601f8211156146b65761468781614556565b6146908461456b565b8101602085101561469f578190505b6146b36146ab8561456b565b830182614652565b50505b505050565b600082821c905092915050565b60006146d9600019846008026146bb565b1980831691505092915050565b60006146f283836146c8565b9150826002028217905092915050565b61470b82613951565b67ffffffffffffffff81111561472457614723613610565b5b61472e8254614525565b614739828285614675565b600060209050601f83116001811461476c576000841561475a578287015190505b61476485826146e6565b8655506147cc565b601f19841661477a86614556565b60005b828110156147a25784890151825560018201915060208501945060208101905061477d565b868310156147bf57848901516147bb601f8916826146c8565b8355505b6001600288020188555050505b505050505050565b7f4e487b7100000000000000000000000000000000000000000000000000000000600052601160045260246000fd5b600061480e8261376c565b91507fffffffffffffffffffffffffffffffffffffffffffffffffffffffffffffffff82036148405761483f6147d4565b5b600182019050919050565b600060608201905061486060008301866138fa565b61486d6020830185613a02565b818103604083015261487f8184613997565b9050949350505050565b7f437261746520646f6573206e6f74206578697374000000000000000000000000600082015250565b60006148bf60148361395c565b91506148ca82614889565b602082019050919050565b600060208201905081810360008301526148ee816148b2565b9050919050565b7f437261746520697320616c7265616479207365616c6564000000000000000000600082015250565b600061492b60178361395c565b9150614936826148f5565b602082019050919050565b6000602082019050818103600083015261495a8161491e565b9050919050565b7f4372617465206d75737420636f6e7461696e206174206c65617374206f6e652060008201527f6974656d00000000000000000000000000000000000000000000000000000000602082015250565b60006149bd60248361395c565b91506149c882614961565b604082019050919050565b600060208201905081810360008301526149ec816149b0565b9050919050565b7f4e487b7100000000000000000000000000000000000000000000000000000000600052603260045260246000fd5b600081905092915050565b50565b6000614a3d600083614a22565b9150614a4882614a2d565b600082019050919050565b6000614a5e82614a30565b9150819050919050565b7f5769746864726177616c206661696c6564000000000000000000000000000000600082015250565b6000614a9e60118361395c565b9150614aa982614a68565b602082019050919050565b60006020820190508181036000830152614acd81614a91565b9050919050565b7f5246494420746167206e6f74206173736f636961746564207769746820616e7960008201527f206974656d000000000000000000000000000000000000000000000000000000602082015250565b6000614b3060258361395c565b9150614b3b82614ad4565b604082019050919050565b60006020820190508181036000830152614b5f81614b23565b9050919050565b7f4974656d206e6f74207965742064656c69766572656400000000000000000000600082015250565b6000614b9c60168361395c565b9150614ba782614b66565b602082019050919050565b60006020820190508181036000830152614bcb81614b8f565b9050919050565b60006020820190508181036000830152614bec8184613997565b905092915050565b7f50726f6475637420494420616c72656164792065786973747300000000000000600082015250565b6000614c2a60198361395c565b9150614c3582614bf4565b602082019050919050565b60006020820190508181036000830152614c5981614c1d565b9050919050565b6000819050919050565b6000614c85614c80614c7b84614c60565b6145da565b61376c565b9050919050565b614c9581614c6a565b82525050565b6000608082019050614cb060008301876138fa565b8181036020830152614cc28186613997565b9050614cd160408301856138fa565b614cde6060830184614c8c565b95945050505050565b7f4f7264657220646f6573206e6f74206578697374000000000000000000000000600082015250565b6000614d1d60148361395c565b9150614d2882614ce7565b602082019050919050565b60006020820190508181036000830152614d4c81614d10565b9050919050565b7f4f7264657220616c72656164792066756c66696c6c6564000000000000000000600082015250565b6000614d8960178361395c565b9150614d9482614d53565b602082019050919050565b60006020820190508181036000830152614db881614d7c565b9050919050565b7f4974656d20616c72656164792064656c69766572656400000000000000000000600082015250565b6000614df560168361395c565b9150614e0082614dbf565b602082019050919050565b60006020820190508181036000830152614e2481614de8565b9050919050565b6000604082019050614e4060008301856138fa565b614e4d60208301846138fa565b9392505050565b7f52464944206e6f74206173736f636961746564207769746820616e792069746560008201527f6d00000000000000000000000000000000000000000000000000000000000000602082015250565b6000614eb060218361395c565b9150614ebb82614e54565b604082019050919050565b60006020820190508181036000830152614edf81614ea3565b9050919050565b7f50726f6475637420646f6573206e6f7420657869737400000000000000000000600082015250565b6000614f1c60168361395c565b9150614f2782614ee6565b602082019050919050565b60006020820190508181036000830152614f4b81614f0f565b9050919050565b6000614f5d8261376c565b9150614f688361376c565b9250828201905080821115614f8057614f7f6147d4565b5b92915050565b6000614f9282866144a6565b602082019150614fa282856144a6565b602082019150614fb282846144a6565b602082019150819050949350505050565b7f4372617465206973206e6f74207365616c656400000000000000000000000000600082015250565b6000614ff960138361395c565b915061500482614fc3565b602082019050919050565b6000602082019050818103600083015261502881614fec565b9050919050565b7f437261746520616c72656164792064656c697665726564000000000000000000600082015250565b600061506560178361395c565b91506150708261502f565b602082019050919050565b6000602082019050818103600083015261509481615058565b9050919050565b7f4974656d20646f6573206e6f7420657869737400000000000000000000000000600082015250565b60006150d160138361395c565b91506150dc8261509b565b602082019050919050565b60006020820190508181036000830152615100816150c4565b9050919050565b7f4974656d206e6f74206f776e656420627920746869732077617265686f757365600082015250565b600061513d60208361395c565b915061514882615107565b602082019050919050565b6000602082019050818103600083015261516c81615130565b9050919050565b7f4372617465206e6f7420666f756e6420666f722074686520676976656e20524660008201527f4944000000000000000000000000000000000000000000000000000000000000602082015250565b60006151cf60228361395c565b91506151da82615173565b604082019050919050565b600060208201905081810360008301526151fe816151c2565b9050919050565b7f496e76616c696420524649442074616700000000000000000000000000000000600082015250565b600061523b60108361395c565b915061524682615205565b602082019050919050565b6000602082019050818103600083015261526a8161522e565b9050919050565b7f524649442074616720616c72656164792061737369676e656420746f20616e6f60008201527f74686572206974656d0000000000000000000000000000000000000000000000602082015250565b60006152cd60298361395c565b91506152d882615271565b604082019050919050565b600060208201905081810360008301526152fc816152c0565b9050919050565b600060408201905061531860008301856138fa565b818103602083015261532a8184613997565b90509392505050565b7f496e73756666696369656e742066756e64730000000000000000000000000000600082015250565b600061536960128361395c565b915061537482615333565b602082019050919050565b600060208201905081810360008301526153988161535c565b9050919050565b60006060820190506153b460008301866138fa565b6153c16020830185613a02565b6153ce60408301846138fa565b949350505050565b7f5246494420616c726561647920696e2075736520666f7220616e6f746865722060008201527f756e64656c697665726564206974656d00000000000000000000000000000000602082015250565b600061543260308361395c565b915061543d826153d6565b604082019050919050565b6000602082019050818103600083015261546181615425565b9050919050565b60008160601b9050919050565b600061548082615468565b9050919050565b600061549282615475565b9050919050565b6154aa6154a5826139f0565b615487565b82525050565b60006154bc82876144a6565b6020820191506154cc8286615499565b6014820191506154dc82856144a6565b6020820191506154ec82846144a6565b60208201915081905095945050505050565b600060608201905061551360008301866138fa565b61552060208301856138fa565b61552d6040830184613a02565b94935050505056fea26469706673582212202a855c0b28954150191a8434108194fec597a439f082ba6b58ff859d132fbd9264736f6c634300081b0033",
  "linkReferences": {},
  "deployedLinkReferences": {}
}