{
  "_format": "hh-sol-artifact-1",
  "contractName": "CrateManagement",
  "sourceName": "contracts/CrateManagement.sol",
  "abi": [
    {
      "anonymous": false,
      "inputs": [
        {
          "indexed": false,
          "internalType": "uint256",
          "name": "crateId",
          "type": "uint256"
        },
        {
          "indexed": false,
          "internalType": "uint256[]",
          "name": "productIds",
          "type": "uint256[]"
        },
        {
          "indexed": false,
          "internalType": "string",
          "name": "crateRfidTag",
          "type": "string"
        }
      ],
      "name": "CrateCreated",
      "type": "event"
    },
    {
      "anonymous": false,
      "inputs": [
        {
          "indexed": false,
          "internalType": "uint256",
          "name": "crateId",
          "type": "uint256"
        }
      ],
      "name": "CrateShipped",
      "type": "event"
    },
    {
      "anonymous": false,
      "inputs": [
        {
          "indexed": false,
          "internalType": "uint256",
          "name": "id",
          "type": "uint256"
        },
        {
          "indexed": false,
          "internalType": "string",
          "name": "name",
          "type": "string"
        },
        {
          "indexed": false,
          "internalType": "uint256",
          "name": "cost",
          "type": "uint256"
        },
        {
          "indexed": false,
          "internalType": "uint256",
          "name": "stock",
          "type": "uint256"
        }
      ],
      "name": "ItemListed",
      "type": "event"
    },
    {
      "anonymous": false,
      "inputs": [
        {
          "indexed": false,
          "internalType": "uint256",
          "name": "id",
          "type": "uint256"
        },
        {
          "indexed": false,
          "internalType": "uint256",
          "name": "stock",
          "type": "uint256"
        }
      ],
      "name": "ItemUpdated",
      "type": "event"
    },
    {
      "anonymous": false,
      "inputs": [
        {
          "indexed": true,
          "internalType": "address",
          "name": "buyer",
          "type": "address"
        },
        {
          "indexed": false,
          "internalType": "uint256",
          "name": "orderId",
          "type": "uint256"
        },
        {
          "indexed": false,
          "internalType": "uint256",
          "name": "itemId",
          "type": "uint256"
        }
      ],
      "name": "OrderPlaced",
      "type": "event"
    },
    {
      "inputs": [
        {
          "internalType": "uint256",
          "name": "_id",
          "type": "uint256"
        }
      ],
      "name": "buyItem",
      "outputs": [],
      "stateMutability": "payable",
      "type": "function"
    },
    {
      "inputs": [
        {
          "internalType": "uint256",
          "name": "",
          "type": "uint256"
        }
      ],
      "name": "crateRfid",
      "outputs": [
        {
          "internalType": "string",
          "name": "",
          "type": "string"
        }
      ],
      "stateMutability": "view",
      "type": "function"
    },
    {
      "inputs": [
        {
          "internalType": "uint256",
          "name": "",
          "type": "uint256"
        }
      ],
      "name": "crates",
      "outputs": [
        {
          "internalType": "uint256",
          "name": "crateId",
          "type": "uint256"
        },
        {
          "internalType": "bool",
          "name": "shipped",
          "type": "bool"
        }
      ],
      "stateMutability": "view",
      "type": "function"
    },
    {
      "inputs": [
        {
          "internalType": "uint256[]",
          "name": "productIds",
          "type": "uint256[]"
        },
        {
          "internalType": "string",
          "name": "crateRfidTag",
          "type": "string"
        }
      ],
      "name": "createCrate",
      "outputs": [],
      "stateMutability": "nonpayable",
      "type": "function"
    },
    {
      "inputs": [
        {
          "internalType": "uint256",
          "name": "_id",
          "type": "uint256"
        }
      ],
      "name": "getItem",
      "outputs": [
        {
          "components": [
            {
              "internalType": "uint256",
              "name": "id",
              "type": "uint256"
            },
            {
              "internalType": "string",
              "name": "name",
              "type": "string"
            },
            {
              "internalType": "string",
              "name": "category",
              "type": "string"
            },
            {
              "internalType": "string",
              "name": "image",
              "type": "string"
            },
            {
              "internalType": "uint256",
              "name": "cost",
              "type": "uint256"
            },
            {
              "internalType": "uint256",
              "name": "rating",
              "type": "uint256"
            },
            {
              "internalType": "uint256",
              "name": "stock",
              "type": "uint256"
            },
            {
              "internalType": "string",
              "name": "rfidTag",
              "type": "string"
            }
          ],
          "internalType": "struct ProductManagement.Item",
          "name": "",
          "type": "tuple"
        }
      ],
      "stateMutability": "view",
      "type": "function"
    },
    {
      "inputs": [
        {
          "internalType": "uint256",
          "name": "crateId",
          "type": "uint256"
        }
      ],
      "name": "getProductsInCrate",
      "outputs": [
        {
          "internalType": "uint256[]",
          "name": "",
          "type": "uint256[]"
        }
      ],
      "stateMutability": "view",
      "type": "function"
    },
    {
      "inputs": [
        {
          "internalType": "uint256",
          "name": "",
          "type": "uint256"
        }
      ],
      "name": "items",
      "outputs": [
        {
          "internalType": "uint256",
          "name": "id",
          "type": "uint256"
        },
        {
          "internalType": "string",
          "name": "name",
          "type": "string"
        },
        {
          "internalType": "string",
          "name": "category",
          "type": "string"
        },
        {
          "internalType": "string",
          "name": "image",
          "type": "string"
        },
        {
          "internalType": "uint256",
          "name": "cost",
          "type": "uint256"
        },
        {
          "internalType": "uint256",
          "name": "rating",
          "type": "uint256"
        },
        {
          "internalType": "uint256",
          "name": "stock",
          "type": "uint256"
        },
        {
          "internalType": "string",
          "name": "rfidTag",
          "type": "string"
        }
      ],
      "stateMutability": "view",
      "type": "function"
    },
    {
      "inputs": [
        {
          "internalType": "uint256",
          "name": "_id",
          "type": "uint256"
        },
        {
          "internalType": "string",
          "name": "_name",
          "type": "string"
        },
        {
          "internalType": "string",
          "name": "_category",
          "type": "string"
        },
        {
          "internalType": "string",
          "name": "_image",
          "type": "string"
        },
        {
          "internalType": "uint256",
          "name": "_cost",
          "type": "uint256"
        },
        {
          "internalType": "uint256",
          "name": "_rating",
          "type": "uint256"
        },
        {
          "internalType": "uint256",
          "name": "_stock",
          "type": "uint256"
        },
        {
          "internalType": "string",
          "name": "_rfidTag",
          "type": "string"
        }
      ],
      "name": "listItem",
      "outputs": [],
      "stateMutability": "nonpayable",
      "type": "function"
    },
    {
      "inputs": [
        {
          "internalType": "address",
          "name": "",
          "type": "address"
        }
      ],
      "name": "orderCount",
      "outputs": [
        {
          "internalType": "uint256",
          "name": "",
          "type": "uint256"
        }
      ],
      "stateMutability": "view",
      "type": "function"
    },
    {
      "inputs": [
        {
          "internalType": "address",
          "name": "",
          "type": "address"
        },
        {
          "internalType": "uint256",
          "name": "",
          "type": "uint256"
        }
      ],
      "name": "orders",
      "outputs": [
        {
          "internalType": "uint256",
          "name": "time",
          "type": "uint256"
        },
        {
          "components": [
            {
              "internalType": "uint256",
              "name": "id",
              "type": "uint256"
            },
            {
              "internalType": "string",
              "name": "name",
              "type": "string"
            },
            {
              "internalType": "string",
              "name": "category",
              "type": "string"
            },
            {
              "internalType": "string",
              "name": "image",
              "type": "string"
            },
            {
              "internalType": "uint256",
              "name": "cost",
              "type": "uint256"
            },
            {
              "internalType": "uint256",
              "name": "rating",
              "type": "uint256"
            },
            {
              "internalType": "uint256",
              "name": "stock",
              "type": "uint256"
            },
            {
              "internalType": "string",
              "name": "rfidTag",
              "type": "string"
            }
          ],
          "internalType": "struct ProductManagement.Item",
          "name": "item",
          "type": "tuple"
        }
      ],
      "stateMutability": "view",
      "type": "function"
    },
    {
      "inputs": [],
      "name": "owner",
      "outputs": [
        {
          "internalType": "address",
          "name": "",
          "type": "address"
        }
      ],
      "stateMutability": "view",
      "type": "function"
    },
    {
      "inputs": [
        {
          "internalType": "uint256",
          "name": "crateId",
          "type": "uint256"
        }
      ],
      "name": "shipCrate",
      "outputs": [],
      "stateMutability": "nonpayable",
      "type": "function"
    },
    {
      "inputs": [
        {
          "internalType": "uint256",
          "name": "_id",
          "type": "uint256"
        },
        {
          "internalType": "uint256",
          "name": "_stock",
          "type": "uint256"
        }
      ],
      "name": "updateItemStock",
      "outputs": [],
      "stateMutability": "nonpayable",
      "type": "function"
    },
    {
      "inputs": [],
      "name": "withdraw",
      "outputs": [],
      "stateMutability": "nonpayable",
      "type": "function"
    }
  ],
  "bytecode": "0x6080604052348015600f57600080fd5b50336000806101000a81548173ffffffffffffffffffffffffffffffffffffffff021916908373ffffffffffffffffffffffffffffffffffffffff1602179055506129b48061005f6000396000f3fe6080604052600436106100dd5760003560e01c80638a19de351161007f578063bfb231d211610059578063bfb231d2146102d2578063cd9ea70714610316578063e7fb74c71461033f578063e922d8fc1461035b576100dd565b80638a19de35146102415780638da5cb5b1461027e5780639abd434b146102a9576100dd565b80635b67ef94116100bb5780635b67ef9414610174578063713d856b1461019d5780637907ec4d146101da578063793b8c6d14610203576100dd565b806320e8edbc146100e25780633129e773146101205780633ccfd60b1461015d575b600080fd5b3480156100ee57600080fd5b50610109600480360381019061010491906119ec565b610398565b604051610117929190611a43565b60405180910390f35b34801561012c57600080fd5b50610147600480360381019061014291906119ec565b6103c9565b6040516101549190611bd0565b60405180910390f35b34801561016957600080fd5b50610172610667565b005b34801561018057600080fd5b5061019b60048036038101906101969190611bf2565b6107c5565b005b3480156101a957600080fd5b506101c460048036038101906101bf9190611c90565b6108ab565b6040516101d19190611cbd565b60405180910390f35b3480156101e657600080fd5b5061020160048036038101906101fc91906119ec565b6108c3565b005b34801561020f57600080fd5b5061022a60048036038101906102259190611cd8565b610a12565b604051610238929190611d18565b60405180910390f35b34801561024d57600080fd5b50610268600480360381019061026391906119ec565b610cbe565b6040516102759190611d92565b60405180910390f35b34801561028a57600080fd5b50610293610d5e565b6040516102a09190611dc3565b60405180910390f35b3480156102b557600080fd5b506102d060048036038101906102cb9190611f13565b610d82565b005b3480156102de57600080fd5b506102f960048036038101906102f491906119ec565b610f2d565b60405161030d989796959493929190612039565b60405180910390f35b34801561032257600080fd5b5061033d6004803603810190610338919061219b565b611195565b005b610359600480360381019061035491906119ec565b61130a565b005b34801561036757600080fd5b50610382600480360381019061037d91906119ec565b611885565b60405161038f91906122c2565b60405180910390f35b60046020528060005260406000206000915090508060000154908060020160009054906101000a900460ff16905082565b6103d16118f3565b60016000838152602001908152602001600020604051806101000160405290816000820154815260200160018201805461040a90612313565b80601f016020809104026020016040519081016040528092919081815260200182805461043690612313565b80156104835780601f1061045857610100808354040283529160200191610483565b820191906000526020600020905b81548152906001019060200180831161046657829003601f168201915b5050505050815260200160028201805461049c90612313565b80601f01602080910402602001604051908101604052809291908181526020018280546104c890612313565b80156105155780601f106104ea57610100808354040283529160200191610515565b820191906000526020600020905b8154815290600101906020018083116104f857829003601f168201915b5050505050815260200160038201805461052e90612313565b80601f016020809104026020016040519081016040528092919081815260200182805461055a90612313565b80156105a75780601f1061057c576101008083540402835291602001916105a7565b820191906000526020600020905b81548152906001019060200180831161058a57829003601f168201915b505050505081526020016004820154815260200160058201548152602001600682015481526020016007820180546105de90612313565b80601f016020809104026020016040519081016040528092919081815260200182805461060a90612313565b80156106575780601f1061062c57610100808354040283529160200191610657565b820191906000526020600020905b81548152906001019060200180831161063a57829003601f168201915b5050505050815250509050919050565b60008054906101000a900473ffffffffffffffffffffffffffffffffffffffff1673ffffffffffffffffffffffffffffffffffffffff163373ffffffffffffffffffffffffffffffffffffffff16146106f5576040517f08c379a00000000000000000000000000000000000000000000000000000000081526004016106ec90612390565b60405180910390fd5b60008060009054906101000a900473ffffffffffffffffffffffffffffffffffffffff1673ffffffffffffffffffffffffffffffffffffffff164760405161073c906123e1565b60006040518083038185875af1925050503d8060008114610779576040519150601f19603f3d011682016040523d82523d6000602084013e61077e565b606091505b50509050806107c2576040517f08c379a00000000000000000000000000000000000000000000000000000000081526004016107b990612442565b60405180910390fd5b50565b60008054906101000a900473ffffffffffffffffffffffffffffffffffffffff1673ffffffffffffffffffffffffffffffffffffffff163373ffffffffffffffffffffffffffffffffffffffff1614610853576040517f08c379a000000000000000000000000000000000000000000000000000000000815260040161084a90612390565b60405180910390fd5b8060016000848152602001908152602001600020600601819055507f0d2750b8552c7eecf2b869b31c9464b36cae1caba6b8fab1a53b7e58b6ddea50828260405161089f929190612462565b60405180910390a15050565b60036020528060005260406000206000915090505481565b60008054906101000a900473ffffffffffffffffffffffffffffffffffffffff1673ffffffffffffffffffffffffffffffffffffffff163373ffffffffffffffffffffffffffffffffffffffff1614610951576040517f08c379a000000000000000000000000000000000000000000000000000000000815260040161094890612390565b60405180910390fd5b60006004600083815260200190815260200160002090508060020160009054906101000a900460ff16156109ba576040517f08c379a00000000000000000000000000000000000000000000000000000000081526004016109b1906124d7565b60405180910390fd5b60018160020160006101000a81548160ff0219169083151502179055507f91684aa78953e53d1c5989330463152346a90a52860a769d5d44d1e072b0302582604051610a069190611cbd565b60405180910390a15050565b600260205281600052604060002060205280600052604060002060009150915050806000015490806001016040518061010001604052908160008201548152602001600182018054610a6390612313565b80601f0160208091040260200160405190810160405280929190818152602001828054610a8f90612313565b8015610adc5780601f10610ab157610100808354040283529160200191610adc565b820191906000526020600020905b815481529060010190602001808311610abf57829003601f168201915b50505050508152602001600282018054610af590612313565b80601f0160208091040260200160405190810160405280929190818152602001828054610b2190612313565b8015610b6e5780601f10610b4357610100808354040283529160200191610b6e565b820191906000526020600020905b815481529060010190602001808311610b5157829003601f168201915b50505050508152602001600382018054610b8790612313565b80601f0160208091040260200160405190810160405280929190818152602001828054610bb390612313565b8015610c005780601f10610bd557610100808354040283529160200191610c00565b820191906000526020600020905b815481529060010190602001808311610be357829003601f168201915b50505050508152602001600482015481526020016005820154815260200160068201548152602001600782018054610c3790612313565b80601f0160208091040260200160405190810160405280929190818152602001828054610c6390612313565b8015610cb05780601f10610c8557610100808354040283529160200191610cb0565b820191906000526020600020905b815481529060010190602001808311610c9357829003601f168201915b505050505081525050905082565b60056020528060005260406000206000915090508054610cdd90612313565b80601f0160208091040260200160405190810160405280929190818152602001828054610d0990612313565b8015610d565780601f10610d2b57610100808354040283529160200191610d56565b820191906000526020600020905b815481529060010190602001808311610d3957829003601f168201915b505050505081565b60008054906101000a900473ffffffffffffffffffffffffffffffffffffffff1681565b60008054906101000a900473ffffffffffffffffffffffffffffffffffffffff1673ffffffffffffffffffffffffffffffffffffffff163373ffffffffffffffffffffffffffffffffffffffff1614610e10576040517f08c379a0000000000000000000000000000000000000000000000000000000008152600401610e0790612390565b60405180910390fd5b60006040518061010001604052808a815260200189815260200188815260200187815260200186815260200185815260200184815260200183815250905080600160008b8152602001908152602001600020600082015181600001556020820151816001019081610e8191906126a3565b506040820151816002019081610e9791906126a3565b506060820151816003019081610ead91906126a3565b506080820151816004015560a0820151816005015560c0820151816006015560e0820151816007019081610ee191906126a3565b509050507fa5adc50784bf6e37e1400409531ab81ecbbeebf44d0d317d5da8e7a0d2eb3e9089898786604051610f1a9493929190612775565b60405180910390a1505050505050505050565b6001602052806000526040600020600091509050806000015490806001018054610f5690612313565b80601f0160208091040260200160405190810160405280929190818152602001828054610f8290612313565b8015610fcf5780601f10610fa457610100808354040283529160200191610fcf565b820191906000526020600020905b815481529060010190602001808311610fb257829003601f168201915b505050505090806002018054610fe490612313565b80601f016020809104026020016040519081016040528092919081815260200182805461101090612313565b801561105d5780601f106110325761010080835404028352916020019161105d565b820191906000526020600020905b81548152906001019060200180831161104057829003601f168201915b50505050509080600301805461107290612313565b80601f016020809104026020016040519081016040528092919081815260200182805461109e90612313565b80156110eb5780601f106110c0576101008083540402835291602001916110eb565b820191906000526020600020905b8154815290600101906020018083116110ce57829003601f168201915b50505050509080600401549080600501549080600601549080600701805461111290612313565b80601f016020809104026020016040519081016040528092919081815260200182805461113e90612313565b801561118b5780601f106111605761010080835404028352916020019161118b565b820191906000526020600020905b81548152906001019060200180831161116e57829003601f168201915b5050505050905088565b60008054906101000a900473ffffffffffffffffffffffffffffffffffffffff1673ffffffffffffffffffffffffffffffffffffffff163373ffffffffffffffffffffffffffffffffffffffff1614611223576040517f08c379a000000000000000000000000000000000000000000000000000000000815260040161121a90612390565b60405180910390fd5b6000429050600060405180606001604052808381526020018581526020016000151581525090508260056000848152602001908152602001600020908161126a91906126a3565b5080600460008481526020019081526020016000206000820151816000015560208201518160010190805190602001906112a5929190611938565b5060408201518160020160006101000a81548160ff0219169083151502179055509050507f4f90ad80b5388f617dbaba6a54a05732dd030359aa302ef37fb20b6a442d997a8285856040516112fc939291906127c1565b60405180910390a150505050565b600060016000838152602001908152602001600020604051806101000160405290816000820154815260200160018201805461134590612313565b80601f016020809104026020016040519081016040528092919081815260200182805461137190612313565b80156113be5780601f10611393576101008083540402835291602001916113be565b820191906000526020600020905b8154815290600101906020018083116113a157829003601f168201915b505050505081526020016002820180546113d790612313565b80601f016020809104026020016040519081016040528092919081815260200182805461140390612313565b80156114505780601f1061142557610100808354040283529160200191611450565b820191906000526020600020905b81548152906001019060200180831161143357829003601f168201915b5050505050815260200160038201805461146990612313565b80601f016020809104026020016040519081016040528092919081815260200182805461149590612313565b80156114e25780601f106114b7576101008083540402835291602001916114e2565b820191906000526020600020905b8154815290600101906020018083116114c557829003601f168201915b5050505050815260200160048201548152602001600582015481526020016006820154815260200160078201805461151990612313565b80601f016020809104026020016040519081016040528092919081815260200182805461154590612313565b80156115925780601f1061156757610100808354040283529160200191611592565b820191906000526020600020905b81548152906001019060200180831161157557829003601f168201915b505050505081525050905080608001513410156115e4576040517f08c379a00000000000000000000000000000000000000000000000000000000081526004016115db90612852565b60405180910390fd5b60008160c001511161162b576040517f08c379a0000000000000000000000000000000000000000000000000000000008152600401611622906128be565b60405180910390fd5b60006040518060400160405280428152602001838152509050600360003373ffffffffffffffffffffffffffffffffffffffff1673ffffffffffffffffffffffffffffffffffffffff16815260200190815260200160002060008154809291906116949061290d565b919050555080600260003373ffffffffffffffffffffffffffffffffffffffff1673ffffffffffffffffffffffffffffffffffffffff1681526020019081526020016000206000600360003373ffffffffffffffffffffffffffffffffffffffff1673ffffffffffffffffffffffffffffffffffffffff1681526020019081526020016000205481526020019081526020016000206000820151816000015560208201518160010160008201518160000155602082015181600101908161175b91906126a3565b50604082015181600201908161177191906126a3565b50606082015181600301908161178791906126a3565b506080820151816004015560a0820151816005015560c0820151816006015560e08201518160070190816117bb91906126a3565b5050509050506001600084815260200190815260200160002060060160008154809291906117e890612955565b91905055503373ffffffffffffffffffffffffffffffffffffffff167f03f23a9b67af957c8605376a4f515b53f102d4ad7f4da099bd1aff8e3ee13fec600360003373ffffffffffffffffffffffffffffffffffffffff1673ffffffffffffffffffffffffffffffffffffffff168152602001908152602001600020548460000151604051611878929190612462565b60405180910390a2505050565b6060600460008381526020019081526020016000206001018054806020026020016040519081016040528092919081815260200182805480156118e757602002820191906000526020600020905b8154815260200190600101908083116118d3575b50505050509050919050565b60405180610100016040528060008152602001606081526020016060815260200160608152602001600081526020016000815260200160008152602001606081525090565b828054828255906000526020600020908101928215611974579160200282015b82811115611973578251825591602001919060010190611958565b5b5090506119819190611985565b5090565b5b8082111561199e576000816000905550600101611986565b5090565b6000604051905090565b600080fd5b600080fd5b6000819050919050565b6119c9816119b6565b81146119d457600080fd5b50565b6000813590506119e6816119c0565b92915050565b600060208284031215611a0257611a016119ac565b5b6000611a10848285016119d7565b91505092915050565b611a22816119b6565b82525050565b60008115159050919050565b611a3d81611a28565b82525050565b6000604082019050611a586000830185611a19565b611a656020830184611a34565b9392505050565b611a75816119b6565b82525050565b600081519050919050565b600082825260208201905092915050565b60005b83811015611ab5578082015181840152602081019050611a9a565b60008484015250505050565b6000601f19601f8301169050919050565b6000611add82611a7b565b611ae78185611a86565b9350611af7818560208601611a97565b611b0081611ac1565b840191505092915050565b600061010083016000830151611b246000860182611a6c565b5060208301518482036020860152611b3c8282611ad2565b91505060408301518482036040860152611b568282611ad2565b91505060608301518482036060860152611b708282611ad2565b9150506080830151611b856080860182611a6c565b5060a0830151611b9860a0860182611a6c565b5060c0830151611bab60c0860182611a6c565b5060e083015184820360e0860152611bc38282611ad2565b9150508091505092915050565b60006020820190508181036000830152611bea8184611b0b565b905092915050565b60008060408385031215611c0957611c086119ac565b5b6000611c17858286016119d7565b9250506020611c28858286016119d7565b9150509250929050565b600073ffffffffffffffffffffffffffffffffffffffff82169050919050565b6000611c5d82611c32565b9050919050565b611c6d81611c52565b8114611c7857600080fd5b50565b600081359050611c8a81611c64565b92915050565b600060208284031215611ca657611ca56119ac565b5b6000611cb484828501611c7b565b91505092915050565b6000602082019050611cd26000830184611a19565b92915050565b60008060408385031215611cef57611cee6119ac565b5b6000611cfd85828601611c7b565b9250506020611d0e858286016119d7565b9150509250929050565b6000604082019050611d2d6000830185611a19565b8181036020830152611d3f8184611b0b565b90509392505050565b600082825260208201905092915050565b6000611d6482611a7b565b611d6e8185611d48565b9350611d7e818560208601611a97565b611d8781611ac1565b840191505092915050565b60006020820190508181036000830152611dac8184611d59565b905092915050565b611dbd81611c52565b82525050565b6000602082019050611dd86000830184611db4565b92915050565b600080fd5b600080fd5b7f4e487b7100000000000000000000000000000000000000000000000000000000600052604160045260246000fd5b611e2082611ac1565b810181811067ffffffffffffffff82111715611e3f57611e3e611de8565b5b80604052505050565b6000611e526119a2565b9050611e5e8282611e17565b919050565b600067ffffffffffffffff821115611e7e57611e7d611de8565b5b611e8782611ac1565b9050602081019050919050565b82818337600083830152505050565b6000611eb6611eb184611e63565b611e48565b905082815260208101848484011115611ed257611ed1611de3565b5b611edd848285611e94565b509392505050565b600082601f830112611efa57611ef9611dde565b5b8135611f0a848260208601611ea3565b91505092915050565b600080600080600080600080610100898b031215611f3457611f336119ac565b5b6000611f428b828c016119d7565b985050602089013567ffffffffffffffff811115611f6357611f626119b1565b5b611f6f8b828c01611ee5565b975050604089013567ffffffffffffffff811115611f9057611f8f6119b1565b5b611f9c8b828c01611ee5565b965050606089013567ffffffffffffffff811115611fbd57611fbc6119b1565b5b611fc98b828c01611ee5565b9550506080611fda8b828c016119d7565b94505060a0611feb8b828c016119d7565b93505060c0611ffc8b828c016119d7565b92505060e089013567ffffffffffffffff81111561201d5761201c6119b1565b5b6120298b828c01611ee5565b9150509295985092959890939650565b60006101008201905061204f600083018b611a19565b8181036020830152612061818a611d59565b905081810360408301526120758189611d59565b905081810360608301526120898188611d59565b90506120986080830187611a19565b6120a560a0830186611a19565b6120b260c0830185611a19565b81810360e08301526120c48184611d59565b90509998505050505050505050565b600067ffffffffffffffff8211156120ee576120ed611de8565b5b602082029050602081019050919050565b600080fd5b6000612117612112846120d3565b611e48565b9050808382526020820190506020840283018581111561213a576121396120ff565b5b835b81811015612163578061214f88826119d7565b84526020840193505060208101905061213c565b5050509392505050565b600082601f83011261218257612181611dde565b5b8135612192848260208601612104565b91505092915050565b600080604083850312156121b2576121b16119ac565b5b600083013567ffffffffffffffff8111156121d0576121cf6119b1565b5b6121dc8582860161216d565b925050602083013567ffffffffffffffff8111156121fd576121fc6119b1565b5b61220985828601611ee5565b9150509250929050565b600081519050919050565b600082825260208201905092915050565b6000819050602082019050919050565b600061224b8383611a6c565b60208301905092915050565b6000602082019050919050565b600061226f82612213565b612279818561221e565b93506122848361222f565b8060005b838110156122b557815161229c888261223f565b97506122a783612257565b925050600181019050612288565b5085935050505092915050565b600060208201905081810360008301526122dc8184612264565b905092915050565b7f4e487b7100000000000000000000000000000000000000000000000000000000600052602260045260246000fd5b6000600282049050600182168061232b57607f821691505b60208210810361233e5761233d6122e4565b5b50919050565b7f4e6f7420617574686f72697a6564000000000000000000000000000000000000600082015250565b600061237a600e83611d48565b915061238582612344565b602082019050919050565b600060208201905081810360008301526123a98161236d565b9050919050565b600081905092915050565b50565b60006123cb6000836123b0565b91506123d6826123bb565b600082019050919050565b60006123ec826123be565b9150819050919050565b7f5472616e73666572206661696c65640000000000000000000000000000000000600082015250565b600061242c600f83611d48565b9150612437826123f6565b602082019050919050565b6000602082019050818103600083015261245b8161241f565b9050919050565b60006040820190506124776000830185611a19565b6124846020830184611a19565b9392505050565b7f437261746520616c726561647920736869707065640000000000000000000000600082015250565b60006124c1601583611d48565b91506124cc8261248b565b602082019050919050565b600060208201905081810360008301526124f0816124b4565b9050919050565b60008190508160005260206000209050919050565b60006020601f8301049050919050565b600082821b905092915050565b6000600883026125597fffffffffffffffffffffffffffffffffffffffffffffffffffffffffffffffff8261251c565b612563868361251c565b95508019841693508086168417925050509392505050565b6000819050919050565b60006125a061259b612596846119b6565b61257b565b6119b6565b9050919050565b6000819050919050565b6125ba83612585565b6125ce6125c6826125a7565b848454612529565b825550505050565b600090565b6125e36125d6565b6125ee8184846125b1565b505050565b5b81811015612612576126076000826125db565b6001810190506125f4565b5050565b601f82111561265757612628816124f7565b6126318461250c565b81016020851015612640578190505b61265461264c8561250c565b8301826125f3565b50505b505050565b600082821c905092915050565b600061267a6000198460080261265c565b1980831691505092915050565b60006126938383612669565b9150826002028217905092915050565b6126ac82611a7b565b67ffffffffffffffff8111156126c5576126c4611de8565b5b6126cf8254612313565b6126da828285612616565b600060209050601f83116001811461270d57600084156126fb578287015190505b6127058582612687565b86555061276d565b601f19841661271b866124f7565b60005b828110156127435784890151825560018201915060208501945060208101905061271e565b86831015612760578489015161275c601f891682612669565b8355505b6001600288020188555050505b505050505050565b600060808201905061278a6000830187611a19565b818103602083015261279c8186611d59565b90506127ab6040830185611a19565b6127b86060830184611a19565b95945050505050565b60006060820190506127d66000830186611a19565b81810360208301526127e88185612264565b905081810360408301526127fc8184611d59565b9050949350505050565b7f496e73756666696369656e742066756e64730000000000000000000000000000600082015250565b600061283c601283611d48565b915061284782612806565b602082019050919050565b6000602082019050818103600083015261286b8161282f565b9050919050565b7f4f7574206f662073746f636b0000000000000000000000000000000000000000600082015250565b60006128a8600c83611d48565b91506128b382612872565b602082019050919050565b600060208201905081810360008301526128d78161289b565b9050919050565b7f4e487b7100000000000000000000000000000000000000000000000000000000600052601160045260246000fd5b6000612918826119b6565b91507fffffffffffffffffffffffffffffffffffffffffffffffffffffffffffffffff820361294a576129496128de565b5b600182019050919050565b6000612960826119b6565b915060008203612973576129726128de565b5b60018203905091905056fea2646970667358221220e63fca5ac76b6f5aa9dca67fc25445ba1b187b90e6479eb9e7f33227b324541f64736f6c634300081b0033",
  "linkReferences": {},
  "deployedLinkReferences": {}
}