{
  "_format": "hh-sol-artifact-1",
  "contractName": "CrateManagement",
  "sourceName": "contracts/CrateManagement.sol",
  "abi": [
    {
      "anonymous": false,
      "inputs": [
        {
          "indexed": false,
          "internalType": "uint256",
          "name": "crateId",
          "type": "uint256"
        },
        {
          "indexed": false,
          "internalType": "uint256[]",
          "name": "productIds",
          "type": "uint256[]"
        },
        {
          "indexed": false,
          "internalType": "string",
          "name": "crateRfidTag",
          "type": "string"
        }
      ],
      "name": "CrateCreated",
      "type": "event"
    },
    {
      "anonymous": false,
      "inputs": [
        {
          "indexed": false,
          "internalType": "uint256",
          "name": "crateId",
          "type": "uint256"
        }
      ],
      "name": "CrateShipped",
      "type": "event"
    },
    {
      "anonymous": false,
      "inputs": [
        {
          "indexed": false,
          "internalType": "uint256",
          "name": "id",
          "type": "uint256"
        },
        {
          "indexed": false,
          "internalType": "string",
          "name": "name",
          "type": "string"
        },
        {
          "indexed": false,
          "internalType": "uint256",
          "name": "cost",
          "type": "uint256"
        },
        {
          "indexed": false,
          "internalType": "uint256",
          "name": "stock",
          "type": "uint256"
        }
      ],
      "name": "ItemListed",
      "type": "event"
    },
    {
      "anonymous": false,
      "inputs": [
        {
          "indexed": false,
          "internalType": "uint256",
          "name": "id",
          "type": "uint256"
        },
        {
          "indexed": false,
          "internalType": "uint256",
          "name": "stock",
          "type": "uint256"
        }
      ],
      "name": "ItemUpdated",
      "type": "event"
    },
    {
      "anonymous": false,
      "inputs": [
        {
          "indexed": true,
          "internalType": "address",
          "name": "buyer",
          "type": "address"
        },
        {
          "indexed": false,
          "internalType": "uint256",
          "name": "orderId",
          "type": "uint256"
        },
        {
          "indexed": false,
          "internalType": "uint256",
          "name": "itemId",
          "type": "uint256"
        }
      ],
      "name": "OrderPlaced",
      "type": "event"
    },
    {
      "inputs": [
        {
          "internalType": "uint256",
          "name": "_id",
          "type": "uint256"
        }
      ],
      "name": "buyItem",
      "outputs": [],
      "stateMutability": "payable",
      "type": "function"
    },
    {
      "inputs": [
        {
          "internalType": "uint256",
          "name": "",
          "type": "uint256"
        }
      ],
      "name": "crateRfid",
      "outputs": [
        {
          "internalType": "string",
          "name": "",
          "type": "string"
        }
      ],
      "stateMutability": "view",
      "type": "function"
    },
    {
      "inputs": [
        {
          "internalType": "uint256",
          "name": "",
          "type": "uint256"
        }
      ],
      "name": "crates",
      "outputs": [
        {
          "internalType": "uint256",
          "name": "crateId",
          "type": "uint256"
        },
        {
          "internalType": "bool",
          "name": "shipped",
          "type": "bool"
        }
      ],
      "stateMutability": "view",
      "type": "function"
    },
    {
      "inputs": [
        {
          "internalType": "uint256[]",
          "name": "productIds",
          "type": "uint256[]"
        },
        {
          "internalType": "string",
          "name": "crateRfidTag",
          "type": "string"
        }
      ],
      "name": "createCrate",
      "outputs": [
        {
          "internalType": "uint256",
          "name": "",
          "type": "uint256"
        }
      ],
      "stateMutability": "nonpayable",
      "type": "function"
    },
    {
      "inputs": [
        {
          "internalType": "uint256",
          "name": "_id",
          "type": "uint256"
        }
      ],
      "name": "getItem",
      "outputs": [
        {
          "components": [
            {
              "internalType": "uint256",
              "name": "id",
              "type": "uint256"
            },
            {
              "internalType": "string",
              "name": "name",
              "type": "string"
            },
            {
              "internalType": "string",
              "name": "category",
              "type": "string"
            },
            {
              "internalType": "string",
              "name": "image",
              "type": "string"
            },
            {
              "internalType": "uint256",
              "name": "cost",
              "type": "uint256"
            },
            {
              "internalType": "uint256",
              "name": "rating",
              "type": "uint256"
            },
            {
              "internalType": "uint256",
              "name": "stock",
              "type": "uint256"
            },
            {
              "internalType": "string",
              "name": "rfidTag",
              "type": "string"
            }
          ],
          "internalType": "struct ProductManagement.Item",
          "name": "",
          "type": "tuple"
        }
      ],
      "stateMutability": "view",
      "type": "function"
    },
    {
      "inputs": [
        {
          "internalType": "uint256",
          "name": "crateId",
          "type": "uint256"
        }
      ],
      "name": "getProductsInCrate",
      "outputs": [
        {
          "internalType": "uint256[]",
          "name": "",
          "type": "uint256[]"
        }
      ],
      "stateMutability": "view",
      "type": "function"
    },
    {
      "inputs": [
        {
          "internalType": "uint256",
          "name": "",
          "type": "uint256"
        }
      ],
      "name": "items",
      "outputs": [
        {
          "internalType": "uint256",
          "name": "id",
          "type": "uint256"
        },
        {
          "internalType": "string",
          "name": "name",
          "type": "string"
        },
        {
          "internalType": "string",
          "name": "category",
          "type": "string"
        },
        {
          "internalType": "string",
          "name": "image",
          "type": "string"
        },
        {
          "internalType": "uint256",
          "name": "cost",
          "type": "uint256"
        },
        {
          "internalType": "uint256",
          "name": "rating",
          "type": "uint256"
        },
        {
          "internalType": "uint256",
          "name": "stock",
          "type": "uint256"
        },
        {
          "internalType": "string",
          "name": "rfidTag",
          "type": "string"
        }
      ],
      "stateMutability": "view",
      "type": "function"
    },
    {
      "inputs": [
        {
          "internalType": "uint256",
          "name": "_id",
          "type": "uint256"
        },
        {
          "internalType": "string",
          "name": "_name",
          "type": "string"
        },
        {
          "internalType": "string",
          "name": "_category",
          "type": "string"
        },
        {
          "internalType": "string",
          "name": "_image",
          "type": "string"
        },
        {
          "internalType": "uint256",
          "name": "_cost",
          "type": "uint256"
        },
        {
          "internalType": "uint256",
          "name": "_rating",
          "type": "uint256"
        },
        {
          "internalType": "uint256",
          "name": "_stock",
          "type": "uint256"
        },
        {
          "internalType": "string",
          "name": "_rfidTag",
          "type": "string"
        }
      ],
      "name": "listItem",
      "outputs": [],
      "stateMutability": "nonpayable",
      "type": "function"
    },
    {
      "inputs": [
        {
          "internalType": "address",
          "name": "",
          "type": "address"
        }
      ],
      "name": "orderCount",
      "outputs": [
        {
          "internalType": "uint256",
          "name": "",
          "type": "uint256"
        }
      ],
      "stateMutability": "view",
      "type": "function"
    },
    {
      "inputs": [
        {
          "internalType": "address",
          "name": "",
          "type": "address"
        },
        {
          "internalType": "uint256",
          "name": "",
          "type": "uint256"
        }
      ],
      "name": "orders",
      "outputs": [
        {
          "internalType": "uint256",
          "name": "time",
          "type": "uint256"
        },
        {
          "components": [
            {
              "internalType": "uint256",
              "name": "id",
              "type": "uint256"
            },
            {
              "internalType": "string",
              "name": "name",
              "type": "string"
            },
            {
              "internalType": "string",
              "name": "category",
              "type": "string"
            },
            {
              "internalType": "string",
              "name": "image",
              "type": "string"
            },
            {
              "internalType": "uint256",
              "name": "cost",
              "type": "uint256"
            },
            {
              "internalType": "uint256",
              "name": "rating",
              "type": "uint256"
            },
            {
              "internalType": "uint256",
              "name": "stock",
              "type": "uint256"
            },
            {
              "internalType": "string",
              "name": "rfidTag",
              "type": "string"
            }
          ],
          "internalType": "struct ProductManagement.Item",
          "name": "item",
          "type": "tuple"
        }
      ],
      "stateMutability": "view",
      "type": "function"
    },
    {
      "inputs": [],
      "name": "owner",
      "outputs": [
        {
          "internalType": "address",
          "name": "",
          "type": "address"
        }
      ],
      "stateMutability": "view",
      "type": "function"
    },
    {
      "inputs": [
        {
          "internalType": "uint256",
          "name": "crateId",
          "type": "uint256"
        }
      ],
      "name": "shipCrate",
      "outputs": [],
      "stateMutability": "nonpayable",
      "type": "function"
    },
    {
      "inputs": [
        {
          "internalType": "uint256",
          "name": "_id",
          "type": "uint256"
        },
        {
          "internalType": "uint256",
          "name": "_stock",
          "type": "uint256"
        }
      ],
      "name": "updateItemStock",
      "outputs": [],
      "stateMutability": "nonpayable",
      "type": "function"
    },
    {
      "inputs": [],
      "name": "withdraw",
      "outputs": [],
      "stateMutability": "nonpayable",
      "type": "function"
    }
  ],
  "bytecode": "0x6080604052348015600f57600080fd5b50336000806101000a81548173ffffffffffffffffffffffffffffffffffffffff021916908373ffffffffffffffffffffffffffffffffffffffff1602179055506129d08061005f6000396000f3fe6080604052600436106100dd5760003560e01c80638a19de351161007f578063bfb231d211610059578063bfb231d2146102d2578063cd9ea70714610316578063e7fb74c714610353578063e922d8fc1461036f576100dd565b80638a19de35146102415780638da5cb5b1461027e5780639abd434b146102a9576100dd565b80635b67ef94116100bb5780635b67ef9414610174578063713d856b1461019d5780637907ec4d146101da578063793b8c6d14610203576100dd565b806320e8edbc146100e25780633129e773146101205780633ccfd60b1461015d575b600080fd5b3480156100ee57600080fd5b5061010960048036038101906101049190611a08565b6103ac565b604051610117929190611a5f565b60405180910390f35b34801561012c57600080fd5b5061014760048036038101906101429190611a08565b6103dd565b6040516101549190611bec565b60405180910390f35b34801561016957600080fd5b5061017261067b565b005b34801561018057600080fd5b5061019b60048036038101906101969190611c0e565b6107d9565b005b3480156101a957600080fd5b506101c460048036038101906101bf9190611cac565b6108bf565b6040516101d19190611cd9565b60405180910390f35b3480156101e657600080fd5b5061020160048036038101906101fc9190611a08565b6108d7565b005b34801561020f57600080fd5b5061022a60048036038101906102259190611cf4565b610a26565b604051610238929190611d34565b60405180910390f35b34801561024d57600080fd5b5061026860048036038101906102639190611a08565b610cd2565b6040516102759190611dae565b60405180910390f35b34801561028a57600080fd5b50610293610d72565b6040516102a09190611ddf565b60405180910390f35b3480156102b557600080fd5b506102d060048036038101906102cb9190611f2f565b610d96565b005b3480156102de57600080fd5b506102f960048036038101906102f49190611a08565b610f41565b60405161030d989796959493929190612055565b60405180910390f35b34801561032257600080fd5b5061033d600480360381019061033891906121b7565b6111a9565b60405161034a9190611cd9565b60405180910390f35b61036d60048036038101906103689190611a08565b611326565b005b34801561037b57600080fd5b5061039660048036038101906103919190611a08565b6118a1565b6040516103a391906122de565b60405180910390f35b60046020528060005260406000206000915090508060000154908060020160009054906101000a900460ff16905082565b6103e561190f565b60016000838152602001908152602001600020604051806101000160405290816000820154815260200160018201805461041e9061232f565b80601f016020809104026020016040519081016040528092919081815260200182805461044a9061232f565b80156104975780601f1061046c57610100808354040283529160200191610497565b820191906000526020600020905b81548152906001019060200180831161047a57829003601f168201915b505050505081526020016002820180546104b09061232f565b80601f01602080910402602001604051908101604052809291908181526020018280546104dc9061232f565b80156105295780601f106104fe57610100808354040283529160200191610529565b820191906000526020600020905b81548152906001019060200180831161050c57829003601f168201915b505050505081526020016003820180546105429061232f565b80601f016020809104026020016040519081016040528092919081815260200182805461056e9061232f565b80156105bb5780601f10610590576101008083540402835291602001916105bb565b820191906000526020600020905b81548152906001019060200180831161059e57829003601f168201915b505050505081526020016004820154815260200160058201548152602001600682015481526020016007820180546105f29061232f565b80601f016020809104026020016040519081016040528092919081815260200182805461061e9061232f565b801561066b5780601f106106405761010080835404028352916020019161066b565b820191906000526020600020905b81548152906001019060200180831161064e57829003601f168201915b5050505050815250509050919050565b60008054906101000a900473ffffffffffffffffffffffffffffffffffffffff1673ffffffffffffffffffffffffffffffffffffffff163373ffffffffffffffffffffffffffffffffffffffff1614610709576040517f08c379a0000000000000000000000000000000000000000000000000000000008152600401610700906123ac565b60405180910390fd5b60008060009054906101000a900473ffffffffffffffffffffffffffffffffffffffff1673ffffffffffffffffffffffffffffffffffffffff1647604051610750906123fd565b60006040518083038185875af1925050503d806000811461078d576040519150601f19603f3d011682016040523d82523d6000602084013e610792565b606091505b50509050806107d6576040517f08c379a00000000000000000000000000000000000000000000000000000000081526004016107cd9061245e565b60405180910390fd5b50565b60008054906101000a900473ffffffffffffffffffffffffffffffffffffffff1673ffffffffffffffffffffffffffffffffffffffff163373ffffffffffffffffffffffffffffffffffffffff1614610867576040517f08c379a000000000000000000000000000000000000000000000000000000000815260040161085e906123ac565b60405180910390fd5b8060016000848152602001908152602001600020600601819055507f0d2750b8552c7eecf2b869b31c9464b36cae1caba6b8fab1a53b7e58b6ddea5082826040516108b392919061247e565b60405180910390a15050565b60036020528060005260406000206000915090505481565b60008054906101000a900473ffffffffffffffffffffffffffffffffffffffff1673ffffffffffffffffffffffffffffffffffffffff163373ffffffffffffffffffffffffffffffffffffffff1614610965576040517f08c379a000000000000000000000000000000000000000000000000000000000815260040161095c906123ac565b60405180910390fd5b60006004600083815260200190815260200160002090508060020160009054906101000a900460ff16156109ce576040517f08c379a00000000000000000000000000000000000000000000000000000000081526004016109c5906124f3565b60405180910390fd5b60018160020160006101000a81548160ff0219169083151502179055507f91684aa78953e53d1c5989330463152346a90a52860a769d5d44d1e072b0302582604051610a1a9190611cd9565b60405180910390a15050565b600260205281600052604060002060205280600052604060002060009150915050806000015490806001016040518061010001604052908160008201548152602001600182018054610a779061232f565b80601f0160208091040260200160405190810160405280929190818152602001828054610aa39061232f565b8015610af05780601f10610ac557610100808354040283529160200191610af0565b820191906000526020600020905b815481529060010190602001808311610ad357829003601f168201915b50505050508152602001600282018054610b099061232f565b80601f0160208091040260200160405190810160405280929190818152602001828054610b359061232f565b8015610b825780601f10610b5757610100808354040283529160200191610b82565b820191906000526020600020905b815481529060010190602001808311610b6557829003601f168201915b50505050508152602001600382018054610b9b9061232f565b80601f0160208091040260200160405190810160405280929190818152602001828054610bc79061232f565b8015610c145780601f10610be957610100808354040283529160200191610c14565b820191906000526020600020905b815481529060010190602001808311610bf757829003601f168201915b50505050508152602001600482015481526020016005820154815260200160068201548152602001600782018054610c4b9061232f565b80601f0160208091040260200160405190810160405280929190818152602001828054610c779061232f565b8015610cc45780601f10610c9957610100808354040283529160200191610cc4565b820191906000526020600020905b815481529060010190602001808311610ca757829003601f168201915b505050505081525050905082565b60056020528060005260406000206000915090508054610cf19061232f565b80601f0160208091040260200160405190810160405280929190818152602001828054610d1d9061232f565b8015610d6a5780601f10610d3f57610100808354040283529160200191610d6a565b820191906000526020600020905b815481529060010190602001808311610d4d57829003601f168201915b505050505081565b60008054906101000a900473ffffffffffffffffffffffffffffffffffffffff1681565b60008054906101000a900473ffffffffffffffffffffffffffffffffffffffff1673ffffffffffffffffffffffffffffffffffffffff163373ffffffffffffffffffffffffffffffffffffffff1614610e24576040517f08c379a0000000000000000000000000000000000000000000000000000000008152600401610e1b906123ac565b60405180910390fd5b60006040518061010001604052808a815260200189815260200188815260200187815260200186815260200185815260200184815260200183815250905080600160008b8152602001908152602001600020600082015181600001556020820151816001019081610e9591906126bf565b506040820151816002019081610eab91906126bf565b506060820151816003019081610ec191906126bf565b506080820151816004015560a0820151816005015560c0820151816006015560e0820151816007019081610ef591906126bf565b509050507fa5adc50784bf6e37e1400409531ab81ecbbeebf44d0d317d5da8e7a0d2eb3e9089898786604051610f2e9493929190612791565b60405180910390a1505050505050505050565b6001602052806000526040600020600091509050806000015490806001018054610f6a9061232f565b80601f0160208091040260200160405190810160405280929190818152602001828054610f969061232f565b8015610fe35780601f10610fb857610100808354040283529160200191610fe3565b820191906000526020600020905b815481529060010190602001808311610fc657829003601f168201915b505050505090806002018054610ff89061232f565b80601f01602080910402602001604051908101604052809291908181526020018280546110249061232f565b80156110715780601f1061104657610100808354040283529160200191611071565b820191906000526020600020905b81548152906001019060200180831161105457829003601f168201915b5050505050908060030180546110869061232f565b80601f01602080910402602001604051908101604052809291908181526020018280546110b29061232f565b80156110ff5780601f106110d4576101008083540402835291602001916110ff565b820191906000526020600020905b8154815290600101906020018083116110e257829003601f168201915b5050505050908060040154908060050154908060060154908060070180546111269061232f565b80601f01602080910402602001604051908101604052809291908181526020018280546111529061232f565b801561119f5780601f106111745761010080835404028352916020019161119f565b820191906000526020600020905b81548152906001019060200180831161118257829003601f168201915b5050505050905088565b60008060009054906101000a900473ffffffffffffffffffffffffffffffffffffffff1673ffffffffffffffffffffffffffffffffffffffff163373ffffffffffffffffffffffffffffffffffffffff161461123a576040517f08c379a0000000000000000000000000000000000000000000000000000000008152600401611231906123ac565b60405180910390fd5b6000429050600060405180606001604052808381526020018681526020016000151581525090508360056000848152602001908152602001600020908161128191906126bf565b5080600460008481526020019081526020016000206000820151816000015560208201518160010190805190602001906112bc929190611954565b5060408201518160020160006101000a81548160ff0219169083151502179055509050507f4f90ad80b5388f617dbaba6a54a05732dd030359aa302ef37fb20b6a442d997a828686604051611313939291906127dd565b60405180910390a1819250505092915050565b60006001600083815260200190815260200160002060405180610100016040529081600082015481526020016001820180546113619061232f565b80601f016020809104026020016040519081016040528092919081815260200182805461138d9061232f565b80156113da5780601f106113af576101008083540402835291602001916113da565b820191906000526020600020905b8154815290600101906020018083116113bd57829003601f168201915b505050505081526020016002820180546113f39061232f565b80601f016020809104026020016040519081016040528092919081815260200182805461141f9061232f565b801561146c5780601f106114415761010080835404028352916020019161146c565b820191906000526020600020905b81548152906001019060200180831161144f57829003601f168201915b505050505081526020016003820180546114859061232f565b80601f01602080910402602001604051908101604052809291908181526020018280546114b19061232f565b80156114fe5780601f106114d3576101008083540402835291602001916114fe565b820191906000526020600020905b8154815290600101906020018083116114e157829003601f168201915b505050505081526020016004820154815260200160058201548152602001600682015481526020016007820180546115359061232f565b80601f01602080910402602001604051908101604052809291908181526020018280546115619061232f565b80156115ae5780601f10611583576101008083540402835291602001916115ae565b820191906000526020600020905b81548152906001019060200180831161159157829003601f168201915b50505050508152505090508060800151341015611600576040517f08c379a00000000000000000000000000000000000000000000000000000000081526004016115f79061286e565b60405180910390fd5b60008160c0015111611647576040517f08c379a000000000000000000000000000000000000000000000000000000000815260040161163e906128da565b60405180910390fd5b60006040518060400160405280428152602001838152509050600360003373ffffffffffffffffffffffffffffffffffffffff1673ffffffffffffffffffffffffffffffffffffffff16815260200190815260200160002060008154809291906116b090612929565b919050555080600260003373ffffffffffffffffffffffffffffffffffffffff1673ffffffffffffffffffffffffffffffffffffffff1681526020019081526020016000206000600360003373ffffffffffffffffffffffffffffffffffffffff1673ffffffffffffffffffffffffffffffffffffffff1681526020019081526020016000205481526020019081526020016000206000820151816000015560208201518160010160008201518160000155602082015181600101908161177791906126bf565b50604082015181600201908161178d91906126bf565b5060608201518160030190816117a391906126bf565b506080820151816004015560a0820151816005015560c0820151816006015560e08201518160070190816117d791906126bf565b50505090505060016000848152602001908152602001600020600601600081548092919061180490612971565b91905055503373ffffffffffffffffffffffffffffffffffffffff167f03f23a9b67af957c8605376a4f515b53f102d4ad7f4da099bd1aff8e3ee13fec600360003373ffffffffffffffffffffffffffffffffffffffff1673ffffffffffffffffffffffffffffffffffffffff16815260200190815260200160002054846000015160405161189492919061247e565b60405180910390a2505050565b60606004600083815260200190815260200160002060010180548060200260200160405190810160405280929190818152602001828054801561190357602002820191906000526020600020905b8154815260200190600101908083116118ef575b50505050509050919050565b60405180610100016040528060008152602001606081526020016060815260200160608152602001600081526020016000815260200160008152602001606081525090565b828054828255906000526020600020908101928215611990579160200282015b8281111561198f578251825591602001919060010190611974565b5b50905061199d91906119a1565b5090565b5b808211156119ba5760008160009055506001016119a2565b5090565b6000604051905090565b600080fd5b600080fd5b6000819050919050565b6119e5816119d2565b81146119f057600080fd5b50565b600081359050611a02816119dc565b92915050565b600060208284031215611a1e57611a1d6119c8565b5b6000611a2c848285016119f3565b91505092915050565b611a3e816119d2565b82525050565b60008115159050919050565b611a5981611a44565b82525050565b6000604082019050611a746000830185611a35565b611a816020830184611a50565b9392505050565b611a91816119d2565b82525050565b600081519050919050565b600082825260208201905092915050565b60005b83811015611ad1578082015181840152602081019050611ab6565b60008484015250505050565b6000601f19601f8301169050919050565b6000611af982611a97565b611b038185611aa2565b9350611b13818560208601611ab3565b611b1c81611add565b840191505092915050565b600061010083016000830151611b406000860182611a88565b5060208301518482036020860152611b588282611aee565b91505060408301518482036040860152611b728282611aee565b91505060608301518482036060860152611b8c8282611aee565b9150506080830151611ba16080860182611a88565b5060a0830151611bb460a0860182611a88565b5060c0830151611bc760c0860182611a88565b5060e083015184820360e0860152611bdf8282611aee565b9150508091505092915050565b60006020820190508181036000830152611c068184611b27565b905092915050565b60008060408385031215611c2557611c246119c8565b5b6000611c33858286016119f3565b9250506020611c44858286016119f3565b9150509250929050565b600073ffffffffffffffffffffffffffffffffffffffff82169050919050565b6000611c7982611c4e565b9050919050565b611c8981611c6e565b8114611c9457600080fd5b50565b600081359050611ca681611c80565b92915050565b600060208284031215611cc257611cc16119c8565b5b6000611cd084828501611c97565b91505092915050565b6000602082019050611cee6000830184611a35565b92915050565b60008060408385031215611d0b57611d0a6119c8565b5b6000611d1985828601611c97565b9250506020611d2a858286016119f3565b9150509250929050565b6000604082019050611d496000830185611a35565b8181036020830152611d5b8184611b27565b90509392505050565b600082825260208201905092915050565b6000611d8082611a97565b611d8a8185611d64565b9350611d9a818560208601611ab3565b611da381611add565b840191505092915050565b60006020820190508181036000830152611dc88184611d75565b905092915050565b611dd981611c6e565b82525050565b6000602082019050611df46000830184611dd0565b92915050565b600080fd5b600080fd5b7f4e487b7100000000000000000000000000000000000000000000000000000000600052604160045260246000fd5b611e3c82611add565b810181811067ffffffffffffffff82111715611e5b57611e5a611e04565b5b80604052505050565b6000611e6e6119be565b9050611e7a8282611e33565b919050565b600067ffffffffffffffff821115611e9a57611e99611e04565b5b611ea382611add565b9050602081019050919050565b82818337600083830152505050565b6000611ed2611ecd84611e7f565b611e64565b905082815260208101848484011115611eee57611eed611dff565b5b611ef9848285611eb0565b509392505050565b600082601f830112611f1657611f15611dfa565b5b8135611f26848260208601611ebf565b91505092915050565b600080600080600080600080610100898b031215611f5057611f4f6119c8565b5b6000611f5e8b828c016119f3565b985050602089013567ffffffffffffffff811115611f7f57611f7e6119cd565b5b611f8b8b828c01611f01565b975050604089013567ffffffffffffffff811115611fac57611fab6119cd565b5b611fb88b828c01611f01565b965050606089013567ffffffffffffffff811115611fd957611fd86119cd565b5b611fe58b828c01611f01565b9550506080611ff68b828c016119f3565b94505060a06120078b828c016119f3565b93505060c06120188b828c016119f3565b92505060e089013567ffffffffffffffff811115612039576120386119cd565b5b6120458b828c01611f01565b9150509295985092959890939650565b60006101008201905061206b600083018b611a35565b818103602083015261207d818a611d75565b905081810360408301526120918189611d75565b905081810360608301526120a58188611d75565b90506120b46080830187611a35565b6120c160a0830186611a35565b6120ce60c0830185611a35565b81810360e08301526120e08184611d75565b90509998505050505050505050565b600067ffffffffffffffff82111561210a57612109611e04565b5b602082029050602081019050919050565b600080fd5b600061213361212e846120ef565b611e64565b905080838252602082019050602084028301858111156121565761215561211b565b5b835b8181101561217f578061216b88826119f3565b845260208401935050602081019050612158565b5050509392505050565b600082601f83011261219e5761219d611dfa565b5b81356121ae848260208601612120565b91505092915050565b600080604083850312156121ce576121cd6119c8565b5b600083013567ffffffffffffffff8111156121ec576121eb6119cd565b5b6121f885828601612189565b925050602083013567ffffffffffffffff811115612219576122186119cd565b5b61222585828601611f01565b9150509250929050565b600081519050919050565b600082825260208201905092915050565b6000819050602082019050919050565b60006122678383611a88565b60208301905092915050565b6000602082019050919050565b600061228b8261222f565b612295818561223a565b93506122a08361224b565b8060005b838110156122d15781516122b8888261225b565b97506122c383612273565b9250506001810190506122a4565b5085935050505092915050565b600060208201905081810360008301526122f88184612280565b905092915050565b7f4e487b7100000000000000000000000000000000000000000000000000000000600052602260045260246000fd5b6000600282049050600182168061234757607f821691505b60208210810361235a57612359612300565b5b50919050565b7f4e6f7420617574686f72697a6564000000000000000000000000000000000000600082015250565b6000612396600e83611d64565b91506123a182612360565b602082019050919050565b600060208201905081810360008301526123c581612389565b9050919050565b600081905092915050565b50565b60006123e76000836123cc565b91506123f2826123d7565b600082019050919050565b6000612408826123da565b9150819050919050565b7f5472616e73666572206661696c65640000000000000000000000000000000000600082015250565b6000612448600f83611d64565b915061245382612412565b602082019050919050565b600060208201905081810360008301526124778161243b565b9050919050565b60006040820190506124936000830185611a35565b6124a06020830184611a35565b9392505050565b7f437261746520616c726561647920736869707065640000000000000000000000600082015250565b60006124dd601583611d64565b91506124e8826124a7565b602082019050919050565b6000602082019050818103600083015261250c816124d0565b9050919050565b60008190508160005260206000209050919050565b60006020601f8301049050919050565b600082821b905092915050565b6000600883026125757fffffffffffffffffffffffffffffffffffffffffffffffffffffffffffffffff82612538565b61257f8683612538565b95508019841693508086168417925050509392505050565b6000819050919050565b60006125bc6125b76125b2846119d2565b612597565b6119d2565b9050919050565b6000819050919050565b6125d6836125a1565b6125ea6125e2826125c3565b848454612545565b825550505050565b600090565b6125ff6125f2565b61260a8184846125cd565b505050565b5b8181101561262e576126236000826125f7565b600181019050612610565b5050565b601f8211156126735761264481612513565b61264d84612528565b8101602085101561265c578190505b61267061266885612528565b83018261260f565b50505b505050565b600082821c905092915050565b600061269660001984600802612678565b1980831691505092915050565b60006126af8383612685565b9150826002028217905092915050565b6126c882611a97565b67ffffffffffffffff8111156126e1576126e0611e04565b5b6126eb825461232f565b6126f6828285612632565b600060209050601f8311600181146127295760008415612717578287015190505b61272185826126a3565b865550612789565b601f19841661273786612513565b60005b8281101561275f5784890151825560018201915060208501945060208101905061273a565b8683101561277c5784890151612778601f891682612685565b8355505b6001600288020188555050505b505050505050565b60006080820190506127a66000830187611a35565b81810360208301526127b88186611d75565b90506127c76040830185611a35565b6127d46060830184611a35565b95945050505050565b60006060820190506127f26000830186611a35565b81810360208301526128048185612280565b905081810360408301526128188184611d75565b9050949350505050565b7f496e73756666696369656e742066756e64730000000000000000000000000000600082015250565b6000612858601283611d64565b915061286382612822565b602082019050919050565b600060208201905081810360008301526128878161284b565b9050919050565b7f4f7574206f662073746f636b0000000000000000000000000000000000000000600082015250565b60006128c4600c83611d64565b91506128cf8261288e565b602082019050919050565b600060208201905081810360008301526128f3816128b7565b9050919050565b7f4e487b7100000000000000000000000000000000000000000000000000000000600052601160045260246000fd5b6000612934826119d2565b91507fffffffffffffffffffffffffffffffffffffffffffffffffffffffffffffffff8203612966576129656128fa565b5b600182019050919050565b600061297c826119d2565b91506000820361298f5761298e6128fa565b5b60018203905091905056fea2646970667358221220d1e9d3ec51d702aef5187bbc01ce4c9b1482e4150e422c3066ce140c7402c29f64736f6c634300081b0033",
  "linkReferences": {},
  "deployedLinkReferences": {}
}