{
  "_format": "hh-sol-artifact-1",
  "contractName": "RfidManagement",
  "sourceName": "contracts/RfidManagement.sol",
  "abi": [
    {
      "anonymous": false,
      "inputs": [
        {
          "indexed": false,
          "internalType": "uint256",
          "name": "crateId",
          "type": "uint256"
        },
        {
          "indexed": false,
          "internalType": "address",
          "name": "warehouse",
          "type": "address"
        },
        {
          "indexed": false,
          "internalType": "string",
          "name": "crateRFID",
          "type": "string"
        }
      ],
      "name": "CrateCreated",
      "type": "event"
    },
    {
      "anonymous": false,
      "inputs": [
        {
          "indexed": false,
          "internalType": "uint256",
          "name": "crateId",
          "type": "uint256"
        }
      ],
      "name": "CrateDelivered",
      "type": "event"
    },
    {
      "anonymous": false,
      "inputs": [
        {
          "indexed": false,
          "internalType": "uint256",
          "name": "crateId",
          "type": "uint256"
        },
        {
          "indexed": false,
          "internalType": "string",
          "name": "sensorId",
          "type": "string"
        },
        {
          "indexed": false,
          "internalType": "uint256",
          "name": "timestamp",
          "type": "uint256"
        }
      ],
      "name": "CrateDetected",
      "type": "event"
    },
    {
      "anonymous": false,
      "inputs": [
        {
          "indexed": false,
          "internalType": "uint256",
          "name": "crateId",
          "type": "uint256"
        },
        {
          "indexed": false,
          "internalType": "string",
          "name": "sensorId",
          "type": "string"
        },
        {
          "indexed": false,
          "internalType": "uint256",
          "name": "timestamp",
          "type": "uint256"
        }
      ],
      "name": "CrateOpened",
      "type": "event"
    },
    {
      "anonymous": false,
      "inputs": [
        {
          "indexed": false,
          "internalType": "uint256",
          "name": "crateId",
          "type": "uint256"
        }
      ],
      "name": "CrateSealed",
      "type": "event"
    },
    {
      "anonymous": false,
      "inputs": [
        {
          "indexed": false,
          "internalType": "uint256",
          "name": "crateId",
          "type": "uint256"
        },
        {
          "indexed": false,
          "internalType": "uint256",
          "name": "itemId",
          "type": "uint256"
        }
      ],
      "name": "ItemAddedToCrate",
      "type": "event"
    },
    {
      "anonymous": false,
      "inputs": [
        {
          "indexed": false,
          "internalType": "uint256",
          "name": "itemId",
          "type": "uint256"
        },
        {
          "indexed": false,
          "internalType": "address",
          "name": "buyer",
          "type": "address"
        },
        {
          "indexed": false,
          "internalType": "uint256",
          "name": "cost",
          "type": "uint256"
        }
      ],
      "name": "ItemBought",
      "type": "event"
    },
    {
      "anonymous": false,
      "inputs": [
        {
          "indexed": false,
          "internalType": "uint256",
          "name": "crateId",
          "type": "uint256"
        },
        {
          "indexed": false,
          "internalType": "string",
          "name": "latitude",
          "type": "string"
        },
        {
          "indexed": false,
          "internalType": "string",
          "name": "longitude",
          "type": "string"
        },
        {
          "indexed": false,
          "internalType": "uint256",
          "name": "timestamp",
          "type": "uint256"
        }
      ],
      "name": "LocationUpdated",
      "type": "event"
    },
    {
      "anonymous": false,
      "inputs": [
        {
          "indexed": false,
          "internalType": "uint256",
          "name": "orderId",
          "type": "uint256"
        },
        {
          "indexed": false,
          "internalType": "uint256",
          "name": "itemId",
          "type": "uint256"
        }
      ],
      "name": "OrderFulfilled",
      "type": "event"
    },
    {
      "anonymous": false,
      "inputs": [
        {
          "indexed": false,
          "internalType": "uint256",
          "name": "orderId",
          "type": "uint256"
        },
        {
          "indexed": false,
          "internalType": "uint256",
          "name": "itemId",
          "type": "uint256"
        },
        {
          "indexed": false,
          "internalType": "address",
          "name": "buyer",
          "type": "address"
        }
      ],
      "name": "OrderPlaced",
      "type": "event"
    },
    {
      "anonymous": false,
      "inputs": [
        {
          "indexed": false,
          "internalType": "uint256",
          "name": "productId",
          "type": "uint256"
        },
        {
          "indexed": false,
          "internalType": "string",
          "name": "name",
          "type": "string"
        },
        {
          "indexed": false,
          "internalType": "uint256",
          "name": "cost",
          "type": "uint256"
        },
        {
          "indexed": false,
          "internalType": "uint256",
          "name": "stock",
          "type": "uint256"
        }
      ],
      "name": "ProductCreated",
      "type": "event"
    },
    {
      "anonymous": false,
      "inputs": [
        {
          "indexed": false,
          "internalType": "uint256",
          "name": "itemId",
          "type": "uint256"
        },
        {
          "indexed": false,
          "internalType": "uint256",
          "name": "productId",
          "type": "uint256"
        }
      ],
      "name": "ProductDelivered",
      "type": "event"
    },
    {
      "anonymous": false,
      "inputs": [
        {
          "indexed": false,
          "internalType": "uint256",
          "name": "itemId",
          "type": "uint256"
        },
        {
          "indexed": false,
          "internalType": "string",
          "name": "rfidTag",
          "type": "string"
        }
      ],
      "name": "RFIDAssigned",
      "type": "event"
    },
    {
      "anonymous": false,
      "inputs": [
        {
          "indexed": false,
          "internalType": "string",
          "name": "rfidTag",
          "type": "string"
        }
      ],
      "name": "RFIDReleased",
      "type": "event"
    },
    {
      "anonymous": false,
      "inputs": [
        {
          "indexed": false,
          "internalType": "uint256",
          "name": "productId",
          "type": "uint256"
        },
        {
          "indexed": false,
          "internalType": "uint256",
          "name": "stockAdded",
          "type": "uint256"
        }
      ],
      "name": "StockUpdated",
      "type": "event"
    },
    {
      "inputs": [
        {
          "internalType": "uint256",
          "name": "_crateId",
          "type": "uint256"
        },
        {
          "internalType": "uint256",
          "name": "_itemId",
          "type": "uint256"
        }
      ],
      "name": "addItemToCrate",
      "outputs": [],
      "stateMutability": "nonpayable",
      "type": "function"
    },
    {
      "inputs": [
        {
          "internalType": "uint256",
          "name": "_productId",
          "type": "uint256"
        },
        {
          "internalType": "uint256",
          "name": "_stockToAdd",
          "type": "uint256"
        }
      ],
      "name": "addStock",
      "outputs": [],
      "stateMutability": "nonpayable",
      "type": "function"
    },
    {
      "inputs": [
        {
          "internalType": "uint256",
          "name": "_itemId",
          "type": "uint256"
        },
        {
          "internalType": "string",
          "name": "_rfidTag",
          "type": "string"
        }
      ],
      "name": "assignRFID",
      "outputs": [],
      "stateMutability": "nonpayable",
      "type": "function"
    },
    {
      "inputs": [
        {
          "internalType": "uint256",
          "name": "_itemId",
          "type": "uint256"
        }
      ],
      "name": "buyItem",
      "outputs": [],
      "stateMutability": "payable",
      "type": "function"
    },
    {
      "inputs": [
        {
          "internalType": "address",
          "name": "",
          "type": "address"
        },
        {
          "internalType": "uint256",
          "name": "",
          "type": "uint256"
        }
      ],
      "name": "buyerOrders",
      "outputs": [
        {
          "internalType": "uint256",
          "name": "",
          "type": "uint256"
        }
      ],
      "stateMutability": "view",
      "type": "function"
    },
    {
      "inputs": [
        {
          "internalType": "uint256",
          "name": "",
          "type": "uint256"
        },
        {
          "internalType": "uint256",
          "name": "",
          "type": "uint256"
        }
      ],
      "name": "crateLocations",
      "outputs": [
        {
          "internalType": "string",
          "name": "latitude",
          "type": "string"
        },
        {
          "internalType": "string",
          "name": "longitude",
          "type": "string"
        },
        {
          "internalType": "uint256",
          "name": "timestamp",
          "type": "uint256"
        }
      ],
      "stateMutability": "view",
      "type": "function"
    },
    {
      "inputs": [
        {
          "internalType": "uint256",
          "name": "",
          "type": "uint256"
        }
      ],
      "name": "crates",
      "outputs": [
        {
          "internalType": "uint256",
          "name": "crateId",
          "type": "uint256"
        },
        {
          "internalType": "string",
          "name": "crateRFID",
          "type": "string"
        },
        {
          "internalType": "address",
          "name": "warehouse",
          "type": "address"
        },
        {
          "internalType": "bool",
          "name": "closed",
          "type": "bool"
        },
        {
          "internalType": "bool",
          "name": "delivered",
          "type": "bool"
        }
      ],
      "stateMutability": "view",
      "type": "function"
    },
    {
      "inputs": [
        {
          "internalType": "string",
          "name": "_crateRFID",
          "type": "string"
        },
        {
          "internalType": "uint256[]",
          "name": "items",
          "type": "uint256[]"
        }
      ],
      "name": "createCrate",
      "outputs": [],
      "stateMutability": "nonpayable",
      "type": "function"
    },
    {
      "inputs": [
        {
          "internalType": "uint256",
          "name": "_productId",
          "type": "uint256"
        },
        {
          "internalType": "string",
          "name": "_name",
          "type": "string"
        },
        {
          "internalType": "string",
          "name": "_category",
          "type": "string"
        },
        {
          "internalType": "string",
          "name": "_image",
          "type": "string"
        },
        {
          "internalType": "uint256",
          "name": "_cost",
          "type": "uint256"
        },
        {
          "internalType": "uint256",
          "name": "_rating",
          "type": "uint256"
        }
      ],
      "name": "createProduct",
      "outputs": [],
      "stateMutability": "nonpayable",
      "type": "function"
    },
    {
      "inputs": [
        {
          "internalType": "uint256",
          "name": "_crateId",
          "type": "uint256"
        }
      ],
      "name": "deliverCrate",
      "outputs": [],
      "stateMutability": "nonpayable",
      "type": "function"
    },
    {
      "inputs": [
        {
          "internalType": "uint256",
          "name": "_crateId",
          "type": "uint256"
        },
        {
          "internalType": "string",
          "name": "_sensorId",
          "type": "string"
        }
      ],
      "name": "detectCrate",
      "outputs": [],
      "stateMutability": "nonpayable",
      "type": "function"
    },
    {
      "inputs": [
        {
          "internalType": "uint256",
          "name": "_orderId",
          "type": "uint256"
        }
      ],
      "name": "fulfillOrder",
      "outputs": [],
      "stateMutability": "nonpayable",
      "type": "function"
    },
    {
      "inputs": [
        {
          "internalType": "string",
          "name": "_crateRFID",
          "type": "string"
        }
      ],
      "name": "getCrateByRFID",
      "outputs": [
        {
          "components": [
            {
              "internalType": "uint256",
              "name": "crateId",
              "type": "uint256"
            },
            {
              "internalType": "string",
              "name": "crateRFID",
              "type": "string"
            },
            {
              "internalType": "address",
              "name": "warehouse",
              "type": "address"
            },
            {
              "internalType": "bool",
              "name": "closed",
              "type": "bool"
            },
            {
              "internalType": "bool",
              "name": "delivered",
              "type": "bool"
            },
            {
              "internalType": "uint256[]",
              "name": "itemIds",
              "type": "uint256[]"
            }
          ],
          "internalType": "struct CrateManagement.Crate",
          "name": "",
          "type": "tuple"
        }
      ],
      "stateMutability": "view",
      "type": "function"
    },
    {
      "inputs": [
        {
          "internalType": "uint256",
          "name": "_crateId",
          "type": "uint256"
        }
      ],
      "name": "getCrateLocationHistory",
      "outputs": [
        {
          "components": [
            {
              "internalType": "string",
              "name": "latitude",
              "type": "string"
            },
            {
              "internalType": "string",
              "name": "longitude",
              "type": "string"
            },
            {
              "internalType": "uint256",
              "name": "timestamp",
              "type": "uint256"
            }
          ],
          "internalType": "struct RfidManagement.Location[]",
          "name": "",
          "type": "tuple[]"
        }
      ],
      "stateMutability": "view",
      "type": "function"
    },
    {
      "inputs": [
        {
          "internalType": "uint256",
          "name": "_itemId",
          "type": "uint256"
        }
      ],
      "name": "getItem",
      "outputs": [
        {
          "components": [
            {
              "internalType": "uint256",
              "name": "itemId",
              "type": "uint256"
            },
            {
              "internalType": "uint256",
              "name": "productId",
              "type": "uint256"
            },
            {
              "internalType": "string",
              "name": "rfidTag",
              "type": "string"
            },
            {
              "internalType": "address",
              "name": "currentOwner",
              "type": "address"
            },
            {
              "internalType": "bool",
              "name": "delivered",
              "type": "bool"
            }
          ],
          "internalType": "struct ProductManagement.Item",
          "name": "",
          "type": "tuple"
        }
      ],
      "stateMutability": "view",
      "type": "function"
    },
    {
      "inputs": [
        {
          "internalType": "uint256",
          "name": "_crateId",
          "type": "uint256"
        }
      ],
      "name": "getItemsInCrate",
      "outputs": [
        {
          "internalType": "uint256[]",
          "name": "",
          "type": "uint256[]"
        }
      ],
      "stateMutability": "view",
      "type": "function"
    },
    {
      "inputs": [
        {
          "internalType": "uint256",
          "name": "_crateId",
          "type": "uint256"
        }
      ],
      "name": "getLatestLocation",
      "outputs": [
        {
          "components": [
            {
              "internalType": "string",
              "name": "latitude",
              "type": "string"
            },
            {
              "internalType": "string",
              "name": "longitude",
              "type": "string"
            },
            {
              "internalType": "uint256",
              "name": "timestamp",
              "type": "uint256"
            }
          ],
          "internalType": "struct RfidManagement.Location",
          "name": "",
          "type": "tuple"
        }
      ],
      "stateMutability": "view",
      "type": "function"
    },
    {
      "inputs": [
        {
          "internalType": "uint256",
          "name": "_orderId",
          "type": "uint256"
        }
      ],
      "name": "getOrder",
      "outputs": [
        {
          "components": [
            {
              "internalType": "uint256",
              "name": "orderId",
              "type": "uint256"
            },
            {
              "internalType": "uint256",
              "name": "itemId",
              "type": "uint256"
            },
            {
              "internalType": "uint256",
              "name": "timestamp",
              "type": "uint256"
            },
            {
              "internalType": "address",
              "name": "buyer",
              "type": "address"
            },
            {
              "internalType": "bool",
              "name": "fulfilled",
              "type": "bool"
            }
          ],
          "internalType": "struct OrderManagement.Order",
          "name": "",
          "type": "tuple"
        }
      ],
      "stateMutability": "view",
      "type": "function"
    },
    {
      "inputs": [
        {
          "internalType": "address",
          "name": "_buyer",
          "type": "address"
        }
      ],
      "name": "getOrdersByBuyer",
      "outputs": [
        {
          "components": [
            {
              "internalType": "uint256",
              "name": "orderId",
              "type": "uint256"
            },
            {
              "internalType": "uint256",
              "name": "itemId",
              "type": "uint256"
            },
            {
              "internalType": "uint256",
              "name": "timestamp",
              "type": "uint256"
            },
            {
              "internalType": "address",
              "name": "buyer",
              "type": "address"
            },
            {
              "internalType": "bool",
              "name": "fulfilled",
              "type": "bool"
            }
          ],
          "internalType": "struct OrderManagement.Order[]",
          "name": "",
          "type": "tuple[]"
        }
      ],
      "stateMutability": "view",
      "type": "function"
    },
    {
      "inputs": [
        {
          "internalType": "uint256",
          "name": "_productId",
          "type": "uint256"
        }
      ],
      "name": "getProduct",
      "outputs": [
        {
          "components": [
            {
              "internalType": "uint256",
              "name": "productId",
              "type": "uint256"
            },
            {
              "internalType": "string",
              "name": "name",
              "type": "string"
            },
            {
              "internalType": "string",
              "name": "category",
              "type": "string"
            },
            {
              "internalType": "string",
              "name": "image",
              "type": "string"
            },
            {
              "internalType": "uint256",
              "name": "cost",
              "type": "uint256"
            },
            {
              "internalType": "uint256",
              "name": "rating",
              "type": "uint256"
            },
            {
              "internalType": "uint256",
              "name": "stock",
              "type": "uint256"
            }
          ],
          "internalType": "struct ProductManagement.Product",
          "name": "",
          "type": "tuple"
        }
      ],
      "stateMutability": "view",
      "type": "function"
    },
    {
      "inputs": [
        {
          "internalType": "string",
          "name": "_rfidTag",
          "type": "string"
        }
      ],
      "name": "getUndeliveredItemIdByRFID",
      "outputs": [
        {
          "internalType": "uint256",
          "name": "",
          "type": "uint256"
        }
      ],
      "stateMutability": "view",
      "type": "function"
    },
    {
      "inputs": [
        {
          "internalType": "uint256",
          "name": "",
          "type": "uint256"
        }
      ],
      "name": "items",
      "outputs": [
        {
          "internalType": "uint256",
          "name": "itemId",
          "type": "uint256"
        },
        {
          "internalType": "uint256",
          "name": "productId",
          "type": "uint256"
        },
        {
          "internalType": "string",
          "name": "rfidTag",
          "type": "string"
        },
        {
          "internalType": "address",
          "name": "currentOwner",
          "type": "address"
        },
        {
          "internalType": "bool",
          "name": "delivered",
          "type": "bool"
        }
      ],
      "stateMutability": "view",
      "type": "function"
    },
    {
      "inputs": [
        {
          "internalType": "uint256",
          "name": "_itemId",
          "type": "uint256"
        }
      ],
      "name": "markDelivered",
      "outputs": [],
      "stateMutability": "nonpayable",
      "type": "function"
    },
    {
      "inputs": [],
      "name": "nextCrateId",
      "outputs": [
        {
          "internalType": "uint256",
          "name": "",
          "type": "uint256"
        }
      ],
      "stateMutability": "view",
      "type": "function"
    },
    {
      "inputs": [],
      "name": "nextOrderId",
      "outputs": [
        {
          "internalType": "uint256",
          "name": "",
          "type": "uint256"
        }
      ],
      "stateMutability": "view",
      "type": "function"
    },
    {
      "inputs": [
        {
          "internalType": "uint256",
          "name": "_crateId",
          "type": "uint256"
        },
        {
          "internalType": "string",
          "name": "_sensorId",
          "type": "string"
        }
      ],
      "name": "openCrate",
      "outputs": [],
      "stateMutability": "nonpayable",
      "type": "function"
    },
    {
      "inputs": [
        {
          "internalType": "uint256",
          "name": "",
          "type": "uint256"
        }
      ],
      "name": "orders",
      "outputs": [
        {
          "internalType": "uint256",
          "name": "orderId",
          "type": "uint256"
        },
        {
          "internalType": "uint256",
          "name": "itemId",
          "type": "uint256"
        },
        {
          "internalType": "uint256",
          "name": "timestamp",
          "type": "uint256"
        },
        {
          "internalType": "address",
          "name": "buyer",
          "type": "address"
        },
        {
          "internalType": "bool",
          "name": "fulfilled",
          "type": "bool"
        }
      ],
      "stateMutability": "view",
      "type": "function"
    },
    {
      "inputs": [],
      "name": "owner",
      "outputs": [
        {
          "internalType": "address",
          "name": "",
          "type": "address"
        }
      ],
      "stateMutability": "view",
      "type": "function"
    },
    {
      "inputs": [
        {
          "internalType": "uint256",
          "name": "_itemId",
          "type": "uint256"
        },
        {
          "internalType": "string",
          "name": "_rfidTag",
          "type": "string"
        }
      ],
      "name": "placeOrder",
      "outputs": [],
      "stateMutability": "payable",
      "type": "function"
    },
    {
      "inputs": [
        {
          "internalType": "uint256",
          "name": "",
          "type": "uint256"
        }
      ],
      "name": "products",
      "outputs": [
        {
          "internalType": "uint256",
          "name": "productId",
          "type": "uint256"
        },
        {
          "internalType": "string",
          "name": "name",
          "type": "string"
        },
        {
          "internalType": "string",
          "name": "category",
          "type": "string"
        },
        {
          "internalType": "string",
          "name": "image",
          "type": "string"
        },
        {
          "internalType": "uint256",
          "name": "cost",
          "type": "uint256"
        },
        {
          "internalType": "uint256",
          "name": "rating",
          "type": "uint256"
        },
        {
          "internalType": "uint256",
          "name": "stock",
          "type": "uint256"
        }
      ],
      "stateMutability": "view",
      "type": "function"
    },
    {
      "inputs": [
        {
          "internalType": "string",
          "name": "_rfidTag",
          "type": "string"
        }
      ],
      "name": "releaseRFID",
      "outputs": [],
      "stateMutability": "nonpayable",
      "type": "function"
    },
    {
      "inputs": [
        {
          "internalType": "string",
          "name": "",
          "type": "string"
        }
      ],
      "name": "rfidToCrateId",
      "outputs": [
        {
          "internalType": "uint256",
          "name": "",
          "type": "uint256"
        }
      ],
      "stateMutability": "view",
      "type": "function"
    },
    {
      "inputs": [
        {
          "internalType": "string",
          "name": "",
          "type": "string"
        }
      ],
      "name": "rfidToItemId",
      "outputs": [
        {
          "internalType": "uint256",
          "name": "",
          "type": "uint256"
        }
      ],
      "stateMutability": "view",
      "type": "function"
    },
    {
      "inputs": [
        {
          "internalType": "uint256",
          "name": "_crateId",
          "type": "uint256"
        }
      ],
      "name": "sealCrate",
      "outputs": [],
      "stateMutability": "nonpayable",
      "type": "function"
    },
    {
      "inputs": [
        {
          "internalType": "uint256",
          "name": "_crateId",
          "type": "uint256"
        },
        {
          "internalType": "string",
          "name": "_latitude",
          "type": "string"
        },
        {
          "internalType": "string",
          "name": "_longitude",
          "type": "string"
        }
      ],
      "name": "updateLocation",
      "outputs": [],
      "stateMutability": "nonpayable",
      "type": "function"
    },
    {
      "inputs": [],
      "name": "withdraw",
      "outputs": [],
      "stateMutability": "nonpayable",
      "type": "function"
    }
  ],
  "bytecode": "0x608060405260016004556001600755348015601957600080fd5b50336000806101000a81548173ffffffffffffffffffffffffffffffffffffffff021916908373ffffffffffffffffffffffffffffffffffffffff16021790555061648a806100696000396000f3fe60806040526004361061020f5760003560e01c80637acc0b2011610118578063b9db15b4116100a0578063d09ef2411161006f578063d09ef24114610853578063e7fb74c714610890578063eb826a5f146108ac578063fbd5cf42146108d5578063fca6195e146108fe5761020f565b8063b9db15b414610781578063bfb231d2146107be578063c38cae9f146107ff578063cb9953e7146108285761020f565b806399ae5dc9116100e757806399ae5dc914610674578063a1f9d7e91461069d578063a85c38ef146106da578063b74728851461071b578063b98a20bc146107445761020f565b80637acc0b20146105b45780637edd19a2146105f7578063843d7209146106205780638da5cb5b146106495761020f565b80633a875a431161019b5780634500cb601161016a5780634500cb60146104ab57806348e9339e146104e85780635c61f40e146105115780636311e8301461054e57806375211fe5146105775761020f565b80633a875a43146103ef5780633ccfd60b1461042c5780633ebe5eb21461044357806340c9c870146104825761020f565b806320e3fee5116101e257806320e3fee5146102e057806320e8edbc14610309578063242d82b31461034a5780632a58b330146103875780633129e773146103b25761020f565b806301ac87f8146102145780630c36579514610251578063136726b61461027a57806314bfdc38146102b7575b600080fd5b34801561022057600080fd5b5061023b60048036038101906102369190614129565b61091a565b604051610248919061430e565b60405180910390f35b34801561025d57600080fd5b506102786004803603810190610273919061452d565b610b12565b005b34801561028657600080fd5b506102a1600480360381019061029c91906145a5565b610dd9565b6040516102ae91906145fd565b60405180910390f35b3480156102c357600080fd5b506102de60048036038101906102d99190614129565b610e07565b005b3480156102ec57600080fd5b5061030760048036038101906103029190614618565b610fe6565b005b34801561031557600080fd5b50610330600480360381019061032b9190614129565b6110e7565b60405161034195949392919061471a565b60405180910390f35b34801561035657600080fd5b50610371600480360381019061036c9190614129565b6111df565b60405161037e9190614823565b60405180910390f35b34801561039357600080fd5b5061039c611299565b6040516103a991906145fd565b60405180910390f35b3480156103be57600080fd5b506103d960048036038101906103d49190614129565b61129f565b6040516103e691906148d9565b60405180910390f35b3480156103fb57600080fd5b5061041660048036038101906104119190614927565b6113e3565b6040516104239190614a6b565b60405180910390f35b34801561043857600080fd5b506104416115d9565b005b34801561044f57600080fd5b5061046a60048036038101906104659190614a8d565b611737565b60405161047993929190614acd565b60405180910390f35b34801561048e57600080fd5b506104a960048036038101906104a491906145a5565b61188e565b005b3480156104b757600080fd5b506104d260048036038101906104cd9190614b12565b611a6b565b6040516104df91906145fd565b60405180910390f35b3480156104f457600080fd5b5061050f600480360381019061050a9190614b52565b611a9c565b005b34801561051d57600080fd5b5061053860048036038101906105339190614129565b611c82565b6040516105459190614c8a565b60405180910390f35b34801561055a57600080fd5b5061057560048036038101906105709190614129565b611ed0565b005b34801561058357600080fd5b5061059e600480360381019061059991906145a5565b612137565b6040516105ab91906145fd565b60405180910390f35b3480156105c057600080fd5b506105db60048036038101906105d69190614129565b612211565b6040516105ee9796959493929190614cac565b60405180910390f35b34801561060357600080fd5b5061061e60048036038101906106199190614a8d565b6123eb565b005b34801561062c57600080fd5b5061064760048036038101906106429190614129565b6126b7565b005b34801561065557600080fd5b5061065e612955565b60405161066b9190614d30565b60405180910390f35b34801561068057600080fd5b5061069b60048036038101906106969190614a8d565b612979565b005b3480156106a957600080fd5b506106c460048036038101906106bf91906145a5565b612c61565b6040516106d191906145fd565b60405180910390f35b3480156106e657600080fd5b5061070160048036038101906106fc9190614129565b612c8f565b604051610712959493929190614d4b565b60405180910390f35b34801561072757600080fd5b50610742600480360381019061073d9190614d9e565b612cf2565b005b34801561075057600080fd5b5061076b600480360381019061076691906145a5565b612e8b565b6040516107789190614f28565b60405180910390f35b34801561078d57600080fd5b506107a860048036038101906107a39190614129565b61309f565b6040516107b59190614ff4565b60405180910390f35b3480156107ca57600080fd5b506107e560048036038101906107e09190614129565b6132aa565b6040516107f6959493929190615016565b60405180910390f35b34801561080b57600080fd5b5061082660048036038101906108219190614618565b613395565b005b34801561083457600080fd5b5061083d6135aa565b60405161084a91906145fd565b60405180910390f35b34801561085f57600080fd5b5061087a60048036038101906108759190614129565b6135b0565b60405161088791906150d8565b60405180910390f35b6108aa60048036038101906108a59190614129565b61366c565b005b3480156108b857600080fd5b506108d360048036038101906108ce9190614129565b613821565b005b3480156108e157600080fd5b506108fc60048036038101906108f79190614618565b6139e0565b005b61091860048036038101906109139190614618565b613b10565b005b606081600860008481526020019081526020016000206000015414610974576040517f08c379a000000000000000000000000000000000000000000000000000000000815260040161096b9061513f565b60405180910390fd5b600a6000838152602001908152602001600020805480602002602001604051908101604052809291908181526020016000905b82821015610b0757838290600052602060002090600302016040518060600160405290816000820180546109da9061518e565b80601f0160208091040260200160405190810160405280929190818152602001828054610a069061518e565b8015610a535780601f10610a2857610100808354040283529160200191610a53565b820191906000526020600020905b815481529060010190602001808311610a3657829003601f168201915b50505050508152602001600182018054610a6c9061518e565b80601f0160208091040260200160405190810160405280929190818152602001828054610a989061518e565b8015610ae55780601f10610aba57610100808354040283529160200191610ae5565b820191906000526020600020905b815481529060010190602001808311610ac857829003601f168201915b50505050508152602001600282015481525050815260200190600101906109a7565b505050509050919050565b60008054906101000a900473ffffffffffffffffffffffffffffffffffffffff1673ffffffffffffffffffffffffffffffffffffffff163373ffffffffffffffffffffffffffffffffffffffff1603610ba0576040517f08c379a0000000000000000000000000000000000000000000000000000000008152600401610b979061520b565b60405180910390fd5b6000600983604051610bb29190615267565b90815260200160405180910390205414610c01576040517f08c379a0000000000000000000000000000000000000000000000000000000008152600401610bf8906152ca565b60405180910390fd5b60004283600754604051602001610c1a9392919061530b565b6040516020818303038152906040528051906020012060001c905060006040518060c001604052808381526020018581526020013373ffffffffffffffffffffffffffffffffffffffff1681526020016000151581526020016000151581526020018481525090508060086000848152602001908152602001600020600082015181600001556020820151816001019081610cb591906154f0565b5060408201518160020160006101000a81548173ffffffffffffffffffffffffffffffffffffffff021916908373ffffffffffffffffffffffffffffffffffffffff16021790555060608201518160020160146101000a81548160ff02191690831515021790555060808201518160020160156101000a81548160ff02191690831515021790555060a0820151816003019080519060200190610d59929190613f39565b5090505081600985604051610d6e9190615267565b90815260200160405180910390208190555060076000815480929190610d93906155f1565b91905055507fcd4261f8fecfed60e919663892c94e91aa1610796fed34bd1f311069efafedfb823386604051610dcb93929190615639565b60405180910390a150505050565b6003818051602081018201805184825260208301602085012081835280955050505050506000915090505481565b60008054906101000a900473ffffffffffffffffffffffffffffffffffffffff1673ffffffffffffffffffffffffffffffffffffffff163373ffffffffffffffffffffffffffffffffffffffff1603610e95576040517f08c379a0000000000000000000000000000000000000000000000000000000008152600401610e8c9061520b565b60405180910390fd5b600060086000838152602001908152602001600020905081816000015414610ef2576040517f08c379a0000000000000000000000000000000000000000000000000000000008152600401610ee99061513f565b60405180910390fd5b8060020160149054906101000a900460ff1615610f44576040517f08c379a0000000000000000000000000000000000000000000000000000000008152600401610f3b906156c3565b60405180910390fd5b6000816003018054905011610f8e576040517f08c379a0000000000000000000000000000000000000000000000000000000008152600401610f8590615755565b60405180910390fd5b60018160020160146101000a81548160ff0219169083151502179055507f41632ed054e8232670578c765ce51930c952953182bc1685784ff47542f1281982604051610fda91906145fd565b60405180910390a15050565b8160086000848152602001908152602001600020600001541461103e576040517f08c379a00000000000000000000000000000000000000000000000000000000081526004016110359061513f565b60405180910390fd5b600015156008600084815260200190815260200160002060020160159054906101000a900460ff161515146110a8576040517f08c379a000000000000000000000000000000000000000000000000000000000815260040161109f906157c1565b60405180910390fd5b7f47b1016560402546b70912459d1a79c225c99acfa10ec006a260a96adfc5acd68282426040516110db939291906157e1565b60405180910390a15050565b60086020528060005260406000206000915090508060000154908060010180546111109061518e565b80601f016020809104026020016040519081016040528092919081815260200182805461113c9061518e565b80156111895780601f1061115e57610100808354040283529160200191611189565b820191906000526020600020905b81548152906001019060200180831161116c57829003601f168201915b5050505050908060020160009054906101000a900473ffffffffffffffffffffffffffffffffffffffff16908060020160149054906101000a900460ff16908060020160159054906101000a900460ff16905085565b606060006008600084815260200190815260200160002090508281600001541461123e576040517f08c379a00000000000000000000000000000000000000000000000000000000081526004016112359061513f565b60405180910390fd5b8060030180548060200260200160405190810160405280929190818152602001828054801561128c57602002820191906000526020600020905b815481526020019060010190808311611278575b5050505050915050919050565b60045481565b6112a7613f86565b600260008381526020019081526020016000206040518060a001604052908160008201548152602001600182015481526020016002820180546112e99061518e565b80601f01602080910402602001604051908101604052809291908181526020018280546113159061518e565b80156113625780601f1061133757610100808354040283529160200191611362565b820191906000526020600020905b81548152906001019060200180831161134557829003601f168201915b505050505081526020016003820160009054906101000a900473ffffffffffffffffffffffffffffffffffffffff1673ffffffffffffffffffffffffffffffffffffffff1673ffffffffffffffffffffffffffffffffffffffff1681526020016003820160149054906101000a900460ff1615151515815250509050919050565b60606000600660008473ffffffffffffffffffffffffffffffffffffffff1673ffffffffffffffffffffffffffffffffffffffff16815260200190815260200160002080548060200260200160405190810160405280929190818152602001828054801561147057602002820191906000526020600020905b81548152602001906001019080831161145c575b505050505090506000815167ffffffffffffffff8111156114945761149361433a565b5b6040519080825280602002602001820160405280156114cd57816020015b6114ba613fcd565b8152602001906001900390816114b25790505b50905060005b82518110156115ce57600560008483815181106114f3576114f261581f565b5b602002602001015181526020019081526020016000206040518060a00160405290816000820154815260200160018201548152602001600282015481526020016003820160009054906101000a900473ffffffffffffffffffffffffffffffffffffffff1673ffffffffffffffffffffffffffffffffffffffff1673ffffffffffffffffffffffffffffffffffffffff1681526020016003820160149054906101000a900460ff1615151515815250508282815181106115b6576115b561581f565b5b602002602001018190525080806001019150506114d3565b508092505050919050565b60008054906101000a900473ffffffffffffffffffffffffffffffffffffffff1673ffffffffffffffffffffffffffffffffffffffff163373ffffffffffffffffffffffffffffffffffffffff1614611667576040517f08c379a000000000000000000000000000000000000000000000000000000000815260040161165e9061520b565b60405180910390fd5b60008060009054906101000a900473ffffffffffffffffffffffffffffffffffffffff1673ffffffffffffffffffffffffffffffffffffffff16476040516116ae9061587f565b60006040518083038185875af1925050503d80600081146116eb576040519150601f19603f3d011682016040523d82523d6000602084013e6116f0565b606091505b5050905080611734576040517f08c379a000000000000000000000000000000000000000000000000000000000815260040161172b906158e0565b60405180910390fd5b50565b600a602052816000526040600020818154811061175357600080fd5b9060005260206000209060030201600091509150508060000180546117779061518e565b80601f01602080910402602001604051908101604052809291908181526020018280546117a39061518e565b80156117f05780601f106117c5576101008083540402835291602001916117f0565b820191906000526020600020905b8154815290600101906020018083116117d357829003601f168201915b5050505050908060010180546118059061518e565b80601f01602080910402602001604051908101604052809291908181526020018280546118319061518e565b801561187e5780601f106118535761010080835404028352916020019161187e565b820191906000526020600020905b81548152906001019060200180831161186157829003601f168201915b5050505050908060020154905083565b60008054906101000a900473ffffffffffffffffffffffffffffffffffffffff1673ffffffffffffffffffffffffffffffffffffffff163373ffffffffffffffffffffffffffffffffffffffff161461191c576040517f08c379a00000000000000000000000000000000000000000000000000000000081526004016119139061520b565b60405180910390fd5b600060038260405161192e9190615267565b908152602001604051809103902054905060008103611982576040517f08c379a000000000000000000000000000000000000000000000000000000000815260040161197990615972565b60405180910390fd5b60006002600083815260200190815260200160002090508060030160149054906101000a900460ff166119ea576040517f08c379a00000000000000000000000000000000000000000000000000000000081526004016119e1906159de565b60405180910390fd5b60405180602001604052806000815250816002019081611a0a91906154f0565b506000600384604051611a1d9190615267565b9081526020016040518091039020819055507fb678c65d8fdb784b80cde63f565d4fdf781de948e8ad5aa6215a05fe2c624edf83604051611a5e91906159fe565b60405180910390a1505050565b60066020528160005260406000208181548110611a8757600080fd5b90600052602060002001600091509150505481565b60008054906101000a900473ffffffffffffffffffffffffffffffffffffffff1673ffffffffffffffffffffffffffffffffffffffff163373ffffffffffffffffffffffffffffffffffffffff1614611b2a576040517f08c379a0000000000000000000000000000000000000000000000000000000008152600401611b219061520b565b60405180910390fd5b85600160008881526020019081526020016000206000015403611b82576040517f08c379a0000000000000000000000000000000000000000000000000000000008152600401611b7990615a6c565b60405180910390fd5b60006040518060e00160405280888152602001878152602001868152602001858152602001848152602001838152602001600081525090508060016000898152602001908152602001600020600082015181600001556020820151816001019081611bed91906154f0565b506040820151816002019081611c0391906154f0565b506060820151816003019081611c1991906154f0565b506080820151816004015560a0820151816005015560c082015181600601559050507f8d3d82130aebba03bb48b5d158bc2bbb4647856765b1089e7250507307965af98787856000604051611c719493929190615ac7565b60405180910390a150505050505050565b611c8a614014565b81600860008481526020019081526020016000206000015414611ce2576040517f08c379a0000000000000000000000000000000000000000000000000000000008152600401611cd99061513f565b60405180910390fd5b6000600a60008481526020019081526020016000208054905011611d3b576040517f08c379a0000000000000000000000000000000000000000000000000000000008152600401611d3290615b5f565b60405180910390fd5b600a60008381526020019081526020016000206001600a600085815260200190815260200160002080549050611d719190615b7f565b81548110611d8257611d8161581f565b5b9060005260206000209060030201604051806060016040529081600082018054611dab9061518e565b80601f0160208091040260200160405190810160405280929190818152602001828054611dd79061518e565b8015611e245780601f10611df957610100808354040283529160200191611e24565b820191906000526020600020905b815481529060010190602001808311611e0757829003601f168201915b50505050508152602001600182018054611e3d9061518e565b80601f0160208091040260200160405190810160405280929190818152602001828054611e699061518e565b8015611eb65780601f10611e8b57610100808354040283529160200191611eb6565b820191906000526020600020905b815481529060010190602001808311611e9957829003601f168201915b505050505081526020016002820154815250509050919050565b60008054906101000a900473ffffffffffffffffffffffffffffffffffffffff1673ffffffffffffffffffffffffffffffffffffffff163373ffffffffffffffffffffffffffffffffffffffff1614611f5e576040517f08c379a0000000000000000000000000000000000000000000000000000000008152600401611f559061520b565b60405180910390fd5b600060056000838152602001908152602001600020905081816000015414611fbb576040517f08c379a0000000000000000000000000000000000000000000000000000000008152600401611fb290615bff565b60405180910390fd5b8060030160149054906101000a900460ff161561200d576040517f08c379a000000000000000000000000000000000000000000000000000000000815260040161200490615c6b565b60405180910390fd5b6000600260008360010154815260200190815260200160002090508060030160149054906101000a900460ff161561207a576040517f08c379a000000000000000000000000000000000000000000000000000000000815260040161207190615cd7565b60405180910390fd5b60018160030160146101000a81548160ff02191690831515021790555060018260030160146101000a81548160ff0219169083151502179055507feb3b41be12efa25c0c65725eeff2e2ad0250e2e5de2aa939e18f36aa656e98808383600101546040516120e9929190615cf7565b60405180910390a17f26b22e11bb82e495373f9064c9f1db3c19dd810594822900684274cfd7f7a9558260010154826001015460405161212a929190615cf7565b60405180910390a1505050565b60008060038360405161214a9190615267565b90815260200160405180910390205490506000810361219e576040517f08c379a000000000000000000000000000000000000000000000000000000000815260040161219590615d92565b60405180910390fd5b60006002600083815260200190815260200160002090508060030160149054906101000a900460ff1615612207576040517f08c379a00000000000000000000000000000000000000000000000000000000081526004016121fe90615cd7565b60405180910390fd5b8192505050919050565b600160205280600052604060002060009150905080600001549080600101805461223a9061518e565b80601f01602080910402602001604051908101604052809291908181526020018280546122669061518e565b80156122b35780601f10612288576101008083540402835291602001916122b3565b820191906000526020600020905b81548152906001019060200180831161229657829003601f168201915b5050505050908060020180546122c89061518e565b80601f01602080910402602001604051908101604052809291908181526020018280546122f49061518e565b80156123415780601f1061231657610100808354040283529160200191612341565b820191906000526020600020905b81548152906001019060200180831161232457829003601f168201915b5050505050908060030180546123569061518e565b80601f01602080910402602001604051908101604052809291908181526020018280546123829061518e565b80156123cf5780601f106123a4576101008083540402835291602001916123cf565b820191906000526020600020905b8154815290600101906020018083116123b257829003601f168201915b5050505050908060040154908060050154908060060154905087565b60008054906101000a900473ffffffffffffffffffffffffffffffffffffffff1673ffffffffffffffffffffffffffffffffffffffff163373ffffffffffffffffffffffffffffffffffffffff1614612479576040517f08c379a00000000000000000000000000000000000000000000000000000000081526004016124709061520b565b60405180910390fd5b816001600084815260200190815260200160002060000154146124d1576040517f08c379a00000000000000000000000000000000000000000000000000000000081526004016124c890615dfe565b60405180910390fd5b600060016000848152602001908152602001600020905060008160060154905060005b838110156126775760004286838561250c9190615e1e565b60405160200161251e93929190615e52565b6040516020818303038152906040528051906020012060001c90506040518060a0016040528082815260200187815260200160405180602001604052806000815250815260200160008054906101000a900473ffffffffffffffffffffffffffffffffffffffff1673ffffffffffffffffffffffffffffffffffffffff1681526020016000151581525060026000838152602001908152602001600020600082015181600001556020820151816001015560408201518160020190816125e491906154f0565b5060608201518160030160006101000a81548173ffffffffffffffffffffffffffffffffffffffff021916908373ffffffffffffffffffffffffffffffffffffffff16021790555060808201518160030160146101000a81548160ff021916908315150217905550905050836006016000815480929190612664906155f1565b91905055505080806001019150506124f4565b507febcfd4ce21b6aefd071d3e0f4bfa57e491b5308a1ffb5a3a8e4805e23f00b8d784846040516126a9929190615cf7565b60405180910390a150505050565b60008054906101000a900473ffffffffffffffffffffffffffffffffffffffff1673ffffffffffffffffffffffffffffffffffffffff163373ffffffffffffffffffffffffffffffffffffffff1614612745576040517f08c379a000000000000000000000000000000000000000000000000000000000815260040161273c9061520b565b60405180910390fd5b6000600860008381526020019081526020016000209050818160000154146127a2576040517f08c379a00000000000000000000000000000000000000000000000000000000081526004016127999061513f565b60405180910390fd5b8060020160149054906101000a900460ff166127f3576040517f08c379a00000000000000000000000000000000000000000000000000000000081526004016127ea90615edb565b60405180910390fd5b8060020160159054906101000a900460ff1615612845576040517f08c379a000000000000000000000000000000000000000000000000000000000815260040161283c906157c1565b60405180910390fd5b60005b81600301805490508110156128fc57600082600301828154811061286f5761286e61581f565b5b90600052602060002001549050600060026000838152602001908152602001600020905060018160030160146101000a81548160ff0219169083151502179055507f26b22e11bb82e495373f9064c9f1db3c19dd810594822900684274cfd7f7a9558282600101546040516128e5929190615cf7565b60405180910390a150508080600101915050612848565b5060018160020160156101000a81548160ff0219169083151502179055507f16cfa5dfb4453c2c3f24051f8af4ad2f5a4cf5fbe28cc6fe1b6c9b7e6c8118a58260405161294991906145fd565b60405180910390a15050565b60008054906101000a900473ffffffffffffffffffffffffffffffffffffffff1681565b60008054906101000a900473ffffffffffffffffffffffffffffffffffffffff1673ffffffffffffffffffffffffffffffffffffffff163373ffffffffffffffffffffffffffffffffffffffff1603612a07576040517f08c379a00000000000000000000000000000000000000000000000000000000081526004016129fe9061520b565b60405180910390fd5b600060086000848152602001908152602001600020905082816000015414612a64576040517f08c379a0000000000000000000000000000000000000000000000000000000008152600401612a5b9061513f565b60405180910390fd5b8060020160149054906101000a900460ff1615612ab6576040517f08c379a0000000000000000000000000000000000000000000000000000000008152600401612aad906156c3565b60405180910390fd5b600060026000848152602001908152602001600020905082816000015414612b13576040517f08c379a0000000000000000000000000000000000000000000000000000000008152600401612b0a90615f47565b60405180910390fd5b8060030160149054906101000a900460ff1615612b65576040517f08c379a0000000000000000000000000000000000000000000000000000000008152600401612b5c90615cd7565b60405180910390fd5b3373ffffffffffffffffffffffffffffffffffffffff168160030160009054906101000a900473ffffffffffffffffffffffffffffffffffffffff1673ffffffffffffffffffffffffffffffffffffffff1614612bf7576040517f08c379a0000000000000000000000000000000000000000000000000000000008152600401612bee90615fb3565b60405180910390fd5b816003018390806001815401808255809150506001900390600052602060002001600090919091909150557f6d79b29a08a3d4eef715ac5e9726cead09aa748c69dbd122b05ad0a8a5d0a4398484604051612c53929190615cf7565b60405180910390a150505050565b6009818051602081018201805184825260208301602085012081835280955050505050506000915090505481565b60056020528060005260406000206000915090508060000154908060010154908060020154908060030160009054906101000a900473ffffffffffffffffffffffffffffffffffffffff16908060030160149054906101000a900460ff16905085565b82600860008581526020019081526020016000206000015414612d4a576040517f08c379a0000000000000000000000000000000000000000000000000000000008152600401612d419061513f565b60405180910390fd5b600015156008600085815260200190815260200160002060020160159054906101000a900460ff16151514612db4576040517f08c379a0000000000000000000000000000000000000000000000000000000008152600401612dab906157c1565b60405180910390fd5b60006040518060600160405280848152602001838152602001428152509050600a60008581526020019081526020016000208190806001815401808255809150506001900390600052602060002090600302016000909190919091506000820151816000019081612e2591906154f0565b506020820151816001019081612e3b91906154f0565b506040820151816002015550507fc6b4151dd52b13a4146827a88be8cb9d07bb6018d07b014dc316be1f05a3961384848442604051612e7d9493929190615fd3565b60405180910390a150505050565b612e93614035565b6000600983604051612ea59190615267565b908152602001604051809103902054905060008103612ef9576040517f08c379a0000000000000000000000000000000000000000000000000000000008152600401612ef090616098565b60405180910390fd5b600860008281526020019081526020016000206040518060c001604052908160008201548152602001600182018054612f319061518e565b80601f0160208091040260200160405190810160405280929190818152602001828054612f5d9061518e565b8015612faa5780601f10612f7f57610100808354040283529160200191612faa565b820191906000526020600020905b815481529060010190602001808311612f8d57829003601f168201915b505050505081526020016002820160009054906101000a900473ffffffffffffffffffffffffffffffffffffffff1673ffffffffffffffffffffffffffffffffffffffff1673ffffffffffffffffffffffffffffffffffffffff1681526020016002820160149054906101000a900460ff161515151581526020016002820160159054906101000a900460ff161515151581526020016003820180548060200260200160405190810160405280929190818152602001828054801561308e57602002820191906000526020600020905b81548152602001906001019080831161307a575b505050505081525050915050919050565b6130a7614085565b600160008381526020019081526020016000206040518060e0016040529081600082015481526020016001820180546130df9061518e565b80601f016020809104026020016040519081016040528092919081815260200182805461310b9061518e565b80156131585780601f1061312d57610100808354040283529160200191613158565b820191906000526020600020905b81548152906001019060200180831161313b57829003601f168201915b505050505081526020016002820180546131719061518e565b80601f016020809104026020016040519081016040528092919081815260200182805461319d9061518e565b80156131ea5780601f106131bf576101008083540402835291602001916131ea565b820191906000526020600020905b8154815290600101906020018083116131cd57829003601f168201915b505050505081526020016003820180546132039061518e565b80601f016020809104026020016040519081016040528092919081815260200182805461322f9061518e565b801561327c5780601f106132515761010080835404028352916020019161327c565b820191906000526020600020905b81548152906001019060200180831161325f57829003601f168201915b5050505050815260200160048201548152602001600582015481526020016006820154815250509050919050565b60026020528060005260406000206000915090508060000154908060010154908060020180546132d99061518e565b80601f01602080910402602001604051908101604052809291908181526020018280546133059061518e565b80156133525780601f1061332757610100808354040283529160200191613352565b820191906000526020600020905b81548152906001019060200180831161333557829003601f168201915b5050505050908060030160009054906101000a900473ffffffffffffffffffffffffffffffffffffffff16908060030160149054906101000a900460ff16905085565b60008054906101000a900473ffffffffffffffffffffffffffffffffffffffff1673ffffffffffffffffffffffffffffffffffffffff163373ffffffffffffffffffffffffffffffffffffffff1614613423576040517f08c379a000000000000000000000000000000000000000000000000000000000815260040161341a9061520b565b60405180910390fd5b8160026000848152602001908152602001600020600001541461347b576040517f08c379a000000000000000000000000000000000000000000000000000000000815260040161347290615f47565b60405180910390fd5b60008151116134bf576040517f08c379a00000000000000000000000000000000000000000000000000000000081526004016134b690616104565b60405180910390fd5b60006003826040516134d19190615267565b90815260200160405180910390205414613520576040517f08c379a000000000000000000000000000000000000000000000000000000000815260040161351790616196565b60405180910390fd5b60006002600084815260200190815260200160002090508181600201908161354891906154f0565b508260038360405161355a9190615267565b9081526020016040518091039020819055507f455dcb05772163fb704eb1fb314e6f1a9513db7a4f61f49d0767a3f0de77e322838360405161359d9291906161b6565b60405180910390a1505050565b60075481565b6135b8613fcd565b600560008381526020019081526020016000206040518060a00160405290816000820154815260200160018201548152602001600282015481526020016003820160009054906101000a900473ffffffffffffffffffffffffffffffffffffffff1673ffffffffffffffffffffffffffffffffffffffff1673ffffffffffffffffffffffffffffffffffffffff1681526020016003820160149054906101000a900460ff1615151515815250509050919050565b6000600260008381526020019081526020016000209050600060016000836001015481526020019081526020016000209050828260000154146136e4576040517f08c379a00000000000000000000000000000000000000000000000000000000081526004016136db90615f47565b60405180910390fd5b8160030160149054906101000a900460ff1615613736576040517f08c379a000000000000000000000000000000000000000000000000000000000815260040161372d90615cd7565b60405180910390fd5b806004015434101561377d576040517f08c379a000000000000000000000000000000000000000000000000000000000815260040161377490616232565b60405180910390fd5b338260030160006101000a81548173ffffffffffffffffffffffffffffffffffffffff021916908373ffffffffffffffffffffffffffffffffffffffff16021790555060008260030160146101000a81548160ff0219169083151502179055507fd73457218f6ab2c74e548247b8ccd99af11d7975e2beef89a0cd9743fb558da48333836004015460405161381493929190616252565b60405180910390a1505050565b60008054906101000a900473ffffffffffffffffffffffffffffffffffffffff1673ffffffffffffffffffffffffffffffffffffffff163373ffffffffffffffffffffffffffffffffffffffff16146138af576040517f08c379a00000000000000000000000000000000000000000000000000000000081526004016138a69061520b565b60405180910390fd5b80600260008381526020019081526020016000206000015414613907576040517f08c379a00000000000000000000000000000000000000000000000000000000081526004016138fe90615f47565b60405180910390fd5b6002600082815260200190815260200160002060030160149054906101000a900460ff161561396b576040517f08c379a000000000000000000000000000000000000000000000000000000000815260040161396290615cd7565b60405180910390fd5b600060026000838152602001908152602001600020905060018160030160146101000a81548160ff0219169083151502179055507f26b22e11bb82e495373f9064c9f1db3c19dd810594822900684274cfd7f7a9558282600101546040516139d4929190615cf7565b60405180910390a15050565b81600860008481526020019081526020016000206000015414613a38576040517f08c379a0000000000000000000000000000000000000000000000000000000008152600401613a2f9061513f565b60405180910390fd5b600115156008600084815260200190815260200160002060020160149054906101000a900460ff16151514613aa2576040517f08c379a0000000000000000000000000000000000000000000000000000000008152600401613a99906162d5565b60405180910390fd5b60006008600084815260200190815260200160002060020160146101000a81548160ff0219169083151502179055507f5782f7f64a8caea5b350371156f659681ae95e4553adde3b618551d8a7078a46828242604051613b04939291906157e1565b60405180910390a15050565b600060026000848152602001908152602001600020905082816000015414613b6d576040517f08c379a0000000000000000000000000000000000000000000000000000000008152600401613b6490615f47565b60405180910390fd5b8060030160149054906101000a900460ff1615613bbf576040517f08c379a0000000000000000000000000000000000000000000000000000000008152600401613bb690615cd7565b60405180910390fd5b600160008260010154815260200190815260200160002060040154341015613c1c576040517f08c379a0000000000000000000000000000000000000000000000000000000008152600401613c1390616232565b60405180910390fd5b6000600383604051613c2e9190615267565b908152602001604051809103902054905060008114613cb15760006002600083815260200190815260200160002090508060030160149054906101000a900460ff16613caf576040517f08c379a0000000000000000000000000000000000000000000000000000000008152600401613ca690616367565b60405180910390fd5b505b82826002019081613cc291906154f0565b5083600384604051613cd49190615267565b9081526020016040518091039020819055506000423386600454604051602001613d0194939291906163cf565b6040516020818303038152906040528051906020012060001c905060006040518060a001604052808381526020018781526020014281526020013373ffffffffffffffffffffffffffffffffffffffff168152602001600015158152509050806005600084815260200190815260200160002060008201518160000155602082015181600101556040820151816002015560608201518160030160006101000a81548173ffffffffffffffffffffffffffffffffffffffff021916908373ffffffffffffffffffffffffffffffffffffffff16021790555060808201518160030160146101000a81548160ff021916908315150217905550905050600660003373ffffffffffffffffffffffffffffffffffffffff1673ffffffffffffffffffffffffffffffffffffffff168152602001908152602001600020829080600181540180825580915050600190039060005260206000200160009091909190915055338460030160006101000a81548173ffffffffffffffffffffffffffffffffffffffff021916908373ffffffffffffffffffffffffffffffffffffffff16021790555060046000815480929190613eb8906155f1565b91905055507f455dcb05772163fb704eb1fb314e6f1a9513db7a4f61f49d0767a3f0de77e3228686604051613eee9291906161b6565b60405180910390a17ff4ae361d67df8ff151337122b70e54414e64545e71dd154d79408677451fd874828733604051613f299392919061641d565b60405180910390a1505050505050565b828054828255906000526020600020908101928215613f75579160200282015b82811115613f74578251825591602001919060010190613f59565b5b509050613f8291906140c2565b5090565b6040518060a00160405280600081526020016000815260200160608152602001600073ffffffffffffffffffffffffffffffffffffffff1681526020016000151581525090565b6040518060a00160405280600081526020016000815260200160008152602001600073ffffffffffffffffffffffffffffffffffffffff1681526020016000151581525090565b60405180606001604052806060815260200160608152602001600081525090565b6040518060c001604052806000815260200160608152602001600073ffffffffffffffffffffffffffffffffffffffff168152602001600015158152602001600015158152602001606081525090565b6040518060e00160405280600081526020016060815260200160608152602001606081526020016000815260200160008152602001600081525090565b5b808211156140db5760008160009055506001016140c3565b5090565b6000604051905090565b600080fd5b600080fd5b6000819050919050565b614106816140f3565b811461411157600080fd5b50565b600081359050614123816140fd565b92915050565b60006020828403121561413f5761413e6140e9565b5b600061414d84828501614114565b91505092915050565b600081519050919050565b600082825260208201905092915050565b6000819050602082019050919050565b600081519050919050565b600082825260208201905092915050565b60005b838110156141bc5780820151818401526020810190506141a1565b60008484015250505050565b6000601f19601f8301169050919050565b60006141e482614182565b6141ee818561418d565b93506141fe81856020860161419e565b614207816141c8565b840191505092915050565b61421b816140f3565b82525050565b6000606083016000830151848203600086015261423e82826141d9565b9150506020830151848203602086015261425882826141d9565b915050604083015161426d6040860182614212565b508091505092915050565b60006142848383614221565b905092915050565b6000602082019050919050565b60006142a482614156565b6142ae8185614161565b9350836020820285016142c085614172565b8060005b858110156142fc57848403895281516142dd8582614278565b94506142e88361428c565b925060208a019950506001810190506142c4565b50829750879550505050505092915050565b600060208201905081810360008301526143288184614299565b905092915050565b600080fd5b600080fd5b7f4e487b7100000000000000000000000000000000000000000000000000000000600052604160045260246000fd5b614372826141c8565b810181811067ffffffffffffffff821117156143915761439061433a565b5b80604052505050565b60006143a46140df565b90506143b08282614369565b919050565b600067ffffffffffffffff8211156143d0576143cf61433a565b5b6143d9826141c8565b9050602081019050919050565b82818337600083830152505050565b6000614408614403846143b5565b61439a565b90508281526020810184848401111561442457614423614335565b5b61442f8482856143e6565b509392505050565b600082601f83011261444c5761444b614330565b5b813561445c8482602086016143f5565b91505092915050565b600067ffffffffffffffff8211156144805761447f61433a565b5b602082029050602081019050919050565b600080fd5b60006144a96144a484614465565b61439a565b905080838252602082019050602084028301858111156144cc576144cb614491565b5b835b818110156144f557806144e18882614114565b8452602084019350506020810190506144ce565b5050509392505050565b600082601f83011261451457614513614330565b5b8135614524848260208601614496565b91505092915050565b60008060408385031215614544576145436140e9565b5b600083013567ffffffffffffffff811115614562576145616140ee565b5b61456e85828601614437565b925050602083013567ffffffffffffffff81111561458f5761458e6140ee565b5b61459b858286016144ff565b9150509250929050565b6000602082840312156145bb576145ba6140e9565b5b600082013567ffffffffffffffff8111156145d9576145d86140ee565b5b6145e584828501614437565b91505092915050565b6145f7816140f3565b82525050565b600060208201905061461260008301846145ee565b92915050565b6000806040838503121561462f5761462e6140e9565b5b600061463d85828601614114565b925050602083013567ffffffffffffffff81111561465e5761465d6140ee565b5b61466a85828601614437565b9150509250929050565b600082825260208201905092915050565b600061469082614182565b61469a8185614674565b93506146aa81856020860161419e565b6146b3816141c8565b840191505092915050565b600073ffffffffffffffffffffffffffffffffffffffff82169050919050565b60006146e9826146be565b9050919050565b6146f9816146de565b82525050565b60008115159050919050565b614714816146ff565b82525050565b600060a08201905061472f60008301886145ee565b81810360208301526147418187614685565b905061475060408301866146f0565b61475d606083018561470b565b61476a608083018461470b565b9695505050505050565b600081519050919050565b600082825260208201905092915050565b6000819050602082019050919050565b60006147ac8383614212565b60208301905092915050565b6000602082019050919050565b60006147d082614774565b6147da818561477f565b93506147e583614790565b8060005b838110156148165781516147fd88826147a0565b9750614808836147b8565b9250506001810190506147e9565b5085935050505092915050565b6000602082019050818103600083015261483d81846147c5565b905092915050565b61484e816146de565b82525050565b61485d816146ff565b82525050565b600060a08301600083015161487b6000860182614212565b50602083015161488e6020860182614212565b50604083015184820360408601526148a682826141d9565b91505060608301516148bb6060860182614845565b5060808301516148ce6080860182614854565b508091505092915050565b600060208201905081810360008301526148f38184614863565b905092915050565b614904816146de565b811461490f57600080fd5b50565b600081359050614921816148fb565b92915050565b60006020828403121561493d5761493c6140e9565b5b600061494b84828501614912565b91505092915050565b600081519050919050565b600082825260208201905092915050565b6000819050602082019050919050565b60a0820160008201516149966000850182614212565b5060208201516149a96020850182614212565b5060408201516149bc6040850182614212565b5060608201516149cf6060850182614845565b5060808201516149e26080850182614854565b50505050565b60006149f48383614980565b60a08301905092915050565b6000602082019050919050565b6000614a1882614954565b614a22818561495f565b9350614a2d83614970565b8060005b83811015614a5e578151614a4588826149e8565b9750614a5083614a00565b925050600181019050614a31565b5085935050505092915050565b60006020820190508181036000830152614a858184614a0d565b905092915050565b60008060408385031215614aa457614aa36140e9565b5b6000614ab285828601614114565b9250506020614ac385828601614114565b9150509250929050565b60006060820190508181036000830152614ae78186614685565b90508181036020830152614afb8185614685565b9050614b0a60408301846145ee565b949350505050565b60008060408385031215614b2957614b286140e9565b5b6000614b3785828601614912565b9250506020614b4885828601614114565b9150509250929050565b60008060008060008060c08789031215614b6f57614b6e6140e9565b5b6000614b7d89828a01614114565b965050602087013567ffffffffffffffff811115614b9e57614b9d6140ee565b5b614baa89828a01614437565b955050604087013567ffffffffffffffff811115614bcb57614bca6140ee565b5b614bd789828a01614437565b945050606087013567ffffffffffffffff811115614bf857614bf76140ee565b5b614c0489828a01614437565b9350506080614c1589828a01614114565b92505060a0614c2689828a01614114565b9150509295509295509295565b60006060830160008301518482036000860152614c5082826141d9565b91505060208301518482036020860152614c6a82826141d9565b9150506040830151614c7f6040860182614212565b508091505092915050565b60006020820190508181036000830152614ca48184614c33565b905092915050565b600060e082019050614cc1600083018a6145ee565b8181036020830152614cd38189614685565b90508181036040830152614ce78188614685565b90508181036060830152614cfb8187614685565b9050614d0a60808301866145ee565b614d1760a08301856145ee565b614d2460c08301846145ee565b98975050505050505050565b6000602082019050614d4560008301846146f0565b92915050565b600060a082019050614d6060008301886145ee565b614d6d60208301876145ee565b614d7a60408301866145ee565b614d8760608301856146f0565b614d94608083018461470b565b9695505050505050565b600080600060608486031215614db757614db66140e9565b5b6000614dc586828701614114565b935050602084013567ffffffffffffffff811115614de657614de56140ee565b5b614df286828701614437565b925050604084013567ffffffffffffffff811115614e1357614e126140ee565b5b614e1f86828701614437565b9150509250925092565b600082825260208201905092915050565b6000614e4582614774565b614e4f8185614e29565b9350614e5a83614790565b8060005b83811015614e8b578151614e7288826147a0565b9750614e7d836147b8565b925050600181019050614e5e565b5085935050505092915050565b600060c083016000830151614eb06000860182614212565b5060208301518482036020860152614ec882826141d9565b9150506040830151614edd6040860182614845565b506060830151614ef06060860182614854565b506080830151614f036080860182614854565b5060a083015184820360a0860152614f1b8282614e3a565b9150508091505092915050565b60006020820190508181036000830152614f428184614e98565b905092915050565b600060e083016000830151614f626000860182614212565b5060208301518482036020860152614f7a82826141d9565b91505060408301518482036040860152614f9482826141d9565b91505060608301518482036060860152614fae82826141d9565b9150506080830151614fc36080860182614212565b5060a0830151614fd660a0860182614212565b5060c0830151614fe960c0860182614212565b508091505092915050565b6000602082019050818103600083015261500e8184614f4a565b905092915050565b600060a08201905061502b60008301886145ee565b61503860208301876145ee565b818103604083015261504a8186614685565b905061505960608301856146f0565b615066608083018461470b565b9695505050505050565b60a0820160008201516150866000850182614212565b5060208201516150996020850182614212565b5060408201516150ac6040850182614212565b5060608201516150bf6060850182614845565b5060808201516150d26080850182614854565b50505050565b600060a0820190506150ed6000830184615070565b92915050565b7f437261746520646f6573206e6f74206578697374000000000000000000000000600082015250565b6000615129601483614674565b9150615134826150f3565b602082019050919050565b600060208201905081810360008301526151588161511c565b9050919050565b7f4e487b7100000000000000000000000000000000000000000000000000000000600052602260045260246000fd5b600060028204905060018216806151a657607f821691505b6020821081036151b9576151b861515f565b5b50919050565b7f4e6f7420617574686f72697a6564000000000000000000000000000000000000600082015250565b60006151f5600e83614674565b9150615200826151bf565b602082019050919050565b60006020820190508181036000830152615224816151e8565b9050919050565b600081905092915050565b600061524182614182565b61524b818561522b565b935061525b81856020860161419e565b80840191505092915050565b60006152738284615236565b915081905092915050565b7f5246494420616c726561647920696e2075736500000000000000000000000000600082015250565b60006152b4601383614674565b91506152bf8261527e565b602082019050919050565b600060208201905081810360008301526152e3816152a7565b9050919050565b6000819050919050565b615305615300826140f3565b6152ea565b82525050565b600061531782866152f4565b6020820191506153278285615236565b915061533382846152f4565b602082019150819050949350505050565b60008190508160005260206000209050919050565b60006020601f8301049050919050565b600082821b905092915050565b6000600883026153a67fffffffffffffffffffffffffffffffffffffffffffffffffffffffffffffffff82615369565b6153b08683615369565b95508019841693508086168417925050509392505050565b6000819050919050565b60006153ed6153e86153e3846140f3565b6153c8565b6140f3565b9050919050565b6000819050919050565b615407836153d2565b61541b615413826153f4565b848454615376565b825550505050565b600090565b615430615423565b61543b8184846153fe565b505050565b5b8181101561545f57615454600082615428565b600181019050615441565b5050565b601f8211156154a45761547581615344565b61547e84615359565b8101602085101561548d578190505b6154a161549985615359565b830182615440565b50505b505050565b600082821c905092915050565b60006154c7600019846008026154a9565b1980831691505092915050565b60006154e083836154b6565b9150826002028217905092915050565b6154f982614182565b67ffffffffffffffff8111156155125761551161433a565b5b61551c825461518e565b615527828285615463565b600060209050601f83116001811461555a5760008415615548578287015190505b61555285826154d4565b8655506155ba565b601f19841661556886615344565b60005b828110156155905784890151825560018201915060208501945060208101905061556b565b868310156155ad57848901516155a9601f8916826154b6565b8355505b6001600288020188555050505b505050505050565b7f4e487b7100000000000000000000000000000000000000000000000000000000600052601160045260246000fd5b60006155fc826140f3565b91507fffffffffffffffffffffffffffffffffffffffffffffffffffffffffffffffff820361562e5761562d6155c2565b5b600182019050919050565b600060608201905061564e60008301866145ee565b61565b60208301856146f0565b818103604083015261566d8184614685565b9050949350505050565b7f437261746520697320616c7265616479207365616c6564000000000000000000600082015250565b60006156ad601783614674565b91506156b882615677565b602082019050919050565b600060208201905081810360008301526156dc816156a0565b9050919050565b7f4372617465206d75737420636f6e7461696e206174206c65617374206f6e652060008201527f6974656d00000000000000000000000000000000000000000000000000000000602082015250565b600061573f602483614674565b915061574a826156e3565b604082019050919050565b6000602082019050818103600083015261576e81615732565b9050919050565b7f437261746520616c72656164792064656c697665726564000000000000000000600082015250565b60006157ab601783614674565b91506157b682615775565b602082019050919050565b600060208201905081810360008301526157da8161579e565b9050919050565b60006060820190506157f660008301866145ee565b81810360208301526158088185614685565b905061581760408301846145ee565b949350505050565b7f4e487b7100000000000000000000000000000000000000000000000000000000600052603260045260246000fd5b600081905092915050565b50565b600061586960008361584e565b915061587482615859565b600082019050919050565b600061588a8261585c565b9150819050919050565b7f5769746864726177616c206661696c6564000000000000000000000000000000600082015250565b60006158ca601183614674565b91506158d582615894565b602082019050919050565b600060208201905081810360008301526158f9816158bd565b9050919050565b7f5246494420746167206e6f74206173736f636961746564207769746820616e7960008201527f206974656d000000000000000000000000000000000000000000000000000000602082015250565b600061595c602583614674565b915061596782615900565b604082019050919050565b6000602082019050818103600083015261598b8161594f565b9050919050565b7f4974656d206e6f74207965742064656c69766572656400000000000000000000600082015250565b60006159c8601683614674565b91506159d382615992565b602082019050919050565b600060208201905081810360008301526159f7816159bb565b9050919050565b60006020820190508181036000830152615a188184614685565b905092915050565b7f50726f6475637420494420616c72656164792065786973747300000000000000600082015250565b6000615a56601983614674565b9150615a6182615a20565b602082019050919050565b60006020820190508181036000830152615a8581615a49565b9050919050565b6000819050919050565b6000615ab1615aac615aa784615a8c565b6153c8565b6140f3565b9050919050565b615ac181615a96565b82525050565b6000608082019050615adc60008301876145ee565b8181036020830152615aee8186614685565b9050615afd60408301856145ee565b615b0a6060830184615ab8565b95945050505050565b7f4e6f206c6f636174696f6e206461746120617661696c61626c65000000000000600082015250565b6000615b49601a83614674565b9150615b5482615b13565b602082019050919050565b60006020820190508181036000830152615b7881615b3c565b9050919050565b6000615b8a826140f3565b9150615b95836140f3565b9250828203905081811115615bad57615bac6155c2565b5b92915050565b7f4f7264657220646f6573206e6f74206578697374000000000000000000000000600082015250565b6000615be9601483614674565b9150615bf482615bb3565b602082019050919050565b60006020820190508181036000830152615c1881615bdc565b9050919050565b7f4f7264657220616c72656164792066756c66696c6c6564000000000000000000600082015250565b6000615c55601783614674565b9150615c6082615c1f565b602082019050919050565b60006020820190508181036000830152615c8481615c48565b9050919050565b7f4974656d20616c72656164792064656c69766572656400000000000000000000600082015250565b6000615cc1601683614674565b9150615ccc82615c8b565b602082019050919050565b60006020820190508181036000830152615cf081615cb4565b9050919050565b6000604082019050615d0c60008301856145ee565b615d1960208301846145ee565b9392505050565b7f52464944206e6f74206173736f636961746564207769746820616e792069746560008201527f6d00000000000000000000000000000000000000000000000000000000000000602082015250565b6000615d7c602183614674565b9150615d8782615d20565b604082019050919050565b60006020820190508181036000830152615dab81615d6f565b9050919050565b7f50726f6475637420646f6573206e6f7420657869737400000000000000000000600082015250565b6000615de8601683614674565b9150615df382615db2565b602082019050919050565b60006020820190508181036000830152615e1781615ddb565b9050919050565b6000615e29826140f3565b9150615e34836140f3565b9250828201905080821115615e4c57615e4b6155c2565b5b92915050565b6000615e5e82866152f4565b602082019150615e6e82856152f4565b602082019150615e7e82846152f4565b602082019150819050949350505050565b7f4372617465206973206e6f74207365616c656400000000000000000000000000600082015250565b6000615ec5601383614674565b9150615ed082615e8f565b602082019050919050565b60006020820190508181036000830152615ef481615eb8565b9050919050565b7f4974656d20646f6573206e6f7420657869737400000000000000000000000000600082015250565b6000615f31601383614674565b9150615f3c82615efb565b602082019050919050565b60006020820190508181036000830152615f6081615f24565b9050919050565b7f4974656d206e6f74206f776e656420627920746869732077617265686f757365600082015250565b6000615f9d602083614674565b9150615fa882615f67565b602082019050919050565b60006020820190508181036000830152615fcc81615f90565b9050919050565b6000608082019050615fe860008301876145ee565b8181036020830152615ffa8186614685565b9050818103604083015261600e8185614685565b905061601d60608301846145ee565b95945050505050565b7f4372617465206e6f7420666f756e6420666f722074686520676976656e20524660008201527f4944000000000000000000000000000000000000000000000000000000000000602082015250565b6000616082602283614674565b915061608d82616026565b604082019050919050565b600060208201905081810360008301526160b181616075565b9050919050565b7f496e76616c696420524649442074616700000000000000000000000000000000600082015250565b60006160ee601083614674565b91506160f9826160b8565b602082019050919050565b6000602082019050818103600083015261611d816160e1565b9050919050565b7f524649442074616720616c72656164792061737369676e656420746f20616e6f60008201527f74686572206974656d0000000000000000000000000000000000000000000000602082015250565b6000616180602983614674565b915061618b82616124565b604082019050919050565b600060208201905081810360008301526161af81616173565b9050919050565b60006040820190506161cb60008301856145ee565b81810360208301526161dd8184614685565b90509392505050565b7f496e73756666696369656e742066756e64730000000000000000000000000000600082015250565b600061621c601283614674565b9150616227826161e6565b602082019050919050565b6000602082019050818103600083015261624b8161620f565b9050919050565b600060608201905061626760008301866145ee565b61627460208301856146f0565b61628160408301846145ee565b949350505050565b7f4372617465206973206e6f74207365616c656420796574000000000000000000600082015250565b60006162bf601783614674565b91506162ca82616289565b602082019050919050565b600060208201905081810360008301526162ee816162b2565b9050919050565b7f5246494420616c726561647920696e2075736520666f7220616e6f746865722060008201527f756e64656c697665726564206974656d00000000000000000000000000000000602082015250565b6000616351603083614674565b915061635c826162f5565b604082019050919050565b6000602082019050818103600083015261638081616344565b9050919050565b60008160601b9050919050565b600061639f82616387565b9050919050565b60006163b182616394565b9050919050565b6163c96163c4826146de565b6163a6565b82525050565b60006163db82876152f4565b6020820191506163eb82866163b8565b6014820191506163fb82856152f4565b60208201915061640b82846152f4565b60208201915081905095945050505050565b600060608201905061643260008301866145ee565b61643f60208301856145ee565b61644c60408301846146f0565b94935050505056fea2646970667358221220b845a909d646fd30e35aab5477f23eaea89a96bf184bf503ee1be54927f4421564736f6c634300081b0033",
  "linkReferences": {},
  "deployedLinkReferences": {}
}