{
  "_format": "hh-sol-artifact-1",
  "contractName": "RfidManagement",
  "sourceName": "contracts/RfidManagement.sol",
  "abi": [
    {
      "anonymous": false,
      "inputs": [
        {
          "indexed": false,
          "internalType": "uint256",
          "name": "crateId",
          "type": "uint256"
        },
        {
          "indexed": false,
          "internalType": "uint256[]",
          "name": "productIds",
          "type": "uint256[]"
        },
        {
          "indexed": false,
          "internalType": "string",
          "name": "crateRfidTag",
          "type": "string"
        }
      ],
      "name": "CrateCreated",
      "type": "event"
    },
    {
      "anonymous": false,
      "inputs": [
        {
          "indexed": false,
          "internalType": "uint256",
          "name": "crateId",
          "type": "uint256"
        }
      ],
      "name": "CrateShipped",
      "type": "event"
    },
    {
      "anonymous": false,
      "inputs": [
        {
          "indexed": false,
          "internalType": "uint256",
          "name": "id",
          "type": "uint256"
        },
        {
          "indexed": false,
          "internalType": "string",
          "name": "name",
          "type": "string"
        },
        {
          "indexed": false,
          "internalType": "uint256",
          "name": "cost",
          "type": "uint256"
        },
        {
          "indexed": false,
          "internalType": "uint256",
          "name": "stock",
          "type": "uint256"
        }
      ],
      "name": "ItemListed",
      "type": "event"
    },
    {
      "anonymous": false,
      "inputs": [
        {
          "indexed": false,
          "internalType": "uint256",
          "name": "id",
          "type": "uint256"
        },
        {
          "indexed": false,
          "internalType": "uint256",
          "name": "stock",
          "type": "uint256"
        }
      ],
      "name": "ItemUpdated",
      "type": "event"
    },
    {
      "anonymous": false,
      "inputs": [
        {
          "indexed": true,
          "internalType": "address",
          "name": "buyer",
          "type": "address"
        },
        {
          "indexed": false,
          "internalType": "uint256",
          "name": "orderId",
          "type": "uint256"
        },
        {
          "indexed": false,
          "internalType": "uint256",
          "name": "itemId",
          "type": "uint256"
        }
      ],
      "name": "OrderPlaced",
      "type": "event"
    },
    {
      "anonymous": false,
      "inputs": [
        {
          "indexed": false,
          "internalType": "string",
          "name": "rfidTag",
          "type": "string"
        },
        {
          "indexed": false,
          "internalType": "string",
          "name": "location",
          "type": "string"
        },
        {
          "indexed": false,
          "internalType": "uint256",
          "name": "crateId",
          "type": "uint256"
        }
      ],
      "name": "RfidLocationUpdated",
      "type": "event"
    },
    {
      "inputs": [
        {
          "internalType": "uint256",
          "name": "_id",
          "type": "uint256"
        }
      ],
      "name": "buyItem",
      "outputs": [],
      "stateMutability": "payable",
      "type": "function"
    },
    {
      "inputs": [
        {
          "internalType": "uint256",
          "name": "",
          "type": "uint256"
        }
      ],
      "name": "crateRfid",
      "outputs": [
        {
          "internalType": "string",
          "name": "",
          "type": "string"
        }
      ],
      "stateMutability": "view",
      "type": "function"
    },
    {
      "inputs": [
        {
          "internalType": "uint256",
          "name": "",
          "type": "uint256"
        }
      ],
      "name": "crates",
      "outputs": [
        {
          "internalType": "uint256",
          "name": "crateId",
          "type": "uint256"
        },
        {
          "internalType": "bool",
          "name": "shipped",
          "type": "bool"
        }
      ],
      "stateMutability": "view",
      "type": "function"
    },
    {
      "inputs": [
        {
          "internalType": "uint256[]",
          "name": "productIds",
          "type": "uint256[]"
        },
        {
          "internalType": "string",
          "name": "crateRfidTag",
          "type": "string"
        }
      ],
      "name": "createCrate",
      "outputs": [],
      "stateMutability": "nonpayable",
      "type": "function"
    },
    {
      "inputs": [
        {
          "internalType": "uint256",
          "name": "_id",
          "type": "uint256"
        }
      ],
      "name": "getItem",
      "outputs": [
        {
          "components": [
            {
              "internalType": "uint256",
              "name": "id",
              "type": "uint256"
            },
            {
              "internalType": "string",
              "name": "name",
              "type": "string"
            },
            {
              "internalType": "string",
              "name": "category",
              "type": "string"
            },
            {
              "internalType": "string",
              "name": "image",
              "type": "string"
            },
            {
              "internalType": "uint256",
              "name": "cost",
              "type": "uint256"
            },
            {
              "internalType": "uint256",
              "name": "rating",
              "type": "uint256"
            },
            {
              "internalType": "uint256",
              "name": "stock",
              "type": "uint256"
            },
            {
              "internalType": "string",
              "name": "rfidTag",
              "type": "string"
            }
          ],
          "internalType": "struct ProductManagement.Item",
          "name": "",
          "type": "tuple"
        }
      ],
      "stateMutability": "view",
      "type": "function"
    },
    {
      "inputs": [
        {
          "internalType": "uint256",
          "name": "crateId",
          "type": "uint256"
        }
      ],
      "name": "getProductsInCrate",
      "outputs": [
        {
          "internalType": "uint256[]",
          "name": "",
          "type": "uint256[]"
        }
      ],
      "stateMutability": "view",
      "type": "function"
    },
    {
      "inputs": [
        {
          "internalType": "string",
          "name": "rfidTag",
          "type": "string"
        }
      ],
      "name": "getRfidData",
      "outputs": [
        {
          "internalType": "string",
          "name": "location",
          "type": "string"
        },
        {
          "internalType": "uint256",
          "name": "timestamp",
          "type": "uint256"
        },
        {
          "internalType": "uint256",
          "name": "crateId",
          "type": "uint256"
        }
      ],
      "stateMutability": "view",
      "type": "function"
    },
    {
      "inputs": [
        {
          "internalType": "uint256",
          "name": "",
          "type": "uint256"
        }
      ],
      "name": "items",
      "outputs": [
        {
          "internalType": "uint256",
          "name": "id",
          "type": "uint256"
        },
        {
          "internalType": "string",
          "name": "name",
          "type": "string"
        },
        {
          "internalType": "string",
          "name": "category",
          "type": "string"
        },
        {
          "internalType": "string",
          "name": "image",
          "type": "string"
        },
        {
          "internalType": "uint256",
          "name": "cost",
          "type": "uint256"
        },
        {
          "internalType": "uint256",
          "name": "rating",
          "type": "uint256"
        },
        {
          "internalType": "uint256",
          "name": "stock",
          "type": "uint256"
        },
        {
          "internalType": "string",
          "name": "rfidTag",
          "type": "string"
        }
      ],
      "stateMutability": "view",
      "type": "function"
    },
    {
      "inputs": [
        {
          "internalType": "uint256",
          "name": "_id",
          "type": "uint256"
        },
        {
          "internalType": "string",
          "name": "_name",
          "type": "string"
        },
        {
          "internalType": "string",
          "name": "_category",
          "type": "string"
        },
        {
          "internalType": "string",
          "name": "_image",
          "type": "string"
        },
        {
          "internalType": "uint256",
          "name": "_cost",
          "type": "uint256"
        },
        {
          "internalType": "uint256",
          "name": "_rating",
          "type": "uint256"
        },
        {
          "internalType": "uint256",
          "name": "_stock",
          "type": "uint256"
        },
        {
          "internalType": "string",
          "name": "_rfidTag",
          "type": "string"
        }
      ],
      "name": "listItem",
      "outputs": [],
      "stateMutability": "nonpayable",
      "type": "function"
    },
    {
      "inputs": [
        {
          "internalType": "address",
          "name": "",
          "type": "address"
        }
      ],
      "name": "orderCount",
      "outputs": [
        {
          "internalType": "uint256",
          "name": "",
          "type": "uint256"
        }
      ],
      "stateMutability": "view",
      "type": "function"
    },
    {
      "inputs": [
        {
          "internalType": "address",
          "name": "",
          "type": "address"
        },
        {
          "internalType": "uint256",
          "name": "",
          "type": "uint256"
        }
      ],
      "name": "orders",
      "outputs": [
        {
          "internalType": "uint256",
          "name": "time",
          "type": "uint256"
        },
        {
          "components": [
            {
              "internalType": "uint256",
              "name": "id",
              "type": "uint256"
            },
            {
              "internalType": "string",
              "name": "name",
              "type": "string"
            },
            {
              "internalType": "string",
              "name": "category",
              "type": "string"
            },
            {
              "internalType": "string",
              "name": "image",
              "type": "string"
            },
            {
              "internalType": "uint256",
              "name": "cost",
              "type": "uint256"
            },
            {
              "internalType": "uint256",
              "name": "rating",
              "type": "uint256"
            },
            {
              "internalType": "uint256",
              "name": "stock",
              "type": "uint256"
            },
            {
              "internalType": "string",
              "name": "rfidTag",
              "type": "string"
            }
          ],
          "internalType": "struct ProductManagement.Item",
          "name": "item",
          "type": "tuple"
        }
      ],
      "stateMutability": "view",
      "type": "function"
    },
    {
      "inputs": [],
      "name": "owner",
      "outputs": [
        {
          "internalType": "address",
          "name": "",
          "type": "address"
        }
      ],
      "stateMutability": "view",
      "type": "function"
    },
    {
      "inputs": [
        {
          "internalType": "string",
          "name": "",
          "type": "string"
        }
      ],
      "name": "rfidRecords",
      "outputs": [
        {
          "internalType": "string",
          "name": "location",
          "type": "string"
        },
        {
          "internalType": "uint256",
          "name": "timestamp",
          "type": "uint256"
        },
        {
          "internalType": "uint256",
          "name": "crateId",
          "type": "uint256"
        }
      ],
      "stateMutability": "view",
      "type": "function"
    },
    {
      "inputs": [
        {
          "internalType": "uint256",
          "name": "crateId",
          "type": "uint256"
        }
      ],
      "name": "shipCrate",
      "outputs": [],
      "stateMutability": "nonpayable",
      "type": "function"
    },
    {
      "inputs": [
        {
          "internalType": "uint256",
          "name": "_id",
          "type": "uint256"
        },
        {
          "internalType": "uint256",
          "name": "_stock",
          "type": "uint256"
        }
      ],
      "name": "updateItemStock",
      "outputs": [],
      "stateMutability": "nonpayable",
      "type": "function"
    },
    {
      "inputs": [
        {
          "internalType": "string",
          "name": "rfidTag",
          "type": "string"
        },
        {
          "internalType": "string",
          "name": "location",
          "type": "string"
        },
        {
          "internalType": "uint256",
          "name": "crateId",
          "type": "uint256"
        }
      ],
      "name": "updateRfidLocation",
      "outputs": [],
      "stateMutability": "nonpayable",
      "type": "function"
    },
    {
      "inputs": [],
      "name": "withdraw",
      "outputs": [],
      "stateMutability": "nonpayable",
      "type": "function"
    }
  ],
  "bytecode": "0x6080604052348015600f57600080fd5b50336000806101000a81548173ffffffffffffffffffffffffffffffffffffffff021916908373ffffffffffffffffffffffffffffffffffffffff1602179055506130778061005f6000396000f3fe6080604052600436106100fe5760003560e01c80637d02a54911610095578063bd5d706411610064578063bd5d706414610371578063bfb231d21461039a578063cd9ea707146103de578063e7fb74c714610407578063e922d8fc14610423576100fe565b80637d02a549146102a15780638a19de35146102e05780638da5cb5b1461031d5780639abd434b14610348576100fe565b80635b67ef94116100d15780635b67ef94146101d4578063713d856b146101fd5780637907ec4d1461023a578063793b8c6d14610263576100fe565b806320e8edbc146101035780633129e773146101415780633ccfd60b1461017e5780634161954314610195575b600080fd5b34801561010f57600080fd5b5061012a60048036038101906101259190611e2d565b610460565b604051610138929190611e84565b60405180910390f35b34801561014d57600080fd5b5061016860048036038101906101639190611e2d565b610491565b6040516101759190612011565b60405180910390f35b34801561018a57600080fd5b5061019361072f565b005b3480156101a157600080fd5b506101bc60048036038101906101b79190612168565b61088d565b6040516101cb939291906121fb565b60405180910390f35b3480156101e057600080fd5b506101fb60048036038101906101f69190612239565b610982565b005b34801561020957600080fd5b50610224600480360381019061021f91906122d7565b610a68565b6040516102319190612304565b60405180910390f35b34801561024657600080fd5b50610261600480360381019061025c9190611e2d565b610a80565b005b34801561026f57600080fd5b5061028a6004803603810190610285919061231f565b610bcf565b60405161029892919061235f565b60405180910390f35b3480156102ad57600080fd5b506102c860048036038101906102c39190612168565b610e7b565b6040516102d7939291906121fb565b60405180910390f35b3480156102ec57600080fd5b5061030760048036038101906103029190611e2d565b610f43565b604051610314919061238f565b60405180910390f35b34801561032957600080fd5b50610332610fe3565b60405161033f91906123c0565b60405180910390f35b34801561035457600080fd5b5061036f600480360381019061036a91906123db565b611007565b005b34801561037d57600080fd5b5061039860048036038101906103939190612501565b6111b2565b005b3480156103a657600080fd5b506103c160048036038101906103bc9190611e2d565b61136e565b6040516103d598979695949392919061258c565b60405180910390f35b3480156103ea57600080fd5b50610405600480360381019061040091906126ee565b6115d6565b005b610421600480360381019061041c9190611e2d565b61174b565b005b34801561042f57600080fd5b5061044a60048036038101906104459190611e2d565b611cc6565b6040516104579190612815565b60405180910390f35b60046020528060005260406000206000915090508060000154908060020160009054906101000a900460ff16905082565b610499611d34565b6001600083815260200190815260200160002060405180610100016040529081600082015481526020016001820180546104d290612866565b80601f01602080910402602001604051908101604052809291908181526020018280546104fe90612866565b801561054b5780601f106105205761010080835404028352916020019161054b565b820191906000526020600020905b81548152906001019060200180831161052e57829003601f168201915b5050505050815260200160028201805461056490612866565b80601f016020809104026020016040519081016040528092919081815260200182805461059090612866565b80156105dd5780601f106105b2576101008083540402835291602001916105dd565b820191906000526020600020905b8154815290600101906020018083116105c057829003601f168201915b505050505081526020016003820180546105f690612866565b80601f016020809104026020016040519081016040528092919081815260200182805461062290612866565b801561066f5780601f106106445761010080835404028352916020019161066f565b820191906000526020600020905b81548152906001019060200180831161065257829003601f168201915b505050505081526020016004820154815260200160058201548152602001600682015481526020016007820180546106a690612866565b80601f01602080910402602001604051908101604052809291908181526020018280546106d290612866565b801561071f5780601f106106f45761010080835404028352916020019161071f565b820191906000526020600020905b81548152906001019060200180831161070257829003601f168201915b5050505050815250509050919050565b60008054906101000a900473ffffffffffffffffffffffffffffffffffffffff1673ffffffffffffffffffffffffffffffffffffffff163373ffffffffffffffffffffffffffffffffffffffff16146107bd576040517f08c379a00000000000000000000000000000000000000000000000000000000081526004016107b4906128e3565b60405180910390fd5b60008060009054906101000a900473ffffffffffffffffffffffffffffffffffffffff1673ffffffffffffffffffffffffffffffffffffffff164760405161080490612934565b60006040518083038185875af1925050503d8060008114610841576040519150601f19603f3d011682016040523d82523d6000602084013e610846565b606091505b505090508061088a576040517f08c379a000000000000000000000000000000000000000000000000000000000815260040161088190612995565b60405180910390fd5b50565b606060008060006006856040516108a491906129f1565b90815260200160405180910390206040518060600160405290816000820180546108cd90612866565b80601f01602080910402602001604051908101604052809291908181526020018280546108f990612866565b80156109465780601f1061091b57610100808354040283529160200191610946565b820191906000526020600020905b81548152906001019060200180831161092957829003601f168201915b50505050508152602001600182015481526020016002820154815250509050806000015181602001518260400151935093509350509193909250565b60008054906101000a900473ffffffffffffffffffffffffffffffffffffffff1673ffffffffffffffffffffffffffffffffffffffff163373ffffffffffffffffffffffffffffffffffffffff1614610a10576040517f08c379a0000000000000000000000000000000000000000000000000000000008152600401610a07906128e3565b60405180910390fd5b8060016000848152602001908152602001600020600601819055507f0d2750b8552c7eecf2b869b31c9464b36cae1caba6b8fab1a53b7e58b6ddea508282604051610a5c929190612a08565b60405180910390a15050565b60036020528060005260406000206000915090505481565b60008054906101000a900473ffffffffffffffffffffffffffffffffffffffff1673ffffffffffffffffffffffffffffffffffffffff163373ffffffffffffffffffffffffffffffffffffffff1614610b0e576040517f08c379a0000000000000000000000000000000000000000000000000000000008152600401610b05906128e3565b60405180910390fd5b60006004600083815260200190815260200160002090508060020160009054906101000a900460ff1615610b77576040517f08c379a0000000000000000000000000000000000000000000000000000000008152600401610b6e90612a7d565b60405180910390fd5b60018160020160006101000a81548160ff0219169083151502179055507f91684aa78953e53d1c5989330463152346a90a52860a769d5d44d1e072b0302582604051610bc39190612304565b60405180910390a15050565b600260205281600052604060002060205280600052604060002060009150915050806000015490806001016040518061010001604052908160008201548152602001600182018054610c2090612866565b80601f0160208091040260200160405190810160405280929190818152602001828054610c4c90612866565b8015610c995780601f10610c6e57610100808354040283529160200191610c99565b820191906000526020600020905b815481529060010190602001808311610c7c57829003601f168201915b50505050508152602001600282018054610cb290612866565b80601f0160208091040260200160405190810160405280929190818152602001828054610cde90612866565b8015610d2b5780601f10610d0057610100808354040283529160200191610d2b565b820191906000526020600020905b815481529060010190602001808311610d0e57829003601f168201915b50505050508152602001600382018054610d4490612866565b80601f0160208091040260200160405190810160405280929190818152602001828054610d7090612866565b8015610dbd5780601f10610d9257610100808354040283529160200191610dbd565b820191906000526020600020905b815481529060010190602001808311610da057829003601f168201915b50505050508152602001600482015481526020016005820154815260200160068201548152602001600782018054610df490612866565b80601f0160208091040260200160405190810160405280929190818152602001828054610e2090612866565b8015610e6d5780601f10610e4257610100808354040283529160200191610e6d565b820191906000526020600020905b815481529060010190602001808311610e5057829003601f168201915b505050505081525050905082565b600681805160208101820180518482526020830160208501208183528095505050505050600091509050806000018054610eb490612866565b80601f0160208091040260200160405190810160405280929190818152602001828054610ee090612866565b8015610f2d5780601f10610f0257610100808354040283529160200191610f2d565b820191906000526020600020905b815481529060010190602001808311610f1057829003601f168201915b5050505050908060010154908060020154905083565b60056020528060005260406000206000915090508054610f6290612866565b80601f0160208091040260200160405190810160405280929190818152602001828054610f8e90612866565b8015610fdb5780601f10610fb057610100808354040283529160200191610fdb565b820191906000526020600020905b815481529060010190602001808311610fbe57829003601f168201915b505050505081565b60008054906101000a900473ffffffffffffffffffffffffffffffffffffffff1681565b60008054906101000a900473ffffffffffffffffffffffffffffffffffffffff1673ffffffffffffffffffffffffffffffffffffffff163373ffffffffffffffffffffffffffffffffffffffff1614611095576040517f08c379a000000000000000000000000000000000000000000000000000000000815260040161108c906128e3565b60405180910390fd5b60006040518061010001604052808a815260200189815260200188815260200187815260200186815260200185815260200184815260200183815250905080600160008b81526020019081526020016000206000820151816000015560208201518160010190816111069190612c49565b50604082015181600201908161111c9190612c49565b5060608201518160030190816111329190612c49565b506080820151816004015560a0820151816005015560c0820151816006015560e08201518160070190816111669190612c49565b509050507fa5adc50784bf6e37e1400409531ab81ecbbeebf44d0d317d5da8e7a0d2eb3e908989878660405161119f9493929190612d1b565b60405180910390a1505050505050505050565b60008054906101000a900473ffffffffffffffffffffffffffffffffffffffff1673ffffffffffffffffffffffffffffffffffffffff163373ffffffffffffffffffffffffffffffffffffffff1614611240576040517f08c379a0000000000000000000000000000000000000000000000000000000008152600401611237906128e3565b60405180910390fd5b6000835111611284576040517f08c379a000000000000000000000000000000000000000000000000000000000815260040161127b90612db3565b60405180910390fd5b60008251116112c8576040517f08c379a00000000000000000000000000000000000000000000000000000000081526004016112bf90612e1f565b60405180910390fd5b6040518060600160405280838152602001428152602001828152506006846040516112f391906129f1565b908152602001604051809103902060008201518160000190816113169190612c49565b5060208201518160010155604082015181600201559050507f0a0c439857cd9490b500b59d53855e25be9da59e31ce88547729f90167fdf90083838360405161136193929190612e3f565b60405180910390a1505050565b600160205280600052604060002060009150905080600001549080600101805461139790612866565b80601f01602080910402602001604051908101604052809291908181526020018280546113c390612866565b80156114105780601f106113e557610100808354040283529160200191611410565b820191906000526020600020905b8154815290600101906020018083116113f357829003601f168201915b50505050509080600201805461142590612866565b80601f016020809104026020016040519081016040528092919081815260200182805461145190612866565b801561149e5780601f106114735761010080835404028352916020019161149e565b820191906000526020600020905b81548152906001019060200180831161148157829003601f168201915b5050505050908060030180546114b390612866565b80601f01602080910402602001604051908101604052809291908181526020018280546114df90612866565b801561152c5780601f106115015761010080835404028352916020019161152c565b820191906000526020600020905b81548152906001019060200180831161150f57829003601f168201915b50505050509080600401549080600501549080600601549080600701805461155390612866565b80601f016020809104026020016040519081016040528092919081815260200182805461157f90612866565b80156115cc5780601f106115a1576101008083540402835291602001916115cc565b820191906000526020600020905b8154815290600101906020018083116115af57829003601f168201915b5050505050905088565b60008054906101000a900473ffffffffffffffffffffffffffffffffffffffff1673ffffffffffffffffffffffffffffffffffffffff163373ffffffffffffffffffffffffffffffffffffffff1614611664576040517f08c379a000000000000000000000000000000000000000000000000000000000815260040161165b906128e3565b60405180910390fd5b600042905060006040518060600160405280838152602001858152602001600015158152509050826005600084815260200190815260200160002090816116ab9190612c49565b5080600460008481526020019081526020016000206000820151816000015560208201518160010190805190602001906116e6929190611d79565b5060408201518160020160006101000a81548160ff0219169083151502179055509050507f4f90ad80b5388f617dbaba6a54a05732dd030359aa302ef37fb20b6a442d997a82858560405161173d93929190612e84565b60405180910390a150505050565b600060016000838152602001908152602001600020604051806101000160405290816000820154815260200160018201805461178690612866565b80601f01602080910402602001604051908101604052809291908181526020018280546117b290612866565b80156117ff5780601f106117d4576101008083540402835291602001916117ff565b820191906000526020600020905b8154815290600101906020018083116117e257829003601f168201915b5050505050815260200160028201805461181890612866565b80601f016020809104026020016040519081016040528092919081815260200182805461184490612866565b80156118915780601f1061186657610100808354040283529160200191611891565b820191906000526020600020905b81548152906001019060200180831161187457829003601f168201915b505050505081526020016003820180546118aa90612866565b80601f01602080910402602001604051908101604052809291908181526020018280546118d690612866565b80156119235780601f106118f857610100808354040283529160200191611923565b820191906000526020600020905b81548152906001019060200180831161190657829003601f168201915b5050505050815260200160048201548152602001600582015481526020016006820154815260200160078201805461195a90612866565b80601f016020809104026020016040519081016040528092919081815260200182805461198690612866565b80156119d35780601f106119a8576101008083540402835291602001916119d3565b820191906000526020600020905b8154815290600101906020018083116119b657829003601f168201915b50505050508152505090508060800151341015611a25576040517f08c379a0000000000000000000000000000000000000000000000000000000008152600401611a1c90612f15565b60405180910390fd5b60008160c0015111611a6c576040517f08c379a0000000000000000000000000000000000000000000000000000000008152600401611a6390612f81565b60405180910390fd5b60006040518060400160405280428152602001838152509050600360003373ffffffffffffffffffffffffffffffffffffffff1673ffffffffffffffffffffffffffffffffffffffff1681526020019081526020016000206000815480929190611ad590612fd0565b919050555080600260003373ffffffffffffffffffffffffffffffffffffffff1673ffffffffffffffffffffffffffffffffffffffff1681526020019081526020016000206000600360003373ffffffffffffffffffffffffffffffffffffffff1673ffffffffffffffffffffffffffffffffffffffff16815260200190815260200160002054815260200190815260200160002060008201518160000155602082015181600101600082015181600001556020820151816001019081611b9c9190612c49565b506040820151816002019081611bb29190612c49565b506060820151816003019081611bc89190612c49565b506080820151816004015560a0820151816005015560c0820151816006015560e0820151816007019081611bfc9190612c49565b505050905050600160008481526020019081526020016000206006016000815480929190611c2990613018565b91905055503373ffffffffffffffffffffffffffffffffffffffff167f03f23a9b67af957c8605376a4f515b53f102d4ad7f4da099bd1aff8e3ee13fec600360003373ffffffffffffffffffffffffffffffffffffffff1673ffffffffffffffffffffffffffffffffffffffff168152602001908152602001600020548460000151604051611cb9929190612a08565b60405180910390a2505050565b606060046000838152602001908152602001600020600101805480602002602001604051908101604052809291908181526020018280548015611d2857602002820191906000526020600020905b815481526020019060010190808311611d14575b50505050509050919050565b60405180610100016040528060008152602001606081526020016060815260200160608152602001600081526020016000815260200160008152602001606081525090565b828054828255906000526020600020908101928215611db5579160200282015b82811115611db4578251825591602001919060010190611d99565b5b509050611dc29190611dc6565b5090565b5b80821115611ddf576000816000905550600101611dc7565b5090565b6000604051905090565b600080fd5b600080fd5b6000819050919050565b611e0a81611df7565b8114611e1557600080fd5b50565b600081359050611e2781611e01565b92915050565b600060208284031215611e4357611e42611ded565b5b6000611e5184828501611e18565b91505092915050565b611e6381611df7565b82525050565b60008115159050919050565b611e7e81611e69565b82525050565b6000604082019050611e996000830185611e5a565b611ea66020830184611e75565b9392505050565b611eb681611df7565b82525050565b600081519050919050565b600082825260208201905092915050565b60005b83811015611ef6578082015181840152602081019050611edb565b60008484015250505050565b6000601f19601f8301169050919050565b6000611f1e82611ebc565b611f288185611ec7565b9350611f38818560208601611ed8565b611f4181611f02565b840191505092915050565b600061010083016000830151611f656000860182611ead565b5060208301518482036020860152611f7d8282611f13565b91505060408301518482036040860152611f978282611f13565b91505060608301518482036060860152611fb18282611f13565b9150506080830151611fc66080860182611ead565b5060a0830151611fd960a0860182611ead565b5060c0830151611fec60c0860182611ead565b5060e083015184820360e08601526120048282611f13565b9150508091505092915050565b6000602082019050818103600083015261202b8184611f4c565b905092915050565b600080fd5b600080fd5b7f4e487b7100000000000000000000000000000000000000000000000000000000600052604160045260246000fd5b61207582611f02565b810181811067ffffffffffffffff821117156120945761209361203d565b5b80604052505050565b60006120a7611de3565b90506120b3828261206c565b919050565b600067ffffffffffffffff8211156120d3576120d261203d565b5b6120dc82611f02565b9050602081019050919050565b82818337600083830152505050565b600061210b612106846120b8565b61209d565b90508281526020810184848401111561212757612126612038565b5b6121328482856120e9565b509392505050565b600082601f83011261214f5761214e612033565b5b813561215f8482602086016120f8565b91505092915050565b60006020828403121561217e5761217d611ded565b5b600082013567ffffffffffffffff81111561219c5761219b611df2565b5b6121a88482850161213a565b91505092915050565b600082825260208201905092915050565b60006121cd82611ebc565b6121d781856121b1565b93506121e7818560208601611ed8565b6121f081611f02565b840191505092915050565b6000606082019050818103600083015261221581866121c2565b90506122246020830185611e5a565b6122316040830184611e5a565b949350505050565b600080604083850312156122505761224f611ded565b5b600061225e85828601611e18565b925050602061226f85828601611e18565b9150509250929050565b600073ffffffffffffffffffffffffffffffffffffffff82169050919050565b60006122a482612279565b9050919050565b6122b481612299565b81146122bf57600080fd5b50565b6000813590506122d1816122ab565b92915050565b6000602082840312156122ed576122ec611ded565b5b60006122fb848285016122c2565b91505092915050565b60006020820190506123196000830184611e5a565b92915050565b6000806040838503121561233657612335611ded565b5b6000612344858286016122c2565b925050602061235585828601611e18565b9150509250929050565b60006040820190506123746000830185611e5a565b81810360208301526123868184611f4c565b90509392505050565b600060208201905081810360008301526123a981846121c2565b905092915050565b6123ba81612299565b82525050565b60006020820190506123d560008301846123b1565b92915050565b600080600080600080600080610100898b0312156123fc576123fb611ded565b5b600061240a8b828c01611e18565b985050602089013567ffffffffffffffff81111561242b5761242a611df2565b5b6124378b828c0161213a565b975050604089013567ffffffffffffffff81111561245857612457611df2565b5b6124648b828c0161213a565b965050606089013567ffffffffffffffff81111561248557612484611df2565b5b6124918b828c0161213a565b95505060806124a28b828c01611e18565b94505060a06124b38b828c01611e18565b93505060c06124c48b828c01611e18565b92505060e089013567ffffffffffffffff8111156124e5576124e4611df2565b5b6124f18b828c0161213a565b9150509295985092959890939650565b60008060006060848603121561251a57612519611ded565b5b600084013567ffffffffffffffff81111561253857612537611df2565b5b6125448682870161213a565b935050602084013567ffffffffffffffff81111561256557612564611df2565b5b6125718682870161213a565b925050604061258286828701611e18565b9150509250925092565b6000610100820190506125a2600083018b611e5a565b81810360208301526125b4818a6121c2565b905081810360408301526125c881896121c2565b905081810360608301526125dc81886121c2565b90506125eb6080830187611e5a565b6125f860a0830186611e5a565b61260560c0830185611e5a565b81810360e083015261261781846121c2565b90509998505050505050505050565b600067ffffffffffffffff8211156126415761264061203d565b5b602082029050602081019050919050565b600080fd5b600061266a61266584612626565b61209d565b9050808382526020820190506020840283018581111561268d5761268c612652565b5b835b818110156126b657806126a28882611e18565b84526020840193505060208101905061268f565b5050509392505050565b600082601f8301126126d5576126d4612033565b5b81356126e5848260208601612657565b91505092915050565b6000806040838503121561270557612704611ded565b5b600083013567ffffffffffffffff81111561272357612722611df2565b5b61272f858286016126c0565b925050602083013567ffffffffffffffff8111156127505761274f611df2565b5b61275c8582860161213a565b9150509250929050565b600081519050919050565b600082825260208201905092915050565b6000819050602082019050919050565b600061279e8383611ead565b60208301905092915050565b6000602082019050919050565b60006127c282612766565b6127cc8185612771565b93506127d783612782565b8060005b838110156128085781516127ef8882612792565b97506127fa836127aa565b9250506001810190506127db565b5085935050505092915050565b6000602082019050818103600083015261282f81846127b7565b905092915050565b7f4e487b7100000000000000000000000000000000000000000000000000000000600052602260045260246000fd5b6000600282049050600182168061287e57607f821691505b60208210810361289157612890612837565b5b50919050565b7f4e6f7420617574686f72697a6564000000000000000000000000000000000000600082015250565b60006128cd600e836121b1565b91506128d882612897565b602082019050919050565b600060208201905081810360008301526128fc816128c0565b9050919050565b600081905092915050565b50565b600061291e600083612903565b91506129298261290e565b600082019050919050565b600061293f82612911565b9150819050919050565b7f5472616e73666572206661696c65640000000000000000000000000000000000600082015250565b600061297f600f836121b1565b915061298a82612949565b602082019050919050565b600060208201905081810360008301526129ae81612972565b9050919050565b600081905092915050565b60006129cb82611ebc565b6129d581856129b5565b93506129e5818560208601611ed8565b80840191505092915050565b60006129fd82846129c0565b915081905092915050565b6000604082019050612a1d6000830185611e5a565b612a2a6020830184611e5a565b9392505050565b7f437261746520616c726561647920736869707065640000000000000000000000600082015250565b6000612a676015836121b1565b9150612a7282612a31565b602082019050919050565b60006020820190508181036000830152612a9681612a5a565b9050919050565b60008190508160005260206000209050919050565b60006020601f8301049050919050565b600082821b905092915050565b600060088302612aff7fffffffffffffffffffffffffffffffffffffffffffffffffffffffffffffffff82612ac2565b612b098683612ac2565b95508019841693508086168417925050509392505050565b6000819050919050565b6000612b46612b41612b3c84611df7565b612b21565b611df7565b9050919050565b6000819050919050565b612b6083612b2b565b612b74612b6c82612b4d565b848454612acf565b825550505050565b600090565b612b89612b7c565b612b94818484612b57565b505050565b5b81811015612bb857612bad600082612b81565b600181019050612b9a565b5050565b601f821115612bfd57612bce81612a9d565b612bd784612ab2565b81016020851015612be6578190505b612bfa612bf285612ab2565b830182612b99565b50505b505050565b600082821c905092915050565b6000612c2060001984600802612c02565b1980831691505092915050565b6000612c398383612c0f565b9150826002028217905092915050565b612c5282611ebc565b67ffffffffffffffff811115612c6b57612c6a61203d565b5b612c758254612866565b612c80828285612bbc565b600060209050601f831160018114612cb35760008415612ca1578287015190505b612cab8582612c2d565b865550612d13565b601f198416612cc186612a9d565b60005b82811015612ce957848901518255600182019150602085019450602081019050612cc4565b86831015612d065784890151612d02601f891682612c0f565b8355505b6001600288020188555050505b505050505050565b6000608082019050612d306000830187611e5a565b8181036020830152612d4281866121c2565b9050612d516040830185611e5a565b612d5e6060830184611e5a565b95945050505050565b7f496e76616c696420524649442074616700000000000000000000000000000000600082015250565b6000612d9d6010836121b1565b9150612da882612d67565b602082019050919050565b60006020820190508181036000830152612dcc81612d90565b9050919050565b7f496e76616c6964206c6f636174696f6e00000000000000000000000000000000600082015250565b6000612e096010836121b1565b9150612e1482612dd3565b602082019050919050565b60006020820190508181036000830152612e3881612dfc565b9050919050565b60006060820190508181036000830152612e5981866121c2565b90508181036020830152612e6d81856121c2565b9050612e7c6040830184611e5a565b949350505050565b6000606082019050612e996000830186611e5a565b8181036020830152612eab81856127b7565b90508181036040830152612ebf81846121c2565b9050949350505050565b7f496e73756666696369656e742066756e64730000000000000000000000000000600082015250565b6000612eff6012836121b1565b9150612f0a82612ec9565b602082019050919050565b60006020820190508181036000830152612f2e81612ef2565b9050919050565b7f4f7574206f662073746f636b0000000000000000000000000000000000000000600082015250565b6000612f6b600c836121b1565b9150612f7682612f35565b602082019050919050565b60006020820190508181036000830152612f9a81612f5e565b9050919050565b7f4e487b7100000000000000000000000000000000000000000000000000000000600052601160045260246000fd5b6000612fdb82611df7565b91507fffffffffffffffffffffffffffffffffffffffffffffffffffffffffffffffff820361300d5761300c612fa1565b5b600182019050919050565b600061302382611df7565b91506000820361303657613035612fa1565b5b60018203905091905056fea2646970667358221220af3a8dd0dd1263ca7020906dd76cd17eef3f115525f96501ebe48e7466f900ce64736f6c634300081b0033",
  "linkReferences": {},
  "deployedLinkReferences": {}
}