{
  "_format": "hh-sol-artifact-1",
  "contractName": "RfidManagement",
  "sourceName": "contracts/RfidManagement.sol",
  "abi": [
    {
      "anonymous": false,
      "inputs": [
        {
          "indexed": false,
          "internalType": "uint256",
          "name": "crateId",
          "type": "uint256"
        },
        {
          "indexed": false,
          "internalType": "uint256[]",
          "name": "productIds",
          "type": "uint256[]"
        },
        {
          "indexed": false,
          "internalType": "string",
          "name": "crateRfidTag",
          "type": "string"
        }
      ],
      "name": "CrateCreated",
      "type": "event"
    },
    {
      "anonymous": false,
      "inputs": [
        {
          "indexed": false,
          "internalType": "uint256",
          "name": "crateId",
          "type": "uint256"
        }
      ],
      "name": "CrateShipped",
      "type": "event"
    },
    {
      "anonymous": false,
      "inputs": [
        {
          "indexed": false,
          "internalType": "uint256",
          "name": "id",
          "type": "uint256"
        },
        {
          "indexed": false,
          "internalType": "string",
          "name": "name",
          "type": "string"
        },
        {
          "indexed": false,
          "internalType": "uint256",
          "name": "cost",
          "type": "uint256"
        },
        {
          "indexed": false,
          "internalType": "uint256",
          "name": "stock",
          "type": "uint256"
        }
      ],
      "name": "ItemListed",
      "type": "event"
    },
    {
      "anonymous": false,
      "inputs": [
        {
          "indexed": false,
          "internalType": "uint256",
          "name": "id",
          "type": "uint256"
        },
        {
          "indexed": false,
          "internalType": "uint256",
          "name": "stock",
          "type": "uint256"
        }
      ],
      "name": "ItemUpdated",
      "type": "event"
    },
    {
      "anonymous": false,
      "inputs": [
        {
          "indexed": true,
          "internalType": "address",
          "name": "buyer",
          "type": "address"
        },
        {
          "indexed": false,
          "internalType": "uint256",
          "name": "orderId",
          "type": "uint256"
        },
        {
          "indexed": false,
          "internalType": "uint256",
          "name": "itemId",
          "type": "uint256"
        }
      ],
      "name": "OrderPlaced",
      "type": "event"
    },
    {
      "anonymous": false,
      "inputs": [
        {
          "indexed": false,
          "internalType": "string",
          "name": "rfidTag",
          "type": "string"
        },
        {
          "indexed": false,
          "internalType": "string",
          "name": "location",
          "type": "string"
        },
        {
          "indexed": false,
          "internalType": "uint256",
          "name": "crateId",
          "type": "uint256"
        }
      ],
      "name": "RfidLocationUpdated",
      "type": "event"
    },
    {
      "inputs": [
        {
          "internalType": "uint256",
          "name": "_id",
          "type": "uint256"
        }
      ],
      "name": "buyItem",
      "outputs": [],
      "stateMutability": "payable",
      "type": "function"
    },
    {
      "inputs": [
        {
          "internalType": "uint256",
          "name": "",
          "type": "uint256"
        }
      ],
      "name": "crateRfid",
      "outputs": [
        {
          "internalType": "string",
          "name": "",
          "type": "string"
        }
      ],
      "stateMutability": "view",
      "type": "function"
    },
    {
      "inputs": [
        {
          "internalType": "uint256",
          "name": "",
          "type": "uint256"
        }
      ],
      "name": "crates",
      "outputs": [
        {
          "internalType": "uint256",
          "name": "crateId",
          "type": "uint256"
        },
        {
          "internalType": "bool",
          "name": "shipped",
          "type": "bool"
        }
      ],
      "stateMutability": "view",
      "type": "function"
    },
    {
      "inputs": [
        {
          "internalType": "uint256[]",
          "name": "productIds",
          "type": "uint256[]"
        },
        {
          "internalType": "string",
          "name": "crateRfidTag",
          "type": "string"
        }
      ],
      "name": "createCrate",
      "outputs": [
        {
          "internalType": "uint256",
          "name": "",
          "type": "uint256"
        }
      ],
      "stateMutability": "nonpayable",
      "type": "function"
    },
    {
      "inputs": [
        {
          "internalType": "uint256",
          "name": "_id",
          "type": "uint256"
        }
      ],
      "name": "getItem",
      "outputs": [
        {
          "components": [
            {
              "internalType": "uint256",
              "name": "id",
              "type": "uint256"
            },
            {
              "internalType": "string",
              "name": "name",
              "type": "string"
            },
            {
              "internalType": "string",
              "name": "category",
              "type": "string"
            },
            {
              "internalType": "string",
              "name": "image",
              "type": "string"
            },
            {
              "internalType": "uint256",
              "name": "cost",
              "type": "uint256"
            },
            {
              "internalType": "uint256",
              "name": "rating",
              "type": "uint256"
            },
            {
              "internalType": "uint256",
              "name": "stock",
              "type": "uint256"
            },
            {
              "internalType": "string",
              "name": "rfidTag",
              "type": "string"
            }
          ],
          "internalType": "struct ProductManagement.Item",
          "name": "",
          "type": "tuple"
        }
      ],
      "stateMutability": "view",
      "type": "function"
    },
    {
      "inputs": [
        {
          "internalType": "uint256",
          "name": "crateId",
          "type": "uint256"
        }
      ],
      "name": "getProductsInCrate",
      "outputs": [
        {
          "internalType": "uint256[]",
          "name": "",
          "type": "uint256[]"
        }
      ],
      "stateMutability": "view",
      "type": "function"
    },
    {
      "inputs": [
        {
          "internalType": "string",
          "name": "rfidTag",
          "type": "string"
        }
      ],
      "name": "getRfidData",
      "outputs": [
        {
          "internalType": "string",
          "name": "location",
          "type": "string"
        },
        {
          "internalType": "uint256",
          "name": "timestamp",
          "type": "uint256"
        },
        {
          "internalType": "uint256",
          "name": "crateId",
          "type": "uint256"
        }
      ],
      "stateMutability": "view",
      "type": "function"
    },
    {
      "inputs": [
        {
          "internalType": "uint256",
          "name": "",
          "type": "uint256"
        }
      ],
      "name": "items",
      "outputs": [
        {
          "internalType": "uint256",
          "name": "id",
          "type": "uint256"
        },
        {
          "internalType": "string",
          "name": "name",
          "type": "string"
        },
        {
          "internalType": "string",
          "name": "category",
          "type": "string"
        },
        {
          "internalType": "string",
          "name": "image",
          "type": "string"
        },
        {
          "internalType": "uint256",
          "name": "cost",
          "type": "uint256"
        },
        {
          "internalType": "uint256",
          "name": "rating",
          "type": "uint256"
        },
        {
          "internalType": "uint256",
          "name": "stock",
          "type": "uint256"
        },
        {
          "internalType": "string",
          "name": "rfidTag",
          "type": "string"
        }
      ],
      "stateMutability": "view",
      "type": "function"
    },
    {
      "inputs": [
        {
          "internalType": "uint256",
          "name": "_id",
          "type": "uint256"
        },
        {
          "internalType": "string",
          "name": "_name",
          "type": "string"
        },
        {
          "internalType": "string",
          "name": "_category",
          "type": "string"
        },
        {
          "internalType": "string",
          "name": "_image",
          "type": "string"
        },
        {
          "internalType": "uint256",
          "name": "_cost",
          "type": "uint256"
        },
        {
          "internalType": "uint256",
          "name": "_rating",
          "type": "uint256"
        },
        {
          "internalType": "uint256",
          "name": "_stock",
          "type": "uint256"
        },
        {
          "internalType": "string",
          "name": "_rfidTag",
          "type": "string"
        }
      ],
      "name": "listItem",
      "outputs": [],
      "stateMutability": "nonpayable",
      "type": "function"
    },
    {
      "inputs": [
        {
          "internalType": "address",
          "name": "",
          "type": "address"
        }
      ],
      "name": "orderCount",
      "outputs": [
        {
          "internalType": "uint256",
          "name": "",
          "type": "uint256"
        }
      ],
      "stateMutability": "view",
      "type": "function"
    },
    {
      "inputs": [
        {
          "internalType": "address",
          "name": "",
          "type": "address"
        },
        {
          "internalType": "uint256",
          "name": "",
          "type": "uint256"
        }
      ],
      "name": "orders",
      "outputs": [
        {
          "internalType": "uint256",
          "name": "time",
          "type": "uint256"
        },
        {
          "components": [
            {
              "internalType": "uint256",
              "name": "id",
              "type": "uint256"
            },
            {
              "internalType": "string",
              "name": "name",
              "type": "string"
            },
            {
              "internalType": "string",
              "name": "category",
              "type": "string"
            },
            {
              "internalType": "string",
              "name": "image",
              "type": "string"
            },
            {
              "internalType": "uint256",
              "name": "cost",
              "type": "uint256"
            },
            {
              "internalType": "uint256",
              "name": "rating",
              "type": "uint256"
            },
            {
              "internalType": "uint256",
              "name": "stock",
              "type": "uint256"
            },
            {
              "internalType": "string",
              "name": "rfidTag",
              "type": "string"
            }
          ],
          "internalType": "struct ProductManagement.Item",
          "name": "item",
          "type": "tuple"
        }
      ],
      "stateMutability": "view",
      "type": "function"
    },
    {
      "inputs": [],
      "name": "owner",
      "outputs": [
        {
          "internalType": "address",
          "name": "",
          "type": "address"
        }
      ],
      "stateMutability": "view",
      "type": "function"
    },
    {
      "inputs": [
        {
          "internalType": "string",
          "name": "",
          "type": "string"
        }
      ],
      "name": "rfidRecords",
      "outputs": [
        {
          "internalType": "string",
          "name": "location",
          "type": "string"
        },
        {
          "internalType": "uint256",
          "name": "timestamp",
          "type": "uint256"
        },
        {
          "internalType": "uint256",
          "name": "crateId",
          "type": "uint256"
        }
      ],
      "stateMutability": "view",
      "type": "function"
    },
    {
      "inputs": [
        {
          "internalType": "uint256",
          "name": "crateId",
          "type": "uint256"
        }
      ],
      "name": "shipCrate",
      "outputs": [],
      "stateMutability": "nonpayable",
      "type": "function"
    },
    {
      "inputs": [
        {
          "internalType": "uint256",
          "name": "_id",
          "type": "uint256"
        },
        {
          "internalType": "uint256",
          "name": "_stock",
          "type": "uint256"
        }
      ],
      "name": "updateItemStock",
      "outputs": [],
      "stateMutability": "nonpayable",
      "type": "function"
    },
    {
      "inputs": [
        {
          "internalType": "string",
          "name": "rfidTag",
          "type": "string"
        },
        {
          "internalType": "string",
          "name": "location",
          "type": "string"
        },
        {
          "internalType": "uint256",
          "name": "crateId",
          "type": "uint256"
        }
      ],
      "name": "updateRfidLocation",
      "outputs": [],
      "stateMutability": "nonpayable",
      "type": "function"
    },
    {
      "inputs": [],
      "name": "withdraw",
      "outputs": [],
      "stateMutability": "nonpayable",
      "type": "function"
    }
  ],
  "bytecode": "0x6080604052348015600f57600080fd5b50336000806101000a81548173ffffffffffffffffffffffffffffffffffffffff021916908373ffffffffffffffffffffffffffffffffffffffff1602179055506130938061005f6000396000f3fe6080604052600436106100fe5760003560e01c80637d02a54911610095578063bd5d706411610064578063bd5d706414610371578063bfb231d21461039a578063cd9ea707146103de578063e7fb74c71461041b578063e922d8fc14610437576100fe565b80637d02a549146102a15780638a19de35146102e05780638da5cb5b1461031d5780639abd434b14610348576100fe565b80635b67ef94116100d15780635b67ef94146101d4578063713d856b146101fd5780637907ec4d1461023a578063793b8c6d14610263576100fe565b806320e8edbc146101035780633129e773146101415780633ccfd60b1461017e5780634161954314610195575b600080fd5b34801561010f57600080fd5b5061012a60048036038101906101259190611e49565b610474565b604051610138929190611ea0565b60405180910390f35b34801561014d57600080fd5b5061016860048036038101906101639190611e49565b6104a5565b604051610175919061202d565b60405180910390f35b34801561018a57600080fd5b50610193610743565b005b3480156101a157600080fd5b506101bc60048036038101906101b79190612184565b6108a1565b6040516101cb93929190612217565b60405180910390f35b3480156101e057600080fd5b506101fb60048036038101906101f69190612255565b610996565b005b34801561020957600080fd5b50610224600480360381019061021f91906122f3565b610a7c565b6040516102319190612320565b60405180910390f35b34801561024657600080fd5b50610261600480360381019061025c9190611e49565b610a94565b005b34801561026f57600080fd5b5061028a6004803603810190610285919061233b565b610be3565b60405161029892919061237b565b60405180910390f35b3480156102ad57600080fd5b506102c860048036038101906102c39190612184565b610e8f565b6040516102d793929190612217565b60405180910390f35b3480156102ec57600080fd5b5061030760048036038101906103029190611e49565b610f57565b60405161031491906123ab565b60405180910390f35b34801561032957600080fd5b50610332610ff7565b60405161033f91906123dc565b60405180910390f35b34801561035457600080fd5b5061036f600480360381019061036a91906123f7565b61101b565b005b34801561037d57600080fd5b506103986004803603810190610393919061251d565b6111c6565b005b3480156103a657600080fd5b506103c160048036038101906103bc9190611e49565b611382565b6040516103d59897969594939291906125a8565b60405180910390f35b3480156103ea57600080fd5b506104056004803603810190610400919061270a565b6115ea565b6040516104129190612320565b60405180910390f35b61043560048036038101906104309190611e49565b611767565b005b34801561044357600080fd5b5061045e60048036038101906104599190611e49565b611ce2565b60405161046b9190612831565b60405180910390f35b60046020528060005260406000206000915090508060000154908060020160009054906101000a900460ff16905082565b6104ad611d50565b6001600083815260200190815260200160002060405180610100016040529081600082015481526020016001820180546104e690612882565b80601f016020809104026020016040519081016040528092919081815260200182805461051290612882565b801561055f5780601f106105345761010080835404028352916020019161055f565b820191906000526020600020905b81548152906001019060200180831161054257829003601f168201915b5050505050815260200160028201805461057890612882565b80601f01602080910402602001604051908101604052809291908181526020018280546105a490612882565b80156105f15780601f106105c6576101008083540402835291602001916105f1565b820191906000526020600020905b8154815290600101906020018083116105d457829003601f168201915b5050505050815260200160038201805461060a90612882565b80601f016020809104026020016040519081016040528092919081815260200182805461063690612882565b80156106835780601f1061065857610100808354040283529160200191610683565b820191906000526020600020905b81548152906001019060200180831161066657829003601f168201915b505050505081526020016004820154815260200160058201548152602001600682015481526020016007820180546106ba90612882565b80601f01602080910402602001604051908101604052809291908181526020018280546106e690612882565b80156107335780601f1061070857610100808354040283529160200191610733565b820191906000526020600020905b81548152906001019060200180831161071657829003601f168201915b5050505050815250509050919050565b60008054906101000a900473ffffffffffffffffffffffffffffffffffffffff1673ffffffffffffffffffffffffffffffffffffffff163373ffffffffffffffffffffffffffffffffffffffff16146107d1576040517f08c379a00000000000000000000000000000000000000000000000000000000081526004016107c8906128ff565b60405180910390fd5b60008060009054906101000a900473ffffffffffffffffffffffffffffffffffffffff1673ffffffffffffffffffffffffffffffffffffffff164760405161081890612950565b60006040518083038185875af1925050503d8060008114610855576040519150601f19603f3d011682016040523d82523d6000602084013e61085a565b606091505b505090508061089e576040517f08c379a0000000000000000000000000000000000000000000000000000000008152600401610895906129b1565b60405180910390fd5b50565b606060008060006006856040516108b89190612a0d565b90815260200160405180910390206040518060600160405290816000820180546108e190612882565b80601f016020809104026020016040519081016040528092919081815260200182805461090d90612882565b801561095a5780601f1061092f5761010080835404028352916020019161095a565b820191906000526020600020905b81548152906001019060200180831161093d57829003601f168201915b50505050508152602001600182015481526020016002820154815250509050806000015181602001518260400151935093509350509193909250565b60008054906101000a900473ffffffffffffffffffffffffffffffffffffffff1673ffffffffffffffffffffffffffffffffffffffff163373ffffffffffffffffffffffffffffffffffffffff1614610a24576040517f08c379a0000000000000000000000000000000000000000000000000000000008152600401610a1b906128ff565b60405180910390fd5b8060016000848152602001908152602001600020600601819055507f0d2750b8552c7eecf2b869b31c9464b36cae1caba6b8fab1a53b7e58b6ddea508282604051610a70929190612a24565b60405180910390a15050565b60036020528060005260406000206000915090505481565b60008054906101000a900473ffffffffffffffffffffffffffffffffffffffff1673ffffffffffffffffffffffffffffffffffffffff163373ffffffffffffffffffffffffffffffffffffffff1614610b22576040517f08c379a0000000000000000000000000000000000000000000000000000000008152600401610b19906128ff565b60405180910390fd5b60006004600083815260200190815260200160002090508060020160009054906101000a900460ff1615610b8b576040517f08c379a0000000000000000000000000000000000000000000000000000000008152600401610b8290612a99565b60405180910390fd5b60018160020160006101000a81548160ff0219169083151502179055507f91684aa78953e53d1c5989330463152346a90a52860a769d5d44d1e072b0302582604051610bd79190612320565b60405180910390a15050565b600260205281600052604060002060205280600052604060002060009150915050806000015490806001016040518061010001604052908160008201548152602001600182018054610c3490612882565b80601f0160208091040260200160405190810160405280929190818152602001828054610c6090612882565b8015610cad5780601f10610c8257610100808354040283529160200191610cad565b820191906000526020600020905b815481529060010190602001808311610c9057829003601f168201915b50505050508152602001600282018054610cc690612882565b80601f0160208091040260200160405190810160405280929190818152602001828054610cf290612882565b8015610d3f5780601f10610d1457610100808354040283529160200191610d3f565b820191906000526020600020905b815481529060010190602001808311610d2257829003601f168201915b50505050508152602001600382018054610d5890612882565b80601f0160208091040260200160405190810160405280929190818152602001828054610d8490612882565b8015610dd15780601f10610da657610100808354040283529160200191610dd1565b820191906000526020600020905b815481529060010190602001808311610db457829003601f168201915b50505050508152602001600482015481526020016005820154815260200160068201548152602001600782018054610e0890612882565b80601f0160208091040260200160405190810160405280929190818152602001828054610e3490612882565b8015610e815780601f10610e5657610100808354040283529160200191610e81565b820191906000526020600020905b815481529060010190602001808311610e6457829003601f168201915b505050505081525050905082565b600681805160208101820180518482526020830160208501208183528095505050505050600091509050806000018054610ec890612882565b80601f0160208091040260200160405190810160405280929190818152602001828054610ef490612882565b8015610f415780601f10610f1657610100808354040283529160200191610f41565b820191906000526020600020905b815481529060010190602001808311610f2457829003601f168201915b5050505050908060010154908060020154905083565b60056020528060005260406000206000915090508054610f7690612882565b80601f0160208091040260200160405190810160405280929190818152602001828054610fa290612882565b8015610fef5780601f10610fc457610100808354040283529160200191610fef565b820191906000526020600020905b815481529060010190602001808311610fd257829003601f168201915b505050505081565b60008054906101000a900473ffffffffffffffffffffffffffffffffffffffff1681565b60008054906101000a900473ffffffffffffffffffffffffffffffffffffffff1673ffffffffffffffffffffffffffffffffffffffff163373ffffffffffffffffffffffffffffffffffffffff16146110a9576040517f08c379a00000000000000000000000000000000000000000000000000000000081526004016110a0906128ff565b60405180910390fd5b60006040518061010001604052808a815260200189815260200188815260200187815260200186815260200185815260200184815260200183815250905080600160008b815260200190815260200160002060008201518160000155602082015181600101908161111a9190612c65565b5060408201518160020190816111309190612c65565b5060608201518160030190816111469190612c65565b506080820151816004015560a0820151816005015560c0820151816006015560e082015181600701908161117a9190612c65565b509050507fa5adc50784bf6e37e1400409531ab81ecbbeebf44d0d317d5da8e7a0d2eb3e90898987866040516111b39493929190612d37565b60405180910390a1505050505050505050565b60008054906101000a900473ffffffffffffffffffffffffffffffffffffffff1673ffffffffffffffffffffffffffffffffffffffff163373ffffffffffffffffffffffffffffffffffffffff1614611254576040517f08c379a000000000000000000000000000000000000000000000000000000000815260040161124b906128ff565b60405180910390fd5b6000835111611298576040517f08c379a000000000000000000000000000000000000000000000000000000000815260040161128f90612dcf565b60405180910390fd5b60008251116112dc576040517f08c379a00000000000000000000000000000000000000000000000000000000081526004016112d390612e3b565b60405180910390fd5b6040518060600160405280838152602001428152602001828152506006846040516113079190612a0d565b9081526020016040518091039020600082015181600001908161132a9190612c65565b5060208201518160010155604082015181600201559050507f0a0c439857cd9490b500b59d53855e25be9da59e31ce88547729f90167fdf90083838360405161137593929190612e5b565b60405180910390a1505050565b60016020528060005260406000206000915090508060000154908060010180546113ab90612882565b80601f01602080910402602001604051908101604052809291908181526020018280546113d790612882565b80156114245780601f106113f957610100808354040283529160200191611424565b820191906000526020600020905b81548152906001019060200180831161140757829003601f168201915b50505050509080600201805461143990612882565b80601f016020809104026020016040519081016040528092919081815260200182805461146590612882565b80156114b25780601f10611487576101008083540402835291602001916114b2565b820191906000526020600020905b81548152906001019060200180831161149557829003601f168201915b5050505050908060030180546114c790612882565b80601f01602080910402602001604051908101604052809291908181526020018280546114f390612882565b80156115405780601f1061151557610100808354040283529160200191611540565b820191906000526020600020905b81548152906001019060200180831161152357829003601f168201915b50505050509080600401549080600501549080600601549080600701805461156790612882565b80601f016020809104026020016040519081016040528092919081815260200182805461159390612882565b80156115e05780601f106115b5576101008083540402835291602001916115e0565b820191906000526020600020905b8154815290600101906020018083116115c357829003601f168201915b5050505050905088565b60008060009054906101000a900473ffffffffffffffffffffffffffffffffffffffff1673ffffffffffffffffffffffffffffffffffffffff163373ffffffffffffffffffffffffffffffffffffffff161461167b576040517f08c379a0000000000000000000000000000000000000000000000000000000008152600401611672906128ff565b60405180910390fd5b600042905060006040518060600160405280838152602001868152602001600015158152509050836005600084815260200190815260200160002090816116c29190612c65565b5080600460008481526020019081526020016000206000820151816000015560208201518160010190805190602001906116fd929190611d95565b5060408201518160020160006101000a81548160ff0219169083151502179055509050507f4f90ad80b5388f617dbaba6a54a05732dd030359aa302ef37fb20b6a442d997a82868660405161175493929190612ea0565b60405180910390a1819250505092915050565b60006001600083815260200190815260200160002060405180610100016040529081600082015481526020016001820180546117a290612882565b80601f01602080910402602001604051908101604052809291908181526020018280546117ce90612882565b801561181b5780601f106117f05761010080835404028352916020019161181b565b820191906000526020600020905b8154815290600101906020018083116117fe57829003601f168201915b5050505050815260200160028201805461183490612882565b80601f016020809104026020016040519081016040528092919081815260200182805461186090612882565b80156118ad5780601f10611882576101008083540402835291602001916118ad565b820191906000526020600020905b81548152906001019060200180831161189057829003601f168201915b505050505081526020016003820180546118c690612882565b80601f01602080910402602001604051908101604052809291908181526020018280546118f290612882565b801561193f5780601f106119145761010080835404028352916020019161193f565b820191906000526020600020905b81548152906001019060200180831161192257829003601f168201915b5050505050815260200160048201548152602001600582015481526020016006820154815260200160078201805461197690612882565b80601f01602080910402602001604051908101604052809291908181526020018280546119a290612882565b80156119ef5780601f106119c4576101008083540402835291602001916119ef565b820191906000526020600020905b8154815290600101906020018083116119d257829003601f168201915b50505050508152505090508060800151341015611a41576040517f08c379a0000000000000000000000000000000000000000000000000000000008152600401611a3890612f31565b60405180910390fd5b60008160c0015111611a88576040517f08c379a0000000000000000000000000000000000000000000000000000000008152600401611a7f90612f9d565b60405180910390fd5b60006040518060400160405280428152602001838152509050600360003373ffffffffffffffffffffffffffffffffffffffff1673ffffffffffffffffffffffffffffffffffffffff1681526020019081526020016000206000815480929190611af190612fec565b919050555080600260003373ffffffffffffffffffffffffffffffffffffffff1673ffffffffffffffffffffffffffffffffffffffff1681526020019081526020016000206000600360003373ffffffffffffffffffffffffffffffffffffffff1673ffffffffffffffffffffffffffffffffffffffff16815260200190815260200160002054815260200190815260200160002060008201518160000155602082015181600101600082015181600001556020820151816001019081611bb89190612c65565b506040820151816002019081611bce9190612c65565b506060820151816003019081611be49190612c65565b506080820151816004015560a0820151816005015560c0820151816006015560e0820151816007019081611c189190612c65565b505050905050600160008481526020019081526020016000206006016000815480929190611c4590613034565b91905055503373ffffffffffffffffffffffffffffffffffffffff167f03f23a9b67af957c8605376a4f515b53f102d4ad7f4da099bd1aff8e3ee13fec600360003373ffffffffffffffffffffffffffffffffffffffff1673ffffffffffffffffffffffffffffffffffffffff168152602001908152602001600020548460000151604051611cd5929190612a24565b60405180910390a2505050565b606060046000838152602001908152602001600020600101805480602002602001604051908101604052809291908181526020018280548015611d4457602002820191906000526020600020905b815481526020019060010190808311611d30575b50505050509050919050565b60405180610100016040528060008152602001606081526020016060815260200160608152602001600081526020016000815260200160008152602001606081525090565b828054828255906000526020600020908101928215611dd1579160200282015b82811115611dd0578251825591602001919060010190611db5565b5b509050611dde9190611de2565b5090565b5b80821115611dfb576000816000905550600101611de3565b5090565b6000604051905090565b600080fd5b600080fd5b6000819050919050565b611e2681611e13565b8114611e3157600080fd5b50565b600081359050611e4381611e1d565b92915050565b600060208284031215611e5f57611e5e611e09565b5b6000611e6d84828501611e34565b91505092915050565b611e7f81611e13565b82525050565b60008115159050919050565b611e9a81611e85565b82525050565b6000604082019050611eb56000830185611e76565b611ec26020830184611e91565b9392505050565b611ed281611e13565b82525050565b600081519050919050565b600082825260208201905092915050565b60005b83811015611f12578082015181840152602081019050611ef7565b60008484015250505050565b6000601f19601f8301169050919050565b6000611f3a82611ed8565b611f448185611ee3565b9350611f54818560208601611ef4565b611f5d81611f1e565b840191505092915050565b600061010083016000830151611f816000860182611ec9565b5060208301518482036020860152611f998282611f2f565b91505060408301518482036040860152611fb38282611f2f565b91505060608301518482036060860152611fcd8282611f2f565b9150506080830151611fe26080860182611ec9565b5060a0830151611ff560a0860182611ec9565b5060c083015161200860c0860182611ec9565b5060e083015184820360e08601526120208282611f2f565b9150508091505092915050565b600060208201905081810360008301526120478184611f68565b905092915050565b600080fd5b600080fd5b7f4e487b7100000000000000000000000000000000000000000000000000000000600052604160045260246000fd5b61209182611f1e565b810181811067ffffffffffffffff821117156120b0576120af612059565b5b80604052505050565b60006120c3611dff565b90506120cf8282612088565b919050565b600067ffffffffffffffff8211156120ef576120ee612059565b5b6120f882611f1e565b9050602081019050919050565b82818337600083830152505050565b6000612127612122846120d4565b6120b9565b90508281526020810184848401111561214357612142612054565b5b61214e848285612105565b509392505050565b600082601f83011261216b5761216a61204f565b5b813561217b848260208601612114565b91505092915050565b60006020828403121561219a57612199611e09565b5b600082013567ffffffffffffffff8111156121b8576121b7611e0e565b5b6121c484828501612156565b91505092915050565b600082825260208201905092915050565b60006121e982611ed8565b6121f381856121cd565b9350612203818560208601611ef4565b61220c81611f1e565b840191505092915050565b6000606082019050818103600083015261223181866121de565b90506122406020830185611e76565b61224d6040830184611e76565b949350505050565b6000806040838503121561226c5761226b611e09565b5b600061227a85828601611e34565b925050602061228b85828601611e34565b9150509250929050565b600073ffffffffffffffffffffffffffffffffffffffff82169050919050565b60006122c082612295565b9050919050565b6122d0816122b5565b81146122db57600080fd5b50565b6000813590506122ed816122c7565b92915050565b60006020828403121561230957612308611e09565b5b6000612317848285016122de565b91505092915050565b60006020820190506123356000830184611e76565b92915050565b6000806040838503121561235257612351611e09565b5b6000612360858286016122de565b925050602061237185828601611e34565b9150509250929050565b60006040820190506123906000830185611e76565b81810360208301526123a28184611f68565b90509392505050565b600060208201905081810360008301526123c581846121de565b905092915050565b6123d6816122b5565b82525050565b60006020820190506123f160008301846123cd565b92915050565b600080600080600080600080610100898b03121561241857612417611e09565b5b60006124268b828c01611e34565b985050602089013567ffffffffffffffff81111561244757612446611e0e565b5b6124538b828c01612156565b975050604089013567ffffffffffffffff81111561247457612473611e0e565b5b6124808b828c01612156565b965050606089013567ffffffffffffffff8111156124a1576124a0611e0e565b5b6124ad8b828c01612156565b95505060806124be8b828c01611e34565b94505060a06124cf8b828c01611e34565b93505060c06124e08b828c01611e34565b92505060e089013567ffffffffffffffff81111561250157612500611e0e565b5b61250d8b828c01612156565b9150509295985092959890939650565b60008060006060848603121561253657612535611e09565b5b600084013567ffffffffffffffff81111561255457612553611e0e565b5b61256086828701612156565b935050602084013567ffffffffffffffff81111561258157612580611e0e565b5b61258d86828701612156565b925050604061259e86828701611e34565b9150509250925092565b6000610100820190506125be600083018b611e76565b81810360208301526125d0818a6121de565b905081810360408301526125e481896121de565b905081810360608301526125f881886121de565b90506126076080830187611e76565b61261460a0830186611e76565b61262160c0830185611e76565b81810360e083015261263381846121de565b90509998505050505050505050565b600067ffffffffffffffff82111561265d5761265c612059565b5b602082029050602081019050919050565b600080fd5b600061268661268184612642565b6120b9565b905080838252602082019050602084028301858111156126a9576126a861266e565b5b835b818110156126d257806126be8882611e34565b8452602084019350506020810190506126ab565b5050509392505050565b600082601f8301126126f1576126f061204f565b5b8135612701848260208601612673565b91505092915050565b6000806040838503121561272157612720611e09565b5b600083013567ffffffffffffffff81111561273f5761273e611e0e565b5b61274b858286016126dc565b925050602083013567ffffffffffffffff81111561276c5761276b611e0e565b5b61277885828601612156565b9150509250929050565b600081519050919050565b600082825260208201905092915050565b6000819050602082019050919050565b60006127ba8383611ec9565b60208301905092915050565b6000602082019050919050565b60006127de82612782565b6127e8818561278d565b93506127f38361279e565b8060005b8381101561282457815161280b88826127ae565b9750612816836127c6565b9250506001810190506127f7565b5085935050505092915050565b6000602082019050818103600083015261284b81846127d3565b905092915050565b7f4e487b7100000000000000000000000000000000000000000000000000000000600052602260045260246000fd5b6000600282049050600182168061289a57607f821691505b6020821081036128ad576128ac612853565b5b50919050565b7f4e6f7420617574686f72697a6564000000000000000000000000000000000000600082015250565b60006128e9600e836121cd565b91506128f4826128b3565b602082019050919050565b60006020820190508181036000830152612918816128dc565b9050919050565b600081905092915050565b50565b600061293a60008361291f565b91506129458261292a565b600082019050919050565b600061295b8261292d565b9150819050919050565b7f5472616e73666572206661696c65640000000000000000000000000000000000600082015250565b600061299b600f836121cd565b91506129a682612965565b602082019050919050565b600060208201905081810360008301526129ca8161298e565b9050919050565b600081905092915050565b60006129e782611ed8565b6129f181856129d1565b9350612a01818560208601611ef4565b80840191505092915050565b6000612a1982846129dc565b915081905092915050565b6000604082019050612a396000830185611e76565b612a466020830184611e76565b9392505050565b7f437261746520616c726561647920736869707065640000000000000000000000600082015250565b6000612a836015836121cd565b9150612a8e82612a4d565b602082019050919050565b60006020820190508181036000830152612ab281612a76565b9050919050565b60008190508160005260206000209050919050565b60006020601f8301049050919050565b600082821b905092915050565b600060088302612b1b7fffffffffffffffffffffffffffffffffffffffffffffffffffffffffffffffff82612ade565b612b258683612ade565b95508019841693508086168417925050509392505050565b6000819050919050565b6000612b62612b5d612b5884611e13565b612b3d565b611e13565b9050919050565b6000819050919050565b612b7c83612b47565b612b90612b8882612b69565b848454612aeb565b825550505050565b600090565b612ba5612b98565b612bb0818484612b73565b505050565b5b81811015612bd457612bc9600082612b9d565b600181019050612bb6565b5050565b601f821115612c1957612bea81612ab9565b612bf384612ace565b81016020851015612c02578190505b612c16612c0e85612ace565b830182612bb5565b50505b505050565b600082821c905092915050565b6000612c3c60001984600802612c1e565b1980831691505092915050565b6000612c558383612c2b565b9150826002028217905092915050565b612c6e82611ed8565b67ffffffffffffffff811115612c8757612c86612059565b5b612c918254612882565b612c9c828285612bd8565b600060209050601f831160018114612ccf5760008415612cbd578287015190505b612cc78582612c49565b865550612d2f565b601f198416612cdd86612ab9565b60005b82811015612d0557848901518255600182019150602085019450602081019050612ce0565b86831015612d225784890151612d1e601f891682612c2b565b8355505b6001600288020188555050505b505050505050565b6000608082019050612d4c6000830187611e76565b8181036020830152612d5e81866121de565b9050612d6d6040830185611e76565b612d7a6060830184611e76565b95945050505050565b7f496e76616c696420524649442074616700000000000000000000000000000000600082015250565b6000612db96010836121cd565b9150612dc482612d83565b602082019050919050565b60006020820190508181036000830152612de881612dac565b9050919050565b7f496e76616c6964206c6f636174696f6e00000000000000000000000000000000600082015250565b6000612e256010836121cd565b9150612e3082612def565b602082019050919050565b60006020820190508181036000830152612e5481612e18565b9050919050565b60006060820190508181036000830152612e7581866121de565b90508181036020830152612e8981856121de565b9050612e986040830184611e76565b949350505050565b6000606082019050612eb56000830186611e76565b8181036020830152612ec781856127d3565b90508181036040830152612edb81846121de565b9050949350505050565b7f496e73756666696369656e742066756e64730000000000000000000000000000600082015250565b6000612f1b6012836121cd565b9150612f2682612ee5565b602082019050919050565b60006020820190508181036000830152612f4a81612f0e565b9050919050565b7f4f7574206f662073746f636b0000000000000000000000000000000000000000600082015250565b6000612f87600c836121cd565b9150612f9282612f51565b602082019050919050565b60006020820190508181036000830152612fb681612f7a565b9050919050565b7f4e487b7100000000000000000000000000000000000000000000000000000000600052601160045260246000fd5b6000612ff782611e13565b91507fffffffffffffffffffffffffffffffffffffffffffffffffffffffffffffffff820361302957613028612fbd565b5b600182019050919050565b600061303f82611e13565b91506000820361305257613051612fbd565b5b60018203905091905056fea26469706673582212206394687a4b7a194aa7ad4ea32b7d3f9b5ab1d82d28cb6c4012e52fba04ed869864736f6c634300081b0033",
  "linkReferences": {},
  "deployedLinkReferences": {}
}