{
  "_format": "hh-sol-artifact-1",
  "contractName": "cryptocommerce",
  "sourceName": "contracts/cryptocommerce.sol",
  "abi": [
    {
      "inputs": [],
      "stateMutability": "nonpayable",
      "type": "constructor"
    },
    {
      "anonymous": false,
      "inputs": [
        {
          "indexed": false,
          "internalType": "address",
          "name": "buyer",
          "type": "address"
        },
        {
          "indexed": false,
          "internalType": "uint256",
          "name": "orderId",
          "type": "uint256"
        },
        {
          "indexed": false,
          "internalType": "uint256",
          "name": "itemId",
          "type": "uint256"
        }
      ],
      "name": "Buy",
      "type": "event"
    },
    {
      "anonymous": false,
      "inputs": [
        {
          "indexed": false,
          "internalType": "string",
          "name": "name",
          "type": "string"
        },
        {
          "indexed": false,
          "internalType": "uint256",
          "name": "cost",
          "type": "uint256"
        },
        {
          "indexed": false,
          "internalType": "uint256",
          "name": "quantity",
          "type": "uint256"
        }
      ],
      "name": "List",
      "type": "event"
    },
    {
      "anonymous": false,
      "inputs": [
        {
          "indexed": true,
          "internalType": "address",
          "name": "previousOwner",
          "type": "address"
        },
        {
          "indexed": true,
          "internalType": "address",
          "name": "newOwner",
          "type": "address"
        }
      ],
      "name": "OwnershipTransferred",
      "type": "event"
    },
    {
      "anonymous": false,
      "inputs": [
        {
          "indexed": true,
          "internalType": "address",
          "name": "updater",
          "type": "address"
        },
        {
          "indexed": false,
          "internalType": "string",
          "name": "rfidTag",
          "type": "string"
        },
        {
          "indexed": false,
          "internalType": "string",
          "name": "location",
          "type": "string"
        },
        {
          "indexed": false,
          "internalType": "uint256",
          "name": "timestamp",
          "type": "uint256"
        }
      ],
      "name": "RfidLocationUpdated",
      "type": "event"
    },
    {
      "inputs": [
        {
          "internalType": "uint256",
          "name": "_id",
          "type": "uint256"
        }
      ],
      "name": "buy",
      "outputs": [],
      "stateMutability": "payable",
      "type": "function"
    },
    {
      "inputs": [
        {
          "internalType": "string",
          "name": "rfidTag",
          "type": "string"
        }
      ],
      "name": "getRfidData",
      "outputs": [
        {
          "internalType": "string",
          "name": "location",
          "type": "string"
        },
        {
          "internalType": "uint256",
          "name": "timestamp",
          "type": "uint256"
        }
      ],
      "stateMutability": "view",
      "type": "function"
    },
    {
      "inputs": [
        {
          "internalType": "uint256",
          "name": "",
          "type": "uint256"
        }
      ],
      "name": "items",
      "outputs": [
        {
          "internalType": "uint256",
          "name": "id",
          "type": "uint256"
        },
        {
          "internalType": "string",
          "name": "name",
          "type": "string"
        },
        {
          "internalType": "string",
          "name": "category",
          "type": "string"
        },
        {
          "internalType": "string",
          "name": "image",
          "type": "string"
        },
        {
          "internalType": "uint256",
          "name": "cost",
          "type": "uint256"
        },
        {
          "internalType": "uint256",
          "name": "rating",
          "type": "uint256"
        },
        {
          "internalType": "uint256",
          "name": "stock",
          "type": "uint256"
        }
      ],
      "stateMutability": "view",
      "type": "function"
    },
    {
      "inputs": [
        {
          "internalType": "uint256",
          "name": "_id",
          "type": "uint256"
        },
        {
          "internalType": "string",
          "name": "_name",
          "type": "string"
        },
        {
          "internalType": "string",
          "name": "_category",
          "type": "string"
        },
        {
          "internalType": "string",
          "name": "_image",
          "type": "string"
        },
        {
          "internalType": "uint256",
          "name": "_cost",
          "type": "uint256"
        },
        {
          "internalType": "uint256",
          "name": "_rating",
          "type": "uint256"
        },
        {
          "internalType": "uint256",
          "name": "_stock",
          "type": "uint256"
        }
      ],
      "name": "list",
      "outputs": [],
      "stateMutability": "nonpayable",
      "type": "function"
    },
    {
      "inputs": [
        {
          "internalType": "address",
          "name": "",
          "type": "address"
        }
      ],
      "name": "orderCount",
      "outputs": [
        {
          "internalType": "uint256",
          "name": "",
          "type": "uint256"
        }
      ],
      "stateMutability": "view",
      "type": "function"
    },
    {
      "inputs": [
        {
          "internalType": "address",
          "name": "",
          "type": "address"
        },
        {
          "internalType": "uint256",
          "name": "",
          "type": "uint256"
        }
      ],
      "name": "orders",
      "outputs": [
        {
          "internalType": "uint256",
          "name": "time",
          "type": "uint256"
        },
        {
          "components": [
            {
              "internalType": "uint256",
              "name": "id",
              "type": "uint256"
            },
            {
              "internalType": "string",
              "name": "name",
              "type": "string"
            },
            {
              "internalType": "string",
              "name": "category",
              "type": "string"
            },
            {
              "internalType": "string",
              "name": "image",
              "type": "string"
            },
            {
              "internalType": "uint256",
              "name": "cost",
              "type": "uint256"
            },
            {
              "internalType": "uint256",
              "name": "rating",
              "type": "uint256"
            },
            {
              "internalType": "uint256",
              "name": "stock",
              "type": "uint256"
            }
          ],
          "internalType": "struct cryptocommerce.Item",
          "name": "item",
          "type": "tuple"
        }
      ],
      "stateMutability": "view",
      "type": "function"
    },
    {
      "inputs": [],
      "name": "owner",
      "outputs": [
        {
          "internalType": "address payable",
          "name": "",
          "type": "address"
        }
      ],
      "stateMutability": "view",
      "type": "function"
    },
    {
      "inputs": [],
      "name": "pastOwner",
      "outputs": [
        {
          "internalType": "address",
          "name": "",
          "type": "address"
        }
      ],
      "stateMutability": "view",
      "type": "function"
    },
    {
      "inputs": [
        {
          "internalType": "string",
          "name": "",
          "type": "string"
        }
      ],
      "name": "rfidRecords",
      "outputs": [
        {
          "internalType": "string",
          "name": "location",
          "type": "string"
        },
        {
          "internalType": "uint256",
          "name": "timestamp",
          "type": "uint256"
        }
      ],
      "stateMutability": "view",
      "type": "function"
    },
    {
      "inputs": [
        {
          "internalType": "address payable",
          "name": "newOwner",
          "type": "address"
        }
      ],
      "name": "transferOwnership",
      "outputs": [],
      "stateMutability": "nonpayable",
      "type": "function"
    },
    {
      "inputs": [
        {
          "internalType": "string",
          "name": "rfidTag",
          "type": "string"
        },
        {
          "internalType": "string",
          "name": "location",
          "type": "string"
        }
      ],
      "name": "updateRfidLocation",
      "outputs": [],
      "stateMutability": "nonpayable",
      "type": "function"
    },
    {
      "inputs": [],
      "name": "withdraw",
      "outputs": [],
      "stateMutability": "nonpayable",
      "type": "function"
    }
  ],
  "bytecode": "0x6080604052348015600f57600080fd5b50336000806101000a81548173ffffffffffffffffffffffffffffffffffffffff021916908373ffffffffffffffffffffffffffffffffffffffff1602179055506000600160006101000a81548173ffffffffffffffffffffffffffffffffffffffff021916908373ffffffffffffffffffffffffffffffffffffffff1602179055506120cd806100a16000396000f3fe6080604052600436106100a75760003560e01c80638da5cb5b116100645780638da5cb5b146101e5578063a1d2f93c14610210578063bfb231d214610239578063d96a094a1461027c578063eea8a7e814610298578063f2fde38b146102c1576100a7565b80633ccfd60b146100ac57806341619543146100c35780636c9aeae114610101578063713d856b1461012c578063793b8c6d146101695780637d02a549146101a7575b600080fd5b3480156100b857600080fd5b506100c16102ea565b005b3480156100cf57600080fd5b506100ea60048036038101906100e59190611443565b6103dc565b6040516100f8929190611524565b60405180910390f35b34801561010d57600080fd5b506101166104bc565b6040516101239190611595565b60405180910390f35b34801561013857600080fd5b50610153600480360381019061014e91906115dc565b6104e2565b6040516101609190611609565b60405180910390f35b34801561017557600080fd5b50610190600480360381019061018b9190611650565b6104fa565b60405161019e929190611793565b60405180910390f35b3480156101b357600080fd5b506101ce60048036038101906101c99190611443565b610713565b6040516101dc929190611524565b60405180910390f35b3480156101f157600080fd5b506101fa6107d5565b60405161020791906117e4565b60405180910390f35b34801561021c57600080fd5b50610237600480360381019061023291906117ff565b6107f9565b005b34801561024557600080fd5b50610260600480360381019061025b9190611877565b610985565b60405161027397969594939291906118a4565b60405180910390f35b61029660048036038101906102919190611877565b610b5f565b005b3480156102a457600080fd5b506102bf60048036038101906102ba9190611928565b610faf565b005b3480156102cd57600080fd5b506102e860048036038101906102e39190611a4a565b611104565b005b60008054906101000a900473ffffffffffffffffffffffffffffffffffffffff1673ffffffffffffffffffffffffffffffffffffffff163373ffffffffffffffffffffffffffffffffffffffff161461034257600080fd5b60008060009054906101000a900473ffffffffffffffffffffffffffffffffffffffff1673ffffffffffffffffffffffffffffffffffffffff164760405161038990611aa8565b60006040518083038185875af1925050503d80600081146103c6576040519150601f19603f3d011682016040523d82523d6000602084013e6103cb565b606091505b50509050806103d957600080fd5b50565b60606000806005846040516103f19190611af9565b908152602001604051809103902060405180604001604052908160008201805461041a90611b3f565b80601f016020809104026020016040519081016040528092919081815260200182805461044690611b3f565b80156104935780601f1061046857610100808354040283529160200191610493565b820191906000526020600020905b81548152906001019060200180831161047657829003601f168201915b505050505081526020016001820154815250509050806000015181602001519250925050915091565b600160009054906101000a900473ffffffffffffffffffffffffffffffffffffffff1681565b60046020528060005260406000206000915090505481565b600360205281600052604060002060205280600052604060002060009150915050806000015490806001016040518060e00160405290816000820154815260200160018201805461054a90611b3f565b80601f016020809104026020016040519081016040528092919081815260200182805461057690611b3f565b80156105c35780601f10610598576101008083540402835291602001916105c3565b820191906000526020600020905b8154815290600101906020018083116105a657829003601f168201915b505050505081526020016002820180546105dc90611b3f565b80601f016020809104026020016040519081016040528092919081815260200182805461060890611b3f565b80156106555780601f1061062a57610100808354040283529160200191610655565b820191906000526020600020905b81548152906001019060200180831161063857829003601f168201915b5050505050815260200160038201805461066e90611b3f565b80601f016020809104026020016040519081016040528092919081815260200182805461069a90611b3f565b80156106e75780601f106106bc576101008083540402835291602001916106e7565b820191906000526020600020905b8154815290600101906020018083116106ca57829003601f168201915b505050505081526020016004820154815260200160058201548152602001600682015481525050905082565b60058180516020810182018051848252602083016020850120818352809550505050505060009150905080600001805461074c90611b3f565b80601f016020809104026020016040519081016040528092919081815260200182805461077890611b3f565b80156107c55780601f1061079a576101008083540402835291602001916107c5565b820191906000526020600020905b8154815290600101906020018083116107a857829003601f168201915b5050505050908060010154905082565b60008054906101000a900473ffffffffffffffffffffffffffffffffffffffff1681565b60008054906101000a900473ffffffffffffffffffffffffffffffffffffffff1673ffffffffffffffffffffffffffffffffffffffff163373ffffffffffffffffffffffffffffffffffffffff161461085157600080fd5b6000825111610895576040517f08c379a000000000000000000000000000000000000000000000000000000000815260040161088c90611bbc565b60405180910390fd5b60008151116108d9576040517f08c379a00000000000000000000000000000000000000000000000000000000081526004016108d090611c28565b60405180910390fd5b6040518060400160405280828152602001428152506005836040516108fe9190611af9565b908152602001604051809103902060008201518160000190816109219190611df4565b50602082015181600101559050503373ffffffffffffffffffffffffffffffffffffffff167fb72049b02951a04c584ff14ece26534baca4df5f9761b1c685abca950ff5f69f83834260405161097993929190611ec6565b60405180910390a25050565b60026020528060005260406000206000915090508060000154908060010180546109ae90611b3f565b80601f01602080910402602001604051908101604052809291908181526020018280546109da90611b3f565b8015610a275780601f106109fc57610100808354040283529160200191610a27565b820191906000526020600020905b815481529060010190602001808311610a0a57829003601f168201915b505050505090806002018054610a3c90611b3f565b80601f0160208091040260200160405190810160405280929190818152602001828054610a6890611b3f565b8015610ab55780601f10610a8a57610100808354040283529160200191610ab5565b820191906000526020600020905b815481529060010190602001808311610a9857829003601f168201915b505050505090806003018054610aca90611b3f565b80601f0160208091040260200160405190810160405280929190818152602001828054610af690611b3f565b8015610b435780601f10610b1857610100808354040283529160200191610b43565b820191906000526020600020905b815481529060010190602001808311610b2657829003601f168201915b5050505050908060040154908060050154908060060154905087565b6000600260008381526020019081526020016000206040518060e001604052908160008201548152602001600182018054610b9990611b3f565b80601f0160208091040260200160405190810160405280929190818152602001828054610bc590611b3f565b8015610c125780601f10610be757610100808354040283529160200191610c12565b820191906000526020600020905b815481529060010190602001808311610bf557829003601f168201915b50505050508152602001600282018054610c2b90611b3f565b80601f0160208091040260200160405190810160405280929190818152602001828054610c5790611b3f565b8015610ca45780601f10610c7957610100808354040283529160200191610ca4565b820191906000526020600020905b815481529060010190602001808311610c8757829003601f168201915b50505050508152602001600382018054610cbd90611b3f565b80601f0160208091040260200160405190810160405280929190818152602001828054610ce990611b3f565b8015610d365780601f10610d0b57610100808354040283529160200191610d36565b820191906000526020600020905b815481529060010190602001808311610d1957829003601f168201915b50505050508152602001600482015481526020016005820154815260200160068201548152505090508060800151341015610d7057600080fd5b60008160c0015111610d8157600080fd5b60006040518060400160405280428152602001838152509050600460003373ffffffffffffffffffffffffffffffffffffffff1673ffffffffffffffffffffffffffffffffffffffff1681526020019081526020016000206000815480929190610dea90611f3a565b919050555080600360003373ffffffffffffffffffffffffffffffffffffffff1673ffffffffffffffffffffffffffffffffffffffff1681526020019081526020016000206000600460003373ffffffffffffffffffffffffffffffffffffffff1673ffffffffffffffffffffffffffffffffffffffff16815260200190815260200160002054815260200190815260200160002060008201518160000155602082015181600101600082015181600001556020820151816001019081610eb19190611df4565b506040820151816002019081610ec79190611df4565b506060820151816003019081610edd9190611df4565b506080820151816004015560a0820151816005015560c08201518160060155505090505060018260c00151610f129190611f82565b60026000858152602001908152602001600020600601819055507f1cbc5ab135991bd2b6a4b034a04aa2aa086dac1371cb9b16b8b5e2ed6b036bed33600460003373ffffffffffffffffffffffffffffffffffffffff1673ffffffffffffffffffffffffffffffffffffffff168152602001908152602001600020548460000151604051610fa293929190611fb6565b60405180910390a1505050565b60008054906101000a900473ffffffffffffffffffffffffffffffffffffffff1673ffffffffffffffffffffffffffffffffffffffff163373ffffffffffffffffffffffffffffffffffffffff161461100757600080fd5b60006040518060e0016040528089815260200188815260200187815260200186815260200185815260200184815260200183815250905080600260008a81526020019081526020016000206000820151816000015560208201518160010190816110719190611df4565b5060408201518160020190816110879190611df4565b50606082015181600301908161109d9190611df4565b506080820151816004015560a0820151816005015560c082015181600601559050507ffdbe2a012c10ec01592653978eaa09b5ca60b143a0e617505b2ebcbd911ec5b88785846040516110f293929190611fed565b60405180910390a15050505050505050565b60008054906101000a900473ffffffffffffffffffffffffffffffffffffffff1673ffffffffffffffffffffffffffffffffffffffff163373ffffffffffffffffffffffffffffffffffffffff161461115c57600080fd5b600073ffffffffffffffffffffffffffffffffffffffff168173ffffffffffffffffffffffffffffffffffffffff16036111cb576040517f08c379a00000000000000000000000000000000000000000000000000000000081526004016111c290612077565b60405180910390fd5b60008054906101000a900473ffffffffffffffffffffffffffffffffffffffff16600160006101000a81548173ffffffffffffffffffffffffffffffffffffffff021916908373ffffffffffffffffffffffffffffffffffffffff1602179055508073ffffffffffffffffffffffffffffffffffffffff1660008054906101000a900473ffffffffffffffffffffffffffffffffffffffff1673ffffffffffffffffffffffffffffffffffffffff167f8be0079c531659141344cd1fd0a4f28419497f9722a3daafe3b4186f6b6457e060405160405180910390a3806000806101000a81548173ffffffffffffffffffffffffffffffffffffffff021916908373ffffffffffffffffffffffffffffffffffffffff16021790555050565b6000604051905090565b600080fd5b600080fd5b600080fd5b600080fd5b6000601f19601f8301169050919050565b7f4e487b7100000000000000000000000000000000000000000000000000000000600052604160045260246000fd5b61135082611307565b810181811067ffffffffffffffff8211171561136f5761136e611318565b5b80604052505050565b60006113826112e9565b905061138e8282611347565b919050565b600067ffffffffffffffff8211156113ae576113ad611318565b5b6113b782611307565b9050602081019050919050565b82818337600083830152505050565b60006113e66113e184611393565b611378565b90508281526020810184848401111561140257611401611302565b5b61140d8482856113c4565b509392505050565b600082601f83011261142a576114296112fd565b5b813561143a8482602086016113d3565b91505092915050565b600060208284031215611459576114586112f3565b5b600082013567ffffffffffffffff811115611477576114766112f8565b5b61148384828501611415565b91505092915050565b600081519050919050565b600082825260208201905092915050565b60005b838110156114c65780820151818401526020810190506114ab565b60008484015250505050565b60006114dd8261148c565b6114e78185611497565b93506114f78185602086016114a8565b61150081611307565b840191505092915050565b6000819050919050565b61151e8161150b565b82525050565b6000604082019050818103600083015261153e81856114d2565b905061154d6020830184611515565b9392505050565b600073ffffffffffffffffffffffffffffffffffffffff82169050919050565b600061157f82611554565b9050919050565b61158f81611574565b82525050565b60006020820190506115aa6000830184611586565b92915050565b6115b981611574565b81146115c457600080fd5b50565b6000813590506115d6816115b0565b92915050565b6000602082840312156115f2576115f16112f3565b5b6000611600848285016115c7565b91505092915050565b600060208201905061161e6000830184611515565b92915050565b61162d8161150b565b811461163857600080fd5b50565b60008135905061164a81611624565b92915050565b60008060408385031215611667576116666112f3565b5b6000611675858286016115c7565b92505060206116868582860161163b565b9150509250929050565b6116998161150b565b82525050565b600082825260208201905092915050565b60006116bb8261148c565b6116c5818561169f565b93506116d58185602086016114a8565b6116de81611307565b840191505092915050565b600060e0830160008301516117016000860182611690565b506020830151848203602086015261171982826116b0565b9150506040830151848203604086015261173382826116b0565b9150506060830151848203606086015261174d82826116b0565b91505060808301516117626080860182611690565b5060a083015161177560a0860182611690565b5060c083015161178860c0860182611690565b508091505092915050565b60006040820190506117a86000830185611515565b81810360208301526117ba81846116e9565b90509392505050565b60006117ce82611554565b9050919050565b6117de816117c3565b82525050565b60006020820190506117f960008301846117d5565b92915050565b60008060408385031215611816576118156112f3565b5b600083013567ffffffffffffffff811115611834576118336112f8565b5b61184085828601611415565b925050602083013567ffffffffffffffff811115611861576118606112f8565b5b61186d85828601611415565b9150509250929050565b60006020828403121561188d5761188c6112f3565b5b600061189b8482850161163b565b91505092915050565b600060e0820190506118b9600083018a611515565b81810360208301526118cb81896114d2565b905081810360408301526118df81886114d2565b905081810360608301526118f381876114d2565b90506119026080830186611515565b61190f60a0830185611515565b61191c60c0830184611515565b98975050505050505050565b600080600080600080600060e0888a031215611947576119466112f3565b5b60006119558a828b0161163b565b975050602088013567ffffffffffffffff811115611976576119756112f8565b5b6119828a828b01611415565b965050604088013567ffffffffffffffff8111156119a3576119a26112f8565b5b6119af8a828b01611415565b955050606088013567ffffffffffffffff8111156119d0576119cf6112f8565b5b6119dc8a828b01611415565b94505060806119ed8a828b0161163b565b93505060a06119fe8a828b0161163b565b92505060c0611a0f8a828b0161163b565b91505092959891949750929550565b611a27816117c3565b8114611a3257600080fd5b50565b600081359050611a4481611a1e565b92915050565b600060208284031215611a6057611a5f6112f3565b5b6000611a6e84828501611a35565b91505092915050565b600081905092915050565b50565b6000611a92600083611a77565b9150611a9d82611a82565b600082019050919050565b6000611ab382611a85565b9150819050919050565b600081905092915050565b6000611ad38261148c565b611add8185611abd565b9350611aed8185602086016114a8565b80840191505092915050565b6000611b058284611ac8565b915081905092915050565b7f4e487b7100000000000000000000000000000000000000000000000000000000600052602260045260246000fd5b60006002820490506001821680611b5757607f821691505b602082108103611b6a57611b69611b10565b5b50919050565b7f496e76616c696420524649442074616700000000000000000000000000000000600082015250565b6000611ba6601083611497565b9150611bb182611b70565b602082019050919050565b60006020820190508181036000830152611bd581611b99565b9050919050565b7f496e76616c6964206c6f636174696f6e00000000000000000000000000000000600082015250565b6000611c12601083611497565b9150611c1d82611bdc565b602082019050919050565b60006020820190508181036000830152611c4181611c05565b9050919050565b60008190508160005260206000209050919050565b60006020601f8301049050919050565b600082821b905092915050565b600060088302611caa7fffffffffffffffffffffffffffffffffffffffffffffffffffffffffffffffff82611c6d565b611cb48683611c6d565b95508019841693508086168417925050509392505050565b6000819050919050565b6000611cf1611cec611ce78461150b565b611ccc565b61150b565b9050919050565b6000819050919050565b611d0b83611cd6565b611d1f611d1782611cf8565b848454611c7a565b825550505050565b600090565b611d34611d27565b611d3f818484611d02565b505050565b5b81811015611d6357611d58600082611d2c565b600181019050611d45565b5050565b601f821115611da857611d7981611c48565b611d8284611c5d565b81016020851015611d91578190505b611da5611d9d85611c5d565b830182611d44565b50505b505050565b600082821c905092915050565b6000611dcb60001984600802611dad565b1980831691505092915050565b6000611de48383611dba565b9150826002028217905092915050565b611dfd8261148c565b67ffffffffffffffff811115611e1657611e15611318565b5b611e208254611b3f565b611e2b828285611d67565b600060209050601f831160018114611e5e5760008415611e4c578287015190505b611e568582611dd8565b865550611ebe565b601f198416611e6c86611c48565b60005b82811015611e9457848901518255600182019150602085019450602081019050611e6f565b86831015611eb15784890151611ead601f891682611dba565b8355505b6001600288020188555050505b505050505050565b60006060820190508181036000830152611ee081866114d2565b90508181036020830152611ef481856114d2565b9050611f036040830184611515565b949350505050565b7f4e487b7100000000000000000000000000000000000000000000000000000000600052601160045260246000fd5b6000611f458261150b565b91507fffffffffffffffffffffffffffffffffffffffffffffffffffffffffffffffff8203611f7757611f76611f0b565b5b600182019050919050565b6000611f8d8261150b565b9150611f988361150b565b9250828203905081811115611fb057611faf611f0b565b5b92915050565b6000606082019050611fcb6000830186611586565b611fd86020830185611515565b611fe56040830184611515565b949350505050565b6000606082019050818103600083015261200781866114d2565b90506120166020830185611515565b6120236040830184611515565b949350505050565b7f4e6577206f776e657220697320746865207a65726f2061646472657373000000600082015250565b6000612061601d83611497565b915061206c8261202b565b602082019050919050565b6000602082019050818103600083015261209081612054565b905091905056fea2646970667358221220939206bfaadc348bb09705f327b2b2b3a0983b69c4dbe990f6138fa7c6615ba764736f6c634300081b0033",
  "linkReferences": {},
  "deployedLinkReferences": {}
}