{
  "_format": "hh-sol-artifact-1",
  "contractName": "cryptocommerce",
  "sourceName": "contracts/cryptocommerce.sol",
  "abi": [
    {
      "inputs": [],
      "stateMutability": "nonpayable",
      "type": "constructor"
    },
    {
      "anonymous": false,
      "inputs": [
        {
          "indexed": false,
          "internalType": "address",
          "name": "buyer",
          "type": "address"
        },
        {
          "indexed": false,
          "internalType": "uint256",
          "name": "orderId",
          "type": "uint256"
        },
        {
          "indexed": false,
          "internalType": "uint256",
          "name": "itemId",
          "type": "uint256"
        }
      ],
      "name": "Buy",
      "type": "event"
    },
    {
      "anonymous": false,
      "inputs": [
        {
          "indexed": false,
          "internalType": "string",
          "name": "name",
          "type": "string"
        },
        {
          "indexed": false,
          "internalType": "uint256",
          "name": "cost",
          "type": "uint256"
        },
        {
          "indexed": false,
          "internalType": "uint256",
          "name": "quantity",
          "type": "uint256"
        }
      ],
      "name": "List",
      "type": "event"
    },
    {
      "anonymous": false,
      "inputs": [
        {
          "indexed": true,
          "internalType": "address",
          "name": "previousOwner",
          "type": "address"
        },
        {
          "indexed": true,
          "internalType": "address",
          "name": "newOwner",
          "type": "address"
        }
      ],
      "name": "OwnershipTransferred",
      "type": "event"
    },
    {
      "anonymous": false,
      "inputs": [
        {
          "indexed": true,
          "internalType": "address",
          "name": "updater",
          "type": "address"
        },
        {
          "indexed": false,
          "internalType": "string",
          "name": "rfidTag",
          "type": "string"
        },
        {
          "indexed": false,
          "internalType": "string",
          "name": "location",
          "type": "string"
        },
        {
          "indexed": false,
          "internalType": "uint256",
          "name": "timestamp",
          "type": "uint256"
        }
      ],
      "name": "RfidLocationUpdated",
      "type": "event"
    },
    {
      "inputs": [
        {
          "internalType": "uint256",
          "name": "_id",
          "type": "uint256"
        }
      ],
      "name": "buy",
      "outputs": [],
      "stateMutability": "payable",
      "type": "function"
    },
    {
      "inputs": [
        {
          "internalType": "string",
          "name": "rfidTag",
          "type": "string"
        }
      ],
      "name": "getRfidData",
      "outputs": [
        {
          "internalType": "string",
          "name": "location",
          "type": "string"
        },
        {
          "internalType": "uint256",
          "name": "timestamp",
          "type": "uint256"
        }
      ],
      "stateMutability": "view",
      "type": "function"
    },
    {
      "inputs": [
        {
          "internalType": "uint256",
          "name": "",
          "type": "uint256"
        }
      ],
      "name": "items",
      "outputs": [
        {
          "internalType": "uint256",
          "name": "id",
          "type": "uint256"
        },
        {
          "internalType": "string",
          "name": "name",
          "type": "string"
        },
        {
          "internalType": "string",
          "name": "category",
          "type": "string"
        },
        {
          "internalType": "string",
          "name": "image",
          "type": "string"
        },
        {
          "internalType": "uint256",
          "name": "cost",
          "type": "uint256"
        },
        {
          "internalType": "uint256",
          "name": "rating",
          "type": "uint256"
        },
        {
          "internalType": "uint256",
          "name": "stock",
          "type": "uint256"
        }
      ],
      "stateMutability": "view",
      "type": "function"
    },
    {
      "inputs": [
        {
          "internalType": "uint256",
          "name": "_id",
          "type": "uint256"
        },
        {
          "internalType": "string",
          "name": "_name",
          "type": "string"
        },
        {
          "internalType": "string",
          "name": "_category",
          "type": "string"
        },
        {
          "internalType": "string",
          "name": "_image",
          "type": "string"
        },
        {
          "internalType": "uint256",
          "name": "_cost",
          "type": "uint256"
        },
        {
          "internalType": "uint256",
          "name": "_rating",
          "type": "uint256"
        },
        {
          "internalType": "uint256",
          "name": "_stock",
          "type": "uint256"
        }
      ],
      "name": "list",
      "outputs": [],
      "stateMutability": "nonpayable",
      "type": "function"
    },
    {
      "inputs": [
        {
          "internalType": "address",
          "name": "",
          "type": "address"
        }
      ],
      "name": "orderCount",
      "outputs": [
        {
          "internalType": "uint256",
          "name": "",
          "type": "uint256"
        }
      ],
      "stateMutability": "view",
      "type": "function"
    },
    {
      "inputs": [
        {
          "internalType": "address",
          "name": "",
          "type": "address"
        },
        {
          "internalType": "uint256",
          "name": "",
          "type": "uint256"
        }
      ],
      "name": "orders",
      "outputs": [
        {
          "internalType": "uint256",
          "name": "time",
          "type": "uint256"
        },
        {
          "components": [
            {
              "internalType": "uint256",
              "name": "id",
              "type": "uint256"
            },
            {
              "internalType": "string",
              "name": "name",
              "type": "string"
            },
            {
              "internalType": "string",
              "name": "category",
              "type": "string"
            },
            {
              "internalType": "string",
              "name": "image",
              "type": "string"
            },
            {
              "internalType": "uint256",
              "name": "cost",
              "type": "uint256"
            },
            {
              "internalType": "uint256",
              "name": "rating",
              "type": "uint256"
            },
            {
              "internalType": "uint256",
              "name": "stock",
              "type": "uint256"
            }
          ],
          "internalType": "struct cryptocommerce.Item",
          "name": "item",
          "type": "tuple"
        }
      ],
      "stateMutability": "view",
      "type": "function"
    },
    {
      "inputs": [],
      "name": "owner",
      "outputs": [
        {
          "internalType": "address payable",
          "name": "",
          "type": "address"
        }
      ],
      "stateMutability": "view",
      "type": "function"
    },
    {
      "inputs": [],
      "name": "pastOwner",
      "outputs": [
        {
          "internalType": "address",
          "name": "",
          "type": "address"
        }
      ],
      "stateMutability": "view",
      "type": "function"
    },
    {
      "inputs": [
        {
          "internalType": "string",
          "name": "",
          "type": "string"
        }
      ],
      "name": "rfidRecords",
      "outputs": [
        {
          "internalType": "string",
          "name": "location",
          "type": "string"
        },
        {
          "internalType": "uint256",
          "name": "timestamp",
          "type": "uint256"
        }
      ],
      "stateMutability": "view",
      "type": "function"
    },
    {
      "inputs": [
        {
          "internalType": "address payable",
          "name": "newOwner",
          "type": "address"
        }
      ],
      "name": "transferOwnership",
      "outputs": [],
      "stateMutability": "nonpayable",
      "type": "function"
    },
    {
      "inputs": [],
      "name": "withdraw",
      "outputs": [],
      "stateMutability": "nonpayable",
      "type": "function"
    }
  ],
  "bytecode": "0x6080604052348015600f57600080fd5b50336000806101000a81548173ffffffffffffffffffffffffffffffffffffffff021916908373ffffffffffffffffffffffffffffffffffffffff1602179055506000600160006101000a81548173ffffffffffffffffffffffffffffffffffffffff021916908373ffffffffffffffffffffffffffffffffffffffff160217905550611d78806100a16000396000f3fe60806040526004361061009c5760003560e01c80637d02a549116100645780637d02a5491461019c5780638da5cb5b146101da578063bfb231d214610205578063d96a094a14610248578063eea8a7e814610264578063f2fde38b1461028d5761009c565b80633ccfd60b146100a157806341619543146100b85780636c9aeae1146100f6578063713d856b14610121578063793b8c6d1461015e575b600080fd5b3480156100ad57600080fd5b506100b66102b6565b005b3480156100c457600080fd5b506100df60048036038101906100da9190611283565b6103a8565b6040516100ed929190611364565b60405180910390f35b34801561010257600080fd5b5061010b610488565b60405161011891906113d5565b60405180910390f35b34801561012d57600080fd5b506101486004803603810190610143919061141c565b6104ae565b6040516101559190611449565b60405180910390f35b34801561016a57600080fd5b5061018560048036038101906101809190611490565b6104c6565b6040516101939291906115d3565b60405180910390f35b3480156101a857600080fd5b506101c360048036038101906101be9190611283565b6106df565b6040516101d1929190611364565b60405180910390f35b3480156101e657600080fd5b506101ef6107a1565b6040516101fc9190611624565b60405180910390f35b34801561021157600080fd5b5061022c6004803603810190610227919061163f565b6107c5565b60405161023f979695949392919061166c565b60405180910390f35b610262600480360381019061025d919061163f565b61099f565b005b34801561027057600080fd5b5061028b600480360381019061028691906116f0565b610def565b005b34801561029957600080fd5b506102b460048036038101906102af9190611812565b610f44565b005b60008054906101000a900473ffffffffffffffffffffffffffffffffffffffff1673ffffffffffffffffffffffffffffffffffffffff163373ffffffffffffffffffffffffffffffffffffffff161461030e57600080fd5b60008060009054906101000a900473ffffffffffffffffffffffffffffffffffffffff1673ffffffffffffffffffffffffffffffffffffffff164760405161035590611870565b60006040518083038185875af1925050503d8060008114610392576040519150601f19603f3d011682016040523d82523d6000602084013e610397565b606091505b50509050806103a557600080fd5b50565b60606000806005846040516103bd91906118c1565b90815260200160405180910390206040518060400160405290816000820180546103e690611907565b80601f016020809104026020016040519081016040528092919081815260200182805461041290611907565b801561045f5780601f106104345761010080835404028352916020019161045f565b820191906000526020600020905b81548152906001019060200180831161044257829003601f168201915b505050505081526020016001820154815250509050806000015181602001519250925050915091565b600160009054906101000a900473ffffffffffffffffffffffffffffffffffffffff1681565b60046020528060005260406000206000915090505481565b600360205281600052604060002060205280600052604060002060009150915050806000015490806001016040518060e00160405290816000820154815260200160018201805461051690611907565b80601f016020809104026020016040519081016040528092919081815260200182805461054290611907565b801561058f5780601f106105645761010080835404028352916020019161058f565b820191906000526020600020905b81548152906001019060200180831161057257829003601f168201915b505050505081526020016002820180546105a890611907565b80601f01602080910402602001604051908101604052809291908181526020018280546105d490611907565b80156106215780601f106105f657610100808354040283529160200191610621565b820191906000526020600020905b81548152906001019060200180831161060457829003601f168201915b5050505050815260200160038201805461063a90611907565b80601f016020809104026020016040519081016040528092919081815260200182805461066690611907565b80156106b35780601f10610688576101008083540402835291602001916106b3565b820191906000526020600020905b81548152906001019060200180831161069657829003601f168201915b505050505081526020016004820154815260200160058201548152602001600682015481525050905082565b60058180516020810182018051848252602083016020850120818352809550505050505060009150905080600001805461071890611907565b80601f016020809104026020016040519081016040528092919081815260200182805461074490611907565b80156107915780601f1061076657610100808354040283529160200191610791565b820191906000526020600020905b81548152906001019060200180831161077457829003601f168201915b5050505050908060010154905082565b60008054906101000a900473ffffffffffffffffffffffffffffffffffffffff1681565b60026020528060005260406000206000915090508060000154908060010180546107ee90611907565b80601f016020809104026020016040519081016040528092919081815260200182805461081a90611907565b80156108675780601f1061083c57610100808354040283529160200191610867565b820191906000526020600020905b81548152906001019060200180831161084a57829003601f168201915b50505050509080600201805461087c90611907565b80601f01602080910402602001604051908101604052809291908181526020018280546108a890611907565b80156108f55780601f106108ca576101008083540402835291602001916108f5565b820191906000526020600020905b8154815290600101906020018083116108d857829003601f168201915b50505050509080600301805461090a90611907565b80601f016020809104026020016040519081016040528092919081815260200182805461093690611907565b80156109835780601f1061095857610100808354040283529160200191610983565b820191906000526020600020905b81548152906001019060200180831161096657829003601f168201915b5050505050908060040154908060050154908060060154905087565b6000600260008381526020019081526020016000206040518060e0016040529081600082015481526020016001820180546109d990611907565b80601f0160208091040260200160405190810160405280929190818152602001828054610a0590611907565b8015610a525780601f10610a2757610100808354040283529160200191610a52565b820191906000526020600020905b815481529060010190602001808311610a3557829003601f168201915b50505050508152602001600282018054610a6b90611907565b80601f0160208091040260200160405190810160405280929190818152602001828054610a9790611907565b8015610ae45780601f10610ab957610100808354040283529160200191610ae4565b820191906000526020600020905b815481529060010190602001808311610ac757829003601f168201915b50505050508152602001600382018054610afd90611907565b80601f0160208091040260200160405190810160405280929190818152602001828054610b2990611907565b8015610b765780601f10610b4b57610100808354040283529160200191610b76565b820191906000526020600020905b815481529060010190602001808311610b5957829003601f168201915b50505050508152602001600482015481526020016005820154815260200160068201548152505090508060800151341015610bb057600080fd5b60008160c0015111610bc157600080fd5b60006040518060400160405280428152602001838152509050600460003373ffffffffffffffffffffffffffffffffffffffff1673ffffffffffffffffffffffffffffffffffffffff1681526020019081526020016000206000815480929190610c2a90611967565b919050555080600360003373ffffffffffffffffffffffffffffffffffffffff1673ffffffffffffffffffffffffffffffffffffffff1681526020019081526020016000206000600460003373ffffffffffffffffffffffffffffffffffffffff1673ffffffffffffffffffffffffffffffffffffffff16815260200190815260200160002054815260200190815260200160002060008201518160000155602082015181600101600082015181600001556020820151816001019081610cf19190611b5b565b506040820151816002019081610d079190611b5b565b506060820151816003019081610d1d9190611b5b565b506080820151816004015560a0820151816005015560c08201518160060155505090505060018260c00151610d529190611c2d565b60026000858152602001908152602001600020600601819055507f1cbc5ab135991bd2b6a4b034a04aa2aa086dac1371cb9b16b8b5e2ed6b036bed33600460003373ffffffffffffffffffffffffffffffffffffffff1673ffffffffffffffffffffffffffffffffffffffff168152602001908152602001600020548460000151604051610de293929190611c61565b60405180910390a1505050565b60008054906101000a900473ffffffffffffffffffffffffffffffffffffffff1673ffffffffffffffffffffffffffffffffffffffff163373ffffffffffffffffffffffffffffffffffffffff1614610e4757600080fd5b60006040518060e0016040528089815260200188815260200187815260200186815260200185815260200184815260200183815250905080600260008a8152602001908152602001600020600082015181600001556020820151816001019081610eb19190611b5b565b506040820151816002019081610ec79190611b5b565b506060820151816003019081610edd9190611b5b565b506080820151816004015560a0820151816005015560c082015181600601559050507ffdbe2a012c10ec01592653978eaa09b5ca60b143a0e617505b2ebcbd911ec5b8878584604051610f3293929190611c98565b60405180910390a15050505050505050565b60008054906101000a900473ffffffffffffffffffffffffffffffffffffffff1673ffffffffffffffffffffffffffffffffffffffff163373ffffffffffffffffffffffffffffffffffffffff1614610f9c57600080fd5b600073ffffffffffffffffffffffffffffffffffffffff168173ffffffffffffffffffffffffffffffffffffffff160361100b576040517f08c379a000000000000000000000000000000000000000000000000000000000815260040161100290611d22565b60405180910390fd5b60008054906101000a900473ffffffffffffffffffffffffffffffffffffffff16600160006101000a81548173ffffffffffffffffffffffffffffffffffffffff021916908373ffffffffffffffffffffffffffffffffffffffff1602179055508073ffffffffffffffffffffffffffffffffffffffff1660008054906101000a900473ffffffffffffffffffffffffffffffffffffffff1673ffffffffffffffffffffffffffffffffffffffff167f8be0079c531659141344cd1fd0a4f28419497f9722a3daafe3b4186f6b6457e060405160405180910390a3806000806101000a81548173ffffffffffffffffffffffffffffffffffffffff021916908373ffffffffffffffffffffffffffffffffffffffff16021790555050565b6000604051905090565b600080fd5b600080fd5b600080fd5b600080fd5b6000601f19601f8301169050919050565b7f4e487b7100000000000000000000000000000000000000000000000000000000600052604160045260246000fd5b61119082611147565b810181811067ffffffffffffffff821117156111af576111ae611158565b5b80604052505050565b60006111c2611129565b90506111ce8282611187565b919050565b600067ffffffffffffffff8211156111ee576111ed611158565b5b6111f782611147565b9050602081019050919050565b82818337600083830152505050565b6000611226611221846111d3565b6111b8565b90508281526020810184848401111561124257611241611142565b5b61124d848285611204565b509392505050565b600082601f83011261126a5761126961113d565b5b813561127a848260208601611213565b91505092915050565b60006020828403121561129957611298611133565b5b600082013567ffffffffffffffff8111156112b7576112b6611138565b5b6112c384828501611255565b91505092915050565b600081519050919050565b600082825260208201905092915050565b60005b838110156113065780820151818401526020810190506112eb565b60008484015250505050565b600061131d826112cc565b61132781856112d7565b93506113378185602086016112e8565b61134081611147565b840191505092915050565b6000819050919050565b61135e8161134b565b82525050565b6000604082019050818103600083015261137e8185611312565b905061138d6020830184611355565b9392505050565b600073ffffffffffffffffffffffffffffffffffffffff82169050919050565b60006113bf82611394565b9050919050565b6113cf816113b4565b82525050565b60006020820190506113ea60008301846113c6565b92915050565b6113f9816113b4565b811461140457600080fd5b50565b600081359050611416816113f0565b92915050565b60006020828403121561143257611431611133565b5b600061144084828501611407565b91505092915050565b600060208201905061145e6000830184611355565b92915050565b61146d8161134b565b811461147857600080fd5b50565b60008135905061148a81611464565b92915050565b600080604083850312156114a7576114a6611133565b5b60006114b585828601611407565b92505060206114c68582860161147b565b9150509250929050565b6114d98161134b565b82525050565b600082825260208201905092915050565b60006114fb826112cc565b61150581856114df565b93506115158185602086016112e8565b61151e81611147565b840191505092915050565b600060e08301600083015161154160008601826114d0565b506020830151848203602086015261155982826114f0565b9150506040830151848203604086015261157382826114f0565b9150506060830151848203606086015261158d82826114f0565b91505060808301516115a260808601826114d0565b5060a08301516115b560a08601826114d0565b5060c08301516115c860c08601826114d0565b508091505092915050565b60006040820190506115e86000830185611355565b81810360208301526115fa8184611529565b90509392505050565b600061160e82611394565b9050919050565b61161e81611603565b82525050565b60006020820190506116396000830184611615565b92915050565b60006020828403121561165557611654611133565b5b60006116638482850161147b565b91505092915050565b600060e082019050611681600083018a611355565b81810360208301526116938189611312565b905081810360408301526116a78188611312565b905081810360608301526116bb8187611312565b90506116ca6080830186611355565b6116d760a0830185611355565b6116e460c0830184611355565b98975050505050505050565b600080600080600080600060e0888a03121561170f5761170e611133565b5b600061171d8a828b0161147b565b975050602088013567ffffffffffffffff81111561173e5761173d611138565b5b61174a8a828b01611255565b965050604088013567ffffffffffffffff81111561176b5761176a611138565b5b6117778a828b01611255565b955050606088013567ffffffffffffffff81111561179857611797611138565b5b6117a48a828b01611255565b94505060806117b58a828b0161147b565b93505060a06117c68a828b0161147b565b92505060c06117d78a828b0161147b565b91505092959891949750929550565b6117ef81611603565b81146117fa57600080fd5b50565b60008135905061180c816117e6565b92915050565b60006020828403121561182857611827611133565b5b6000611836848285016117fd565b91505092915050565b600081905092915050565b50565b600061185a60008361183f565b91506118658261184a565b600082019050919050565b600061187b8261184d565b9150819050919050565b600081905092915050565b600061189b826112cc565b6118a58185611885565b93506118b58185602086016112e8565b80840191505092915050565b60006118cd8284611890565b915081905092915050565b7f4e487b7100000000000000000000000000000000000000000000000000000000600052602260045260246000fd5b6000600282049050600182168061191f57607f821691505b602082108103611932576119316118d8565b5b50919050565b7f4e487b7100000000000000000000000000000000000000000000000000000000600052601160045260246000fd5b60006119728261134b565b91507fffffffffffffffffffffffffffffffffffffffffffffffffffffffffffffffff82036119a4576119a3611938565b5b600182019050919050565b60008190508160005260206000209050919050565b60006020601f8301049050919050565b600082821b905092915050565b600060088302611a117fffffffffffffffffffffffffffffffffffffffffffffffffffffffffffffffff826119d4565b611a1b86836119d4565b95508019841693508086168417925050509392505050565b6000819050919050565b6000611a58611a53611a4e8461134b565b611a33565b61134b565b9050919050565b6000819050919050565b611a7283611a3d565b611a86611a7e82611a5f565b8484546119e1565b825550505050565b600090565b611a9b611a8e565b611aa6818484611a69565b505050565b5b81811015611aca57611abf600082611a93565b600181019050611aac565b5050565b601f821115611b0f57611ae0816119af565b611ae9846119c4565b81016020851015611af8578190505b611b0c611b04856119c4565b830182611aab565b50505b505050565b600082821c905092915050565b6000611b3260001984600802611b14565b1980831691505092915050565b6000611b4b8383611b21565b9150826002028217905092915050565b611b64826112cc565b67ffffffffffffffff811115611b7d57611b7c611158565b5b611b878254611907565b611b92828285611ace565b600060209050601f831160018114611bc55760008415611bb3578287015190505b611bbd8582611b3f565b865550611c25565b601f198416611bd3866119af565b60005b82811015611bfb57848901518255600182019150602085019450602081019050611bd6565b86831015611c185784890151611c14601f891682611b21565b8355505b6001600288020188555050505b505050505050565b6000611c388261134b565b9150611c438361134b565b9250828203905081811115611c5b57611c5a611938565b5b92915050565b6000606082019050611c7660008301866113c6565b611c836020830185611355565b611c906040830184611355565b949350505050565b60006060820190508181036000830152611cb28186611312565b9050611cc16020830185611355565b611cce6040830184611355565b949350505050565b7f4e6577206f776e657220697320746865207a65726f2061646472657373000000600082015250565b6000611d0c601d836112d7565b9150611d1782611cd6565b602082019050919050565b60006020820190508181036000830152611d3b81611cff565b905091905056fea2646970667358221220518954090ef23b4c83d5724453ba5134a6d06b2187b1ef7ad4f233bb1eb283d664736f6c634300081b0033",
  "linkReferences": {},
  "deployedLinkReferences": {}
}