{
  "_format": "hh-sol-artifact-1",
  "contractName": "ProductManagement",
  "sourceName": "contracts/ProductManagement.sol",
  "abi": [
    {
      "inputs": [],
      "stateMutability": "nonpayable",
      "type": "constructor"
    },
    {
      "anonymous": false,
      "inputs": [
        {
          "indexed": false,
          "internalType": "uint256",
          "name": "itemId",
          "type": "uint256"
        },
        {
          "indexed": false,
          "internalType": "address",
          "name": "buyer",
          "type": "address"
        },
        {
          "indexed": false,
          "internalType": "uint256",
          "name": "cost",
          "type": "uint256"
        }
      ],
      "name": "ItemBought",
      "type": "event"
    },
    {
      "anonymous": false,
      "inputs": [
        {
          "indexed": false,
          "internalType": "uint256",
          "name": "productId",
          "type": "uint256"
        },
        {
          "indexed": false,
          "internalType": "string",
          "name": "name",
          "type": "string"
        },
        {
          "indexed": false,
          "internalType": "uint256",
          "name": "cost",
          "type": "uint256"
        },
        {
          "indexed": false,
          "internalType": "uint256",
          "name": "stock",
          "type": "uint256"
        }
      ],
      "name": "ProductCreated",
      "type": "event"
    },
    {
      "anonymous": false,
      "inputs": [
        {
          "indexed": false,
          "internalType": "uint256",
          "name": "itemId",
          "type": "uint256"
        },
        {
          "indexed": false,
          "internalType": "uint256",
          "name": "productId",
          "type": "uint256"
        }
      ],
      "name": "ProductDelivered",
      "type": "event"
    },
    {
      "anonymous": false,
      "inputs": [
        {
          "indexed": false,
          "internalType": "uint256",
          "name": "itemId",
          "type": "uint256"
        },
        {
          "indexed": false,
          "internalType": "string",
          "name": "rfidTag",
          "type": "string"
        }
      ],
      "name": "RFIDAssigned",
      "type": "event"
    },
    {
      "anonymous": false,
      "inputs": [
        {
          "indexed": false,
          "internalType": "string",
          "name": "rfidTag",
          "type": "string"
        }
      ],
      "name": "RFIDReleased",
      "type": "event"
    },
    {
      "anonymous": false,
      "inputs": [
        {
          "indexed": false,
          "internalType": "uint256",
          "name": "productId",
          "type": "uint256"
        },
        {
          "indexed": false,
          "internalType": "uint256",
          "name": "stockAdded",
          "type": "uint256"
        }
      ],
      "name": "StockUpdated",
      "type": "event"
    },
    {
      "inputs": [
        {
          "internalType": "uint256",
          "name": "_productId",
          "type": "uint256"
        },
        {
          "internalType": "uint256",
          "name": "_stockToAdd",
          "type": "uint256"
        }
      ],
      "name": "addStock",
      "outputs": [],
      "stateMutability": "nonpayable",
      "type": "function"
    },
    {
      "inputs": [
        {
          "internalType": "uint256",
          "name": "_itemId",
          "type": "uint256"
        },
        {
          "internalType": "string",
          "name": "_rfidTag",
          "type": "string"
        }
      ],
      "name": "assignRFID",
      "outputs": [],
      "stateMutability": "nonpayable",
      "type": "function"
    },
    {
      "inputs": [
        {
          "internalType": "uint256",
          "name": "_itemId",
          "type": "uint256"
        }
      ],
      "name": "buyItem",
      "outputs": [],
      "stateMutability": "payable",
      "type": "function"
    },
    {
      "inputs": [
        {
          "internalType": "uint256",
          "name": "_productId",
          "type": "uint256"
        },
        {
          "internalType": "string",
          "name": "_name",
          "type": "string"
        },
        {
          "internalType": "string",
          "name": "_category",
          "type": "string"
        },
        {
          "internalType": "string",
          "name": "_image",
          "type": "string"
        },
        {
          "internalType": "uint256",
          "name": "_cost",
          "type": "uint256"
        },
        {
          "internalType": "uint256",
          "name": "_rating",
          "type": "uint256"
        }
      ],
      "name": "createProduct",
      "outputs": [],
      "stateMutability": "nonpayable",
      "type": "function"
    },
    {
      "inputs": [
        {
          "internalType": "uint256",
          "name": "_itemId",
          "type": "uint256"
        }
      ],
      "name": "getItem",
      "outputs": [
        {
          "components": [
            {
              "internalType": "uint256",
              "name": "itemId",
              "type": "uint256"
            },
            {
              "internalType": "uint256",
              "name": "productId",
              "type": "uint256"
            },
            {
              "internalType": "string",
              "name": "rfidTag",
              "type": "string"
            },
            {
              "internalType": "address",
              "name": "currentOwner",
              "type": "address"
            },
            {
              "internalType": "bool",
              "name": "delivered",
              "type": "bool"
            }
          ],
          "internalType": "struct ProductManagement.Item",
          "name": "",
          "type": "tuple"
        }
      ],
      "stateMutability": "view",
      "type": "function"
    },
    {
      "inputs": [
        {
          "internalType": "uint256",
          "name": "_productId",
          "type": "uint256"
        }
      ],
      "name": "getProduct",
      "outputs": [
        {
          "components": [
            {
              "internalType": "uint256",
              "name": "productId",
              "type": "uint256"
            },
            {
              "internalType": "string",
              "name": "name",
              "type": "string"
            },
            {
              "internalType": "string",
              "name": "category",
              "type": "string"
            },
            {
              "internalType": "string",
              "name": "image",
              "type": "string"
            },
            {
              "internalType": "uint256",
              "name": "cost",
              "type": "uint256"
            },
            {
              "internalType": "uint256",
              "name": "rating",
              "type": "uint256"
            },
            {
              "internalType": "uint256",
              "name": "stock",
              "type": "uint256"
            }
          ],
          "internalType": "struct ProductManagement.Product",
          "name": "",
          "type": "tuple"
        }
      ],
      "stateMutability": "view",
      "type": "function"
    },
    {
      "inputs": [
        {
          "internalType": "uint256",
          "name": "",
          "type": "uint256"
        }
      ],
      "name": "items",
      "outputs": [
        {
          "internalType": "uint256",
          "name": "itemId",
          "type": "uint256"
        },
        {
          "internalType": "uint256",
          "name": "productId",
          "type": "uint256"
        },
        {
          "internalType": "string",
          "name": "rfidTag",
          "type": "string"
        },
        {
          "internalType": "address",
          "name": "currentOwner",
          "type": "address"
        },
        {
          "internalType": "bool",
          "name": "delivered",
          "type": "bool"
        }
      ],
      "stateMutability": "view",
      "type": "function"
    },
    {
      "inputs": [
        {
          "internalType": "uint256",
          "name": "_itemId",
          "type": "uint256"
        }
      ],
      "name": "markDelivered",
      "outputs": [],
      "stateMutability": "nonpayable",
      "type": "function"
    },
    {
      "inputs": [],
      "name": "owner",
      "outputs": [
        {
          "internalType": "address",
          "name": "",
          "type": "address"
        }
      ],
      "stateMutability": "view",
      "type": "function"
    },
    {
      "inputs": [
        {
          "internalType": "uint256",
          "name": "",
          "type": "uint256"
        }
      ],
      "name": "products",
      "outputs": [
        {
          "internalType": "uint256",
          "name": "productId",
          "type": "uint256"
        },
        {
          "internalType": "string",
          "name": "name",
          "type": "string"
        },
        {
          "internalType": "string",
          "name": "category",
          "type": "string"
        },
        {
          "internalType": "string",
          "name": "image",
          "type": "string"
        },
        {
          "internalType": "uint256",
          "name": "cost",
          "type": "uint256"
        },
        {
          "internalType": "uint256",
          "name": "rating",
          "type": "uint256"
        },
        {
          "internalType": "uint256",
          "name": "stock",
          "type": "uint256"
        }
      ],
      "stateMutability": "view",
      "type": "function"
    },
    {
      "inputs": [
        {
          "internalType": "string",
          "name": "_rfidTag",
          "type": "string"
        }
      ],
      "name": "releaseRFID",
      "outputs": [],
      "stateMutability": "nonpayable",
      "type": "function"
    },
    {
      "inputs": [
        {
          "internalType": "string",
          "name": "",
          "type": "string"
        }
      ],
      "name": "rfidToItemId",
      "outputs": [
        {
          "internalType": "uint256",
          "name": "",
          "type": "uint256"
        }
      ],
      "stateMutability": "view",
      "type": "function"
    }
  ],
  "bytecode": "0x6080604052348015600f57600080fd5b50336000806101000a81548173ffffffffffffffffffffffffffffffffffffffff021916908373ffffffffffffffffffffffffffffffffffffffff1602179055506127868061005f6000396000f3fe6080604052600436106100a75760003560e01c80638da5cb5b116100645780638da5cb5b146101e4578063b9db15b41461020f578063bfb231d21461024c578063c38cae9f1461028d578063e7fb74c7146102b6578063eb826a5f146102d2576100a7565b8063136726b6146100ac5780633129e773146100e957806340c9c8701461012657806348e9339e1461014f5780637acc0b20146101785780637edd19a2146101bb575b600080fd5b3480156100b857600080fd5b506100d360048036038101906100ce9190611757565b6102fb565b6040516100e091906117b9565b60405180910390f35b3480156100f557600080fd5b50610110600480360381019061010b9190611800565b610329565b60405161011d919061198d565b60405180910390f35b34801561013257600080fd5b5061014d60048036038101906101489190611757565b61046d565b005b34801561015b57600080fd5b50610176600480360381019061017191906119af565b61064a565b005b34801561018457600080fd5b5061019f600480360381019061019a9190611800565b610830565b6040516101b29796959493929190611ada565b60405180910390f35b3480156101c757600080fd5b506101e260048036038101906101dd9190611b5e565b610a0a565b005b3480156101f057600080fd5b506101f9610cd6565b6040516102069190611bad565b60405180910390f35b34801561021b57600080fd5b5061023660048036038101906102319190611800565b610cfa565b6040516102439190611c72565b60405180910390f35b34801561025857600080fd5b50610273600480360381019061026e9190611800565b610f05565b604051610284959493929190611ca3565b60405180910390f35b34801561029957600080fd5b506102b460048036038101906102af9190611cfd565b610ff0565b005b6102d060048036038101906102cb9190611800565b611205565b005b3480156102de57600080fd5b506102f960048036038101906102f49190611800565b6113ba565b005b6003818051602081018201805184825260208301602085012081835280955050505050506000915090505481565b610331611579565b600260008381526020019081526020016000206040518060a0016040529081600082015481526020016001820154815260200160028201805461037390611d88565b80601f016020809104026020016040519081016040528092919081815260200182805461039f90611d88565b80156103ec5780601f106103c1576101008083540402835291602001916103ec565b820191906000526020600020905b8154815290600101906020018083116103cf57829003601f168201915b505050505081526020016003820160009054906101000a900473ffffffffffffffffffffffffffffffffffffffff1673ffffffffffffffffffffffffffffffffffffffff1673ffffffffffffffffffffffffffffffffffffffff1681526020016003820160149054906101000a900460ff1615151515815250509050919050565b60008054906101000a900473ffffffffffffffffffffffffffffffffffffffff1673ffffffffffffffffffffffffffffffffffffffff163373ffffffffffffffffffffffffffffffffffffffff16146104fb576040517f08c379a00000000000000000000000000000000000000000000000000000000081526004016104f290611e05565b60405180910390fd5b600060038260405161050d9190611e61565b908152602001604051809103902054905060008103610561576040517f08c379a000000000000000000000000000000000000000000000000000000000815260040161055890611eea565b60405180910390fd5b60006002600083815260200190815260200160002090508060030160149054906101000a900460ff166105c9576040517f08c379a00000000000000000000000000000000000000000000000000000000081526004016105c090611f56565b60405180910390fd5b604051806020016040528060008152508160020190816105e99190612122565b5060006003846040516105fc9190611e61565b9081526020016040518091039020819055507fb678c65d8fdb784b80cde63f565d4fdf781de948e8ad5aa6215a05fe2c624edf8360405161063d91906121f4565b60405180910390a1505050565b60008054906101000a900473ffffffffffffffffffffffffffffffffffffffff1673ffffffffffffffffffffffffffffffffffffffff163373ffffffffffffffffffffffffffffffffffffffff16146106d8576040517f08c379a00000000000000000000000000000000000000000000000000000000081526004016106cf90611e05565b60405180910390fd5b85600160008881526020019081526020016000206000015403610730576040517f08c379a000000000000000000000000000000000000000000000000000000000815260040161072790612262565b60405180910390fd5b60006040518060e0016040528088815260200187815260200186815260200185815260200184815260200183815260200160008152509050806001600089815260200190815260200160002060008201518160000155602082015181600101908161079b9190612122565b5060408201518160020190816107b19190612122565b5060608201518160030190816107c79190612122565b506080820151816004015560a0820151816005015560c082015181600601559050507f8d3d82130aebba03bb48b5d158bc2bbb4647856765b1089e7250507307965af9878785600060405161081f94939291906122bd565b60405180910390a150505050505050565b600160205280600052604060002060009150905080600001549080600101805461085990611d88565b80601f016020809104026020016040519081016040528092919081815260200182805461088590611d88565b80156108d25780601f106108a7576101008083540402835291602001916108d2565b820191906000526020600020905b8154815290600101906020018083116108b557829003601f168201915b5050505050908060020180546108e790611d88565b80601f016020809104026020016040519081016040528092919081815260200182805461091390611d88565b80156109605780601f1061093557610100808354040283529160200191610960565b820191906000526020600020905b81548152906001019060200180831161094357829003601f168201915b50505050509080600301805461097590611d88565b80601f01602080910402602001604051908101604052809291908181526020018280546109a190611d88565b80156109ee5780601f106109c3576101008083540402835291602001916109ee565b820191906000526020600020905b8154815290600101906020018083116109d157829003601f168201915b5050505050908060040154908060050154908060060154905087565b60008054906101000a900473ffffffffffffffffffffffffffffffffffffffff1673ffffffffffffffffffffffffffffffffffffffff163373ffffffffffffffffffffffffffffffffffffffff1614610a98576040517f08c379a0000000000000000000000000000000000000000000000000000000008152600401610a8f90611e05565b60405180910390fd5b81600160008481526020019081526020016000206000015414610af0576040517f08c379a0000000000000000000000000000000000000000000000000000000008152600401610ae790612355565b60405180910390fd5b600060016000848152602001908152602001600020905060008160060154905060005b83811015610c9657600042868385610b2b91906123a4565b604051602001610b3d939291906123f9565b6040516020818303038152906040528051906020012060001c90506040518060a0016040528082815260200187815260200160405180602001604052806000815250815260200160008054906101000a900473ffffffffffffffffffffffffffffffffffffffff1673ffffffffffffffffffffffffffffffffffffffff168152602001600015158152506002600083815260200190815260200160002060008201518160000155602082015181600101556040820151816002019081610c039190612122565b5060608201518160030160006101000a81548173ffffffffffffffffffffffffffffffffffffffff021916908373ffffffffffffffffffffffffffffffffffffffff16021790555060808201518160030160146101000a81548160ff021916908315150217905550905050836006016000815480929190610c8390612436565b9190505550508080600101915050610b13565b507febcfd4ce21b6aefd071d3e0f4bfa57e491b5308a1ffb5a3a8e4805e23f00b8d78484604051610cc892919061247e565b60405180910390a150505050565b60008054906101000a900473ffffffffffffffffffffffffffffffffffffffff1681565b610d026115c0565b600160008381526020019081526020016000206040518060e001604052908160008201548152602001600182018054610d3a90611d88565b80601f0160208091040260200160405190810160405280929190818152602001828054610d6690611d88565b8015610db35780601f10610d8857610100808354040283529160200191610db3565b820191906000526020600020905b815481529060010190602001808311610d9657829003601f168201915b50505050508152602001600282018054610dcc90611d88565b80601f0160208091040260200160405190810160405280929190818152602001828054610df890611d88565b8015610e455780601f10610e1a57610100808354040283529160200191610e45565b820191906000526020600020905b815481529060010190602001808311610e2857829003601f168201915b50505050508152602001600382018054610e5e90611d88565b80601f0160208091040260200160405190810160405280929190818152602001828054610e8a90611d88565b8015610ed75780601f10610eac57610100808354040283529160200191610ed7565b820191906000526020600020905b815481529060010190602001808311610eba57829003601f168201915b5050505050815260200160048201548152602001600582015481526020016006820154815250509050919050565b6002602052806000526040600020600091509050806000015490806001015490806002018054610f3490611d88565b80601f0160208091040260200160405190810160405280929190818152602001828054610f6090611d88565b8015610fad5780601f10610f8257610100808354040283529160200191610fad565b820191906000526020600020905b815481529060010190602001808311610f9057829003601f168201915b5050505050908060030160009054906101000a900473ffffffffffffffffffffffffffffffffffffffff16908060030160149054906101000a900460ff16905085565b60008054906101000a900473ffffffffffffffffffffffffffffffffffffffff1673ffffffffffffffffffffffffffffffffffffffff163373ffffffffffffffffffffffffffffffffffffffff161461107e576040517f08c379a000000000000000000000000000000000000000000000000000000000815260040161107590611e05565b60405180910390fd5b816002600084815260200190815260200160002060000154146110d6576040517f08c379a00000000000000000000000000000000000000000000000000000000081526004016110cd906124f3565b60405180910390fd5b600081511161111a576040517f08c379a00000000000000000000000000000000000000000000000000000000081526004016111119061255f565b60405180910390fd5b600060038260405161112c9190611e61565b9081526020016040518091039020541461117b576040517f08c379a0000000000000000000000000000000000000000000000000000000008152600401611172906125f1565b60405180910390fd5b6000600260008481526020019081526020016000209050818160020190816111a39190612122565b50826003836040516111b59190611e61565b9081526020016040518091039020819055507f455dcb05772163fb704eb1fb314e6f1a9513db7a4f61f49d0767a3f0de77e32283836040516111f8929190612611565b60405180910390a1505050565b60006002600083815260200190815260200160002090506000600160008360010154815260200190815260200160002090508282600001541461127d576040517f08c379a0000000000000000000000000000000000000000000000000000000008152600401611274906124f3565b60405180910390fd5b8160030160149054906101000a900460ff16156112cf576040517f08c379a00000000000000000000000000000000000000000000000000000000081526004016112c69061268d565b60405180910390fd5b8060040154341015611316576040517f08c379a000000000000000000000000000000000000000000000000000000000815260040161130d906126f9565b60405180910390fd5b338260030160006101000a81548173ffffffffffffffffffffffffffffffffffffffff021916908373ffffffffffffffffffffffffffffffffffffffff16021790555060008260030160146101000a81548160ff0219169083151502179055507fd73457218f6ab2c74e548247b8ccd99af11d7975e2beef89a0cd9743fb558da4833383600401546040516113ad93929190612719565b60405180910390a1505050565b60008054906101000a900473ffffffffffffffffffffffffffffffffffffffff1673ffffffffffffffffffffffffffffffffffffffff163373ffffffffffffffffffffffffffffffffffffffff1614611448576040517f08c379a000000000000000000000000000000000000000000000000000000000815260040161143f90611e05565b60405180910390fd5b806002600083815260200190815260200160002060000154146114a0576040517f08c379a0000000000000000000000000000000000000000000000000000000008152600401611497906124f3565b60405180910390fd5b6002600082815260200190815260200160002060030160149054906101000a900460ff1615611504576040517f08c379a00000000000000000000000000000000000000000000000000000000081526004016114fb9061268d565b60405180910390fd5b600060026000838152602001908152602001600020905060018160030160146101000a81548160ff0219169083151502179055507f26b22e11bb82e495373f9064c9f1db3c19dd810594822900684274cfd7f7a95582826001015460405161156d92919061247e565b60405180910390a15050565b6040518060a00160405280600081526020016000815260200160608152602001600073ffffffffffffffffffffffffffffffffffffffff1681526020016000151581525090565b6040518060e00160405280600081526020016060815260200160608152602001606081526020016000815260200160008152602001600081525090565b6000604051905090565b600080fd5b600080fd5b600080fd5b600080fd5b6000601f19601f8301169050919050565b7f4e487b7100000000000000000000000000000000000000000000000000000000600052604160045260246000fd5b6116648261161b565b810181811067ffffffffffffffff821117156116835761168261162c565b5b80604052505050565b60006116966115fd565b90506116a2828261165b565b919050565b600067ffffffffffffffff8211156116c2576116c161162c565b5b6116cb8261161b565b9050602081019050919050565b82818337600083830152505050565b60006116fa6116f5846116a7565b61168c565b90508281526020810184848401111561171657611715611616565b5b6117218482856116d8565b509392505050565b600082601f83011261173e5761173d611611565b5b813561174e8482602086016116e7565b91505092915050565b60006020828403121561176d5761176c611607565b5b600082013567ffffffffffffffff81111561178b5761178a61160c565b5b61179784828501611729565b91505092915050565b6000819050919050565b6117b3816117a0565b82525050565b60006020820190506117ce60008301846117aa565b92915050565b6117dd816117a0565b81146117e857600080fd5b50565b6000813590506117fa816117d4565b92915050565b60006020828403121561181657611815611607565b5b6000611824848285016117eb565b91505092915050565b611836816117a0565b82525050565b600081519050919050565b600082825260208201905092915050565b60005b8381101561187657808201518184015260208101905061185b565b60008484015250505050565b600061188d8261183c565b6118978185611847565b93506118a7818560208601611858565b6118b08161161b565b840191505092915050565b600073ffffffffffffffffffffffffffffffffffffffff82169050919050565b60006118e6826118bb565b9050919050565b6118f6816118db565b82525050565b60008115159050919050565b611911816118fc565b82525050565b600060a08301600083015161192f600086018261182d565b506020830151611942602086018261182d565b506040830151848203604086015261195a8282611882565b915050606083015161196f60608601826118ed565b5060808301516119826080860182611908565b508091505092915050565b600060208201905081810360008301526119a78184611917565b905092915050565b60008060008060008060c087890312156119cc576119cb611607565b5b60006119da89828a016117eb565b965050602087013567ffffffffffffffff8111156119fb576119fa61160c565b5b611a0789828a01611729565b955050604087013567ffffffffffffffff811115611a2857611a2761160c565b5b611a3489828a01611729565b945050606087013567ffffffffffffffff811115611a5557611a5461160c565b5b611a6189828a01611729565b9350506080611a7289828a016117eb565b92505060a0611a8389828a016117eb565b9150509295509295509295565b600082825260208201905092915050565b6000611aac8261183c565b611ab68185611a90565b9350611ac6818560208601611858565b611acf8161161b565b840191505092915050565b600060e082019050611aef600083018a6117aa565b8181036020830152611b018189611aa1565b90508181036040830152611b158188611aa1565b90508181036060830152611b298187611aa1565b9050611b3860808301866117aa565b611b4560a08301856117aa565b611b5260c08301846117aa565b98975050505050505050565b60008060408385031215611b7557611b74611607565b5b6000611b83858286016117eb565b9250506020611b94858286016117eb565b9150509250929050565b611ba7816118db565b82525050565b6000602082019050611bc26000830184611b9e565b92915050565b600060e083016000830151611be0600086018261182d565b5060208301518482036020860152611bf88282611882565b91505060408301518482036040860152611c128282611882565b91505060608301518482036060860152611c2c8282611882565b9150506080830151611c41608086018261182d565b5060a0830151611c5460a086018261182d565b5060c0830151611c6760c086018261182d565b508091505092915050565b60006020820190508181036000830152611c8c8184611bc8565b905092915050565b611c9d816118fc565b82525050565b600060a082019050611cb860008301886117aa565b611cc560208301876117aa565b8181036040830152611cd78186611aa1565b9050611ce66060830185611b9e565b611cf36080830184611c94565b9695505050505050565b60008060408385031215611d1457611d13611607565b5b6000611d22858286016117eb565b925050602083013567ffffffffffffffff811115611d4357611d4261160c565b5b611d4f85828601611729565b9150509250929050565b7f4e487b7100000000000000000000000000000000000000000000000000000000600052602260045260246000fd5b60006002820490506001821680611da057607f821691505b602082108103611db357611db2611d59565b5b50919050565b7f4e6f7420617574686f72697a6564000000000000000000000000000000000000600082015250565b6000611def600e83611a90565b9150611dfa82611db9565b602082019050919050565b60006020820190508181036000830152611e1e81611de2565b9050919050565b600081905092915050565b6000611e3b8261183c565b611e458185611e25565b9350611e55818560208601611858565b80840191505092915050565b6000611e6d8284611e30565b915081905092915050565b7f5246494420746167206e6f74206173736f636961746564207769746820616e7960008201527f206974656d000000000000000000000000000000000000000000000000000000602082015250565b6000611ed4602583611a90565b9150611edf82611e78565b604082019050919050565b60006020820190508181036000830152611f0381611ec7565b9050919050565b7f4974656d206e6f74207965742064656c69766572656400000000000000000000600082015250565b6000611f40601683611a90565b9150611f4b82611f0a565b602082019050919050565b60006020820190508181036000830152611f6f81611f33565b9050919050565b60008190508160005260206000209050919050565b60006020601f8301049050919050565b600082821b905092915050565b600060088302611fd87fffffffffffffffffffffffffffffffffffffffffffffffffffffffffffffffff82611f9b565b611fe28683611f9b565b95508019841693508086168417925050509392505050565b6000819050919050565b600061201f61201a612015846117a0565b611ffa565b6117a0565b9050919050565b6000819050919050565b61203983612004565b61204d61204582612026565b848454611fa8565b825550505050565b600090565b612062612055565b61206d818484612030565b505050565b5b818110156120915761208660008261205a565b600181019050612073565b5050565b601f8211156120d6576120a781611f76565b6120b084611f8b565b810160208510156120bf578190505b6120d36120cb85611f8b565b830182612072565b50505b505050565b600082821c905092915050565b60006120f9600019846008026120db565b1980831691505092915050565b600061211283836120e8565b9150826002028217905092915050565b61212b8261183c565b67ffffffffffffffff8111156121445761214361162c565b5b61214e8254611d88565b612159828285612095565b600060209050601f83116001811461218c576000841561217a578287015190505b6121848582612106565b8655506121ec565b601f19841661219a86611f76565b60005b828110156121c25784890151825560018201915060208501945060208101905061219d565b868310156121df57848901516121db601f8916826120e8565b8355505b6001600288020188555050505b505050505050565b6000602082019050818103600083015261220e8184611aa1565b905092915050565b7f50726f6475637420494420616c72656164792065786973747300000000000000600082015250565b600061224c601983611a90565b915061225782612216565b602082019050919050565b6000602082019050818103600083015261227b8161223f565b9050919050565b6000819050919050565b60006122a76122a261229d84612282565b611ffa565b6117a0565b9050919050565b6122b78161228c565b82525050565b60006080820190506122d260008301876117aa565b81810360208301526122e48186611aa1565b90506122f360408301856117aa565b61230060608301846122ae565b95945050505050565b7f50726f6475637420646f6573206e6f7420657869737400000000000000000000600082015250565b600061233f601683611a90565b915061234a82612309565b602082019050919050565b6000602082019050818103600083015261236e81612332565b9050919050565b7f4e487b7100000000000000000000000000000000000000000000000000000000600052601160045260246000fd5b60006123af826117a0565b91506123ba836117a0565b92508282019050808211156123d2576123d1612375565b5b92915050565b6000819050919050565b6123f36123ee826117a0565b6123d8565b82525050565b600061240582866123e2565b60208201915061241582856123e2565b60208201915061242582846123e2565b602082019150819050949350505050565b6000612441826117a0565b91507fffffffffffffffffffffffffffffffffffffffffffffffffffffffffffffffff820361247357612472612375565b5b600182019050919050565b600060408201905061249360008301856117aa565b6124a060208301846117aa565b9392505050565b7f4974656d20646f6573206e6f7420657869737400000000000000000000000000600082015250565b60006124dd601383611a90565b91506124e8826124a7565b602082019050919050565b6000602082019050818103600083015261250c816124d0565b9050919050565b7f496e76616c696420524649442074616700000000000000000000000000000000600082015250565b6000612549601083611a90565b915061255482612513565b602082019050919050565b600060208201905081810360008301526125788161253c565b9050919050565b7f524649442074616720616c72656164792061737369676e656420746f20616e6f60008201527f74686572206974656d0000000000000000000000000000000000000000000000602082015250565b60006125db602983611a90565b91506125e68261257f565b604082019050919050565b6000602082019050818103600083015261260a816125ce565b9050919050565b600060408201905061262660008301856117aa565b81810360208301526126388184611aa1565b90509392505050565b7f4974656d20616c72656164792064656c69766572656400000000000000000000600082015250565b6000612677601683611a90565b915061268282612641565b602082019050919050565b600060208201905081810360008301526126a68161266a565b9050919050565b7f496e73756666696369656e742066756e64730000000000000000000000000000600082015250565b60006126e3601283611a90565b91506126ee826126ad565b602082019050919050565b60006020820190508181036000830152612712816126d6565b9050919050565b600060608201905061272e60008301866117aa565b61273b6020830185611b9e565b61274860408301846117aa565b94935050505056fea26469706673582212207c3410234e7285c021662cdbb02ab998293d99d618f4ca63a8d541e19c413cb864736f6c634300081b0033",
  "linkReferences": {},
  "deployedLinkReferences": {}
}