{
  "_format": "hh-sol-artifact-1",
  "contractName": "ProductManagement",
  "sourceName": "contracts/ProductManagement.sol",
  "abi": [
    {
      "inputs": [],
      "stateMutability": "nonpayable",
      "type": "constructor"
    },
    {
      "anonymous": false,
      "inputs": [
        {
          "indexed": false,
          "internalType": "uint256",
          "name": "id",
          "type": "uint256"
        },
        {
          "indexed": false,
          "internalType": "string",
          "name": "name",
          "type": "string"
        },
        {
          "indexed": false,
          "internalType": "uint256",
          "name": "cost",
          "type": "uint256"
        },
        {
          "indexed": false,
          "internalType": "uint256",
          "name": "stock",
          "type": "uint256"
        }
      ],
      "name": "ItemListed",
      "type": "event"
    },
    {
      "anonymous": false,
      "inputs": [
        {
          "indexed": false,
          "internalType": "uint256",
          "name": "id",
          "type": "uint256"
        },
        {
          "indexed": false,
          "internalType": "uint256",
          "name": "stock",
          "type": "uint256"
        }
      ],
      "name": "ItemUpdated",
      "type": "event"
    },
    {
      "inputs": [
        {
          "internalType": "uint256",
          "name": "_id",
          "type": "uint256"
        }
      ],
      "name": "getItem",
      "outputs": [
        {
          "components": [
            {
              "internalType": "uint256",
              "name": "id",
              "type": "uint256"
            },
            {
              "internalType": "string",
              "name": "name",
              "type": "string"
            },
            {
              "internalType": "string",
              "name": "category",
              "type": "string"
            },
            {
              "internalType": "string",
              "name": "image",
              "type": "string"
            },
            {
              "internalType": "uint256",
              "name": "cost",
              "type": "uint256"
            },
            {
              "internalType": "uint256",
              "name": "rating",
              "type": "uint256"
            },
            {
              "internalType": "uint256",
              "name": "stock",
              "type": "uint256"
            },
            {
              "internalType": "string",
              "name": "rfidTag",
              "type": "string"
            }
          ],
          "internalType": "struct ProductManagement.Item",
          "name": "",
          "type": "tuple"
        }
      ],
      "stateMutability": "view",
      "type": "function"
    },
    {
      "inputs": [
        {
          "internalType": "uint256",
          "name": "",
          "type": "uint256"
        }
      ],
      "name": "items",
      "outputs": [
        {
          "internalType": "uint256",
          "name": "id",
          "type": "uint256"
        },
        {
          "internalType": "string",
          "name": "name",
          "type": "string"
        },
        {
          "internalType": "string",
          "name": "category",
          "type": "string"
        },
        {
          "internalType": "string",
          "name": "image",
          "type": "string"
        },
        {
          "internalType": "uint256",
          "name": "cost",
          "type": "uint256"
        },
        {
          "internalType": "uint256",
          "name": "rating",
          "type": "uint256"
        },
        {
          "internalType": "uint256",
          "name": "stock",
          "type": "uint256"
        },
        {
          "internalType": "string",
          "name": "rfidTag",
          "type": "string"
        }
      ],
      "stateMutability": "view",
      "type": "function"
    },
    {
      "inputs": [
        {
          "internalType": "uint256",
          "name": "_id",
          "type": "uint256"
        },
        {
          "internalType": "string",
          "name": "_name",
          "type": "string"
        },
        {
          "internalType": "string",
          "name": "_category",
          "type": "string"
        },
        {
          "internalType": "string",
          "name": "_image",
          "type": "string"
        },
        {
          "internalType": "uint256",
          "name": "_cost",
          "type": "uint256"
        },
        {
          "internalType": "uint256",
          "name": "_rating",
          "type": "uint256"
        },
        {
          "internalType": "uint256",
          "name": "_stock",
          "type": "uint256"
        },
        {
          "internalType": "string",
          "name": "_rfidTag",
          "type": "string"
        }
      ],
      "name": "listItem",
      "outputs": [],
      "stateMutability": "nonpayable",
      "type": "function"
    },
    {
      "inputs": [],
      "name": "owner",
      "outputs": [
        {
          "internalType": "address",
          "name": "",
          "type": "address"
        }
      ],
      "stateMutability": "view",
      "type": "function"
    },
    {
      "inputs": [
        {
          "internalType": "uint256",
          "name": "_id",
          "type": "uint256"
        },
        {
          "internalType": "uint256",
          "name": "_stock",
          "type": "uint256"
        }
      ],
      "name": "updateItemStock",
      "outputs": [],
      "stateMutability": "nonpayable",
      "type": "function"
    }
  ],
  "bytecode": "0x6080604052348015600f57600080fd5b50336000806101000a81548173ffffffffffffffffffffffffffffffffffffffff021916908373ffffffffffffffffffffffffffffffffffffffff1602179055506112f58061005f6000396000f3fe608060405234801561001057600080fd5b50600436106100575760003560e01c80633129e7731461005c5780635b67ef941461008c5780638da5cb5b146100a85780639abd434b146100c6578063bfb231d2146100e2575b600080fd5b61007660048036038101906100719190610963565b610119565b6040516100839190610af4565b60405180910390f35b6100a660048036038101906100a19190610b16565b6103b7565b005b6100b061049d565b6040516100bd9190610b97565b60405180910390f35b6100e060048036038101906100db9190610ce7565b6104c1565b005b6100fc60048036038101906100f79190610963565b61066c565b604051610110989796959493929190610e66565b60405180910390f35b6101216108d4565b60016000838152602001908152602001600020604051806101000160405290816000820154815260200160018201805461015a90610f2f565b80601f016020809104026020016040519081016040528092919081815260200182805461018690610f2f565b80156101d35780601f106101a8576101008083540402835291602001916101d3565b820191906000526020600020905b8154815290600101906020018083116101b657829003601f168201915b505050505081526020016002820180546101ec90610f2f565b80601f016020809104026020016040519081016040528092919081815260200182805461021890610f2f565b80156102655780601f1061023a57610100808354040283529160200191610265565b820191906000526020600020905b81548152906001019060200180831161024857829003601f168201915b5050505050815260200160038201805461027e90610f2f565b80601f01602080910402602001604051908101604052809291908181526020018280546102aa90610f2f565b80156102f75780601f106102cc576101008083540402835291602001916102f7565b820191906000526020600020905b8154815290600101906020018083116102da57829003601f168201915b5050505050815260200160048201548152602001600582015481526020016006820154815260200160078201805461032e90610f2f565b80601f016020809104026020016040519081016040528092919081815260200182805461035a90610f2f565b80156103a75780601f1061037c576101008083540402835291602001916103a7565b820191906000526020600020905b81548152906001019060200180831161038a57829003601f168201915b5050505050815250509050919050565b60008054906101000a900473ffffffffffffffffffffffffffffffffffffffff1673ffffffffffffffffffffffffffffffffffffffff163373ffffffffffffffffffffffffffffffffffffffff1614610445576040517f08c379a000000000000000000000000000000000000000000000000000000000815260040161043c90610fac565b60405180910390fd5b8060016000848152602001908152602001600020600601819055507f0d2750b8552c7eecf2b869b31c9464b36cae1caba6b8fab1a53b7e58b6ddea508282604051610491929190610fcc565b60405180910390a15050565b60008054906101000a900473ffffffffffffffffffffffffffffffffffffffff1681565b60008054906101000a900473ffffffffffffffffffffffffffffffffffffffff1673ffffffffffffffffffffffffffffffffffffffff163373ffffffffffffffffffffffffffffffffffffffff161461054f576040517f08c379a000000000000000000000000000000000000000000000000000000000815260040161054690610fac565b60405180910390fd5b60006040518061010001604052808a815260200189815260200188815260200187815260200186815260200185815260200184815260200183815250905080600160008b81526020019081526020016000206000820151816000015560208201518160010190816105c091906111a1565b5060408201518160020190816105d691906111a1565b5060608201518160030190816105ec91906111a1565b506080820151816004015560a0820151816005015560c0820151816006015560e082015181600701908161062091906111a1565b509050507fa5adc50784bf6e37e1400409531ab81ecbbeebf44d0d317d5da8e7a0d2eb3e90898987866040516106599493929190611273565b60405180910390a1505050505050505050565b600160205280600052604060002060009150905080600001549080600101805461069590610f2f565b80601f01602080910402602001604051908101604052809291908181526020018280546106c190610f2f565b801561070e5780601f106106e35761010080835404028352916020019161070e565b820191906000526020600020905b8154815290600101906020018083116106f157829003601f168201915b50505050509080600201805461072390610f2f565b80601f016020809104026020016040519081016040528092919081815260200182805461074f90610f2f565b801561079c5780601f106107715761010080835404028352916020019161079c565b820191906000526020600020905b81548152906001019060200180831161077f57829003601f168201915b5050505050908060030180546107b190610f2f565b80601f01602080910402602001604051908101604052809291908181526020018280546107dd90610f2f565b801561082a5780601f106107ff5761010080835404028352916020019161082a565b820191906000526020600020905b81548152906001019060200180831161080d57829003601f168201915b50505050509080600401549080600501549080600601549080600701805461085190610f2f565b80601f016020809104026020016040519081016040528092919081815260200182805461087d90610f2f565b80156108ca5780601f1061089f576101008083540402835291602001916108ca565b820191906000526020600020905b8154815290600101906020018083116108ad57829003601f168201915b5050505050905088565b60405180610100016040528060008152602001606081526020016060815260200160608152602001600081526020016000815260200160008152602001606081525090565b6000604051905090565b600080fd5b600080fd5b6000819050919050565b6109408161092d565b811461094b57600080fd5b50565b60008135905061095d81610937565b92915050565b60006020828403121561097957610978610923565b5b60006109878482850161094e565b91505092915050565b6109998161092d565b82525050565b600081519050919050565b600082825260208201905092915050565b60005b838110156109d95780820151818401526020810190506109be565b60008484015250505050565b6000601f19601f8301169050919050565b6000610a018261099f565b610a0b81856109aa565b9350610a1b8185602086016109bb565b610a24816109e5565b840191505092915050565b600061010083016000830151610a486000860182610990565b5060208301518482036020860152610a6082826109f6565b91505060408301518482036040860152610a7a82826109f6565b91505060608301518482036060860152610a9482826109f6565b9150506080830151610aa96080860182610990565b5060a0830151610abc60a0860182610990565b5060c0830151610acf60c0860182610990565b5060e083015184820360e0860152610ae782826109f6565b9150508091505092915050565b60006020820190508181036000830152610b0e8184610a2f565b905092915050565b60008060408385031215610b2d57610b2c610923565b5b6000610b3b8582860161094e565b9250506020610b4c8582860161094e565b9150509250929050565b600073ffffffffffffffffffffffffffffffffffffffff82169050919050565b6000610b8182610b56565b9050919050565b610b9181610b76565b82525050565b6000602082019050610bac6000830184610b88565b92915050565b600080fd5b600080fd5b7f4e487b7100000000000000000000000000000000000000000000000000000000600052604160045260246000fd5b610bf4826109e5565b810181811067ffffffffffffffff82111715610c1357610c12610bbc565b5b80604052505050565b6000610c26610919565b9050610c328282610beb565b919050565b600067ffffffffffffffff821115610c5257610c51610bbc565b5b610c5b826109e5565b9050602081019050919050565b82818337600083830152505050565b6000610c8a610c8584610c37565b610c1c565b905082815260208101848484011115610ca657610ca5610bb7565b5b610cb1848285610c68565b509392505050565b600082601f830112610cce57610ccd610bb2565b5b8135610cde848260208601610c77565b91505092915050565b600080600080600080600080610100898b031215610d0857610d07610923565b5b6000610d168b828c0161094e565b985050602089013567ffffffffffffffff811115610d3757610d36610928565b5b610d438b828c01610cb9565b975050604089013567ffffffffffffffff811115610d6457610d63610928565b5b610d708b828c01610cb9565b965050606089013567ffffffffffffffff811115610d9157610d90610928565b5b610d9d8b828c01610cb9565b9550506080610dae8b828c0161094e565b94505060a0610dbf8b828c0161094e565b93505060c0610dd08b828c0161094e565b92505060e089013567ffffffffffffffff811115610df157610df0610928565b5b610dfd8b828c01610cb9565b9150509295985092959890939650565b610e168161092d565b82525050565b600082825260208201905092915050565b6000610e388261099f565b610e428185610e1c565b9350610e528185602086016109bb565b610e5b816109e5565b840191505092915050565b600061010082019050610e7c600083018b610e0d565b8181036020830152610e8e818a610e2d565b90508181036040830152610ea28189610e2d565b90508181036060830152610eb68188610e2d565b9050610ec56080830187610e0d565b610ed260a0830186610e0d565b610edf60c0830185610e0d565b81810360e0830152610ef18184610e2d565b90509998505050505050505050565b7f4e487b7100000000000000000000000000000000000000000000000000000000600052602260045260246000fd5b60006002820490506001821680610f4757607f821691505b602082108103610f5a57610f59610f00565b5b50919050565b7f4e6f7420617574686f72697a6564000000000000000000000000000000000000600082015250565b6000610f96600e83610e1c565b9150610fa182610f60565b602082019050919050565b60006020820190508181036000830152610fc581610f89565b9050919050565b6000604082019050610fe16000830185610e0d565b610fee6020830184610e0d565b9392505050565b60008190508160005260206000209050919050565b60006020601f8301049050919050565b600082821b905092915050565b6000600883026110577fffffffffffffffffffffffffffffffffffffffffffffffffffffffffffffffff8261101a565b611061868361101a565b95508019841693508086168417925050509392505050565b6000819050919050565b600061109e6110996110948461092d565b611079565b61092d565b9050919050565b6000819050919050565b6110b883611083565b6110cc6110c4826110a5565b848454611027565b825550505050565b600090565b6110e16110d4565b6110ec8184846110af565b505050565b5b81811015611110576111056000826110d9565b6001810190506110f2565b5050565b601f8211156111555761112681610ff5565b61112f8461100a565b8101602085101561113e578190505b61115261114a8561100a565b8301826110f1565b50505b505050565b600082821c905092915050565b60006111786000198460080261115a565b1980831691505092915050565b60006111918383611167565b9150826002028217905092915050565b6111aa8261099f565b67ffffffffffffffff8111156111c3576111c2610bbc565b5b6111cd8254610f2f565b6111d8828285611114565b600060209050601f83116001811461120b57600084156111f9578287015190505b6112038582611185565b86555061126b565b601f19841661121986610ff5565b60005b828110156112415784890151825560018201915060208501945060208101905061121c565b8683101561125e578489015161125a601f891682611167565b8355505b6001600288020188555050505b505050505050565b60006080820190506112886000830187610e0d565b818103602083015261129a8186610e2d565b90506112a96040830185610e0d565b6112b66060830184610e0d565b9594505050505056fea2646970667358221220673eae4a26072bb5de5c3b759014b77a9fc2cbbf69826b9b748f53209b1c7fcf64736f6c634300081b0033",
  "linkReferences": {},
  "deployedLinkReferences": {}
}